:100000000C9463000C948B000C948B000C948B006C
:100010000C948B000C948B000C948B000C949F24FC
:100020000C948B000C948B000C948B000C94522538
:100030000C948B000C948B000C948B000C948B0014
:100040000C9455240C948B000C9421250C94FB24C7
:100050000C948B000C948B000C948B000C948B00F4
:100060000C948B000C948B000000000024002700EF
:100070002A000000000023002600290000000008DC
:10008000000201000003040700000000000000005F
:10009000010204081020408001020408102001021F
:1000A0000408102000000000250028002B00040494
:1000B0000404040404040202020202020303030310
:1000C00003030200292611241FBECFEFD8E0DEBFB4
:1000D000CDBF11E0A0E0B1E0E4EFF2E602C0059090
:1000E0000D92AA32B107D9F724E0AAE2B1E001C02B
:1000F0001D92AF3CB207E1F710E0C3E6D0E004C0C8
:100100002197FE010E943C31C236D107C9F70E94F7
:1001100065260C9478310C940000E6E6F3E0A089A3
:10012000B18982E08C93A485B5851C92A685B7859C
:1001300080E18C93108EA489B58986E08C93A28986
:10014000B3898C9180618C93A289B3898C918860EA
:100150008C93A289B3898C9180688C930288F389EF
:10016000E02D80818F7D80830895833081F028F495
:10017000813099F08230A9F008958730A9F0883055
:10018000C9F08430B1F4809180008F7D03C08091EC
:1001900080008F7780938000089584B58F7784BD29
:1001A000089584B58F7DFBCF8091B0008F778093C9
:1001B000B00008958091B0008F7DF9CFCF93DF9389
:1001C000282F30E0F901E458FF4F8491F901E057FE
:1001D000FF4FD491F901E255FF4FC491CC23A1F018
:1001E00081110E94B500EC2FF0E0EE0FFF1FEE58DA
:1001F000FF4FA591B491EC91ED2381E090E009F4DB
:1002000080E0DF91CF91089580E090E0FACF1F93D6
:10021000CF93DF93282F30E0F901E458FF4F84910A
:10022000F901E057FF4FD491F901E255FF4FC49116
:10023000CC23A9F0162F81110E94B500EC2FF0E01D
:10024000EE0FFF1FEC55FF4FA591B4918FB7F894B7
:10025000EC91111108C0D095DE23DC938FBFDF91A4
:10026000CF911F910895DE2BF8CFCF93DF9390E0CD
:10027000FC01E057FF4F249182559F4FFC01849170
:100280008823C9F090E0880F991FFC01E859FF4FBF
:10029000A591B491FC01EC55FF4FC591D49161112A
:1002A0000DC09FB7F8948C91209582238C93888100
:1002B000282328839FBFDF91CF910895623051F4A6
:1002C0009FB7F8943C91822F809583238C93E8818B
:1002D0002E2BEFCF8FB7F894EC912E2B2C938FBF52
:1002E000EACFCF92DF92EF92FF92CF936C01809191
:1002F0000901873049F08F3F09F444C0CF91FF9046
:10030000EF90DF90CF900895E2ECF0E0C491C7FD4C
:10031000F5CF61E087E00E943501F12CE12CCC2380
:10032000D9F0960150E040E0C23009F09AC07A015D
:1003300060E970ED83E090E00E94C130BA01A9014C
:10034000415051096109710993E04F3F5105610521
:10035000710509F00CF4C1C068E478EE81E090E02A
:10036000A70196010E94C130BA01A901415051096B
:100370006109710994E0C111B0C085B5887F8360BF
:1003800085BDB7C087E080930901E2ECF0E0C4913D
:10039000CF3F09F4B3CFC13021F150F0C23009F49E
:1003A0003EC0C7FDABCF61E087E00E943501B9CF09
:1003B00014BC15BC84B5826084BD85B5816085BDE3
:1003C000E5EBF0E0E491F0E0EE0FFF1FEC55FF4F9E
:1003D00085919491E7E9F0E0E491E0935903C0E05E
:1003E00098CF1092800010928100809181008860E7
:1003F0008093810080918100816080938100E5EB92
:10040000F0E0E491F0E0EE0FFF1FEC55FF4F859117
:100410009491E7E9F0E0E491E09358037ACF1092E9
:10042000B0001092B1008091B00082608093B00063
:100430008091B10081608093B100E5EBF0E0E49140
:10044000F0E0EE0FFF1FEC55FF4F859194919093D4
:10045000570380935603E7E9F0E0E491E0935503F6
:1004600058CF60E072E18AE790E00E94C130BA01A3
:10047000A9014150510961097109C130A1F580916B
:100480008100887F81608093810050938900409330
:1004900088008FEF9FEFDC0180935E0390935F03F2
:1004A000A0936003B093610380916F00826080939A
:1004B0006F0024CF4093B3008FEF9FEFDC01809358
:1004C0005A0390935B03A0935C03B0935D03809108
:1004D000700082608093700011CF8091B100887F9E
:1004E000892B8093B100C13081F2C23019F3C11160
:1004F00005CF47BD8FEF9FEFDC01809362039093A0
:100500006303A0936403B093650380916E008260DF
:1005100080936E00F3CE8E50806480937C00809137
:100520007A00806480937A0080917A0086FDFCCF07
:10053000809178009091790008953FB7F894809168
:10054000510390915203A0915303B091540326B5E7
:10055000A89B05C02F3F19F00196A11DB11D3FBFFB
:10056000BA2FA92F982F8827BC01CD01620F711DCA
:10057000811D911D42E0660F771F881F991F4A95C4
:10058000D1F708958F929F92AF92BF92CF92DF9250
:10059000EF92FF926B017C010E949D024B015C0176
:1005A000C114D104E104F104B9F00E949D0268195C
:1005B00079098A099B09683E73408105910580F39A
:1005C00021E0C21AD108E108F10888EE880E83E024
:1005D000981EA11CB11CE4CFFF90EF90DF90CF904C
:1005E000BF90AF909F908F9008952FB7F89460912F
:1005F0004D0370914E0380914F03909150032FBF94
:1006000008959091090189130BC0E2ECF0E0E491A8
:100610009FEF90930901E13049F028F0E23061F05A
:1006200060E00C94070110926E00FACF90916F0079
:100630009D7F90936F00F4CF909170009D7F909379
:10064000700091E09093B0009091B100987F946019
:100650009093B1001092B300E3CFAF92BF92CF92CC
:10066000DF92EF92FF920F931F93CF93DF936C0172
:100670007B018B01040F151FEB015E01AE18BF0853
:10068000C017D10759F06991D601ED91FC91019005
:10069000F081E02DC6010995892B79F7C501DF911D
:1006A000CF911F910F91FF90EF90DF90CF90BF906F
:1006B000AF900895FC01538D448D252F30E0842F99
:1006C00090E0821B930B541710F0CF96089501977A
:1006D0000895FC01918D828D981759F0A28DAE0F6F
:1006E000BF2FB11D5D968C91928D9F5F928F90E090
:1006F00008958FEF9FEF0895FC01918D828D9817DB
:1007000031F0828DE80FF11D858D90E008958FEF17
:100710009FEF08950F931F930E94F50260936E035D
:1007200070936F03809370039093710386E693E058
:100730000E947C0397FF1DC00E94F50200916E038A
:1007400010916F032091700330917103601B710B46
:10075000820B930B00916A0310916B0320916C0341
:1007600030916D036017710782079307F8F28FEFDE
:100770009FEF1F910F910895CF92DF92EF92FF921A
:10078000CF930E948A03FC0197FD4EC08D329105E4
:1007900021F0C0970A9708F040C0C12CD12C7601F7
:1007A000C0E0E130F105D1F0ED32F105D9F1CF0132
:1007B000C0970A9798F4AAE0B0E0A70196010E94BA
:1007C000E0306F01FF0FEE08FF08C60ED71EE81ECF
:1007D000F91E80E3C81AD108E108F10886E693E023
:1007E0000E9469030E948A03FC01C0970A97C8F21D
:1007F000E130F105B1F2CC2341F0F094E094D094D3
:10080000C094C11CD11CE11CF11CC701B601CF91E1
:10081000FF90EF90DF90CF90089586E693E00E94DE
:100820006903AFCFC1E0DACFC12CD12C7601EDCF77
:10083000FC01918D828D981B892F90E0089586E6AA
:1008400093E00E94180421E0892B09F420E0822F14
:10085000089580E090E0892B29F00E941F04811107
:100860000C9400000895FC01A48DA80FB92FB11DB0
:10087000A35EBE4F2C91848D90E001968F739927D3
:10088000848FA689B7892C93A089B1898C918370B4
:1008900080648C93938D848D981306C00288F389AD
:1008A000E02D80818F7D80830895EF92FF920F93DA
:1008B0001F93CF93DF93EC0181E0888F9B8D8C8D0C
:1008C00098131AC0E889F989808185FF15C09FB700
:1008D000F894EE89FF896083E889F98980818370C3
:1008E000806480839FBF81E090E0DF91CF911F9172
:1008F0000F91FF90EF900895F62E0B8D10E00F5F93
:100900001F4F0F731127E02E8C8D8E110CC00FB668
:1009100007FCFACFE889F989808185FFF5CFCE0100
:100920000E943304F1CFEB8DEC0FFD2FF11DE35E40
:10093000FE4FF0829FB7F8940B8FEA89FB89808184
:100940008062CFCFCF93DF93EC01888D8823B9F0FD
:10095000AA89BB89E889F9898C9185FD03C08081CA
:1009600086FD0DC00FB607FCF7CF8C9185FFF2CF47
:10097000808185FFEDCFCE010E943304E9CFDF9166
:10098000CF910895DC01EC91EC3090F511968C91AB
:10099000119728E830E0281B310987FD3395220F95
:1009A000331F220F331F6217730784F012968C9146
:1009B00028E532E0281B310987FD3395220F331FCC
:1009C000220F331F621773070CF49B012250310969
:1009D000220F331F4FB7F8948E2F90E0FC01EE0FDB
:1009E000FF1FE80FF91FEA53FD4F328321834FBFEA
:1009F00008951F93CF93DF93EC01162F88818C30DD
:100A000008F04EC061E0812F0E9435018881282FB7
:100A100030E0F901EE0FFF1FE20FF31FEA53FD4F25
:100A20001F736081607C612B608319821A822CE0C5
:100A3000622F0E941C31829FB001112430E020E01F
:100A4000AB01420F531FFA01EE0FFF1FE40FF51F1A
:100A5000EA53FD4F908196FD16C02F5F3F4F2C301B
:100A6000310571F781110FC01092800082E08093F0
:100A700081001092850010928400B19A80916F00DD
:100A8000826080936F00E8818E2F90E0FC01EE0F72
:100A9000FF1FE80FF91FEA53FD4F808180648083B8
:100AA0008881DF91CF911F91089589E00E94DE0037
:100AB000892B41F487E00E94010360E087E00E94F7
:100AC0000701F3CF80E293E00E94710164E670E0D9
:100AD00080E090E00E94C20287E00E94010368E586
:100AE00072E080E090E00E94C202F0E0E0E0099451
:100AF000CF92DF92EF92FF92CF93DF9389E00E9433
:100B0000DE00EC01C090ED02D090EE02E090EF022A
:100B1000F090F0028091EA02882301F10E94F50230
:100B20006C197D098E099F0964367105810591054F
:100B3000C8F11092EA020E94F5026093ED027093F0
:100B4000EE028093EF029093F00287E0DF91CF9165
:100B5000FF90EF90DF90CF900C9401030E94F5027C
:100B60006C197D098E099F096438734081059105D0
:100B7000C8F081E08093EA020E94F5026093ED02E2
:100B80007093EE028093EF029093F002CD2B51F020
:100B900084E893E0DF91CF91FF90EF90DF90CF90CA
:100BA0000C947101DF91CF91FF90EF90DF90CF9087
:100BB0000895FC0101900020E9F73197AF01481B2F
:100BC000590BBC0186E693E00C942D038F929F9203
:100BD000AF92BF920F931F93CF93DF93CDB7DEB742
:100BE000A1970FB6F894DEBF0FBECDBF19A2423059
:100BF00008F44AE08E010F5D1F4F842E912CB12C1A
:100C0000A12CA50194010E94EB30E62FB901CA0185
:100C1000EA30F4F4E05DD801EE938D01232B242B10
:100C2000252B79F790E080E0109719F0CD010E9414
:100C3000D905A1960FB6F894DEBF0FBECDBFDF91E8
:100C4000CF911F910F91BF90AF909F908F9008957B
:100C5000E95CE1CFCF93DF930E94D905EC018CE1F1
:100C600091E00E94D9058C0F9D1FDF91CF910895CF
:100C70000C94D905682F70E090E080E04AE00C9475
:100C8000E605CF92DF92EF92FF92CF93DF936C0154
:100C9000990FEE08FF08F7FE19C06DE286E693E0B3
:100CA0000E945504EC0166277727CB016C197D095A
:100CB0008E099F094AE00E94E6058C0F9D1FDF9177
:100CC000CF91FF90EF90DF90CF9008954AE0C70159
:100CD000B601DF91CF91FF90EF90DF90CF900C9411
:100CE000E605BC0190E080E04AE00C94E6051F9325
:100CF000CF93DF93EC01162F0E94AB30181739F019
:100D0000612FCE01DF91CF911F910C94B330DF9111
:100D1000CF911F9108951F93CF93DF93EC01162F6E
:100D2000672F0E947706612FCE010196DF91CF9148
:100D30001F910C9477060C94AB30CF92DF92EF9218
:100D4000FF920F931F9362E370E080E090E00E94B7
:100D5000C20280914603811103C081E080930401A7
:100D600060916F01709170018CEC94E00E94C2045C
:100D7000609171017091720189EC94E00E94C2044B
:100D800060916D0170916E0186EC94E00E94C20446
:100D900060E08BE00E94070160E08DE00E940701A7
:100DA00060E087E00E94070164E670E080E090E088
:100DB0000E94C20287E00E94010368EE73E080E0B7
:100DC00090E00E94C2020E94F50200910001109181
:100DD00001012091020130910301601B710B820B14
:100DE000930B609346017093470180934801909361
:100DF000490160E08BE00E94070160E08DE00E9405
:100E0000070189E00E94DE00019721F40E94F502AB
:100E10006B017C018EE190E00E949B066091AC0228
:100E2000861721F08EE190E00E9477068091040100
:100E30008823E9F10E94F5026C197D098E099F094A
:100E4000683B7B408105910590F589E00E94DE00BA
:100E5000019721F40E94F5026B017C0161E087E0BB
:100E60000E94070164EF71E080E090E00E94C202FE
:100E700060E087E00E94070168EC70E080E090E0AD
:100E80000E94C20261E087E00E94070164E670E010
:100E900080E090E00E94C20260E087E00E940701CB
:100EA00060E273E080E090E00E94C202BFCF1F9139
:100EB0000F91FF90EF90DF90CF900C9455050F931A
:100EC0001F93CF938C010E949B06C82FC8010196E7
:100ED0000E949B062C2F30E0322F2227820F932F67
:100EE000911DCF911F910F9108954F925F926F9234
:100EF0007F928F929F92AF92BF92CF92DF92EF92AA
:100F0000FF920F931F93CF93DF93CDB7DEB7629716
:100F10000FB6F894DEBF0FBECDBF82E10E94DE00A7
:100F20004C0182E490E00E949B06C82E80936801E9
:100F300083E490E00E949B06F82E80934F0184E4A6
:100F400090E00E949B068D8380934E0185E490E0A3
:100F50000E949B06082F80934D0186E490E00E943A
:100F60009B06898380934C0187E490E00E949B0656
:100F7000182F80934B0188E490E00E949B06809399
:100F80004A0129EF2F1518F49CE390934F010A3F73
:100F900018F09CE390934D011A3F18F09CE3909356
:100FA0004B010D810A3F18F090EF90934E0119818B
:100FB0001A3F18F090EF90934C018A3F18F080EFA1
:100FC00080934A018AEC90E00E949B06E82EF12C67
:100FD000F0924203E092410388EC90E00E949B066D
:100FE000A82EB12CB092F402A092F3028CEC90E007
:100FF0000E949B0690E090934803809347038DECFA
:1010000090E00E949B06898B80936B018EEC90E0B0
:101010000E949B068A8B80936A018FEC90E00E946D
:101020005F07909300038093FF0281ED90E00E94A0
:101030009B06182F8093690128EE33E0129FC001B0
:10104000139F900D1124909323038093220382ED2C
:1010500090E00E949B0680930B03183C18F085E0FB
:101060008093690128ECA216B10434F087E090E087
:101070009093F4028093F30238ECE316F10424F029
:1010800010924203109241038CEC90E00E949B0668
:10109000883C30F088E290E09093480380934703C7
:1010A0008091470390914803409730F48FE090E09F
:1010B00090934803809347038A94892809F0CAC50E
:1010C00082E090E00E945F0790932C0380932B03B3
:1010D00084E090E00E945F079093C3028093C20275
:1010E00086E090E00E945F079093C1028093C00267
:1010F00088E090E00E945F079093BF028093BE0259
:101100008AE090E00E945F079093BD028093BC024A
:101110008CE090E00E945F079093BB028093BA023C
:101120008EE090E00E945F079093B9028093B8022E
:1011300080E190E00E945F079093B7028093B6022F
:1011400082E190E00E945F079093FC028093FB0293
:1011500084E190E00E949B068093450385E190E046
:101160000E949B068093B50286E190E00E949B0658
:101170008093B40287E190E00E949B068093B302C3
:1011800088E190E00E949B068093B20289E190E0A2
:101190000E949B068093B1028AE190E00E949B0628
:1011A0008093B0028BE190E00E949B068093AF0297
:1011B0008CE190E00E949B068093AE028DE190E06E
:1011C0000E949B068093AD028EE190E00E949B06F8
:1011D0008093AC028FE190E00E949B068093AB026B
:1011E00080E290E00E949B068093AA0281E290E058
:1011F0000E949B068093A90282E290E00E949B06D7
:101200008093A80283E290E00E949B068093A7024D
:1012100084E290E00E949B068093A60285E290E023
:101220000E949B068093A50286E290E00E949B06A6
:101230008093A40287E290E00E949B068093A30221
:1012400088E290E00E949B068093A20289E290E0EF
:101250000E949B068093A1028AE290E00E949B0676
:101260008093A0028BE290E00E949B0680939F02F5
:101270008CE290E00E949B0680939E028DE290E0BB
:101280000E949B0680939D028EE290E00E949B0646
:1012900080939C028FE290E00E949B0680939B02C9
:1012A00080E390E00E949B0680939A0281E390E0A5
:1012B0000E949B068093990282E390E00E949B0625
:1012C0008093980283E390E00E949B0680939702AC
:1012D00084E390E00E949B068093960285E390E071
:1012E0000E949B068093950286E390E00E949B06F5
:1012F0008093940287E390E00E949B068093930280
:1013000088E390E00E945F0790932103809320037D
:101310008AE390E00E949B06809392028BE390E028
:101320000E949B06809391028CE390E00E949B06B2
:10133000809390028DE390E00E945F0790931903E1
:10134000809318038FE390E00E949B0680938F02A6
:1013500080E490E00E949B0680938E0281E490E0FE
:101360000E949B0680938D028091FB029091FC026B
:101370004AE0489F9001499F300D1124A4E6B0E057
:101380000E940D316093000170930101809302016E
:101390009093030120914F01249F90011124C901D2
:1013A000330FAA0BBB0B89839A83AB83BC838093D7
:1013B000640190936501A0936601B09367018090EA
:1013C0004E01849E40011124092C000CAA08BB0880
:1013D0008092600190926101A0926201B0926301DB
:1013E00040904D01449E20011124052C000C6608FC
:1013F000770840925C0150925D0160925E017092AC
:101400005F0180914C01849FC00111248C01990FD0
:10141000220B330B09871A872B873C8700935801CF
:101420001093590120935A0130935B0120914B0195
:10143000249F90011124C901330FAA0BBB0B8D838C
:101440009E83AF83B8878093540190935501A093F6
:101450005601B093570180914A01849FA001112445
:101460008A01550F220B330B0D871E872F87388B70
:101470000093500110935101209352013093530176
:10148000D12CF12CE12C09811A812B813C81801A0D
:10149000910AA20AB30AA0914503B0E0A501940104
:1014A0000E94E030A70196010E94C13089819A8193
:1014B000AB81BC81280F391F4A1F5B1F30933E034D
:1014C00020933D03A091B502B0E0A50194010E94D4
:1014D000E030A70196010E94C13089819A81AB81D9
:1014E000BC81280F391F4A1F5B1F309328032093AC
:1014F0002703A091B402B0E0A50194010E94E0305E
:10150000A70196010E94C13089819A81AB81BC817B
:10151000280F391F4A1F5B1F30931F0320931E03A0
:10152000A0919202B0E0A50194010E94E030A701D1
:1015300096010E94C13089819A81AB81BC81280FBC
:10154000391F4A1F5B1F3093170320931603A09186
:101550008F02B0E0A50194010E94E030A70196013E
:101560000E94C13089819A81AB81BC81280F391FCB
:101570004A1F5B1F30930F0320930E03A091B30209
:10158000B0E0A50194010E94E030A70196010E94FD
:10159000C13089819A81AB81BC81280F391F4A1FD4
:1015A0005B1F30939A0120939901A091B202B0E0A1
:1015B000A50194010E94E030A70196010E94C1306C
:1015C00089819A81AB81BC81280F391F4A1F5B1F1B
:1015D0003093940120939301A091B102B0E0A50152
:1015E00094010E94E030A70196010E94C1308981D8
:1015F0009A81AB81BC81280F391F4A1F5B1F309332
:101600008E0120938D01A091B002B0E0A50194015C
:101610000E94E030A70196010E94C13089819A8121
:10162000AB81BC81280F391F4A1F5B1F3093880193
:1016300020938701A091AF02B0E0A50194010E9420
:10164000E030A70196010E94C13089819A81AB8167
:10165000BC81280F391F4A1F5B1F309382012093E2
:101660008101A091AE02B0E0A50194010E94E0309A
:10167000A70196010E94C13089819A81AB81BC810A
:10168000280F391F4A1F5B1F30937C0120937B0179
:10169000A091AD02B0E0A50194010E94E030A70145
:1016A00096010E94C13089819A81AB81BC81280F4B
:1016B000391F4A1F5B1F3093760120937501A0915B
:1016C000AC02B0E0A50194010E94E030A7019601B0
:1016D0000E94C13089819A81AB81BC81280F391F5A
:1016E0004A1F5B1F30933A0320933903A091AB024A
:1016F000B0E0A50194010E94E030A70196010E948C
:10170000C13089819A81AB81BC81280F391F4A1F62
:101710005B1F3093700120936F0189849A84AB849E
:10172000BC8484189508A608B708A091AA02B0E066
:10173000A50194010E94E030A70196010E94C130EA
:10174000240D351D461D571D3093400320933F0344
:10175000A091A902B0E0A50194010E94E030A70188
:1017600096010E94C130240D351D461D571D309332
:101770002A0320932903A091A802B0E0A5019401B7
:101780000E94E030A70196010E94C130240D351D52
:10179000461D571D30931D0320931C03A0919102F9
:1017A000B0E0A50194010E94E030A70196010E94DB
:1017B000C130240D351D461D571D30931503209350
:1017C0001403A0918E02B0E0A50194010E94E030C4
:1017D000A70196010E94C130240D351D461D571DDD
:1017E0003093110320931003A091A702B0E0A5014C
:1017F00094010E94E030A70196010E94C130240D9F
:10180000351D461D571D30939C0120939B01A091CF
:10181000A602B0E0A50194010E94E030A701960164
:101820000E94C130240D351D461D571D3093960171
:1018300020939501A091A502B0E0A50194010E941A
:10184000E030A70196010E94C130240D351D461DD0
:10185000571D3093900120938F01A091A402B0E016
:10186000A50194010E94E030A70196010E94C130B9
:10187000240D351D461D571D30938A012093890183
:10188000A091A302B0E0A50194010E94E030A7015D
:1018900096010E94C130240D351D461D571D309301
:1018A000840120938301A091A202B0E0A5019401DC
:1018B0000E94E030A70196010E94C130240D351D21
:1018C000461D571D30937E0120937D01A091A102FA
:1018D000B0E0A50194010E94E030A70196010E94AA
:1018E000C130240D351D461D571D309378012093BE
:1018F0007701A091A002B0E0A50194010E94E03020
:10190000A70196010E94C130240D351D461D571DAB
:101910003093380320933703A0919F02B0E0A501D4
:1019200094010E94E030A70196010E94C130420E4E
:10193000531E641E751E50927201409271018D8477
:101940009E84AF84B8880D811E812F813885801ACE
:10195000910AA20AB30AA0919E02B0E0A5019401E7
:101960000E94E030A70196010E94C1308D819E81C6
:10197000AF81B885280F391F4A1F5B1F30933C0386
:1019800020933B03A0919D02B0E0A50194010E9429
:10199000E030A70196010E94C1308D819E81AF8108
:1019A000B885280F391F4A1F5B1F309326032093E9
:1019B0002503A0919C02B0E0A50194010E94E030B3
:1019C000A70196010E94C1308D819E81AF81B885AB
:1019D000280F391F4A1F5B1F30931B0320931A03E4
:1019E000A0919002B0E0A50194010E94E030A7010F
:1019F00096010E94C1308D819E81AF81B885280FEC
:101A0000391F4A1F5B1F3093130320931203A091C9
:101A10008D02B0E0A50194010E94E030A70196017B
:101A20000E94C1308D819E81AF81B885280F391FFA
:101A30004A1F5B1F30930D0320930C03A0919B0260
:101A4000B0E0A50194010E94E030A70196010E9438
:101A5000C1308D819E81AF81B885280F391F4A1F03
:101A60005B1F3093980120939701A0919A02B0E0F8
:101A7000A50194010E94E030A70196010E94C130A7
:101A80008D819E81AF81B885280F391F4A1F5B1F4A
:101A90003093920120939101A0919902B0E0A501A9
:101AA00094010E94E030A70196010E94C1308D810F
:101AB0009E81AF81B885280F391F4A1F5B1F309365
:101AC0008C0120938B01A0919802B0E0A5019401B4
:101AD0000E94E030A70196010E94C1308D819E8155
:101AE000AF81B885280F391F4A1F5B1F30938601CD
:101AF00020938501A0919702B0E0A50194010E9476
:101B0000E030A70196010E94C1308D819E81AF8196
:101B1000B885280F391F4A1F5B1F3093800120931F
:101B20007F01A0919602B0E0A50194010E94E030EF
:101B3000A70196010E94C1308D819E81AF81B88539
:101B4000280F391F4A1F5B1F30937A0120937901B8
:101B5000A0919502B0E0A50194010E94E030A70198
:101B600096010E94C1308D819E81AF81B885280F7A
:101B7000391F4A1F5B1F3093740120937301A0919A
:101B80009402B0E0A50194010E94E030A701960103
:101B90000E94C1308D819E81AF81B885280F391F89
:101BA0004A1F5B1F3093360320933503A0919302A5
:101BB000B0E0A50194010E94E030A70196010E94C7
:101BC000C1308D819E81AF81B885280F391F4A1F92
:101BD0005B1F30936E0120936D010989202F30E047
:101BE000A0EBB4E00E940D31A70196010E94C13024
:101BF0002C573C4F4F4F5F4F3093FE022093FD0216
:101C00001A89212F30E0A0EBB4E00E940D31A7012A
:101C100096010E94C1302C573C4F4F4F5F4F30937D
:101C200002032093010362960FB6F894DEBF0FBE45
:101C3000CDBFDF91CF911F910F91FF90EF90DF907B
:101C4000CF90BF90AF909F908F907F906F905F905C
:101C50004F90089586E690E00E945F0790932C03D2
:101C600080932B0388E690E00E945F079093C30265
:101C70008093C2028AE690E00E945F079093C102BF
:101C80008093C0028CE690E00E945F079093BF02B1
:101C90008093BE028EE690E00E945F079093BD02A3
:101CA0008093BC0280E790E00E945F079093BB02A4
:101CB0008093BA0282E790E00E945F079093B90296
:101CC0008093B80284E790E00E945F079093B70288
:101CD0008093B60286E790E00E945F07833091050B
:101CE00008F40DC19093FC028093FB0288E790E01A
:101CF0000E949B068093450389E790E00E949B0623
:101D00008093B5028AE790E00E949B068093B4021C
:101D10008BE790E00E949B068093B3028CE790E0F3
:101D20000E949B068093B2028DE790E00E949B0682
:101D30008093B1028EE790E00E949B068093B002F0
:101D40008FE790E00E949B068093AF0280E890E0CE
:101D50000E949B068093AE0281E890E00E949B0661
:101D60008093AD0282E890E00E949B068093AC02D3
:101D700083E890E00E949B068093AB0284E890E0A9
:101D80000E949B068093AA0285E890E00E949B0631
:101D90008093A90286E890E00E949B068093A802A7
:101DA00087E890E00E949B068093A70288E890E075
:101DB0000E949B068093A60289E890E00E949B0601
:101DC0008093A5028AE890E00E949B068093A4027B
:101DD0008BE890E00E949B068093A3028CE890E041
:101DE0000E949B068093A2028DE890E00E949B06D1
:101DF0008093A1028EE890E00E949B068093A0024F
:101E00008FE890E00E949B0680939F0280E990E01B
:101E10000E949B0680939E0281E990E00E949B06AF
:101E200080939D0282E990E00E949B0680939C0231
:101E300083E990E00E949B0680939B0284E990E0F6
:101E40000E949B0680939A0285E990E00E949B067F
:101E50008093990286E990E00E949B068093980205
:101E600087E990E00E949B068093970288E990E0C2
:101E70000E949B068093960289E990E00E949B064F
:101E8000809395028AE990E00E949B0680939402D9
:101E90008BE990E00E949B06809393028CE990E08E
:101EA0000E945F0790932103809320038EE990E0C6
:101EB0000E949B06809392028FE990E00E949B060D
:101EC0008093910280EA90E00E949B0680939002AA
:101ED00081EA90E00E945F079093190380931803B2
:101EE00083EA90E00E949B0680938F0284EA90E050
:101EF0000E949B0680938E0285EA90E031CA82E0C0
:101F000090E0F0CE4F925F926F927F928F929F926D
:101F1000AF92BF92CF92DF92EF92FF92CF93DF9377
:101F2000CDB7DEB761970FB6F894DEBF0FBECDBF59
:101F300068EC70E080E090E00E94C2028FE191E0E6
:101F40000E94380681E291E00E9438068091680183
:101F50000E943A0681E291E00E9438066091640195
:101F60007091650180916601909167014AE00E943D
:101F7000E60581E291E00E9438066091600170916F
:101F8000610180916201909163014AE00E94E6053F
:101F900081E291E00E94380660915C0170915D01E0
:101FA00080915E0190915F014AE00E94E60581E226
:101FB00091E00E943806609158017091590180911A
:101FC0005A0190915B014AE00E94E60581E291E0AE
:101FD0000E9438066091540170915501809156011C
:101FE000909157014AE00E94E60581E291E00E944B
:101FF0003806609150017091510180915201909189
:1020000053014AE00E94E60581E291E00E942A061F
:1020100086E693E00E941804181619060CF0FDC01D
:102020006AE070E080E090E00E94C20286E693E001
:102030000E946903883709F013C184E893E00E9485
:1020400071010E94BC03698B60939D0170939E0196
:1020500080939F019093A0010E94BC032B013C013F
:102060004092A1015092A2016092A3017092A4013A
:102070000E94BC034B015C018092A5019092A601D5
:10208000A092A701B092A8010E94BC0369837A8341
:102090008B839C836093A9017093AA018093AB0109
:1020A0009093AC010E94BC036D837E838F839887DD
:1020B0006093AD017093AE018093AF019093B00136
:1020C0000E94BC0369877A878B879C876093B101E4
:1020D0007093B2018093B3019093B4010E94BC034A
:1020E0006D877E878F87988B6093B5017093B6015B
:1020F0008093B7019093B8010E94BC036093B9012B
:102100007093BA018093BB019093BC0187E00E9459
:10211000010386E693E00E941804181619062CF4B1
:1021200086E693E00E946903F4CF29892093680131
:102130008AE0C82ED12CE12CF12CC301B201A701F9
:1021400096010E94C13020934F01C501B401A7013F
:1021500096010E94C13020934E0169817A818B8162
:102160009C81A70196010E94C13020934D016D8191
:102170007E818F819885A70196010E94C1302093AE
:102180004C0169857A858B859C85A70196010E9403
:10219000C13020934B016D857E858F859889A7017D
:1021A00096010E94C13020934A01698982E490E03F
:1021B0000E94770660914F0183E490E00E947706C9
:1021C00060914E0184E490E00E94770660914D0199
:1021D00085E490E00E94770660914C0186E490E0EF
:1021E0000E94770660914B0187E490E00E94770699
:1021F00060914A0188E490E00E9477060E9475078A
:102200008CED95E00E94710166E970E080E090E05D
:102210000E94C20287E00E94010380916C0181113B
:1022200002C00E94820F89E00E94DE00892B19F40F
:1022300081E080936C0161960FB6F894DEBF0FBE0B
:10224000CDBFDF91CF91FF90EF90DF90CF90BF9007
:10225000AF909F908F907F906F905F904F90089578
:10226000823789F484E893E00E94710168EC70E0A1
:1022700080E090E00E94C20287E00E94010381E0BA
:1022800080936C01CACF853741F684E893E00E94C1
:1022900071010E94BC032B013C0140929D015092B0
:1022A0009E0160929F017092A0010E94BC034B01AD
:1022B0005C018092A1019092A201A092A301B09230
:1022C000A4010E94BC036B017C01C092A501D092C5
:1022D000A601E092A701F092A80187E00E94010305
:1022E00086E693E00E941804181619062CF486E678
:1022F00093E00E946903F4CFB2018CEC94E00E9459
:10230000C204B40189EC94E00E94C204B60186ECD8
:1023100094E00E94C20481CF2F923F924F925F922D
:102320006F927F928F929F92AF92BF92CF92DF92E5
:10233000EF92FF920F931F93CF93DF93CDB7DEB74A
:10234000C854D1090FB6F894DEBF0FBECDBF64E606
:1023500070E080E090E00E94C20282E10E94DE0014
:102360009A83898383E291E00E94380681E291E0BA
:102370000E94380680912B0390912C030E947106D5
:1023800081E291E00E9438068091C2029091C302DE
:102390000E94710681E291E00E9438068091C0029D
:1023A0009091C1020E94710681E291E00E9438067C
:1023B0008091BE029091BF020E94710681E291E07D
:1023C0000E9438068091BC029091BD020E94710665
:1023D00081E291E00E9438068091BA029091BB029E
:1023E0000E94710681E291E00E9438068091B80255
:1023F0009091B9020E94710681E291E00E94380634
:102400008091B6029091B7020E94710681E291E03C
:102410000E9438068091FB029091FC020E94710696
:1024200081E291E00E943806809145030E943A06BD
:1024300081E291E00E9438068091B5020E943A063E
:1024400081E291E00E9438068091B4020E943A062F
:1024500081E291E00E9438068091B3020E943A0620
:1024600081E291E00E9438068091B2020E943A0611
:1024700081E291E00E9438068091B1020E943A0602
:1024800081E291E00E9438068091B0020E943A06F3
:1024900081E291E00E9438068091AF020E943A06E4
:1024A00081E291E00E9438068091AE020E943A06D5
:1024B00081E291E00E9438068091AD020E943A06C6
:1024C00081E291E00E9438068091AC020E943A06B7
:1024D00081E291E00E9438068091AB020E943A06A8
:1024E00081E291E00E9438068091AA020E943A0699
:1024F00081E291E00E9438068091A9020E943A068A
:1025000081E291E00E9438068091A8020E943A067A
:1025100081E291E00E9438068091A7020E943A066B
:1025200081E291E00E9438068091A6020E943A065C
:1025300081E291E00E9438068091A5020E943A064D
:1025400081E291E00E9438068091A4020E943A063E
:1025500081E291E00E9438068091A3020E943A062F
:1025600081E291E00E9438068091A2020E943A0620
:1025700081E291E00E9438068091A1020E943A0611
:1025800081E291E00E9438068091A0020E943A0602
:1025900081E291E00E94380680919F020E943A06F3
:1025A00081E291E00E94380680919E020E943A06E4
:1025B00081E291E00E94380680919D020E943A06D5
:1025C00081E291E00E94380680919C020E943A06C6
:1025D00081E291E00E94380680919B020E943A06B7
:1025E00081E291E00E94380680919A020E943A06A8
:1025F00081E291E00E943806809199020E943A0699
:1026000081E291E00E943806809198020E943A0689
:1026100081E291E00E943806809197020E943A067A
:1026200081E291E00E943806809196020E943A066B
:1026300081E291E00E943806809195020E943A065C
:1026400081E291E00E943806809194020E943A064D
:1026500081E291E00E943806809193020E943A063E
:1026600081E291E00E94380680912003909121033D
:102670000E94710681E291E00E94380680919202E8
:102680000E943A0681E291E00E9438068091910210
:102690000E943A0681E291E00E9438068091900201
:1026A0000E943A0681E291E00E9438068091F10290
:1026B0009091F2020E94410681E291E00E94380668
:1026C00080911803909119030E94710681E291E0B4
:1026D0000E94380680918F020E943A0681E291E0C2
:1026E0000E94380680918E020E943A0681E291E0B3
:1026F0000E94380680918D020E943A0681E291E0A4
:102700000E942A0686E693E00E941804181619060D
:1027100014F00C94CD1B6AE070E080E090E00E9421
:10272000C20286E693E00E946903843209F014C66F
:1027300084E893E00E9471010E94BC036B017C015C
:10274000C0929D01D0929E01E0929F01F092A00163
:102750000E94BC036B837C838D839E836093A10165
:102760007093A2018093A3019093A4010E94BC03E3
:102770006F83788789879A876093A5017093A601F4
:102780008093A7019093A8010E94BC036B877C876C
:102790008D879E876093A9017093AA018093AB01F6
:1027A0009093AC010E94BC036F87788B898B9A8BC6
:1027B0006093AD017093AE018093AF019093B0012F
:1027C0000E94BC036B8B7C8B8D8B9E8B6093B101C5
:1027D0007093B2018093B3019093B4010E94BC0343
:1027E0006F8B788F898F9A8F6093B5017093B60144
:1027F0008093B7019093B8010E94BC036B8F7C8FCC
:102800008D8F9E8F6093B9017093BA018093BB0145
:102810009093BC010E94BC036F8F78A389A39AA3F5
:102820006093BD017093BE018093BF019093C0017E
:102830000E94BC036BA36093C1017093C20180939B
:10284000C3019093C4010E94BC036CA36093C501B3
:102850007093C6018093C7019093C8010E94BC0386
:102860006DA36093C9017093CA018093CB019093CB
:10287000CC010E94BC036EA36093CD017093CE0186
:102880008093CF019093D0010E94BC036FA360930B
:10289000D1017093D2018093D3019093D4010E940F
:1028A000BC0368A76093D5017093D6018093D701CC
:1028B0009093D8010E94BC0369A76093D9017093DB
:1028C000DA018093DB019093DC010E94BC036AA7CC
:1028D0006093DD017093DE018093DF019093E0014E
:1028E0000E94BC036BA76093E1017093E2018093A7
:1028F000E3019093E4010E94BC036CA76093E5019F
:102900007093E6018093E7019093E8010E94BC0375
:102910006DA76093E9017093EA018093EB019093B6
:10292000EC010E94BC036EA76093ED017093EE0171
:102930008093EF019093F0010E94BC036FA7609316
:10294000F1017093F2018093F3019093F4010E94DE
:10295000BC0368AB6093F5017093F6018093F701B7
:102960009093F8010E94BC0369AB6093F9017093E6
:10297000FA018093FB019093FC010E94BC036AABB7
:102980006093FD017093FE018093FF01909300021C
:102990000E94BC036BAB60930102709302028093B0
:1029A0000302909304020E94BC036CAB6093050287
:1029B0007093060280930702909308020E94BC0362
:1029C0006DAB6093090270930A0280930B0290939F
:1029D0000C020E94BC036EAB60930D0270930E025A
:1029E00080930F02909310020E94BC036FAB609320
:1029F00011027093120280931302909314020E94AA
:102A0000BC0368AF6093150270931602809317029F
:102A1000909318020E94BC0369AF609319027093EF
:102A20001A0280931B0290931C020E94BC036AAF9F
:102A300060931D0270931E0280931F0290932002E8
:102A40000E94BC036BAF60932102709322028093BB
:102A50002302909324020E94BC036CAF6093250272
:102A60007093260280932702909328020E94BC0351
:102A70006DAF6093290270932A0280932B0290938A
:102A80002C020E94BC036EAF60932D0270932E0245
:102A900080932F02909330020E94BC036FAF60932B
:102AA00031027093320280933302909334020E9479
:102AB000BC0321966FAF2197609335027093360265
:102AC00080933702909338020E94BC0322966FAF26
:102AD00022976093390270933A0280933B0290935D
:102AE0003C020E94BC0323966FAF239760933D0284
:102AF00070933E0280933F02909340020E94BC0379
:102B000024966FAF249760934102709342028093A2
:102B10004302909344020E94BC0325966FAF259711
:102B20006093450270934602809347029093480257
:102B30000E94BC0326966FAF26976093490270935C
:102B40004A0280934B0290934C020E94BC0327964A
:102B50006FAF279760934D0270934E0280934F02A0
:102B6000909350020E94BC032B013C014092510201
:102B70005092520260925302709254020E94BC031F
:102B8000262E6093550270935602809357029093BD
:102B900058020E94BC03362E6093590270935A0269
:102BA00080935B0290935C020E94BC03062F6093AB
:102BB0005D0270935E0280935F02909360020E94B8
:102BC000BC034B015C018092610290926202A09270
:102BD0006302B09264020E94BC03162F60936502E8
:102BE0007093660280936702909368020E94BC0310
:102BF00029966FAF29976093690270936A02809358
:102C00006B0290936C020E94BC0328966FAF2897CA
:102C100060936D0270936E0280936F0290937002C6
:102C20006AE070E080E090E00E94C20287E00E94CB
:102C3000010386E693E00E941804181619062CF486
:102C400086E693E00E946903F4CFD0922C03C092F1
:102C50002B032B813C813093C3022093C2028F81CE
:102C600098859093C1028093C002AB85BC85B093D8
:102C7000BF02A093BE02EF85F889F093BD02E093F6
:102C8000BC022B893C893093BB022093BA028F8906
:102C9000988D9093B9028093B802AB8DBC8DB093A0
:102CA000B702A093B602EF8DF8A1F093FC02E09377
:102CB000FB02FBA1F09345032CA12093B5023DA19B
:102CC0003093B4028EA18093B3029FA19093B2027D
:102CD000A8A5A093B102B9A5B093B002EAA5E0936C
:102CE000AF02FBA5F093AE022CA52093AD023DA54B
:102CF0003093AC028EA58093AB029FA59093AA025D
:102D0000A8A9A093A902B9A9B093A802EAA9E0933F
:102D1000A702FBA9F093A6022CA92093A5023DA926
:102D20003093A4028EA98093A3029FA99093A2023C
:102D3000A8ADA093A102B9ADB093A002EAADE09313
:102D40009F02FBADF0939E022CAD20939D023DAD02
:102D500030939C028EAD80939B029FAD90939A021C
:102D60002196AFAD2197A09399022296BFAD2297ED
:102D7000B09398022396EFAD2397E09397022496A1
:102D8000FFAD2497F093960225962FAD25972093BB
:102D9000950226963FAD26973093940227968FADE5
:102DA0002797809393025092210340922003209210
:102DB00092023092910200939002909219038092B5
:102DC000180310938F0229969FAD299790938E0236
:102DD0002896AFAD2897A0938D02E981FA81B601BC
:102DE000319709F06AC182E090E00E948B06609101
:102DF000C2027091C30284E090E00E948B06609151
:102E0000C0027091C10286E090E00E948B06609142
:102E1000BE027091BF0288E090E00E948B06609134
:102E2000BC027091BD028AE090E00E948B06609126
:102E3000BA027091BB028CE090E00E948B06609118
:102E4000B8027091B9028EE090E00E948B0660910A
:102E5000B6027091B70280E190E00E948B0660910B
:102E6000FB027091FC0282E190E00E948B0660916F
:102E7000450384E190E00E9477066091B50285E108
:102E800090E00E9477066091B40286E190E00E9493
:102E900077066091B30287E190E00E947706609127
:102EA000B20288E190E00E9477066091B10289E168
:102EB00090E00E9477066091B0028AE190E00E9463
:102EC00077066091AF028BE190E00E9477066091F7
:102ED000AE028CE190E00E9477066091AD028DE138
:102EE00090E00E9477066091AC028EE190E00E9433
:102EF00077066091AB028FE190E00E9477066091C7
:102F0000AA0280E290E00E9477066091A90281E225
:102F100090E00E9477066091A80282E290E00E9411
:102F200077066091A70283E290E00E9477066091A5
:102F3000A60284E290E00E9477066091A50285E2F5
:102F400090E00E9477066091A40286E290E00E94E1
:102F500077066091A30287E290E00E947706609175
:102F6000A20288E290E00E9477066091A10289E2C5
:102F700090E00E9477066091A0028AE290E00E94B1
:102F8000770660919F028BE290E00E947706609145
:102F90009E028CE290E00E94770660919D028DE295
:102FA00090E00E94770660919C028EE290E00E9481
:102FB000770660919B028FE290E00E947706609115
:102FC0009A0280E390E00E9477066091990281E383
:102FD00090E00E9477066091980282E390E00E9460
:102FE00077066091970283E390E00E9477066091F4
:102FF000960284E390E00E9477066091950285E353
:1030000090E00E9477066091940286E390E00E942F
:1030100077066091930287E390E00E9477066091C3
:1030200020037091210388E390E00E948B06609159
:1030300092028AE390E00E947706609191028BE30E
:1030400090E00E947706609190028CE390E00E94ED
:10305000770660911803709119038DE390E00E9448
:103060008B0660918F028FE390E00E94770660915B
:103070008E0280E490E00E94770660918D0281E4E8
:1030800090E00E9477060E9475078CED95E00E9403
:10309000710168EC70E080E090E00E94C20287E07D
:1030A0000E9401030E94F502609331037093320382
:1030B000809333039093340370C386E690E00E94BC
:1030C0008B066091C2027091C30288E690E00E9474
:1030D0008B066091C0027091C1028AE690E00E9466
:1030E0008B066091BE027091BF028CE690E00E9458
:1030F0008B066091BC027091BD028EE690E00E944A
:103100008B066091BA027091BB0280E790E00E944A
:103110008B066091B8027091B90282E790E00E943C
:103120008B066091B6027091B70284E790E00E942E
:103130008B066091FB027091FC0286E790E00E9492
:103140008B066091450388E790E00E9477066091C6
:10315000B50289E790E00E9477066091B4028AE7A1
:1031600090E00E9477066091B3028BE790E00E94A6
:1031700077066091B2028CE790E00E94770660913A
:10318000B1028DE790E00E9477066091B0028EE771
:1031900090E00E9477066091AF028FE790E00E9476
:1031A00077066091AE0280E890E00E947706609119
:1031B000AD0281E890E00E9477066091AC0282E85F
:1031C00090E00E9477066091AB0283E890E00E9455
:1031D00077066091AA0284E890E00E9477066091E9
:1031E000A90285E890E00E9477066091A80286E82F
:1031F00090E00E9477066091A70287E890E00E9425
:1032000077066091A60288E890E00E9477066091B8
:10321000A50289E890E00E9477066091A4028AE8FE
:1032200090E00E9477066091A3028BE890E00E94F4
:1032300077066091A2028CE890E00E947706609188
:10324000A1028DE890E00E9477066091A0028EE8CE
:1032500090E00E94770660919F028FE890E00E94C4
:10326000770660919E0280E990E00E947706609167
:103270009D0281E990E00E94770660919C0282E9BC
:1032800090E00E94770660919B0283E990E00E94A3
:10329000770660919A0284E990E00E947706609137
:1032A000990285E990E00E9477066091980286E98C
:1032B00090E00E9477066091970287E990E00E9473
:1032C00077066091960288E990E00E947706609107
:1032D000950289E990E00E947706609194028AE95C
:1032E00090E00E947706609193028BE990E00E9443
:1032F000770660912003709121038CE990E00E9491
:103300008B06609192028EE990E00E9477066091B0
:1033100091028FE990E00E9477066091900280EA26
:1033200090E00E947706609118037091190381EA7A
:1033300090E00E948B0660918F0283EA90E00E94E9
:10334000770660918E0284EA90E00E947706609191
:103350008D0285EA90E095CE843709F049C20E943B
:10336000F50260933103709332038093330390939B
:10337000340362E370E080E090E00E94C20284E8DF
:1033800093E00E94710166E970E080E090E00E94A5
:10339000C20287E00E94010368EC70E080E090E0E8
:1033A0000E94C20284E893E00E94710166E970E025
:1033B00080E090E00E94C20287E00E94010368EC76
:1033C00070E080E090E00E94C20284E893E00E94F6
:1033D000710166E970E080E090E00E94C20287E03F
:1033E0000E94010368EC70E080E090E00E94C2025D
:1033F00060E08BE00E94070160913F037091400301
:1034000089EC94E00E94C20460913D0370913E03F8
:103410008CEC94E00E94C20460913B0370913C03E9
:1034200086EC94E00E94C204609101037091020353
:1034300083EC94E00E94C20468EE73E080E090E0C8
:103440000E94C20284E893E00E9471016AE070E089
:1034500080E090E00E94C20287E00E94010360E0E9
:103460008BE00E9407016091290370912A0389EC87
:1034700094E00E94C20460912703709128038CECB1
:1034800094E00E94C204609125037091260386ECAB
:1034900094E00E94C20464EF71E080E090E00E943A
:1034A000C20260912B0370912C0390E080E00E9497
:1034B000C20260911C0370911D0389EC94E00E948C
:1034C000C20460911E0370911F038CEC94E00E9473
:1034D000C20460911A0370911B0386EC94E00E9471
:1034E000C2046091FD027091FE0283EC94E00E94A0
:1034F000C20460E08BE00E94070161E087E00E9467
:103500000701609120037091210390E080E00E9408
:10351000C202609114037091150389EC94E00E943B
:10352000C20460911603709117038CEC94E00E9422
:10353000C204609112037091130386EC94E00E9420
:10354000C204609118037091190390E080E00E941A
:10355000C202609110037091110389EC94E00E9403
:10356000C20460910E0370910F038CEC94E00E94F2
:10357000C20460910C0370910D0386EC94E00E94EC
:10358000C2046AE070E080E090E00E94C20281E044
:10359000809324031092460380934B030E948A2158
:1035A00084E893E00E9471016AE070E080E090E0BE
:1035B0000E94C20287E00E9401036091390370916A
:1035C0003A038CEC94E00E94C2046091370370913E
:1035D000380389EC94E00E94C20460913503709135
:1035E000360386EC94E00E94C20461E08DE00E9404
:1035F000070161E08BE00E94070166E970E080E06E
:1036000090E00E94C20260E08DE00E94070160E04D
:103610008BE00E94070168EE73E080E090E00E947A
:10362000C20261E08DE00E94070161E08BE00E9430
:10363000070166E970E080E090E00E94C20260E06D
:103640008DE00E94070160E08BE00E94070168EEB8
:1036500073E080E090E00E94C20261E08DE00E9491
:10366000070161E08BE00E94070166E970E080E0FD
:1036700090E00E94C20260E08DE00E94070160E0DD
:103680008BE00E94070168EE73E080E090E00E940A
:10369000C20260916F01709170018CEC94E00E9405
:1036A000C204609171017091720189EC94E00E94F2
:1036B000C20460916D0170916E0186EC94E00E94ED
:1036C000C20461E087E00E94070164EF71E080E0DE
:1036D00090E00E94C20260E087E00E94070168EC6F
:1036E00070E080E090E00E94C20261E087E00E940A
:1036F000070164E670E080E090E00E94C20260E0B2
:1037000087E00E94070160E273E080E090E00E94A1
:10371000C20261E087E00E94070164EF71E080E08F
:1037200090E00E94C20260E087E00E94070168EC1E
:1037300070E080E090E00E94C20261E087E00E94B9
:10374000070164E670E080E090E00E94C20260E061
:1037500087E00E94070160E273E080E090E00E9451
:10376000C20260912703709128038CEC94E00E94C0
:10377000C2046091290370912A0389EC94E00E94AD
:10378000C204609125037091260386EC94E00E94A8
:10379000C20460E087E00E9407018091430390919A
:1037A000440329813A818217930711F00E9475071B
:1037B00089819A819093440380934303C85BDF4FD0
:1037C0000FB6F894DEBF0FBECDBFDF91CF911F9132
:1037D0000F91FF90EF90DF90CF90BF90AF909F90B0
:1037E0008F907F906F905F904F903F902F900895B3
:1037F000813661F560913F037091400389EC94E05C
:103800000E94C20460913D0370913E038CEC94E0F1
:103810000E94C20460913B0370913C0386EC94E0EB
:103820000E94C20484E893E00E94710162E370E0A8
:1038300080E090E00E94C20287E00E94010362E300
:1038400070E080E090E00E94C2022CCC8236A9F4A5
:103850006091290370912A0389EC94E00E94C204CC
:1038600060912703709128038CEC94E00E94C204BD
:103870006091250370912603D1CF8336A9F460911E
:103880001C0370911D0389EC94E00E94C2046091B6
:103890001E0370911F038CEC94E00E94C20460919F
:1038A0001A0370911B03BACF843651F560919B01C6
:1038B00070919C0189EC94E00E94C204609199018E
:1038C00070919A018CEC94E00E94C204609197017F
:1038D0007091980186EC94E00E94C20484E893E021
:1038E0000E94710162E370E080E090E00E94C202F9
:1038F00087E00E9401036CE271E080E090E0A3CFDA
:103900008536A9F4609195017091960189EC94E057
:103910000E94C20460919301709194018CEC94E038
:103920000E94C2046091910170919201D3CF8636BA
:10393000A9F460918F017091900189EC94E00E944C
:10394000C20460918D0170918E018CEC94E00E9414
:10395000C20460918B0170918C01BCCF8736A9F4B1
:103960006091890170918A0189EC94E00E94C204FF
:1039700060918701709188018CEC94E00E94C204F0
:103980006091850170918601A5CF8836A9F4609178
:1039900083017091840189EC94E00E94C2046091DB
:1039A0008101709182018CEC94E00E94C2046091CC
:1039B0007F01709180018ECF8936A9F460917D01DD
:1039C00070917E0189EC94E00E94C20460917B01B9
:1039D00070917C018CEC94E00E94C20460917901AA
:1039E00070917A0177CF8A36A9F46091770170914E
:1039F000780189EC94E00E94C20460917501709195
:103A000076018CEC94E00E94C20460917301709185
:103A1000740160CF8B36A9F460913703709138033D
:103A200089EC94E00E94C2046091390370913A03DA
:103A30008CEC94E00E94C2046091350370913603CF
:103A400049CF8C36A9F4609171017091720189ECB3
:103A500094E00E94C20460916F01709170018CEC3F
:103A600094E00E94C20460916D0170916E0132CFAA
:103A70008D3609F0E7C110926C0184E893E00E9452
:103A8000710164E670E080E090E00E94C20287E08D
:103A90000E94010381E10E948B029093F8028093BF
:103AA000F7028F3A91403CF480E10E948B029093A0
:103AB000F8028093F7026091F7027091F802072EE6
:103AC000000C880B990B0E94B22F2AE038E240EAE2
:103AD0005BE30E94ED2F20E030E048EC52E40E94CE
:103AE000ED2F0E9442317093F6026093F50220910F
:103AF000F3023091F402C901860F971F9093F202EE
:103B00008093F10289E00E94DE00892B19F421E004
:103B100020936C0168EC70E080E090E00E94C202AB
:103B200085E291E00E94380681E291E00E94380629
:103B300080914103909142030E94410681E291E00D
:103B40000E9438068091F3029091F4020E9441068F
:103B500081E291E00E9438068091470390914803EA
:103B60000E94710681E291E00E94380689E290E0AD
:103B70000E94410681E291E00E94380680916B012B
:103B80000E943A0681E291E00E94380680916A0123
:103B90000E943A0681E291E00E9438068091FF027D
:103BA000909100030E94710681E291E00E94380624
:103BB0008091F5029091F6020E94410681E291E027
:103BC0000E943806809169010E943A0681E291E0E4
:103BD0000E94380680910B030E943A0681E291E030
:103BE0000E942A0686E693E00E9418041816190619
:103BF0000CF0DBC06AE070E080E090E00E94C2025E
:103C000086E693E00E946903813709F0D4C084E816
:103C100093E00E9471010E94BC031B0160939D010F
:103C200030929E0180939F019093A0010E94BC035B
:103C30002B013C014092A1015092A2016092A3018C
:103C40007092A4010E94BC034B015C018092A5010B
:103C50009092A601A092A701B092A8010E94BC0375
:103C6000062F6093A9017093AA018093AB019093F2
:103C7000AC010E94BC03162F6093AD017093AE019E
:103C80008093AF019093B0010E94BC036B017C0153
:103C9000C092B101D092B201E092B301F092B401AE
:103CA0000E94BC036F836093B5017093B60180934B
:103CB000B7019093B8010E94BC036B836093B90174
:103CC0007093BA018093BB019093BC0168EC70E0E3
:103CD00080E090E00E94C20287E00E94010386E635
:103CE00093E00E941804181619062CF486E693E057
:103CF0000E946903F4CF622D209241033092420367
:103D00005092F4024092F30290924803809247034B
:103D100000936B0110936A01D0920003C092FF02DE
:103D20003F81309369018B8180930B038AEC90E093
:103D30000E9477066091F30288EC90E00E9477067B
:103D4000609147038CEC90E00E94770660916B01D4
:103D50008DEC90E00E94770660916A018EEC90E015
:103D60000E9477066091FF02709100038FEC90E053
:103D70000E948B066091690181ED90E00E947706B8
:103D800060910B0382ED90E00E9477060E94750718
:103D90008CED95E00E94710166E970E080E090E0B2
:103DA0000E94C20287E00E94010380916C01882377
:103DB00009F470CE77C9823789F484E893E00E94D1
:103DC000710168EC70E080E090E00E94C20287E040
:103DD0000E94010391E090936C01E7CF8A3721F4B0
:103DE000F0E0E0E00995E1CF6091FD027091FE0204
:103DF0008F3631F08037C9F660910103709102036C
:103E000083EC94E00E94C20484E893E00E94710174
:103E100064E670E080E090E00E94C20287E00E94C9
:103E200001036CE271E080E090E00E94C2020E9417
:103E3000F5026093310370933203809333039093C0
:103E40003403B3CF8E36A9F4609114037091150337
:103E500089EC94E00E94C2046091160370911703EC
:103E60008CEC94E00E94C2046091120370911303E1
:103E700031CD8F3609F5609110037091110389ECF3
:103E800094E00E94C20460910E0370910F038CECC9
:103E900094E00E94C20460910C0370910D0386ECC3
:103EA00094E00E94C20484E893E00E94710164E6F9
:103EB00070E080E090E01ACD833791F410926C01AD
:103EC00084E893E00E94710164E670E080E090E095
:103ED0000E94C20287E00E9401030E94820F5DCC13
:103EE0008A3709F05ACCF0E0E0E0099556CC109200
:103EF000240381E080934603109204010E94F5029E
:103F000060933103709332038093330390933403AF
:103F100060912703709128038CEC94E00E94C20406
:103F200064E670E080E090E00E94C20260912903A4
:103F300070912A0389EC94E00E94C20464E670E068
:103F400080E090E00E94C2026091250370912603F8
:103F500086EC94E00E94C2046091FD027091FE0222
:103F600083EC94E00E94C20460E087E00E940701B5
:103F700064E670E080E090E00E94C20284EA96E08D
:103F80000E94710164E670E080E090E00E94C2024D
:103F900087E00E94010364E670E080E090E00E9408
:103FA000C20280E293E00E94710164E670E080E06A
:103FB00090E00E94C20287E00E94010389E00E9413
:103FC000DE00892B19F410920401F8CF61E08DE036
:103FD0000E94070164EF71E080E090E00E94C2025D
:103FE00061E08DE00E9407010E94F50260932D03BD
:103FF00070932E0380932F03909330030E948C11B3
:1040000089E00E94DE00892B59F780E293E00E944C
:10401000710164E670E080E090E00E94C20287E0F7
:104020000E94010360E08DE00E94070160E08BE0E8
:104030000E940701609101037091020383EC94E0F8
:104040000C94C2048F929F92AF92BF92EF92FF9214
:104050000F931F93CF93DF93EE24E39482E00E94AB
:10406000DE00EC0189E00E94DE008C018EE00E94FF
:10407000DE002091AC02F0906801892B71F42223BC
:1040800029F0F21618F021502093AC0264E670E09B
:1040900080E090E00E94C202E9CF8FE00E94DE0043
:1040A000A091AC02892B71F4AA2329F0FA1618F01A
:1040B000AF5FA093AC0264E670E080E090E00E9405
:1040C000C202EBCF8090640190906501A0906601E0
:1040D000B0906701209160013091610140916201CF
:1040E00050916301281939094A095B09B0E00E941F
:1040F000E0302F2D30E050E040E00E94C130CA0196
:10410000B901680D791D8A1D9B1D70933A03609358
:1041100039038CEC94E00E94C2040130110551F483
:104120000E94F50260934201709343018093440121
:10413000909345010E94F5020091420110914301C4
:104140002091440130914501601B710B820B930B50
:10415000683873418105910510F00E94771F2197FF
:1041600009F04DC00E94F5020091460110914701EF
:104170002091480130914901601B710B820B930B18
:104180000091000110910101209102013091030181
:10419000061717072807390790F180912403882311
:1041A00071F18090ED029090EE02A090EF02B0903D
:1041B000F0028091EA0281112EC00E94F502681976
:1041C00079098A099B09603D77408105910560F076
:1041D000E092EA020E94F5026093ED027093EE0213
:1041E0008093EF029093F002C091EA026C2F8BE073
:1041F0000E9407016C2F8DE00E94070123C0DF9110
:10420000CF911F910F91FF90EF90BF90AF909F9033
:104210008F900C949D060E94F502681979098A090D
:104220009B09663971058105910560F01092EA02DB
:104230000E94F5026093ED027093EE028093EF020C
:104240009093F0020E94F502009142011091430107
:104250002091440130914501601B710B820B930B3F
:104260006D3D75408105910508F4F8CEDF91CF9141
:104270001F910F91FF90EF90BF90AF909F908F9004
:104280000C94771FCF93C1E089E00E94DE00892B58
:10429000F1F40E94F5026093420170934301809310
:1042A0004401909345010E94F5026093460170938A
:1042B00047018093480190934901C093240382E011
:1042C0000E94DE00892B01F70E949D06DDCF6091E0
:1042D000390370913A038CEC94E00E94C20460911F
:1042E00037037091380389EC94E00E94C204609116
:1042F00035037091360386EC94E00E94C20460910D
:10430000FD027091FE0283EC94E00E94C204CF9102
:104310000C9422200F931F9360E087E00E94070116
:1043200087E00E9401030E94F502609303037093EB
:10433000040380930503909306030E94F502009105
:104340000303109104032091050330910603AB0190
:10435000BC01401B510B620B730B8091C202909108
:10436000C302B0E0A0E084179507A607B70760F185
:1043700080912403882341F182E00E94DE00892B92
:1043800011F40E949D066091990170919A018CEC44
:1043900094E00E94C20460919B0170919C0189ECA1
:1043A00094E00E94C204609197017091980186EC9C
:1043B00094E00E94C2046091FD027091FE0283ECC1
:1043C00094E00E94C204B9CF84E190E00E949B0671
:1043D00060914503861356C084E893E00E94710102
:1043E0006AE070E080E090E00E94C20287E00E94F4
:1043F00001030E94F50260933E0170933F01809398
:104400004001909341010E94F50200913E011091FC
:104410003F012091400130914101AB01BC01401BA3
:10442000510B620B730B8091C0029091C102B0E0FE
:10443000A0E084179507A607B70748F180912403E9
:10444000882329F182E00E94DE00892B11F40E946A
:104450009D0660919301709194018CEC94E00E9410
:10446000C204609195017091960189EC94E00E94DC
:10447000C204609191017091920186EC94E00E94D7
:10448000C204C1CF84E190E00E947706A5CF84E802
:1044900093E00E9471016AE070E080E090E00E9489
:1044A000C20287E00E9401030E94F50260933A0174
:1044B00070933B0180933C0190933D010E94F50273
:1044C00000913A0110913B0120913C0130913D0156
:1044D000AB01BC01401B510B620B730B8091BE0200
:1044E0009091BF02B0E0A0E084179507A607B70738
:1044F00020F180912403882301F182E00E94DE00F4
:10450000892B11F40E949D0660918D0170918E019E
:104510008CEC94E00E94C20460918F017091900134
:1045200089EC94E00E94C20460918B0170918C012F
:1045300086EC94E00E94C204C1CF84E893E00E941C
:1045400071016AE070E080E090E00E94C20287E0C2
:104550000E9401030E94F5026093360170933701B7
:1045600080933801909339010E94F5020091360141
:10457000109137012091380130913901AB01BC0114
:10458000401B510B620B730B8091BC029091BD02DA
:10459000B0E0A0E084179507A607B70720F1809147
:1045A0002403882301F182E00E94DE00892B11F4AC
:1045B0000E949D0660918701709188018CEC94E0C7
:1045C0000E94C2046091890170918A0189EC94E093
:1045D0000E94C204609185017091860186EC94E08E
:1045E0000E94C204C1CF84E893E00E9471016AE096
:1045F00070E080E090E00E94C20287E00E94010328
:104600000E94F5026093320170933301809334016C
:10461000909335010E94F50200913201109133010F
:104620002091340130913501AB01BC01401B510B8D
:10463000620B730B8091BA029091BB02B0E0A0E0D4
:1046400084179507A607B70720F1809124038823D4
:1046500001F182E00E94DE00892B11F40E949D0688
:1046600060918101709182018CEC94E00E94C204FF
:10467000609183017091840189EC94E00E94C204EE
:1046800060917F017091800186EC94E00E94C204E9
:10469000C1CF84E893E00E9471016AE070E080E09D
:1046A00090E00E94C20287E00E9401030E94F5028E
:1046B00060932E0170932F0180933001909331010C
:1046C0000E94F50200912E0110912F0120913001DE
:1046D00030913101AB01BC01401B510B620B730BDC
:1046E0008091B8029091B902B0E0A0E084179507DC
:1046F000A607B70720F180912403882301F182E007
:104700000E94DE00892B11F40E949D0660917B01BE
:1047100070917C018CEC94E00E94C20460917D0158
:1047200070917E0189EC94E00E94C204609179014D
:1047300070917A0186EC94E00E94C204C1CF84E8B3
:1047400093E00E9471016AE070E080E090E00E94D6
:10475000C20287E00E9401030E94F50260932A01D1
:1047600070932B0180932C0190932D010E94F502F0
:1047700000912A0110912B0120912C0130912D01E3
:10478000AB01BC01401B510B620B730B8091B60255
:104790009091B702B0E0A0E084179507A607B7078D
:1047A00020F180912403882301F182E00E94DE0041
:1047B000892B11F40E949D0660917501709176011C
:1047C0008CEC94E00E94C2046091770170917801B2
:1047D00089EC94E00E94C2046091730170917401AD
:1047E00086EC94E00E94C204C1CF84E893E00E946A
:1047F00071016AE070E080E090E00E94C20287E010
:104800000E9401030E94F5026093420170934301EC
:10481000809344019093450180914B03811142C0E4
:1048200082E00E94DE000197C9F560913903709122
:104830003A038CEC94E00E94C204609137037091BB
:10484000380389EC94E00E94C204609135037091B2
:10485000360386EC94E00E94C2040E94F502609345
:1048600042017093430180934401909345010E945B
:10487000F50260934601709347018093480190933D
:10488000490187E00E9401036091450384E190E0C3
:104890000E9477061F910F910C9422201F910F9177
:1048A0000C949D061F910F9108951F920F920FB6C1
:1048B0000F9211242F933F938F939F93AF93BF93A6
:1048C00080914D0390914E03A0914F03B0915003FE
:1048D00030914C0323E0230F2D3758F50196A11D8D
:1048E000B11D20934C0380934D0390934E03A093EE
:1048F0004F03B09350038091510390915203A091C4
:104900005303B09154030196A11DB11D809351032F
:1049100090935203A0935303B0935403BF91AF916C
:104920009F918F913F912F910F900FBE0F901F90ED
:10493000189526E8230F0296A11DB11DD2CF1F9214
:104940000F920FB60F9211242F933F934F935F93C3
:104950006F937F938F939F93AF93BF93EF93FF9347
:1049600080915A0390915B03A0915C03B0915D0329
:10497000892B8A2B8B2BD1F190915503E091560313
:10498000F091570380818927808380915A03909109
:104990005B03A0915C03B0915D03181619061A061B
:1049A0001B069CF480915A0390915B03A0915C03D9
:1049B000B0915D030197A109B10980935A039093C7
:1049C0005B03A0935C03B0935D03FF91EF91BF91F4
:1049D000AF919F918F917F916F915F914F913F9197
:1049E0002F910F900FBE0F901F9018958091090185
:1049F0000E940103EACF1F920F920FB60F9211246B
:104A00002F933F934F935F936F937F938F939F93D6
:104A1000AF93BF93EF93FF9386E693E00E94330436
:104A2000FF91EF91BF91AF919F918F917F916F9186
:104A30005F914F913F912F910F900FBE0F901F905C
:104A400018951F920F920FB60F9211242F938F93E8
:104A50009F93EF93FF93E0917603F091770380812A
:104A6000E0917C03F0917D0382FD1AC090818091DA
:104A70007F038F5F20918003821741F0E0917F03D5
:104A8000F0E0EA59FC4F958F80937F03FF91EF91FF
:104A90009F918F912F910F900FBE0F901F9018959F
:104AA0008081F4CF1F920F920FB60F9211242F9393
:104AB0003F934F935F936F937F938F939F93AF93A6
:104AC000BF93CF93DF93EF93FF938091C402C09184
:104AD000C502D0E087FF24C01092850010928400A8
:104AE0008091C4028F5F8093C4028091C402082E1B
:104AF000000C990B8C179D0724F48091C4028C3014
:104B0000C4F18091840090918500049680349C4982
:104B100008F47AC08091840090918500049676C054
:104B20008091C402082E000C990B8C179D07C4F6C7
:104B3000E091C4028E2FEE0F990BFC01EE0FFF1FC8
:104B4000E80FF91FEA53FD4F808186FFC9CFE0913E
:104B5000C4028E2FEE0F990BFC01EE0FFF1FE80F22
:104B6000F91FEA53FD4F808160E08F730E940701B7
:104B7000B7CF2091840030918500E091C4028E2F40
:104B8000EE0F990BFC01EE0FFF1FE80FF91FEA5320
:104B9000FD4F81819281820F931F909389008093B2
:104BA0008800E091C4028E2FEE0F990BFC01EE0FEE
:104BB000FF1FE80FF91FEA53FD4F808186FF11C0E8
:104BC000E091C4028E2FEE0F990BFC01EE0FFF1F38
:104BD000E80FF91FEA53FD4F808161E08F730E9457
:104BE0000701FF91EF91DF91CF91BF91AF919F911D
:104BF0008F917F916F915F914F913F912F910F9086
:104C00000FBE0F901F90189580E49CE99093890047
:104C1000809388008FEF8093C402E3CFFC019091D2
:104C2000C5029C3098F481E0890F8093C50290837F
:104C3000892F90E0FC01EE0FFF1FE80FF91FEA53E8
:104C4000FD4F88EB9BE09283818308958FEF8083F3
:104C50000895E6E6F3E01382128288EE93E0A0E086
:104C6000B0E084839583A683B7838EE091E091833F
:104C7000808385EC90E09587848784EC90E097872B
:104C8000868780EC90E0918B808B81EC90E0938B19
:104C9000828B82EC90E0958B848B86EC90E0978BF6
:104CA000868B118E128E138E148E8CEC94E00E94E3
:104CB0000E2689EC94E00E940E2686EC94E00E9479
:104CC0000E2683EC94E00C940E26CF93DF9300D055
:104CD00000D0CDB7DEB7789484B5826084BD84B54A
:104CE000816084BD85B5826085BD85B5816085BDE7
:104CF00080916E00816080936E001092810080919F
:104D00008100826080938100809181008160809326
:104D10008100809180008160809380008091B1004B
:104D200084608093B1008091B00081608093B00076
:104D300080917A00846080937A0080917A0082600A
:104D400080937A0080917A00816080937A008091CC
:104D50007A00806880937A001092C10068EC70E05D
:104D600080E090E00E94C2026091270370912803C6
:104D70008CEC94E00E94C2046091290370912A0394
:104D800089EC94E00E94C20460912503709126038F
:104D900086EC94E00E94C20461E087E00E94350145
:104DA00061E08BE00E94350161E08DE00E943501F9
:104DB00062E089E00E94350162E088E00E943501EE
:104DC00062E082E00E94350160E080E10E943501EE
:104DD00060E081E10E94350162E08EE00E943501D1
:104DE00062E08FE00E94350162E082E10E943501BD
:104DF00060E08BE00E94070184E690E00E949B0641
:104E0000893159F061E08DE00E9407010E948D0018
:104E100087E291E00E942A06EFCF82E10E94DE0045
:104E20008130910509F07DC0909344038093430342
:104E30000E94750780914703909148034AE0489F7C
:104E40009001499F300D1124A4E6B0E00E940D317D
:104E50006093050170930601809307019093080108
:104E600011E089E00E94DE00892B09F0BAC00E949F
:104E7000F5026093ED027093EE028093EF0290933F
:104E8000F0021092EC021092EB0261E08BE00E94C3
:104E9000070180ED97E00E94710168EE73E080E009
:104EA00090E00E94C20287E00E94010360E08BE074
:104EB0000E94070189E00E94DE002091EB02309100
:104EC000EC023A832983892B09F059C0C090ED0286
:104ED000D090EE02E090EF02F090F0028091EA02B2
:104EE000882321F10E94F5026C197D098E099F0922
:104EF000683C710581059105E8F21092EA020E9472
:104F0000F5026093ED027093EE028093EF029093AE
:104F1000F00260E08BE00E94070187E00E9401033D
:104F2000C9CF109244031092430382CF0E94F5022E
:104F30006C197D098E099F096C34744081059105B7
:104F400008F4B8CF1093EA020E94F5026093ED02D4
:104F50007093EE028093EF029093F00261E08BE099
:104F60000E9407018CEB92E00E94710149815A81F5
:104F7000445C5F4F5093EC024093EB029BCF6981FE
:104F80007A8182E190E00E948B066091EB02709141
:104F9000EC0286E790E00E948B0668EE73E080E00A
:104FA00090E00E94C20261E08BE00E9407018CEB5E
:104FB00092E00E94710168EE73E080E090E00E9450
:104FC000C20287E00E94010360E08BE00E940701BB
:104FD00068EC70E080E090E00E94C2020E945505FB
:104FE00040CF8091FB029091FC026CE370E00E9444
:104FF00028317093FA026093F9026A30710530F03B
:105000008AE090E09093FA028093F9028CEB92E0B0
:105010000E94710164E670E080E090E00E94C202AC
:1050200087E00E94010364E670E080E090E00E9467
:10503000C2028CED95E00E94710164E670E080E0B0
:1050400090E00E94C20287E00E94010364EF71E0D9
:1050500080E090E00E94C20281E10E948B02909366
:10506000F8028093F7028F3A91403CF480E10E946D
:105070008B029093F8028093F7026091F70270918F
:10508000F802072E000C880B990B0E94B22F2AE021
:1050900038E240EA5BE30E94ED2F20E030E048EC8C
:1050A00052E40E94ED2F0E9442317093F602609309
:1050B000F5022091F3023091F402260F371F3A8354
:1050C00029833093F2022093F1020E948D004981DE
:1050D0005A814F355140B4F589E00E94DE000197B6
:1050E00089F586E693E00E941804892B59F580E241
:1050F00093E00E94710164E670E080E090E00E941D
:10510000C20287E00E94010364E670E080E090E064
:105110000E94C20280E293E00E94710164E670E0A6
:1051200080E090E00E94C20287E00E94010364EFE9
:1051300071E080E090E00E94C20229813A81293C1E
:1051400031052CF663E070E08CEC94E00E94F904E9
:1051500064E070E089EC94E00E94F90465E070E09E
:1051600086EC94E00E94F90466E070E083EC94E041
:105170000E94F90460912703709128038CEC94E05D
:105180000E94C2046091290370912A0389EC94E083
:105190000E94C204609125037091260386EC94E07E
:1051A0000E94C2046091FD027091FE0283EC94E0C3
:1051B0000E94C2041A8219828091F9029091FA0227
:1051C00049815A8148175907CCF48CED95E00E942B
:1051D00071016CE271E080E090E00E94C20287E021
:1051E0000E9401036CE271E080E090E00E94C20244
:1051F00089819A8101969A838983DECF1092460332
:1052000089E00E94DE000197B9F40E94F5026093E4
:105210002D0370932E0380932F03909330030E94ED
:105220008C1182E00E94DE00892B51F791E090936F
:1052300004010E949D06E4CF0E94F50260933103B1
:105240007093320380933303909334030E94F502EA
:1052500060932D0370932E0380932F03909330035C
:1052600010924B0321E030E030934A03209349032E
:1052700089E00E94DE008C0188E00E94DE009A83B3
:10528000898382E10E94DE007C018090050190907C
:105290000601A0900701B090080138EB831A3BE0AB
:1052A000930AA108B10880914703909148034AE00E
:1052B000489F9001499F300D1124A4E6B0E00E9460
:1052C0000D3160930501709306018093070190935F
:1052D0000801109246038EE00E94DE00892B71F4D3
:1052E000809145038150843B10F48093450364E62C
:1052F00070E080E090E00E94C202EDCF8FE00E945B
:10530000DE00892BB1F4809145039FEF980F943B09
:1053100028F48F5F853B49F08093450364E670E095
:1053200080E090E00E94C202E9CF54EB5093450325
:10533000F5CF62E786E693E00E9455048CE191E0A8
:105340000E94D90586E693E00E94180418161906F3
:1053500074F46AE070E080E090E00E94C20286E6A9
:1053600093E00E946903823711F40E94771F8091B5
:10537000430390914403E816F90611F00E94750763
:1053800082E00E94DE00892B21F410924A031092E1
:1053900049038091490390914A03892B29F481E0C4
:1053A000809304010E949D068091410390914203E5
:1053B0008130910509F0D7C101301105F1F529813E
:1053C0003A81232B09F03BC160913F037091400368
:1053D00089EC94E00E94C20460913D0370913E0309
:1053E0008CEC94E00E94C20460913B0370913C03FA
:1053F00086EC94E00E94C2040E94F502C090310342
:10540000D0903203E0903303F09034036C197D099F
:105410008E099F09643671058105910570F00E941F
:10542000F50260932D0370932E0380932F039093C6
:10543000300360E087E00E94070149815A81452BD3
:1054400051F40E94F50260932D0370932E03809314
:105450002F03909330038091490390914A03892B45
:1054600011F40E949D060115110509F0A2C00E94C9
:10547000F50260933103709332038093330390936A
:10548000340360E08BE00E9407010E94F502C090A7
:105490002D03D0902E03E0902F03F0903003209046
:1054A0002B0330902C032101712C612C6C197D0988
:1054B0008E099F094616570668067906C0F0609166
:1054C000290370912A0389EC94E00E94C204609140
:1054D0002703709128038CEC94E00E94C204609131
:1054E00025037091260386EC94E00E94C2040E947A
:1054F000F5026C197D098E099F09641575058605ED
:10550000970508F456C089819A81019709F051C026
:1055100091E0909324030E94F502AB01BC014C1969
:105520005D096E097F098091220390912303B0E009
:10553000A0E084179507A607B70708F4F8C061E054
:1055400087E00E9407010E94F5022091200330911C
:105550002103220E331E2101712C612CAB01BC01F1
:105560004C195D096E097F094416550666067706D3
:1055700008F47AC060911E0370911F038CEC94E0D4
:105580000E94C20460911C0370911D0389EC94E099
:105590000E94C20460911A0370911B0386EC94E090
:1055A0000E94C20482E00E94DE00892B11F40E9456
:1055B0009D060E94F502C0903103D0903203E09026
:1055C0003303F09034036C197D098E099F09681527
:1055D00079058A059B0508F4C3C084E893E00E941E
:1055E00071010E94F5026C197D098E099F09C09016
:1055F0000501D0900601E0900701F09008016C15BC
:105600007D058E059F0528F087E00E9401030E941A
:105610009D0680912403882329F00130110511F49F
:105620000E948A2140E050E0452B09F419CE0E94E7
:105630001F04882309F414CE0E94000011CE60914B
:10564000390370913A038CEC94E00E94C20460919B
:1056500037037091380389EC94E00E94C204609192
:10566000350370913603C4CE0E94F50220911803D1
:1056700030911903220E331E910150E040E029833E
:105680003A834B835C83AB01BC014C195D096E0905
:105690007F09441555056605770528F50E94F50232
:1056A0006C197D098E099F0929813A814B815C81A2
:1056B000621773078407950708F474CF609110038D
:1056C0007091110389EC94E00E94C20460910E0372
:1056D00070910F038CEC94E00E94C20460910C0363
:1056E00070910D035BCF0E94F5026C197D098E0944
:1056F0009F0929813A814B815C812617370748072A
:10570000590760F260911603709117038CEC94E0D6
:105710000E94C204609114037091150389EC94E017
:105720000E94C204609112037091130337CF8091DD
:105730000B0360E081110BC087E00E94070187E046
:105740000E940103109224030E949D062BCF87E044
:105750000E94070187E00E9401030E94422122CF9C
:105760000E9478053ECF009709F0E5C10130110590
:1057700009F03FC049815A814130510509F049C1C2
:1057800060913F037091400389EC94E00E94C20451
:1057900060913D0370913E038CEC94E00E94C20442
:1057A00060913B0370913C0386EC94E00E94C2043C
:1057B0000E94F502C0903103D0903203E090330391
:1057C000F09034036C197D098E099F0964367105C8
:1057D0008105910570F00E94F50260932D0370938E
:1057E0002E0380932F039093300360E087E00E94A4
:1057F000070189819A810197F1F40E94F502609373
:105800002D0370932E0380932F03909330030E94F7
:10581000F50220912B0330912C03AB01BC01420F08
:10582000531F611D711D409307035093080360933C
:10583000090370930A038091490390914A03892BCD
:1058400011F40E949D060115110509F0A2C00E94E5
:10585000F502609331037093320380933303909386
:10586000340360E08BE00E9407010E94F502C090C3
:105870002D03D0902E03E0902F03F0903003209062
:105880002B0330902C032101712C612C6C197D09A4
:105890008E099F094616570668067906C0F0609182
:1058A000290370912A0389EC94E00E94C20460915C
:1058B0002703709128038CEC94E00E94C20460914D
:1058C00025037091260386EC94E00E94C2040E9496
:1058D000F5026C197D098E099F0964157505860509
:1058E000970508F456C029813A81232B09F051C04D
:1058F00031E0309324030E94F502AB01BC014C1946
:105900005D096E097F098091220390912303B0E025
:10591000A0E084179507A607B70708F4F2C061E076
:1059200087E00E9407010E94F50220912003309138
:105930002103220E331E2101712C612CAB01BC010D
:105940004C195D096E097F094416550666067706EF
:1059500008F474C060911E0370911F038CEC94E0F6
:105960000E94C20460911C0370911D0389EC94E0B5
:105970000E94C20460911A0370911B0386EC94E0AC
:105980000E94C20482E00E94DE00892B11F40E9472
:105990009D060E94F502C0903103D0903203E09042
:1059A0003303F09034036C197D098E099F09681543
:1059B00079058A059B0508F4BBC084E893E00E9442
:1059C00071010E94F5026C197D098E099F09C09032
:1059D0000501D0900601E0900701F09008016C15D8
:1059E0007D058E059F0528F087E00E9401030E9437
:1059F0009D0680912403882309F414CE0E94F502A9
:105A0000609303037093040380930503909306034C
:105A100004CE6091390370913A038CEC94E00E94BB
:105A2000C204609137037091380389EC94E00E94BE
:105A3000C2046091350370913603B6CE0E94F50220
:105A40002091180330911903220E331E910150E06A
:105A500040E029833A834B835C83AB01BC014C1942
:105A60005D096E097F09441555056605770528F51A
:105A70000E94F5026C197D098E099F0929813A81DE
:105A80004B815C81621773078407950708F47ACF0E
:105A900060910E0370910F038CEC94E00E94C2049D
:105AA000609110037091110389EC94E00E94C2048C
:105AB00060910C0370910D0361CF0E94F5026C1987
:105AC0007D098E099F0929813A814B815C812617C6
:105AD00037074807590760F2609116037091170362
