:100000000C9463000C948B000C948B000C948B006C
:100010000C948B000C948B000C948B000C94F524A6
:100020000C948B000C948B000C948B000C94A825E2
:100030000C948B000C948B000C948B000C948B0014
:100040000C94AB240C948B000C9477250C945125C4
:100050000C948B000C948B000C948B000C948B00F4
:100060000C948B000C948B000000000024002700EF
:100070002A000000000023002600290000000008DC
:10008000000201000003040700000000000000005F
:10009000010204081020408001020408102001021F
:1000A0000408102000000000250028002B00040494
:1000B0000404040404040202020202020303030310
:1000C000030302007F2611241FBECFEFD8E0DEBF5E
:1000D000CDBF11E0A0E0B1E0E2E2F4E602C005909D
:1000E0000D92A034B107D9F724E0A0E4B1E001C03B
:1000F0001D92AA3EB207E1F710E0C3E6D0E004C0CB
:100100002197FE010E94D331C236D107C9F70E9460
:10011000BB260C940F320C940000833081F028F43D
:10012000813099F08230A9F008958730A9F08830A5
:10013000C9F08430B1F4809180008F7D03C080913C
:1001400080008F7780938000089584B58F7784BD79
:10015000089584B58F7DFBCF8091B0008F77809319
:10016000B00008958091B0008F7DF9CFCF93DF93D9
:10017000282F30E0F901E458FF4F8491F901E0574E
:10018000FF4FD491F901E255FF4FC491CC23A1F068
:1001900081110E948D00EC2FF0E0EE0FFF1FEE5852
:1001A000FF4FA591B491EC91ED2381E090E009F42B
:1001B00080E0DF91CF91089580E090E0FACF1F9327
:1001C000CF93DF93282F30E0F901E458FF4F84915B
:1001D000F901E057FF4FD491F901E255FF4FC49167
:1001E000CC23A9F0162F81110E948D00EC2FF0E096
:1001F000EE0FFF1FEC55FF4FA591B4918FB7F89408
:10020000EC91111108C0D095DE23DC938FBFDF91F4
:10021000CF911F910895DE2BF8CFCF93DF9390E01D
:10022000FC01E057FF4F249182559F4FFC018491C0
:100230008823C9F090E0880F991FFC01E859FF4F0F
:10024000A591B491FC01EC55FF4FC591D49161117A
:100250000DC09FB7F8948C91209582238C93888150
:10026000282328839FBFDF91CF910895623051F4F6
:100270009FB7F8943C91822F809583238C93E881DB
:100280002E2BEFCF8FB7F894EC912E2B2C938FBFA2
:10029000EACFCF92DF92EF92FF92CF936C018091E1
:1002A0000901873049F08F3F09F444C0CF91FF9096
:1002B000EF90DF90CF900895E2ECF0E0C491C7FD9D
:1002C000F5CF61E087E00E940D01F12CE12CCC23F9
:1002D000D9F0960150E040E0C23009F09AC07A01AE
:1002E00060E970ED83E090E00E945831BA01A90105
:1002F000415051096109710993E04F3F5105610572
:10030000710509F00CF4C1C068E478EE81E090E07A
:10031000A70196010E945831BA01A9014150510923
:100320006109710994E0C111B0C085B5887F83600F
:1003300085BDB7C087E080930901E2ECF0E0C4918D
:10034000CF3F09F4B3CFC13021F150F0C23009F4EE
:100350003EC0C7FDABCF61E087E00E940D01B9CF81
:1003600014BC15BC84B5826084BD85B5816085BD33
:10037000E5EBF0E0E491F0E0EE0FFF1FEC55FF4FEE
:1003800085919491E7E9F0E0E491E0937403C0E093
:1003900098CF109280001092810080918100886037
:1003A0008093810080918100816080938100E5EBE2
:1003B000F0E0E491F0E0EE0FFF1FEC55FF4F859168
:1003C0009491E7E9F0E0E491E09373037ACF10921F
:1003D000B0001092B1008091B00082608093B000B4
:1003E0008091B10081608093B100E5EBF0E0E49191
:1003F000F0E0EE0FFF1FEC55FF4F85919491909325
:10040000720380937103E7E9F0E0E491E0937003F5
:1004100058CF60E072E18AE790E00E945831BA015B
:10042000A9014150510961097109C130A1F58091BB
:100430008100887F81608093810050938900409380
:1004400088008FEF9FEFDC018093790390937A030C
:10045000A0937B03B0937C0380916F0082608093B4
:100460006F0024CF4093B3008FEF9FEFDC018093A8
:10047000750390937603A0937703B09378038091EC
:10048000700082608093700011CF8091B100887FEE
:10049000892B8093B100C13081F2C23019F3C111B0
:1004A00005CF47BD8FEF9FEFDC0180937D039093D5
:1004B0007E03A0937F03B093800380916E008260DF
:1004C00080936E00F3CE8E50806480937C00809188
:1004D0007A00806480937A0080917A0086FDFCCF58
:1004E000809178009091790008953FB7F8948091B9
:1004F0006C0390916D03A0916E03B0916F0326B5CC
:10050000A89B05C02F3F19F00196A11DB11D3FBF4B
:10051000BA2FA92F982F8827BC01CD01620F711D1A
:10052000811D911D42E0660F771F881F991F4A9514
:10053000D1F708958F929F92AF92BF92CF92DF92A0
:10054000EF92FF926B017C010E9475024B015C01EE
:10055000C114D104E104F104B9F00E9475026819D4
:1005600079098A099B09683E73408105910580F3EA
:1005700021E0C21AD108E108F10888EE880E83E074
:10058000981EA11CB11CE4CFFF90EF90DF90CF909C
:10059000BF90AF909F908F9008952FB7F89460917F
:1005A00068037091690380916A0390916B032FBF78
:1005B00008959091090189130BC0E2ECF0E0E491F9
:1005C0009FEF90930901E13049F028F0E23061F0AB
:1005D00060E00C94DF0010926E00FACF90916F00F3
:1005E0009D7F90936F00F4CF909170009D7F9093CA
:1005F000700091E09093B0009091B100987F94606A
:100600009093B1001092B300E3CFAF92BF92CF921C
:10061000DF92EF92FF920F931F93CF93DF936C01C2
:100620007B018B01040F151FEB015E01AE18BF08A3
:10063000C017D10759F06991D601ED91FC91019055
:10064000F081E02DC6010995892B79F7C501DF916D
:10065000CF911F910F91FF90EF90DF90CF90BF90BF
:10066000AF900895FC01538D448D252F30E0842FE9
:1006700090E0821B930B541710F0CF9608950197CA
:100680000895FC01918D828D981759F0A28DAE0FBF
:10069000BF2FB11D5D968C91928D9F5F928F90E0E0
:1006A00008958FEF9FEF0895FC01918D828D98172B
:1006B00031F0828DE80FF11D858D90E008958FEF68
:1006C0009FEF08950F931F930E94CD0260938903BB
:1006D00070938A0380938B0390938C0381E893E05B
:1006E0000E94540397FF1DC00E94CD020091890310
:1006F00010918A0320918B0330918C03601B710B46
:10070000820B930B00918503109186032091870340
:10071000309188036017710782079307F8F28FEF13
:100720009FEF1F910F910895CF92DF92EF92FF926A
:10073000CF930E946203FC0197FD4EC08D3291055C
:1007400021F0C0970A9708F040C0C12CD12C760147
:10075000C0E0E130F105D1F0ED32F105D9F1CF0182
:10076000C0970A9798F4AAE0B0E0A70196010E940A
:1007700077316F01FF0FEE08FF08C60ED71EE81E87
:10078000F91E80E3C81AD108E108F10881E893E076
:100790000E9441030E946203FC01C0970A97C8F2BD
:1007A000E130F105B1F2CC2341F0F094E094D09423
:1007B000C094C11CD11CE11CF11CC701B601CF9132
:1007C000FF90EF90DF90CF90089581E893E00E9432
:1007D0004103AFCFC1E0DACFC12CD12C7601EDCFF0
:1007E000FC01918D828D981B892F90E0089581E8FE
:1007F00093E00E94F00321E0892B09F420E0822F8E
:10080000089580E090E0892B29F00E94F703811180
:100810000C9400000895FC01A48DA80FB92FB11D00
:10082000A35EBE4F2C91848D90E001968F73992723
:10083000848FA689B7892C93A089B1898C91837004
:1008400080648C93938D848D981306C00288F389FD
:10085000E02D80818F7D80830895EF92FF920F932A
:100860001F93CF93DF93EC0181E0888F9B8D8C8D5C
:1008700098131AC0E889F989808185FF15C09FB750
:10088000F894EE89FF896083E889F9898081837013
:10089000806480839FBF81E090E0DF91CF911F91C2
:1008A0000F91FF90EF900895F62E0B8D10E00F5FE3
:1008B0001F4F0F731127E02E8C8D8E110CC00FB6B9
:1008C00007FCFACFE889F989808185FFF5CFCE0151
:1008D0000E940B04F1CFEB8DEC0FFD2FF11DE35EB9
:1008E000FE4FF0829FB7F8940B8FEA89FB898081D5
:1008F0008062CFCF682F81E893E00C942D04CF93D2
:10090000DF93EC01888D8823B9F0AA89BB89E88937
:10091000F9898C9185FD03C0808186FD0DC00FB6DD
:1009200007FCF7CF8C9185FFF2CF808185FFEDCF5B
:10093000CE010E940B04E9CFDF91CF910895DC0135
:10094000EC91EC3090F511968C91119728E830E0FD
:10095000281B310987FD3395220F331F220F331FC8
:100960006217730784F012968C9128E532E0281BF9
:10097000310987FD3395220F331F220F331F621772
:1009800073070CF49B0122503109220F331F4FB71C
:10099000F8948E2F90E0FC01EE0FFF1FE80FF91F77
:1009A000E452FD4F328321834FBF08951F93CF93AD
:1009B000DF93EC01162F88818C3008F04EC061E087
:1009C000812F0E940D018881282F30E0F901EE0F60
:1009D000FF1FE20FF31FE452FD4F1F736081607C25
:1009E000612B608319821A822CE0622F0E94B3313E
:1009F000829FB001112430E020E0AB01420F531F71
:100A0000FA01EE0FFF1FE40FF51FE452FD4F908136
:100A100096FD16C02F5F3F4F2C30310571F78111C5
:100A20000FC01092800082E08093810010928500B8
:100A300010928400B19A80916F00826080936F0061
:100A4000E8818E2F90E0FC01EE0FFF1FE80FF91FE9
:100A5000E452FD4F8081806480838881DF91CF9153
:100A60001F91089589E00E94B600892B41F487E028
:100A70000E94D90260E087E00E94DF00F3CF80E2AD
:100A800093E00E94490164E670E080E090E00E94FB
:100A90009A0287E00E94D90268E572E080E090E067
:100AA0000E949A02F0E0E0E00994CF92DF92EF9288
:100AB000FF92CF93DF9389E00E94B600EC01C090D3
:100AC0000303D0900403E0900503F09006038091A7
:100AD0000003882301F10E94CD026C197D098E0963
:100AE0009F096436710581059105C8F110920003D4
:100AF0000E94CD0260930303709304038093050367
:100B00009093060387E0DF91CF91FF90EF90DF9005
:100B1000CF900C94D9020E94CD026C197D098E09E8
:100B20009F096438734081059105C8F081E0809386
:100B300000030E94CD02609303037093040380932B
:100B4000050390930603CD2B51F084E893E0DF91E9
:100B5000CF91FF90EF90DF90CF900C944901DF91FF
:100B6000CF91FF90EF90DF90CF900895FC0101901E
:100B70000020E9F73197AF01481B590BBC0181E810
:100B800093E00C9405038F929F92AF92BF920F93C4
:100B90001F93CF93DF93CDB7DEB7A1970FB6F8942D
:100BA000DEBF0FBECDBF19A2423008F44AE08E016D
:100BB0000F5D1F4F842E912CB12CA12CA501940107
:100BC0000E948231E62FB901CA01EA30F4F4E05DF7
:100BD000D801EE938D01232B242B252B79F790E060
:100BE00080E0109719F0CD010E94B605A1960FB6CE
:100BF000F894DEBF0FBECDBFDF91CF911F910F9153
:100C0000BF90AF909F908F900895E95CE1CF0C94D6
:100C1000B605CF93DF930E94B605EC018CE191E01D
:100C20000E94B6058C0F9D1FDF91CF910895CF9242
:100C3000DF92EF92FF92CF93DF936C01990FEE0852
:100C4000FF08F7FE17C08DE20E947A04EC016627C8
:100C50007727CB016C197D098E099F094AE00E9414
:100C6000C3058C0F9D1FDF91CF91FF90EF90DF9018
:100C7000CF9008954AE0C701B601DF91CF91FF9070
:100C8000EF90DF90CF900C94C305682F70E090E058
:100C900080E04AE00C94C305BC0190E080E04AE0AB
:100CA0000C94C3051F93CF93DF93EC01162F0E9482
:100CB0004231181739F0612FCE01DF91CF911F918A
:100CC0000C944A31DF91CF911F9108951F93CF93D8
:100CD000DF93EC01162F672F0E945206612FCE0181
:100CE0000196DF91CF911F910C9452060C944231E2
:100CF000CF92DF92EF92FF920F931F9362E370E027
:100D000080E090E00E949A0280916103811103C00B
:100D100081E080930401609185017091860187EEE6
:100D200094E00E949F04609187017091880184EE95
:100D300094E00E949F04609183017091840181EE90
:100D400094E00E949F0460E08AE00E94DF0060E07F
:100D50008DE00E94DF0060E087E00E94DF0064E633
:100D600070E080E090E00E949A0287E00E94D90241
:100D700068EE73E080E090E00E949A020E94CD024B
:100D800000910001109101012091020130910301B5
:100D9000601B710B820B930B60935C0170935D0180
:100DA00080935E0190935F0160E08AE00E94DF0023
:100DB00060E08DE00E94DF0089E00E94B6000197AC
:100DC00021F40E94CD026B017C018EE190E00E9433
:100DD00076066091C202861721F08EE190E00E94B3
:100DE0005206809104018823E9F10E94CD026C191A
:100DF0007D098E099F09683B7B408105910590F52F
:100E000089E00E94B600019721F40E94CD026B0197
:100E10007C0161E087E00E94DF0064EF71E080E028
:100E200090E00E949A0260E087E00E94DF0068EC98
:100E300070E080E090E00E949A0261E087E00E940A
:100E4000DF0064E670E080E090E00E949A0260E0DB
:100E500087E00E94DF0060E273E080E090E00E94A3
:100E60009A02BFCF1F910F91FF90EF90DF90CF902C
:100E70000C9432050F931F93CF938C010E9476063A
:100E8000C82FC80101960E9476062C2F30E0322F21
:100E90002227820F932F911DCF911F910F910895BB
:100EA0004F925F926F927F928F929F92AF92BF927A
:100EB000CF92DF92EF92FF920F931F93CF93DF9326
:100EC000CDB7DEB762970FB6F894DEBF0FBECDBFC9
:100ED00082E10E94B6004C0182E490E00E94760616
:100EE000C82E8093810183E490E00E947606F82E5C
:100EF0008093680184E490E00E9476068D8380935D
:100F0000670185E490E00E947606082F80936601D1
:100F100086E490E00E94760689838093650187E4E9
:100F200090E00E947606182F8093640188E490E098
:100F30000E9476068093630129EF2F1518F49CE335
:100F4000909368010A3F18F09CE3909366011A3F62
:100F500018F09CE3909364010D810A3F18F090EF24
:100F60009093670119811A3F18F090EF90936501F3
:100F70008A3F18F080EF809363018AEC90E00E9432
:100F80007606E82EF12CF0925C03E0925B0388EC8D
:100F900090E00E947606A82EB12CB0920A03A0928F
:100FA00009038CEC90E00E94760690E09093630336
:100FB000809362038DEC90E00E947606898B80938B
:100FC00062018EEC90E00E9476068A8B809361012C
:100FD0008FEC90E00E943A079093160380931503DC
:100FE00081ED90E00E947606182F8093600128EE34
:100FF00033E0129FC001139F900D112490933D0385
:1010000080933C0382ED90E00E9476068093250356
:10101000183C18F085E08093600128ECA216B1041A
:1010200034F087E090E090930A038093090338EC52
:10103000E316F10424F010925C0310925B038CEC35
:1010400090E00E947606883C30F088E290E0909331
:1010500063038093620380916203909163034097DE
:1010600030F48FE090E090936303809362038A945E
:10107000892809F0CAC582E090E00E943A0790935F
:1010800046038093450384E090E00E943A079093E2
:10109000D9028093D80286E090E00E943A079093AC
:1010A000D7028093D60288E090E00E943A0790939E
:1010B000D5028093D4028AE090E00E943A07909390
:1010C000D3028093D2028CE090E00E943A07909382
:1010D000D1028093D0028EE090E00E943A07909374
:1010E000CF028093CE0280E190E00E943A07909375
:1010F000CD028093CC0282E190E00E943A07909367
:1011000012038093110384E190E00E94760680939D
:10111000600385E190E00E9476068093CB0286E131
:1011200090E00E9476068093CA0287E190E00E94D8
:1011300076068093C90288E190E00E94760680934B
:10114000C80289E190E00E9476068093C7028AE196
:1011500090E00E9476068093C6028BE190E00E94A8
:1011600076068093C5028CE190E00E94760680931B
:10117000C4028DE190E00E9476068093C3028EE166
:1011800090E00E9476068093C2028FE190E00E9478
:1011900076068093C10280E290E00E9476068093FA
:1011A000C00281E290E00E9476068093BF0282E254
:1011B00090E00E9476068093BE0283E290E00E9457
:1011C00076068093BD0284E290E00E9476068093CA
:1011D000BC0285E290E00E9476068093BB0286E224
:1011E00090E00E9476068093BA0287E290E00E9427
:1011F00076068093B90288E290E00E94760680939A
:10120000B80289E290E00E9476068093B7028AE2F3
:1012100090E00E9476068093B6028BE290E00E94F6
:1012200076068093B5028CE290E00E947606809369
:10123000B4028DE290E00E9476068093B3028EE2C3
:1012400090E00E9476068093B2028FE290E00E94C6
:1012500076068093B10280E390E00E947606809348
:10126000B00281E390E00E9476068093AF0282E3B1
:1012700090E00E9476068093AE0283E390E00E94A5
:1012800076068093AD0284E390E00E947606809318
:10129000AC0285E390E00E9476068093AB0286E381
:1012A00090E00E9476068093AA0287E390E00E9475
:1012B00076068093A90288E390E00E943A07909313
:1012C0003B0380933A038AE390E00E947606809382
:1012D000A8028BE390E00E9476068093A7028CE33D
:1012E00090E00E9476068093A6028DE390E00E9433
:1012F0003A0790933303809332038FE390E00E9488
:1013000076068093A50280E490E00E9476068093A2
:10131000A40281E490E00E9476068093A30280916B
:101320001103909112034AE0489F9001499F300DAC
:101330001124A4E6B0E00E94A431609300017093F0
:101340000101809302019093030120916801249F81
:1013500090011124C901330FAA0BBB0B89839A8317
:10136000AB83BC8380937D0190937E01A0937F012A
:10137000B093800180906701849E40011124092C64
:10138000000CAA08BB088092790190927A01A09281
:101390007B01B0927C0140906601449E20011124A3
:1013A000052C000C66087708409275015092760172
:1013B000609277017092780180916501849FC001ED
:1013C00011248C01990F220B330B09871A872B8765
:1013D0003C87009371011093720120937301309345
:1013E000740120916401249F90011124C901330FDD
:1013F000AA0BBB0B8D839E83AF83B88780936D014F
:1014000090936E01A0936F01B0937001809163017E
:10141000849FA00111248A01550F220B330B0D87E5
:101420001E872F87388B0093690110936A012093E0
:101430006B0130936C01D12CF12CE12C09811A81C4
:101440002B813C81801A910AA20AB30AA091600301
:10145000B0E0A50194010E947731A70196010E9496
:10146000583189819A81AB81BC81280F391F4A1F6D
:101470005B1F3093580320935703A091CB02B0E039
:10148000A50194010E947731A70196010E9458316D
:1014900089819A81AB81BC81280F391F4A1F5B1F4C
:1014A0003093420320934103A091CA02B0E0A5010A
:1014B00094010E947731A70196010E9458318981D9
:1014C0009A81AB81BC81280F391F4A1F5B1F309363
:1014D000390320933803A091A802B0E0A50194013C
:1014E0000E947731A70196010E94583189819A8123
:1014F000AB81BC81280F391F4A1F5B1F309331031A
:1015000020933003A091A502B0E0A50194010E94B0
:101510007731A70196010E94583189819A81AB8168
:10152000BC81280F391F4A1F5B1F3093290320936A
:101530002803A091C902B0E0A50194010E9477316F
:10154000A70196010E94583189819A81AB81BC81A3
:10155000280F391F4A1F5B1F3093B0012093AF0142
:10156000A091C802B0E0A50194010E947731A701C3
:1015700096010E94583189819A81AB81BC81280FE4
:10158000391F4A1F5B1F3093AA012093A901A09124
:10159000C702B0E0A50194010E947731A70196012E
:1015A0000E94583189819A81AB81BC81280F391FF3
:1015B0004A1F5B1F3093A4012093A301A091C60290
:1015C000B0E0A50194010E947731A70196010E9425
:1015D000583189819A81AB81BC81280F391F4A1FFC
:1015E0005B1F30939E0120939D01A091C502B0E046
:1015F000A50194010E947731A70196010E945831FC
:1016000089819A81AB81BC81280F391F4A1F5B1FDA
:101610003093980120939701A091C402B0E0A501F6
:1016200094010E947731A70196010E945831898167
:101630009A81AB81BC81280F391F4A1F5B1F3093F1
:10164000920120939101A091C302B0E0A501940101
:101650000E947731A70196010E94583189819A81B1
:10166000AB81BC81280F391F4A1F5B1F30938C014F
:1016700020938B01A091C202B0E0A50194010E94C9
:101680007731A70196010E94583189819A81AB81F7
:10169000BC81280F391F4A1F5B1F309354032093CE
:1016A0005303A091C102B0E0A50194010E947731DB
:1016B000A70196010E94583189819A81AB81BC8132
:1016C000280F391F4A1F5B1F309386012093850125
:1016D00089849A84AB84BC8484189508A608B708CA
:1016E000A091C002B0E0A50194010E947731A7014A
:1016F00096010E945831240D351D461D571D30930B
:101700005A0320935903A091BF02B0E0A5019401B0
:101710000E947731A70196010E945831240D351D92
:10172000461D571D3093440320934303A091BE02EE
:10173000B0E0A50194010E947731A70196010E94B3
:101740005831240D351D461D571D30933703209306
:101750003603A091A702B0E0A50194010E94773161
:10176000A70196010E945831240D351D461D571DB5
:1017700030932F0320932E03A091A402B0E0A50183
:1017800094010E947731A70196010E945831240DDF
:10179000351D461D571D30932B0320932A03A0911E
:1017A000BD02B0E0A50194010E947731A701960126
:1017B0000E945831240D351D461D571D3093B2012E
:1017C0002093B101A091BC02B0E0A50194010E9458
:1017D0007731A70196010E945831240D351D461D11
:1017E000571D3093AC012093AB01A091BB02B0E038
:1017F000A50194010E947731A70196010E945831FA
:10180000240D351D461D571D3093A6012093A501BB
:10181000A091BA02B0E0A50194010E947731A7011E
:1018200096010E945831240D351D461D571D3093D9
:10183000A00120939F01A091B902B0E0A5019401FD
:101840000E947731A70196010E945831240D351D61
:10185000461D571D30939A0120939901A091B8021B
:10186000B0E0A50194010E947731A70196010E9482
:101870005831240D351D461D571D3093940120937A
:101880009301A091B702B0E0A50194010E947731C5
:10189000A70196010E945831240D351D461D571D84
:1018A00030938E0120938D01A091B602B0E0A50186
:1018B00094010E947731A70196010E945831240DAE
:1018C000351D461D571D3093520320935103A0919F
:1018D000B502B0E0A50194010E947731A7019601FD
:1018E0000E945831420E531E641E751E509288018C
:1018F000409287018D849E84AF84B8880D811E81BB
:101900002F813885801A910AA20AB30AA091B402E5
:10191000B0E0A50194010E947731A70196010E94D1
:1019200058318D819E81AF81B885280F391F4A1F9C
:101930005B1F3093560320935503A091B302B0E090
:10194000A50194010E947731A70196010E945831A8
:101950008D819E81AF81B885280F391F4A1F5B1F7B
:101960003093400320933F03A091B202B0E0A50161
:1019700094010E947731A70196010E9458318D8110
:101980009E81AF81B885280F391F4A1F5B1F309396
:10199000350320933403A091A602B0E0A501940181
:1019A0000E947731A70196010E9458318D819E8156
:1019B000AF81B885280F391F4A1F5B1F30932D0355
:1019C00020932C03A091A302B0E0A50194010E94F2
:1019D0007731A70196010E9458318D819E81AF8198
:1019E000B885280F391F4A1F5B1F309327032093A8
:1019F0002603A091B102B0E0A50194010E947731C5
:101A0000A70196010E9458318D819E81AF81B885D2
:101A1000280F391F4A1F5B1F3093AE012093AD0181
:101A2000A091B002B0E0A50194010E947731A70116
:101A300096010E9458318D819E81AF81B885280F13
:101A4000391F4A1F5B1F3093A8012093A701A09163
:101A5000AF02B0E0A50194010E947731A701960181
:101A60000E9458318D819E81AF81B885280F391F22
:101A70004A1F5B1F3093A2012093A101A091AE02E7
:101A8000B0E0A50194010E947731A70196010E9460
:101A900058318D819E81AF81B885280F391F4A1F2B
:101AA0005B1F30939C0120939B01A091AD02B0E09D
:101AB000A50194010E947731A70196010E94583137
:101AC0008D819E81AF81B885280F391F4A1F5B1F0A
:101AD0003093960120939501A091AC02B0E0A5014E
:101AE00094010E947731A70196010E9458318D819F
:101AF0009E81AF81B885280F391F4A1F5B1F309325
:101B0000900120938F01A091AB02B0E0A501940158
:101B10000E947731A70196010E9458318D819E81E4
:101B2000AF81B885280F391F4A1F5B1F30938A0188
:101B300020938901A091AA02B0E0A50194010E941E
:101B40007731A70196010E9458318D819E81AF8126
:101B5000B885280F391F4A1F5B1F3093500320930D
:101B60004F03A091A902B0E0A50194010E94773132
:101B7000A70196010E9458318D819E81AF81B88561
:101B8000280F391F4A1F5B1F309384012093830164
:101B90000989202F30E0A0EBB4E00E94A431A70116
:101BA00096010E9458312C573C4F4F4F5F4F309356
:101BB0001403209313031A89212F30E0A0EBB4E023
:101BC0000E94A431A70196010E9458312C573C4F26
:101BD0004F4F5F4F309318032093170362960FB651
:101BE000F894DEBF0FBECDBFDF91CF911F910F9153
:101BF000FF90EF90DF90CF90BF90AF909F908F902D
:101C00007F906F905F904F90089586E690E00E94DD
:101C10003A07909346038093450388E690E00E943C
:101C20003A079093D9028093D8028AE690E00E9406
:101C30003A079093D7028093D6028CE690E00E94F8
:101C40003A079093D5028093D4028EE690E00E94EA
:101C50003A079093D3028093D20280E790E00E94EB
:101C60003A079093D1028093D00282E790E00E94DD
:101C70003A079093CF028093CE0284E790E00E94CF
:101C80003A079093CD028093CC0286E790E00E94C1
:101C90003A078330910508F40DC1909312038093A5
:101CA000110388E790E00E9476068093600389E73D
:101CB00090E00E9476068093CB028AE790E00E9433
:101CC00076068093CA028BE790E00E9476068093A6
:101CD000C9028CE790E00E9476068093C8028DE7E7
:101CE00090E00E9476068093C7028EE790E00E9403
:101CF00076068093C6028FE790E00E947606809376
:101D0000C50280E890E00E9476068093C40281E8D4
:101D100090E00E9476068093C30282E890E00E94E1
:101D200076068093C20283E890E00E947606809354
:101D3000C10284E890E00E9476068093C00285E8A4
:101D400090E00E9476068093BF0286E890E00E94B1
:101D500076068093BE0287E890E00E947606809324
:101D6000BD0288E890E00E9476068093BC0289E874
:101D700090E00E9476068093BB028AE890E00E9481
:101D800076068093BA028BE890E00E9476068093F4
:101D9000B9028CE890E00E9476068093B8028DE844
:101DA00090E00E9476068093B7028EE890E00E9451
:101DB00076068093B6028FE890E00E9476068093C4
:101DC000B50280E990E00E9476068093B40281E932
:101DD00090E00E9476068093B30282E990E00E9430
:101DE00076068093B20283E990E00E9476068093A3
:101DF000B10284E990E00E9476068093B00285E902
:101E000090E00E9476068093AF0286E990E00E94FF
:101E100076068093AE0287E990E00E947606809372
:101E2000AD0288E990E00E9476068093AC0289E9D1
:101E300090E00E9476068093AB028AE990E00E94CF
:101E400076068093AA028BE990E00E947606809342
:101E5000A9028CE990E00E943A0790933B0380939B
:101E60003A038EE990E00E9476068093A8028FE9FB
:101E700090E00E9476068093A70280EA90E00E949C
:101E800076068093A60281EA90E00E943A0790933A
:101E900033038093320383EA90E00E9476068093B6
:101EA000A50284EA90E00E9476068093A40285EA67
:101EB00090E031CA82E090E0F0CE2F923F924F92B4
:101EC0005F926F927F928F929F92AF92BF92CF92CA
:101ED000DF92EF92FF920F931F93CF93DF93CDB7D3
:101EE000DEB7C854D1090FB6F894DEBF0FBECDBF20
:101EF00064E670E080E090E00E949A0282E10E9435
:101F0000B6009A8B898B8FE191E00E94070681E2EF
:101F100091E00E94070680914503909146030E943C
:101F20004C0681E291E00E9407068091D8029091D0
:101F3000D9020E944C0681E291E00E94070680913E
:101F4000D6029091D7020E944C0681E291E00E9455
:101F500007068091D4029091D5020E944C0681E23E
:101F600091E00E9407068091D2029091D3020E94D4
:101F70004C0681E291E00E9407068091D002909188
:101F8000D1020E944C0681E291E00E9407068091F6
:101F9000CE029091CF020E944C0681E291E00E9415
:101FA00007068091CC029091CD020E944C0681E2FE
:101FB00091E00E94070680911103909112030E9404
:101FC0004C0681E291E00E940706809160030E9426
:101FD000450681E291E00E9407068091CB020E94B3
:101FE000450681E291E00E9407068091CA020E94A4
:101FF000450681E291E00E9407068091C9020E9495
:10200000450681E291E00E9407068091C8020E9485
:10201000450681E291E00E9407068091C7020E9476
:10202000450681E291E00E9407068091C6020E9467
:10203000450681E291E00E9407068091C5020E9458
:10204000450681E291E00E9407068091C4020E9449
:10205000450681E291E00E9407068091C3020E943A
:10206000450681E291E00E9407068091C2020E942B
:10207000450681E291E00E9407068091C1020E941C
:10208000450681E291E00E9407068091C0020E940D
:10209000450681E291E00E9407068091BF020E94FE
:1020A000450681E291E00E9407068091BE020E94EF
:1020B000450681E291E00E9407068091BD020E94E0
:1020C000450681E291E00E9407068091BC020E94D1
:1020D000450681E291E00E9407068091BB020E94C2
:1020E000450681E291E00E9407068091BA020E94B3
:1020F000450681E291E00E9407068091B9020E94A4
:10210000450681E291E00E9407068091B8020E9494
:10211000450681E291E00E9407068091B7020E9485
:10212000450681E291E00E9407068091B6020E9476
:10213000450681E291E00E9407068091B5020E9467
:10214000450681E291E00E9407068091B4020E9458
:10215000450681E291E00E9407068091B3020E9449
:10216000450681E291E00E9407068091B2020E943A
:10217000450681E291E00E9407068091B1020E942B
:10218000450681E291E00E9407068091B0020E941C
:10219000450681E291E00E9407068091AF020E940D
:1021A000450681E291E00E9407068091AE020E94FE
:1021B000450681E291E00E9407068091AD020E94EF
:1021C000450681E291E00E9407068091AC020E94E0
:1021D000450681E291E00E9407068091AB020E94D1
:1021E000450681E291E00E9407068091AA020E94C2
:1021F000450681E291E00E9407068091A9020E94B3
:10220000450681E291E00E94070680913A03909191
:102210003B030E944C0681E291E00E9407068091F8
:10222000A8020E94450681E291E00E940706809183
:10223000A7020E94450681E291E00E940706809174
:10224000A6020E94450681E291E00E940706809165
:102250000703909108030E94170681E291E00E9413
:10226000070680913203909133030E944C0681E26D
:1022700091E00E9407068091A5020E94450681E236
:1022800091E00E9407068091A4020E94450681E227
:1022900091E00E9407068091A3020E94450681E218
:1022A00091E00E94090681E893E00E94F00318166D
:1022B000190614F00C94A3196AE070E080E090E035
:1022C0000E949A0281E893E00E94410380935F0399
:1022D000843209F014C684E893E00E9449010E9408
:1022E00094036B017C01C092B301D092B401E092DF
:1022F000B501F092B6010E94940369837A838B83BF
:102300009C836093B7017093B8018093B901909357
:10231000BA010E9494036D837E838F8398876093B4
:10232000BB017093BC018093BD019093BE010E94DC
:10233000940369877A878B879C876093BF0170932A
:10234000C0018093C1019093C2010E9494036D87E4
:102350007E878F87988B6093C3017093C4018093AD
:10236000C5019093C6010E9494036B8B7C8B8D8B6F
:102370009E8B6093C7017093C8018093C9019093AD
:10238000CA010E9494036F8B788F898F9A8F609314
:10239000CB017093CC018093CD019093CE010E942C
:1023A00094036B8F7C8F8D8F9E8F6093CF01709382
:1023B000D0018093D1019093D2010E9494036F8F3A
:1023C00078A389A39AA36093D3017093D4018093D7
:1023D000D5019093D6010E9494036BA36093D7011B
:1023E0007093D8018093D9019093DA010E949403ED
:1023F0006CA36093DB017093DC018093DD0190930B
:10240000DE010E9494036DA36093DF017093E001ED
:102410008093E1019093E2010E9494036EA3609384
:10242000E3017093E4018093E5019093E6010E943B
:1024300094036FA36093E7017093E8018093E9012F
:102440009093EA010E94940368A76093EB01709354
:10245000EC018093ED019093EE010E94940369A733
:102460006093EF017093F0018093F1019093F2017A
:102470000E9494036AA76093F3017093F401809320
:10248000F5019093F6010E9494036BA76093F70106
:102490007093F8018093F9019093FA010E949403DC
:1024A0006CA76093FB017093FC018093FD019093F6
:1024B000FE010E9494036DA76093FF0170930002D8
:1024C00080930102909302020E9494036EA760938E
:1024D00003027093040280930502909306020E9407
:1024E00094036FA760930702709308028093090218
:1024F00090930A020E94940368AB60930B0270935E
:102500000C0280930D0290930E020E94940369AB1B
:1025100060930F0270931002809311029093120245
:102520000E9494036AAB6093130270931402809329
:102530001502909316020E9494036BAB60931702EE
:10254000709318028093190290931A020E949403C8
:102550006CAB60931B0270931C0280931D029093DE
:102560001E020E9494036DAB60931F0270932002C1
:1025700080932102909322020E9494036EAB609399
:1025800023027093240280932502909326020E94D6
:1025900094036FAB60932702709328028093290203
:1025A00090932A020E94940368AF60932B02709369
:1025B0002C0280932D0290932E020E94940369AF07
:1025C00060932F0270933002809331029093320215
:1025D0000E9494036AAF6093330270933402809335
:1025E0003502909336020E9494036BAF60933702DA
:1025F000709338028093390290933A020E949403B8
:102600006CAF60933B0270933C0280933D029093C9
:102610003E020E9494036DAF60933F0270934002AC
:1026200080934102909342020E9494036EAF6093A4
:1026300043027093440280934502909346020E94A5
:1026400094036FAF609347027093480280934902EE
:1026500090934A020E94940321966FAF2197609352
:102660004B0270934C0280934D0290934E020E9455
:10267000940322966FAF229760934F02709350029B
:1026800080935102909352020E94940323966FAF5D
:102690002397609353027093540280935502909352
:1026A00056020E94940324966FAF249760935702BA
:1026B000709358028093590290935A020E94940397
:1026C00025966FAF259760935B0270935C028093B1
:1026D0005D0290935E020E94940326966FAF269748
:1026E00060935F0270936002809361029093620234
:1026F0000E94940327966FAF2797609363027093AD
:10270000640280936502909366020E9494032B01F9
:102710003C01409267025092680260926902709296
:102720006A020E949403262E60936B0270936C02DF
:1027300080936D0290936E020E949403362E6093F4
:102740006F027093700280937102909372020E94E4
:102750009403062F60937302709374028093750242
:10276000909376020E9494034B015C018092770261
:1027700090927802A0927902B0927A020E94940319
:10278000162F60937B0270937C0280937D0290935E
:102790007E020E94940329966FAF299760937F026F
:1027A0007093800280938102909382020E9494032E
:1027B00028966FAF2897609383027093840280936A
:1027C0008502909386026AE070E080E090E00E94CB
:1027D0009A0287E00E94D90281E893E00E94F00308
:1027E000181619062CF481E893E00E944103F4CFF7
:1027F000D0924603C092450329813A813093D90291
:102800002093D8028D819E819093D7028093D60227
:10281000A985BA85B093D502A093D402ED85FE8533
:10282000F093D302E093D2022B893C893093D102FA
:102830002093D0028F89988D9093CF028093CE02FF
:10284000AB8DBC8DB093CD02A093CC02EF8DF8A1DF
:10285000F0931203E0931103FBA1F09360032CA10A
:102860002093CB023DA13093CA028EA18093C9026E
:102870009FA19093C802A8A5A093C702B9A5B09341
:10288000C602EAA5E093C502FBA5F093C4022CA5FD
:102890002093C3023DA53093C2028EA58093C1024E
:1028A0009FA59093C002A8A9A093BF02B9A9B09315
:1028B000BE02EAA9E093BD02FBA9F093BC022CA9D9
:1028C0002093BB023DA93093BA028EA98093B9022E
:1028D0009FA99093B802A8ADA093B702B9ADB093E9
:1028E000B602EAADE093B502FBADF093B4022CADB5
:1028F0002093B3023DAD3093B2028EAD8093B1020E
:102900009FAD9093B0022196AFAD2197A093AF02F7
:102910002296BFAD2297B093AE022396EFAD2397D8
:10292000E093AD022496FFAD2497F093AC02259678
:102930002FAD25972093AB0226963FAD2697309377
:10294000AA0227968FAD27978093A90250923B0346
:1029500040923A032092A8023092A7020093A60266
:1029600090923303809232031093A50229969FAD73
:1029700029979093A4022896AFAD2897A093A3021D
:10298000E989FA89B601319709F06AC182E090E0DD
:102990000E9466066091D8027091D90284E090E0AE
:1029A0000E9466066091D6027091D70286E090E0A0
:1029B0000E9466066091D4027091D50288E090E092
:1029C0000E9466066091D2027091D3028AE090E084
:1029D0000E9466066091D0027091D1028CE090E076
:1029E0000E9466066091CE027091CF028EE090E068
:1029F0000E9466066091CC027091CD0280E190E069
:102A00000E946606609111037091120382E190E0CA
:102A10000E9466066091600384E190E00E94520685
:102A20006091CB0285E190E00E9452066091CA025B
:102A300086E190E00E9452066091C90287E190E031
:102A40000E9452066091C80288E190E00E945206FE
:102A50006091C70289E190E00E9452066091C6022F
:102A60008AE190E00E9452066091C5028BE190E0FD
:102A70000E9452066091C4028CE190E00E945206CE
:102A80006091C3028DE190E00E9452066091C20203
:102A90008EE190E00E9452066091C1028FE190E0C9
:102AA0000E9452066091C00280E290E00E945206AD
:102AB0006091BF0281E290E00E9452066091BE02E6
:102AC00082E290E00E9452066091BD0283E290E0B3
:102AD0000E9452066091BC0284E290E00E9452067D
:102AE0006091BB0285E290E00E9452066091BA02BA
:102AF00086E290E00E9452066091B90287E290E07F
:102B00000E9452066091B80288E290E00E9452064C
:102B10006091B70289E290E00E9452066091B6028D
:102B20008AE290E00E9452066091B5028BE290E04A
:102B30000E9452066091B4028CE290E00E9452061C
:102B40006091B3028DE290E00E9452066091B20261
:102B50008EE290E00E9452066091B1028FE290E016
:102B60000E9452066091B00280E390E00E945206FB
:102B70006091AF0281E390E00E9452066091AE0244
:102B800082E390E00E9452066091AD0283E390E000
:102B90000E9452066091AC0284E390E00E945206CB
:102BA0006091AB0285E390E00E9452066091AA0218
:102BB00086E390E00E9452066091A90287E390E0CC
:102BC0000E94520660913A0370913B0388E390E0C3
:102BD0000E9466066091A8028AE390E00E94520675
:102BE0006091A7028BE390E00E9452066091A602DA
:102BF0008CE390E00E94520660913203709133039F
:102C00008DE390E00E9466066091A5028FE390E05C
:102C10000E9452066091A40280E490E00E94520655
:102C20006091A30281E490E00E9452060E94500746
:102C30008CED95E00E94490168EC70E080E090E046
:102C40000E949A0287E00E94D9020E94CD026093FE
:102C50004B0370934C0380934D0390934E0373C3C7
:102C600086E690E00E9466066091D8027091D902D3
:102C700088E690E00E9466066091D6027091D702C5
:102C80008AE690E00E9466066091D4027091D502B7
:102C90008CE690E00E9466066091D2027091D302A9
:102CA0008EE690E00E9466066091D0027091D1029B
:102CB00080E790E00E9466066091CE027091CF029C
:102CC00082E790E00E9466066091CC027091CD028E
:102CD00084E790E00E9466066091110370911203F0
:102CE00086E790E00E9466066091600388E790E0C6
:102CF0000E9452066091CB0289E790E00E94520642
:102D00006091CA028AE790E00E9452066091C9026F
:102D10008BE790E00E9452066091C8028CE790E039
:102D20000E9452066091C7028DE790E00E94520611
:102D30006091C6028EE790E00E9452066091C50243
:102D40008FE790E00E9452066091C40280E890E014
:102D50000E9452066091C30281E890E00E945206F0
:102D60006091C20282E890E00E9452066091C10226
:102D700083E890E00E9452066091C00284E890E0EF
:102D80000E9452066091BF0285E890E00E945206C0
:102D90006091BE0286E890E00E9452066091BD02FA
:102DA00087E890E00E9452066091BC0288E890E0BB
:102DB0000E9452066091BB0289E890E00E94520690
:102DC0006091BA028AE890E00E9452066091B902CE
:102DD0008BE890E00E9452066091B8028CE890E087
:102DE0000E9452066091B7028DE890E00E94520660
:102DF0006091B6028EE890E00E9452066091B502A2
:102E00008FE890E00E9452066091B40280E990E061
:102E10000E9452066091B30281E990E00E9452063E
:102E20006091B20282E990E00E9452066091B10284
:102E300083E990E00E9452066091B00284E990E03C
:102E40000E9452066091AF0285E990E00E9452060E
:102E50006091AE0286E990E00E9452066091AD0258
:102E600087E990E00E9452066091AC0288E990E008
:102E70000E9452066091AB0289E990E00E945206DE
:102E80006091AA028AE990E00E9452066091A9022C
:102E90008BE990E00E94520660913A0370913B03E7
:102EA0008CE990E00E9466066091A8028EE990E0AD
:102EB0000E9452066091A7028FE990E00E9452069C
:102EC0006091A60280EA90E00E945206609132036F
:102ED0007091330381EA90E00E9466066091A5023A
:102EE00083EA90E00E9452066091A40284EA90E096
:102EF0000E9452066091A30285EA90E095CE843745
:102F000009F04CC20E94CD0260934B0370934C03B6
:102F100080934D0390934E0380E380935F0362E3BD
:102F200070E080E090E00E949A0284E893E00E94C2
:102F3000490166E970E080E090E00E949A0287E033
:102F40000E94D90268EC70E080E090E00E949A0252
:102F500084E893E00E94490166E970E080E090E037
:102F60000E949A0287E00E94D90268EC70E080E03B
:102F700090E00E949A0284E893E00E94490166E989
:102F800070E080E090E00E949A0287E00E94D902FF
:102F900068EC70E080E090E00E949A0260E08AE0D5
:102FA0000E94DF006091590370915A0384EE94E00F
:102FB0000E949F04609157037091580387EE94E03C
:102FC0000E949F04609155037091560381EE94E036
:102FD0000E949F0460911703709118038EED94E096
:102FE0000E949F0468EE73E080E090E00E949A02E5
:102FF00084E893E00E9449016AE070E080E090E09C
:103000000E949A0287E00E94D90260E08AE00E9452
:10301000DF00609143037091440384EE94E00E94CA
:103020009F04609141037091420387EE94E00E94F7
:103030009F0460913F037091400381EE94E00E94F1
:103040009F0464EF71E080E090E00E949A0260913A
:1030500045037091460390E080E00E949A026091DF
:1030600036037091370384EE94E00E949F046091D0
:1030700038037091390387EE94E00E949F046091B9
:1030800034037091350381EE94E00E949F046091B7
:103090001303709114038EED94E00E949F0460E08E
:1030A0008AE00E94DF0061E087E00E94DF0060911B
:1030B0003A0370913B0390E080E00E949A02609195
:1030C0002E0370912F0384EE94E00E949F04609180
:1030D00030037091310387EE94E00E949F04609169
:1030E0002C0370912D0381EE94E00E949F04609167
:1030F00032037091330390E080E00E949A02609165
:103100002A0370912B0384EE94E00E949F04609147
:1031100028037091290387EE94E00E949F04609138
:1031200026037091270381EE94E00E949F046AE0D9
:1031300070E080E090E00E949A0281E080933E037C
:1031400010926103809366030E94E02184E893E07B
:103150000E9449016AE070E080E090E00E949A02DB
:1031600087E00E94D902609153037091540387EE67
:1031700094E00E949F04609151037091520384EE89
:1031800094E00E949F0460914F037091500381EE80
:1031900094E00E949F0461E08DE00E94DF0061E006
:1031A0008AE00E94DF0066E970E080E090E00E9423
:1031B0009A0260E08DE00E94DF0060E08AE00E94F9
:1031C000DF0068EE73E080E090E00E949A0261E028
:1031D0008DE00E94DF0061E08AE00E94DF0066E986
:1031E00070E080E090E00E949A0260E08DE00E9432
:1031F000DF0060E08AE00E94DF0068EE73E080E0BC
:1032000090E00E949A0261E08DE00E94DF0061E0A0
:103210008AE00E94DF0066E970E080E090E00E94B2
:103220009A0260E08DE00E94DF0060E08AE00E9488
:10323000DF0068EE73E080E090E00E949A02609107
:1032400085017091860187EE94E00E949F04609151
:1032500087017091880184EE94E00E949F04609140
:1032600083017091840181EE94E00E949F0461E0EB
:1032700087E00E94DF0064EF71E080E090E00E9450
:103280009A0260E087E00E94DF0068EC70E080E076
:1032900090E00E949A0261E087E00E94DF0064E60D
:1032A00070E080E090E00E949A0260E087E00E9477
:1032B000DF0060E273E080E090E00E949A0261E04B
:1032C00087E00E94DF0064EF71E080E090E00E9400
:1032D0009A0260E087E00E94DF0068EC70E080E026
:1032E00090E00E949A0261E087E00E94DF0064E6BD
:1032F00070E080E090E00E949A0260E087E00E9427
:10330000DF0060E273E080E090E00E949A0260914A
:1033100041037091420387EE94E00E949F04609104
:1033200043037091440384EE94E00E949F046091F3
:103330003F037091400381EE94E00E949F0460E09F
:1033400087E00E94DF0080915D0390915E032989F0
:103350003A898217930711F00E94500789899A8948
:1033600090935E0380935D03C85BDF4F0FB6F894C4
:10337000DEBF0FBECDBFDF91CF911F910F91FF90A8
:10338000EF90DF90CF90BF90AF909F908F907F9005
:103390006F905F904F903F902F900895813661F528
:1033A0006091590370915A0384EE94E00E949F0447
:1033B000609157037091580387EE94E00E949F0438
:1033C000609155037091560381EE94E00E949F0432
:1033D00084E893E00E94490162E370E080E090E0BD
:1033E0000E949A0287E00E94D90262E370E080E0C6
:1033F00090E00E949A0229CC8236A9F4609143039E
:103400007091440384EE94E00E949F046091410314
:103410007091420387EE94E00E949F0460913F0305
:1034200070914003D1CF8336A9F460913603709137
:10343000370384EE94E00E949F04609138037091FA
:10344000390387EE94E00E949F04609134037091E9
:103450003503BACF843651F56091B1017091B20154
:1034600084EE94E00E949F046091AF017091B001DE
:1034700087EE94E00E949F046091AD017091AE01CF
:1034800081EE94E00E949F0484E893E00E94490149
:1034900062E370E080E090E00E949A0287E00E9480
:1034A000D9026CE271E080E090E0A3CF8536A9F408
:1034B0006091AB017091AC0184EE94E00E949F0496
:1034C0006091A9017091AA0187EE94E00E949F0487
:1034D0006091A7017091A801D3CF8636A9F46091BD
:1034E000A5017091A60184EE94E00E949F04609172
:1034F000A3017091A40187EE94E00E949F04609163
:10350000A1017091A201BCCF8736A9F460919F01FF
:103510007091A00184EE94E00E949F0460919D014F
:1035200070919E0187EE94E00E949F0460919B0140
:1035300070919C01A5CF8836A9F460919901709192
:103540009A0184EE94E00E949F046091970170912B
:10355000980187EE94E00E949F046091950170911C
:1035600096018ECF8936A9F46091930170919401F0
:1035700084EE94E00E949F04609191017091920109
:1035800087EE94E00E949F0460918F0170919001FA
:1035900077CF8A36A9F460918D0170918E0184EE07
:1035A00094E00E949F0460918B0170918C0187EEE2
:1035B00094E00E949F046091890170918A0160CF1C
:1035C0008B36A9F4609151037091520384EE94E01C
:1035D0000E949F04609153037091540387EE94E01E
:1035E0000E949F0460914F037091500349CF8C3625
:1035F000A9F4609187017091880184EE94E00E94A3
:103600009F04609185017091860187EE94E00E948D
:103610009F04609183017091840132CF8D3609F04F
:103620000AC21092820184E893E00E94490164E694
:1036300070E080E090E00E949A0287E00E94D90248
:1036400089E00E94B6009A83898381E10E94630227
:1036500090930E0380930D038F3A91403CF480E1E8
:103660000E94630290930E0380930D0360910D03FB
:1036700070910E03072E000C880B990B0E944930A5
:103680002AE038E240EA5BE30E94843020E030E048
:1036900048EC52E40E9484300E94D93170930C03AC
:1036A00060930B032091090330910A03C901860F2F
:1036B000971F909308038093070329813A81232B56
:1036C00051F00E94CD026093190370931A03809306
:1036D0001B0390931C030E94CD02009119031091CB
:1036E0001A0320911B0330911C03601B710B820B8A
:1036F000930B6C3271408105910518F081E0809345
:10370000820168EC70E080E090E00E949A0283E21F
:1037100091E00E94070681E291E00E9407068091F5
:103720005B0390915C030E94170681E291E00E9486
:1037300007068091090390910A030E94170681E20F
:1037400091E00E94070680916203909163030E94BA
:103750004C0681E291E00E94070689E290E00E9417
:10376000170681E291E00E940706809162010E94A3
:10377000450681E291E00E940706809161010E9466
:10378000450681E291E00E94070680911503909121
:1037900016030E944C0681E291E00E940706809188
:1037A0000B0390910C030E94170681E291E00E94A6
:1037B0000706809160010E94450681E291E00E9427
:1037C0000706809125030E94450681E291E00E9450
:1037D000090681E893E00E94F003181619060CF020
:1037E000DDC06AE070E080E090E00E949A0281E82B
:1037F00093E00E94410380935F03813709F0D4C0B6
:1038000084E893E00E9449010E9494031B016093A5
:10381000B3013092B4018093B5019093B6010E9438
:1038200094032B013C014092B7015092B801609281
:10383000B9017092BA010E9494034B015C0180921D
:10384000BB019092BC01A092BD01B092BE010E944A
:103850009403062F6093BF017093C0018093C10150
:103860009093C2010E949403162F6093C30170933A
:10387000C4018093C5019093C6010E9494036B011B
:103880007C01C092C701D092C801E092C901F092B8
:10389000CA010E9494036D836093CB017093CC01A5
:1038A0008093CD019093CE010E949403698360932D
:1038B000CF017093D0018093D1019093D20168EC35
:1038C00070E080E090E00E949A0287E00E94D902B6
:1038D00081E893E00E94F003181619062CF481E8A1
:1038E00093E00E944103F4CF622D20925B0330925B
:1038F0005C0350920A034092090390926303809202
:1039000062030093620110936101D0921603C0928A
:1039100015039D8190936001A981A09325038AECF2
:1039200090E00E9452066091090388EC90E00E94AA
:103930005206609162038CEC90E00E945206609106
:1039400062018DEC90E00E945206609161018EEC64
:1039500090E00E94520660911503709116038FEC5F
:1039600090E00E9466066091600181ED90E00E9407
:1039700052066091250382ED90E00E9452060E945B
:1039800050078CED95E00E94490166E970E080E007
:1039900090E00E949A0287E00E94D9028091820101
:1039A000882309F44DCE51C9823789F484E893E025
:1039B0000E94490168EC70E080E090E00E949A0269
:1039C00087E00E94D902B1E0B0938201E7CF8A3745
:1039D00021F4F0E0E0E00995E1CF609113037091EC
:1039E00014038F3631F08037C9F660911703709158
:1039F00018038EED94E00E949F0484E893E00E94F7
:103A0000490164E670E080E090E00E949A0287E05D
:103A10000E94D9026CE271E080E090E00E949A027C
:103A20000E94CD0260934B0370934C0380934D032F
:103A300090934E03B3CF8E36A9F460912E0370910C
:103A40002F0384EE94E00E949F04609130037091F4
:103A5000310387EE94E00E949F0460912C037091E3
:103A60002D030ECD8F3609F560912A0370912B033B
:103A700084EE94E00E949F046091280370912903D2
:103A800087EE94E00E949F046091260370912703C3
:103A900081EE94E00E949F0484E893E00E94490133
:103AA00064E670E080E090E0F7CC833709F00DC267
:103AB0001092820184E893E00E94490164E670E07C
:103AC00080E090E00E949A0287E00E94D90289E09B
:103AD0000E94B600892B51F00E94CD026093190319
:103AE00070931A0380931B0390931C030E94CD02D2
:103AF0000091190310911A0320911B0330911C03AC
:103B0000601B710B820B930B6C3271408105910528
:103B100018F021E02093820168EC70E080E090E0F2
:103B20000E949A0285E291E00E94070681E291E0FC
:103B30000E940706809181010E94450681E291E082
:103B40000E94070660917D0170917E0180917F0146
:103B5000909180014AE00E94C30581E291E00E94B9
:103B600007066091790170917A0180917B019091B3
:103B70007C014AE00E94C30581E291E00E940706B1
:103B80006091750170917601809177019091780133
:103B90004AE00E94C30581E291E00E94070660911D
:103BA00071017091720180917301909174014AE0EA
:103BB0000E94C30581E291E00E94070660916D01B9
:103BC00070916E0180916F01909170014AE00E94A6
:103BD000C30581E291E00E9407066091690170913E
:103BE0006A0180916B0190916C014AE00E94C305CB
:103BF00081E291E00E94090681E893E00E94F003CF
:103C0000181619060CF0FFC06AE070E080E090E042
:103C10000E949A0281E893E00E94410380935F032F
:103C2000883709F0F6C084E893E00E9449010E94B9
:103C300094036B8B6093B3017093B4018093B501CF
:103C40009093B6010E9494032B013C014092B7016E
:103C50005092B8016092B9017092BA010E94940327
:103C60004B015C018092BB019092BC01A092BD010E
:103C7000B092BE010E94940369837A838B839C83F4
:103C80006093BF017093C0018093C1019093C20102
:103C90000E9494036D837E838F8398876093C30112
:103CA0007093C4018093C5019093C6010E94940350
:103CB00069877A878B879C876093C7017093C80157
:103CC0008093C9019093CA010E9494036D877E87F7
:103CD0008F87988B6093CB017093CC018093CD013B
:103CE0009093CE010E9494036093CF017093D00112
:103CF0008093D1019093D20187E00E94D90281E89C
:103D000093E00E94F003181619062CF481E893E062
:103D10000E944103F4CF3B89309381018AE0C82E91
:103D2000D12CE12CF12CC301B201A70196010E9414
:103D3000583120936801C501B401A70196010E9482
:103D400058312093670169817A818B819C81A70119
:103D500096010E945831209366016D817E818F818A
:103D60009885A70196010E945831209365016985C5
:103D70007A858B859C85A70196010E9458312093F6
:103D800064016D857E858F859889A70196010E94C3
:103D90005831209363016B8982E490E00E945206BF
:103DA0006091680183E490E00E945206609167018F
:103DB00084E490E00E9452066091660185E490E000
:103DC0000E9452066091650186E490E00E945206CE
:103DD0006091640187E490E00E9452066091630163
:103DE00088E490E00E9452060E9450078CED95E016
:103DF0000E94490166E970E080E090E00E949A022A
:103E000087E00E94D90280918201882309F45FCE65
:103E10009ACA823789F484E893E00E94490168ECE9
:103E200070E080E090E00E949A0287E00E94D90250
:103E300081E080938201E7CF853729F784E893E01A
:103E40000E9449010E9494032B013C014092B3015E
:103E50005092B4016092B5017092B6010E94940331
:103E60004B015C018092B7019092B801A092B90118
:103E7000B092BA010E9494036B017C01C092BB0115
:103E8000D092BC01E092BD01F092BE0187E00E9499
:103E9000D90281E893E00E94F003181619062CF469
:103EA00081E893E00E944103F4CFB20187EE94E0F1
:103EB0000E949F04B40184EE94E00E949F04B60126
:103EC00081EE94E00E949F049ECF873709F05EC088
:103ED0001092820184E893E00E94490164E670E058
:103EE00080E090E00E949A0287E00E94D90268EC8C
:103EF00070E080E090E00E949A0287E291E00E94E8
:103F000007068EE291E00E94070689E290E00E9497
:103F100017068CE191E00E94B60581E893E00E94CB
:103F2000F0031816190664F56AE070E080E090E08E
:103F30000E949A0281E893E00E9441038983809362
:103F40005F0381E893E00E94F003181619062CF431
:103F500081E893E00E944103F4CF9981923781F484
:103F600084E893E00E94490168EC70E080E090E012
:103F70000E949A0287E00E94D902A1E0A0938201E8
:103F800080918201882309F4B2CFDDC98A3709F014
:103F9000DAC9F0E0E0E00995D6C910923E0381E06D
:103FA00080936103109204010E94CD0260934B0341
:103FB00070934C0380934D0390934E0360914103A3
:103FC0007091420387EE94E00E949F0464E670E0E3
:103FD00080E090E00E949A02609143037091440354
:103FE00084EE94E00E949F0464E670E080E090E03C
:103FF0000E949A0260913F037091400381EE94E029
:104000000E949F0460911303709114038EED94E05D
:104010000E949F0460E087E00E94DF0064E670E099
:1040200080E090E00E949A0284EA96E00E944901B2
:1040300064E670E080E090E00E949A0287E00E94CF
:10404000D90264E670E080E090E00E949A0280E28B
:1040500093E00E94490164E670E080E090E00E94F5
:104060009A0287E00E94D90289E00E94B600892B5B
:1040700019F410920401F8CF61E08DE00E94DF0096
:1040800064EF71E080E090E00E949A0261E08DE0D0
:104090000E94DF000E94CD026093470370934803A3
:1040A0008093490390934A030E945D0F89E00E9428
:1040B000B600892B59F780E293E00E94490164E63B
:1040C00070E080E090E00E949A0287E00E94D902AE
:1040D00060E08DE00E94DF0060E08AE00E94DF0087
:1040E00060911703709118038EED94E00C949F0477
:1040F0008F929F92AF92BF92EF92FF920F931F9376
:10410000CF93DF93EE24E39482E00E94B600EC01AB
:1041100089E00E94B6008C018EE00E94B6002091DA
:10412000C202F0908101892B71F4222329F0F2164A
:1041300018F021502093C20264E670E080E090E025
:104140000E949A02E9CF8FE00E94B600A091C202BD
:10415000892B71F4AA2329F0FA1618F0AF5FA09307
:10416000C20264E670E080E090E00E949A02EBCF29
:1041700080907D0190907E01A0907F01B0908001A1
:104180002091790130917A0140917B0150917C011D
:10419000281939094A095B09B0E00E9477312F2DAF
:1041A00030E050E040E00E945831CA01B901680D8A
:1041B000791D8A1D9B1D709354036093530387EEF2
:1041C00094E00E949F040130110551F40E94CD0239
:1041D000609358017093590180935A0190935B0149
:1041E0000E94CD02009158011091590120915A016D
:1041F00030915B01601B710B820B930B683873412C
:104200008105910510F00E94CD1F219709F04DC046
:104210000E94CD0200915C0110915D0120915E0130
:1042200030915F01601B710B820B930B00910001B9
:104230001091010120910201309103010617170727
:104240002807390790F180913E03882371F180900F
:10425000030390900403A0900503B090060380919F
:10426000000381112EC00E94CD02681979098A09C4
:104270009B09603D77408105910560F0E092000365
:104280000E94CD026093030370930403809305039F
:1042900090930603C09100036C2F8AE00E94DF0018
:1042A0006C2F8DE00E94DF0023C0DF91CF911F9122
:1042B0000F91FF90EF90BF90AF909F908F900C94D4
:1042C00078060E94CD02681979098A099B09663926
:1042D00071058105910560F0109200030E94CD02E6
:1042E0006093030370930403809305039093060384
:1042F0000E94CD02009158011091590120915A015C
:1043000030915B01601B710B820B930B6D3D75400F
:104310008105910508F4F8CEDF91CF911F910F919F
:10432000FF90EF90BF90AF909F908F900C94CD1F17
:10433000CF93C1E089E00E94B600892BF1F40E947E
:10434000CD02609358017093590180935A01909364
:104350005B010E94CD0260935C0170935D018093CC
:104360005E0190935F01C0933E0382E00E94B6001D
:10437000892B01F70E947806DDCF6091530370917D
:10438000540387EE94E00E949F0460915103709162
:10439000520384EE94E00E949F0460914F03709159
:1043A000500381EE94E00E949F046091130370918A
:1043B00014038EED94E00E949F04CF910C9478201A
:1043C0000F931F9360E087E00E94DF0087E00E9468
:1043D000D9020E94CD0260931D0370931E03809347
:1043E0001F03909320030E94CD0200911D031091A2
:1043F0001E0320911F0330912003AB01BC01401B21
:10440000510B620B730B8091D8029091D902B0E0EE
:10441000A0E084179507A607B70760F180913E03D7
:10442000882341F182E00E94B600892B11F40E949A
:1044300078066091AF017091B00187EE94E00E9420
:104440009F046091B1017091B20184EE94E00E94EA
:104450009F046091AD017091AE0181EE94E00E94E5
:104460009F0460911303709114038EED94E00E94F9
:104470009F04B9CF84E190E00E94760660916003CA
:10448000861356C084E893E00E9449016AE070E018
:1044900080E090E00E949A0287E00E94D9020E9488
:1044A000CD0260935401709355018093560190930F
:1044B00057010E94CD0200915401109155012091A5
:1044C000560130915701AB01BC01401B510B620BEF
:1044D000730B8091D6029091D702B0E0A0E08417D0
:1044E0009507A607B70748F180913E03882329F175
:1044F00082E00E94B600892B11F40E947806609138
:10450000A9017091AA0187EE94E00E949F04609136
:10451000AB017091AC0184EE94E00E949F04609125
:10452000A7017091A80181EE94E00E949F04C1CF81
:1045300084E190E00E945206A5CF84E893E00E94B7
:1045400049016AE070E080E090E00E949A0287E012
:104550000E94D9020E94CD026093500170935101D4
:1045600080935201909353010E94CD02009150011B
:10457000109151012091520130915301AB01BC01C6
:10458000401B510B620B730B8091D4029091D502AA
:10459000B0E0A0E084179507A607B70720F1809147
:1045A0003E03882301F182E00E94B600892B11F4BA
:1045B0000E9478066091A3017091A40187EE94E0B7
:1045C0000E949F046091A5017091A60184EE94E081
:1045D0000E949F046091A1017091A20181EE94E07C
:1045E0000E949F04C1CF84E893E00E9449016AE0E1
:1045F00070E080E090E00E949A0287E00E94D90279
:104600000E94CD0260934C0170934D0180934E0146
:1046100090934F010E94CD0200914C0110914D01E9
:1046200020914E0130914F01AB01BC01401B510B59
:10463000620B730B8091D2029091D302B0E0A0E0A4
:1046400084179507A607B70720F180913E038823BA
:1046500001F182E00E94B600892B11F40E947806D5
:1046600060919D0170919E0187EE94E00E949F04ED
:1046700060919F017091A00184EE94E00E949F04DC
:1046800060919B0170919C0181EE94E00E949F04D7
:10469000C1CF84E893E00E9449016AE070E080E0C5
:1046A00090E00E949A0287E00E94D9020E94CD0207
:1046B000609348017093490180934A0190934B01A4
:1046C0000E94CD02009148011091490120914A01B8
:1046D00030914B01AB01BC01401B510B620B730BC2
:1046E0008091D0029091D102B0E0A0E084179507AC
:1046F000A607B70720F180913E03882301F182E0ED
:104700000E94B600892B11F40E94780660919701EF
:104710007091980187EE94E00E949F046091990146
:1047200070919A0184EE94E00E949F04609195013B
:104730007091960181EE94E00E949F04C1CF84E8BD
:1047400093E00E9449016AE070E080E090E00E94FE
:104750009A0287E00E94D9020E94CD026093440130
:104760007093450180934601909347010E94CD02CA
:10477000009144011091450120914601309147017B
:10478000AB01BC01401B510B620B730B8091CE023D
:104790009091CF02B0E0A0E084179507A607B70775
:1047A00020F180913E03882301F182E00E94B6004F
:1047B000892B11F40E947806609191017091920109
:1047C00087EE94E00E949F046091930170919401A0
:1047D00084EE94E00E949F0460918F01709190019B
:1047E00081EE94E00E949F04C1CF84E893E00E9490
:1047F00049016AE070E080E090E00E949A0287E060
:104800000E94D9020E94CD02609340017093410141
:1048100080934201909343010E94CD020091400198
:10482000109141012091420130914301AB01BC0143
:10483000401B510B620B730B8091CC029091CD0207
:10484000B0E0A0E084179507A607B70720F1809194
:104850003E03882301F182E00E94B600892B11F407
:104860000E94780660918B0170918C0187EE94E034
:104870000E949F0460918D0170918E0184EE94E0FE
:104880000E949F046091890170918A0181EE94E0F9
:104890000E949F04C1CF84E893E00E9449016AE02E
:1048A00070E080E090E00E949A0287E00E94D902C6
:1048B0000E94CD02609358017093590180935A0170
:1048C00090935B0180916603811142C082E00E9457
:1048D000B6000197C9F5609153037091540387EEB8
:1048E00094E00E949F04609151037091520384EE02
:1048F00094E00E949F0460914F037091500381EEF9
:1049000094E00E949F040E94CD026093580170932E
:10491000590180935A0190935B010E94CD026093EC
:104920005C0170935D0180935E0190935F0187E06D
:104930000E94D9026091600384E190E00E945206D7
:104940001F910F910C9478201F910F910C94780671
:104950001F910F9108951F920F920FB60F9211247D
:104960002F933F938F939F93AF93BF93809168034F
:1049700090916903A0916A03B0916B033091670332
:1049800023E0230F2D3758F50196A11DB11D20936B
:1049900067038093680390936903A0936A03B093BD
:1049A0006B0380916C0390916D03A0916E03B091A5
:1049B0006F030196A11DB11D80936C0390936D034D
:1049C000A0936E03B0936F03BF91AF919F918F91AE
:1049D0003F912F910F900FBE0F901F90189526E8D2
:1049E000230F0296A11DB11DD2CF1F920F920FB6B9
:1049F0000F9211242F933F934F935F936F937F9365
:104A00008F939F93AF93BF93EF93FF938091750321
:104A100090917603A0917703B0917803892B8A2B2C
:104A20008B2BD1F190917003E0917103F09172039F
:104A30008081892780838091750390917603A0916E
:104A40007703B0917803181619061A061B069CF412
:104A50008091750390917603A0917703B0917803CC
:104A60000197A109B1098093750390937603A093F0
:104A70007703B0937803FF91EF91BF91AF919F912E
:104A80008F917F916F915F914F913F912F910F90F7
:104A90000FBE0F901F901895809109010E94D902B6
:104AA000EACF1F920F920FB60F9211242F933F93CC
:104AB0004F935F936F937F938F939F93AF93BF9326
:104AC000EF93FF9381E893E00E940B04FF91EF9135
:104AD000BF91AF919F918F917F916F915F914F9116
:104AE0003F912F910F900FBE0F901F9018951F921E
:104AF0000F920FB60F9211242F938F939F93EF93E2
:104B0000FF93E0919103F09192038081E0919703EC
:104B1000F091980382FD1AC0908180919A038F5F73
:104B200020919B03821741F0E0919A03F0E0EF5748
:104B3000FC4F958F80939A03FF91EF919F918F91F6
:104B40002F910F900FBE0F901F9018958081F4CF7A
:104B50001F920F920FB60F9211242F933F934F93F2
:104B60005F936F937F938F939F93AF93BF93CF93F5
:104B7000DF93EF93FF938091DA02C091DB02D0E0E4
:104B800087FF24C010928500109284008091DA0281
:104B90008F5F8093DA028091DA02082E000C990B65
:104BA0008C179D0724F48091DA028C30C4F1809137
:104BB000840090918500049680349C4908F47AC062
:104BC0008091840090918500049676C08091DA02ED
:104BD000082E000C990B8C179D07C4F6E091DA02A1
:104BE0008E2FEE0F990BFC01EE0FFF1FE80FF91F40
:104BF000E452FD4F808186FFC9CFE091DA028E2F0B
:104C0000EE0F990BFC01EE0FFF1FE80FF91FE452A6
:104C1000FD4F808160E08F730E94DF00B7CF20914D
:104C2000840030918500E091DA028E2FEE0F990B0F
:104C3000FC01EE0FFF1FE80FF91FE452FD4F8181C9
:104C40009281820F931F9093890080938800E09156
:104C5000DA028E2FEE0F990BFC01EE0FFF1FE80F0B
:104C6000F91FE452FD4F808186FF11C0E091DA0206
:104C70008E2FEE0F990BFC01EE0FFF1FE80FF91FAF
:104C8000E452FD4F808161E08F730E94DF00FF914D
:104C9000EF91DF91CF91BF91AF919F918F917F91D4
:104CA0006F915F914F913F912F910F900FBE0F9099
:104CB0001F90189580E49CE9909389008093880068
:104CC0008FEF8093DA02E3CFFC019091DB029C30FE
:104CD00098F481E0890F8093DB029083892F90E024
:104CE000FC01EE0FFF1FE80FF91FE452FD4F88EBA8
:104CF0009BE09283818308958FEF80830895E1E89C
:104D0000F3E01382128288EE93E0A0E0B0E08483A7
:104D10009583A683B7838EE091E09183808385ECB1
:104D200090E09587848784EC90E09787868780EC75
:104D300090E0918B808B81EC90E0938B828B82EC66
:104D400090E0958B848B86EC90E0978B868B118E10
:104D5000128E138E148E87EE94E00E94642684EEE9
:104D600094E00E94642681EE94E00E9464268EED19
:104D700094E00C946426CF93DF9300D000D0CDB79D
:104D8000DEB7789484B5826084BD84B5816084BDCB
:104D900085B5826085BD85B5816085BD80916E00D9
:104DA000816080936E00109281008091810082600A
:104DB0008093810080918100816080938100809147
:104DC00080008160809380008091B1008460809336
:104DD000B1008091B00081608093B00080917A0032
:104DE000846080937A0080917A00826080937A0058
:104DF00080917A00816080937A0080917A00806847
:104E000080937A001092C10068EC70E080E090E03E
:104E10000E949A02609141037091420387EE94E0F0
:104E20000E949F04609143037091440384EE94E0D8
:104E30000E949F0460913F037091400381EE94E0D3
:104E40000E949F0461E087E00E940D0161E08AE01A
:104E50000E940D0161E08DE00E940D0162E089E099
:104E60000E940D0162E088E00E940D0162E082E094
:104E70000E940D0160E080E10E940D0160E081E18F
:104E80000E940D0162E08EE00E940D0162E08FE061
:104E90000E940D0162E082E10E940D0160E08AE063
:104EA0000E94DF00E0919103F091920382E0808301
:104EB000E0918D03F0918E031082E0918F03F091C9
:104EC000900380E1808310929903E0919503F09123
:104ED000960386E08083E0919303F09194038081B0
:104EE00080618083E0919303F091940380818860D6
:104EF0008083E0919303F0919403808180688083A4
:104F0000E0919303F091940380818F7D808384E608
:104F100090E00E947606893179F061E08DE00E9490
:104F2000DF0082E70E947A048CE70E947A0488E31B
:104F300091E00E940906EBCF82E10E94B600813029
:104F4000910509F07DC090935E0380935D030E94FC
:104F5000500780916203909163034AE0489F90015B
:104F6000499F300D1124A4E6B0E00E94A431609363
:104F7000050170930601809307019093080111E0E9
:104F800089E00E94B600892B09F0BAC00E94CD02C8
:104F900060930303709304038093050390930603C7
:104FA000109202031092010361E08AE00E94DF0088
:104FB00080ED97E00E94490168EE73E080E090E0A8
:104FC0000E949A0287E00E94D90260E08AE00E9473
:104FD000DF0089E00E94B6002091010330910203B6
:104FE0003A832983892B09F059C0C0900303D090DC
:104FF0000403E0900503F0900603809100038823EA
:1050000021F10E94CD026C197D098E099F09683C2F
:10501000710581059105E8F2109200030E94CD020E
:105020006093030370930403809305039093060336
:1050300060E08AE00E94DF0087E00E94D902C9CFC9
:1050400010925E0310925D0382CF0E94CD026C1914
:105050007D098E099F096C3474408105910508F41F
:10506000B8CF109300030E94CD02609303037093A6
:105070000403809305039093060361E08AE00E9495
:10508000DF008CEB92E00E94490149815A81445C27
:105090005F4F50930203409301039BCF69817A8154
:1050A00082E190E00E946606609101037091020324
:1050B00086E790E00E94660668EE73E080E090E08C
:1050C0000E949A0261E08AE00E94DF008CEB92E08D
:1050D0000E94490168EE73E080E090E00E949A022D
:1050E00087E00E94D90260E08AE00E94DF0068EC5D
:1050F00070E080E090E00E949A020E94320540CF6A
:1051000080911103909112036CE370E00E94BF3113
:105110007093100360930F036F30710530F08FE0D0
:1051200090E09093100380930F038CEB92E00E9429
:10513000490164E670E080E090E00E949A0287E016
:105140000E94D90264E670E080E090E00E949A023A
:105150008CED95E00E94490164E670E080E090E00B
:105160000E949A0287E00E94D90264EF71E080E019
:1051700090E00E949A0281E10E94630290930E03E4
:1051800080930D038F3A91403CF480E10E946302CA
:1051900090930E0380930D0360910D0370910E03A5
:1051A000072E000C880B990B0E9449302AE038E248
:1051B00040EA5BE30E94843020E030E048EC52E4B7
:1051C0000E9484300E94D93170930C0360930B03CA
:1051D0002091090330910A03260F371F3A83298350
:1051E000309308032093070349815A814535514084
:1051F000B4F589E00E94B600019789F581E893E053
:105200000E94F003892B59F580E293E00E94490146
:1052100064E670E080E090E00E949A0287E00E94DD
:10522000D90264E670E080E090E00E949A0280E299
:1052300093E00E94490164E670E080E090E00E9403
:105240009A0287E00E94D90264EF71E080E090E06A
:105250000E949A0229813A81293C31052CF663E0AB
:1052600070E087EE94E00E94D60464E070E084EE83
:1052700094E00E94D60465E070E081EE94E00E9424
:10528000D60466E070E08EED94E00E94D604609152
:1052900041037091420387EE94E00E949F04609165
:1052A00043037091440384EE94E00E949F04609154
:1052B0003F037091400381EE94E00E949F0460914F
:1052C0001303709114038EED94E00E949F041A82E0
:1052D000198280910F039091100349815A814817D8
:1052E0005907CCF48CED95E00E9449016CE271E025
:1052F00080E090E00E949A0287E00E94D9026CE26E
:1053000071E080E090E00E949A0289819A81019682
:105310009A838983DECF1092610389E00E94B600F0
:105320000197B9F40E94CD0260934703709348033C
:105330008093490390934A030E945D0F82E00E948C
:10534000B600892B51F791E0909304010E947806F2
:10535000E4CF0E94CD0260934B0370934C03809383
:105360004D0390934E030E94CD02609347037093C8
:1053700048038093490390934A031092660321E007
:1053800030E0309365032093640389E00E94B60007
:105390008C0188E00E94B6009A83898382E10E9492
:1053A000B6007C018090050190900601A090070155
:1053B000B090080138EB831A3BE0930AA108B108CA
:1053C00080916203909163034AE0489F9001499F56
:1053D000300D1124A4E6B0E00E94A43160930501D1
:1053E0007093060180930701909308011092610366
:1053F0008EE00E94B600892B71F480916003815089
:10540000843B10F48093600364E670E080E090E0F9
:105410000E949A02EDCF8FE00E94B600892BB1F472
:10542000809160039FEF980F943B28F48F5F853B3A
:1054300049F08093600364E670E080E090E00E94B1
:105440009A02E9CF54EB50936003F5CF10925F03BB
:1054500082E70E947A048CE191E00E94B60581E81F
:1054600093E00E94F0031816190684F46AE070E0D5
:1054700080E090E00E949A0281E893E00E9441035C
:1054800080935F03823711F40E94CD1F80915D03EA
:1054900090915E03E816F90611F00E94500782E031
:1054A0000E94B600892B21F41092650310926403C8
:1054B0008091640390916503892B29F481E08093A6
:1054C00004010E94780680915B0390915C03813017
:1054D000910509F0D7C101301105F1F529813A8113
:1054E000232B09F03BC16091590370915A0384EE5C
:1054F00094E00E949F04609157037091580387EED7
:1055000094E00E949F04609155037091560381EED0
:1055100094E00E949F040E94CD02C0904B03D09063
:105520004C03E0904D03F0904E036C197D098E09F9
:105530009F09643671058105910570F00E94CD02C6
:1055400060934703709348038093490390934A0301
:1055500060E087E00E94DF0049815A81452B51F4C9
:105560000E94CD02609347037093480380934903E0
:1055700090934A038091640390916503892B11F401
:105580000E9478060115110509F0A2C00E94CD0203
:1055900060934B0370934C0380934D0390934E03A1
:1055A00060E08AE00E94DF000E94CD02C0904703C5
:1055B000D0904803E0904903F0904A0320904503BF
:1055C000309046032101712C612C6C197D098E09E4
:1055D0009F094616570668067906C0F06091430396
:1055E0007091440384EE94E00E949F046091410313
:1055F0007091420387EE94E00E949F0460913F0304
:105600007091400381EE94E00E949F040E94CD02BD
:105610006C197D098E099F09641575058605970526
:1056200008F456C089819A81019709F051C091E030
:1056300090933E030E94CD02AB01BC014C195D0961
:105640006E097F0980913C0390913D03B0E0A0E09A
:1056500084179507A607B70708F4F8C061E087E04C
:105660000E94DF000E94CD0220913A0330913B035B
:10567000220E331E2101712C612CAB01BC014C198F
:105680005D096E097F09441655066606770608F41B
:105690007AC0609138037091390387EE94E00E94DC
:1056A0009F04609136037091370384EE94E00E946A
:1056B0009F04609134037091350381EE94E00E9461
:1056C0009F0482E00E94B600892B11F40E947806A4
:1056D0000E94CD02C0904B03D0904C03E0904D034C
:1056E000F0904E036C197D098E099F0968157905A4
:1056F0008A059B0508F4C3C084E893E00E94490131
:105700000E94CD026C197D098E099F09C090050188
:10571000D0900601E0900701F09008016C157D051E
:105720008E059F0528F087E00E94D9020E94780626
:1057300080913E03882329F00130110511F40E9465
:10574000E02140E050E0452B09F417CE0E94F7031A
:10575000882309F412CE0E9400000FCE60915303FB
:105760007091540387EE94E00E949F04609151036E
:105770007091520384EE94E00E949F0460914F0365
:1057800070915003C4CE0E94CD022091320330911B
:105790003303220E331E910150E040E029833A8307
:1057A0004B835C83AB01BC014C195D096E097F0919
:1057B000441555056605770528F50E94CD026C193C
:1057C0007D098E099F0929813A814B815C8162178D
:1057D00073078407950708F474CF60912A037091CA
:1057E0002B0384EE94E00E949F0460912803709143
:1057F000290387EE94E00E949F0460912603709134
:1058000027035BCF0E94CD026C197D098E099F0989
:1058100029813A814B815C81261737074807590750
:1058200060F2609130037091310387EE94E00E9442
:105830009F0460912E0370912F0384EE94E00E94E8
:105840009F0460912C0370912D0337CF8091250325
:1058500060E081110BC087E00E94DF0087E00E94BA
:10586000D90210923E030E9478062BCF87E00E9457
:10587000DF0087E00E94D9020E94982122CF0E9477
:1058800055053ECF009709F0E5C10130110509F03B
:105890003FC049815A814130510509F049C16091A9
:1058A000590370915A0384EE94E00E949F04609122
:1058B00057037091580387EE94E00E949F04609113
:1058C00055037091560381EE94E00E949F040E945C
:1058D000CD02C0904B03D0904C03E0904D03F0906C
:1058E0004E036C197D098E099F0964367105810587
:1058F000910570F00E94CD026093470370934803B6
:105900008093490390934A0360E087E00E94DF00A0
:1059100089819A810197F1F40E94CD026093470337
:10592000709348038093490390934A030E94CD02E9
:105930002091450330914603AB01BC01420F531F38
:10594000611D711D40932103509322036093230333
:10595000709324038091640390916503892B11F463
:105960000E9478060115110509F0A2C00E94CD021F
:1059700060934B0370934C0380934D0390934E03BD
:1059800060E08AE00E94DF000E94CD02C0904703E1
:10599000D0904803E0904903F0904A0320904503DB
:1059A000309046032101712C612C6C197D098E0900
:1059B0009F094616570668067906C0F060914303B2
:1059C0007091440384EE94E00E949F04609141032F
:1059D0007091420387EE94E00E949F0460913F0320
:1059E0007091400381EE94E00E949F040E94CD02DA
:1059F0006C197D098E099F09641575058605970543
:105A000008F456C029813A81232B09F051C031E0B6
:105A100030933E030E94CD02AB01BC014C195D09DD
:105A20006E097F0980913C0390913D03B0E0A0E0B6
:105A300084179507A607B70708F4F2C061E087E06E
:105A40000E94DF000E94CD0220913A0330913B0377
:105A5000220E331E2101712C612CAB01BC014C19AB
:105A60005D096E097F09441655066606770608F437
:105A700074C0609138037091390387EE94E00E94FE
:105A80009F04609136037091370384EE94E00E9486
:105A90009F04609134037091350381EE94E00E947D
:105AA0009F0482E00E94B600892B11F40E947806C0
:105AB0000E94CD02C0904B03D0904C03E0904D0368
:105AC000F0904E036C197D098E099F0968157905C0
:105AD0008A059B0508F4BBC084E893E00E94490155
