:100000000C9463000C948B000C948B000C948B006C
:100010000C948B000C948B000C948B000C943C255E
:100020000C948B000C948B000C948B000C94EF259B
:100030000C948B000C948B000C948B000C948B0014
:100040000C94F2240C948B000C94BE250C949825EF
:100050000C948B000C948B000C948B000C948B00F4
:100060000C948B000C948B000000000024002700EF
:100070002A000000000023002600290000000008DC
:10008000000201000003040700000000000000005F
:10009000010204081020408001020408102001021F
:1000A0000408102000000000250028002B00040494
:1000B0000404040404040202020202020303030310
:1000C00003030200C62611241FBECFEFD8E0DEBF17
:1000D000CDBF11E0A0E0B1E0E0ECF4E602C0059095
:1000E0000D92AE33B107D9F724E0AEE3B1E001C021
:1000F0001D92A63EB207E1F710E0C3E6D0E004C0CF
:100100002197FE010E942932C236D107C9F70E9409
:1001100002270C945E320C940000833081F028F4A6
:10012000813099F08230A9F008958730A9F08830A5
:10013000C9F08430B1F4809180008F7D03C080913C
:1001400080008F7780938000089584B58F7784BD79
:10015000089584B58F7DFBCF8091B0008F77809319
:10016000B00008958091B0008F7DF9CFCF93DF93D9
:10017000282F30E0F901E458FF4F8491F901E0574E
:10018000FF4FD491F901E255FF4FC491CC23A1F068
:1001900081110E948D00EC2FF0E0EE0FFF1FEE5852
:1001A000FF4FA591B491EC91ED2381E090E009F42B
:1001B00080E0DF91CF91089580E090E0FACF1F9327
:1001C000CF93DF93282F30E0F901E458FF4F84915B
:1001D000F901E057FF4FD491F901E255FF4FC49167
:1001E000CC23A9F0162F81110E948D00EC2FF0E096
:1001F000EE0FFF1FEC55FF4FA591B4918FB7F89408
:10020000EC91111108C0D095DE23DC938FBFDF91F4
:10021000CF911F910895DE2BF8CFCF93DF9390E01D
:10022000FC01E057FF4F249182559F4FFC018491C0
:100230008823C9F090E0880F991FFC01E859FF4F0F
:10024000A591B491FC01EC55FF4FC591D49161117A
:100250000DC09FB7F8948C91209582238C93888150
:10026000282328839FBFDF91CF910895623051F4F6
:100270009FB7F8943C91822F809583238C93E881DB
:100280002E2BEFCF8FB7F894EC912E2B2C938FBFA2
:10029000EACFCF92DF92EF92FF92CF936C018091E1
:1002A0000901873049F08F3F09F444C0CF91FF9096
:1002B000EF90DF90CF900895E2ECF0E0C491C7FD9D
:1002C000F5CF61E087E00E940D01F12CE12CCC23F9
:1002D000D9F0960150E040E0C23009F09AC07A01AE
:1002E00060E970ED83E090E00E94AE31BA01A901AF
:1002F000415051096109710993E04F3F5105610572
:10030000710509F00CF4C1C068E478EE81E090E07A
:10031000A70196010E94AE31BA01A90141505109CD
:100320006109710994E0C111B0C085B5887F83600F
:1003300085BDB7C087E080930901E2ECF0E0C4918D
:10034000CF3F09F4B3CFC13021F150F0C23009F4EE
:100350003EC0C7FDABCF61E087E00E940D01B9CF81
:1003600014BC15BC84B5826084BD85B5816085BD33
:10037000E5EBF0E0E491F0E0EE0FFF1FEC55FF4FEE
:1003800085919491E7E9F0E0E491E0937003C0E097
:1003900098CF109280001092810080918100886037
:1003A0008093810080918100816080938100E5EBE2
:1003B000F0E0E491F0E0EE0FFF1FEC55FF4F859168
:1003C0009491E7E9F0E0E491E0936F037ACF109223
:1003D000B0001092B1008091B00082608093B000B4
:1003E0008091B10081608093B100E5EBF0E0E49191
:1003F000F0E0EE0FFF1FEC55FF4F85919491909325
:100400006E0380936D03E7E9F0E0E491E0936C0301
:1004100058CF60E072E18AE790E00E94AE31BA0105
:10042000A9014150510961097109C130A1F58091BB
:100430008100887F81608093810050938900409380
:1004400088008FEF9FEFDC01809375039093760314
:10045000A0937703B093780380916F0082608093BC
:100460006F0024CF4093B3008FEF9FEFDC018093A8
:10047000710390937203A0937303B09374038091FC
:10048000700082608093700011CF8091B100887FEE
:10049000892B8093B100C13081F2C23019F3C111B0
:1004A00005CF47BD8FEF9FEFDC01809379039093D9
:1004B0007A03A0937B03B0937C0380916E008260EB
:1004C00080936E00F3CE8E50806480937C00809188
:1004D0007A00806480937A0080917A0086FDFCCF58
:1004E000809178009091790008953FB7F8948091B9
:1004F000680390916903A0916A03B0916B0326B5DC
:10050000A89B05C02F3F19F00196A11DB11D3FBF4B
:10051000BA2FA92F982F8827BC01CD01620F711D1A
:10052000811D911D42E0660F771F881F991F4A9514
:10053000D1F708958F929F92AF92BF92CF92DF92A0
:10054000EF92FF926B017C010E9475024B015C01EE
:10055000C114D104E104F104B9F00E9475026819D4
:1005600079098A099B09683E73408105910580F3EA
:1005700021E0C21AD108E108F10888EE880E83E074
:10058000981EA11CB11CE4CFFF90EF90DF90CF909C
:10059000BF90AF909F908F9008952FB7F89460917F
:1005A00064037091650380916603909167032FBF88
:1005B00008959091090189130BC0E2ECF0E0E491F9
:1005C0009FEF90930901E13049F028F0E23061F0AB
:1005D00060E00C94DF0010926E00FACF90916F00F3
:1005E0009D7F90936F00F4CF909170009D7F9093CA
:1005F000700091E09093B0009091B100987F94606A
:100600009093B1001092B300E3CFAF92BF92CF921C
:10061000DF92EF92FF920F931F93CF93DF936C01C2
:100620007B018B01040F151FEB015E01AE18BF08A3
:10063000C017D10759F06991D601ED91FC91019055
:10064000F081E02DC6010995892B79F7C501DF916D
:10065000CF911F910F91FF90EF90DF90CF90BF90BF
:10066000AF900895FC01538D448D252F30E0842FE9
:1006700090E0821B930B541710F0CF9608950197CA
:100680000895FC01918D828D981759F0A28DAE0FBF
:10069000BF2FB11D5D968C91928D9F5F928F90E0E0
:1006A00008958FEF9FEF0895FC01918D828D98172B
:1006B00031F0828DE80FF11D858D90E008958FEF68
:1006C0009FEF08950F931F930E94CD0260938503BF
:1006D0007093860380938703909388038DE793E05C
:1006E0000E94540397FF1DC00E94CD020091850314
:1006F000109186032091870330918803601B710B52
:10070000820B930B0091810310918203209183034C
:10071000309184036017710782079307F8F28FEF17
:100720009FEF1F910F910895CF92DF92EF92FF926A
:10073000CF930E946203FC0197FD4EC08D3291055C
:1007400021F0C0970A9708F040C0C12CD12C760147
:10075000C0E0E130F105D1F0ED32F105D9F1CF0182
:10076000C0970A9798F4AAE0B0E0A70196010E940A
:10077000CD316F01FF0FEE08FF08C60ED71EE81E31
:10078000F91E80E3C81AD108E108F1088DE793E06B
:100790000E9441030E946203FC01C0970A97C8F2BD
:1007A000E130F105B1F2CC2341F0F094E094D09423
:1007B000C094C11CD11CE11CF11CC701B601CF9132
:1007C000FF90EF90DF90CF9008958DE793E00E9427
:1007D0004103AFCFC1E0DACFC12CD12C7601EDCFF0
:1007E000FC01918D828D981B892F90E008958DE7F3
:1007F00093E00E94F00321E0892B09F420E0822F8E
:10080000089580E090E0892B29F00E94F703811180
:100810000C9400000895FC01A48DA80FB92FB11D00
:10082000A35EBE4F2C91848D90E001968F73992723
:10083000848FA689B7892C93A089B1898C91837004
:1008400080648C93938D848D981306C00288F389FD
:10085000E02D80818F7D80830895EF92FF920F932A
:100860001F93CF93DF93EC0181E0888F9B8D8C8D5C
:1008700098131AC0E889F989808185FF15C09FB750
:10088000F894EE89FF896083E889F9898081837013
:10089000806480839FBF81E090E0DF91CF911F91C2
:1008A0000F91FF90EF900895F62E0B8D10E00F5FE3
:1008B0001F4F0F731127E02E8C8D8E110CC00FB6B9
:1008C00007FCFACFE889F989808185FFF5CFCE0151
:1008D0000E940B04F1CFEB8DEC0FFD2FF11DE35EB9
:1008E000FE4FF0829FB7F8940B8FEA89FB898081D5
:1008F0008062CFCF682F8DE793E00C942D04CF93C7
:10090000DF93EC01888D8823B9F0AA89BB89E88937
:10091000F9898C9185FD03C0808186FD0DC00FB6DD
:1009200007FCF7CF8C9185FFF2CF808185FFEDCF5B
:10093000CE010E940B04E9CFDF91CF910895DC0135
:10094000EC91EC3090F511968C91119728E830E0FD
:10095000281B310987FD3395220F331F220F331FC8
:100960006217730784F012968C9128E532E0281BF9
:10097000310987FD3395220F331F220F331F621772
:1009800073070CF49B0122503109220F331F4FB71C
:10099000F8948E2F90E0FC01EE0FFF1FE80FF91F77
:1009A000E652FD4F328321834FBF08951F93CF93AB
:1009B000DF93EC01162F88818C3008F04EC061E087
:1009C000812F0E940D018881282F30E0F901EE0F60
:1009D000FF1FE20FF31FE652FD4F1F736081607C23
:1009E000612B608319821A822CE0622F0E940932E7
:1009F000829FB001112430E020E0AB01420F531F71
:100A0000FA01EE0FFF1FE40FF51FE652FD4F908134
:100A100096FD16C02F5F3F4F2C30310571F78111C5
:100A20000FC01092800082E08093810010928500B8
:100A300010928400B19A80916F00826080936F0061
:100A4000E8818E2F90E0FC01EE0FFF1FE80FF91FE9
:100A5000E652FD4F8081806480838881DF91CF9151
:100A60001F91089589E00E94B600892B41F487E028
:100A70000E94D90260E087E00E94DF00F3CF80E2AD
:100A800093E00E94490164E670E080E090E00E94FB
:100A90009A0287E00E94D90268E572E080E090E067
:100AA0000E949A02F0E0E0E00994CF92DF92EF9288
:100AB000FF92CF93DF9389E00E94B600EC01C090D3
:100AC0000103D0900203E0900303F09004038091AF
:100AD000FE02882301F10E94CD026C197D098E0966
:100AE0009F096436710581059105C8F11092FE02D7
:100AF0000E94CD026093010370930203809303036D
:100B00009093040387E0DF91CF91FF90EF90DF9007
:100B1000CF900C94D9020E94CD026C197D098E09E8
:100B20009F096438734081059105C8F081E0809386
:100B3000FE020E94CD026093010370930203809332
:100B4000030390930403CD2B51F084E893E0DF91ED
:100B5000CF91FF90EF90DF90CF900C944901DF91FF
:100B6000CF91FF90EF90DF90CF900895FC0101901E
:100B70000020E9F73197AF01481B590BBC018DE705
:100B800093E00C9405038F929F92AF92BF920F93C4
:100B90001F93CF93DF93CDB7DEB7A1970FB6F8942D
:100BA000DEBF0FBECDBF19A2423008F44AE08E016D
:100BB0000F5D1F4F842E912CB12CA12CA501940107
:100BC0000E94D831E62FB901CA01EA30F4F4E05DA1
:100BD000D801EE938D01232B242B252B79F790E060
:100BE00080E0109719F0CD010E94B605A1960FB6CE
:100BF000F894DEBF0FBECDBFDF91CF911F910F9153
:100C0000BF90AF909F908F900895E95CE1CF0C94D6
:100C1000B605CF93DF930E94B605EC018CE291E01C
:100C20000E94B6058C0F9D1FDF91CF910895CF9242
:100C3000DF92EF92FF92CF93DF936C01990FEE0852
:100C4000FF08F7FE17C08DE20E947A04EC016627C8
:100C50007727CB016C197D098E099F094AE00E9414
:100C6000C3058C0F9D1FDF91CF91FF90EF90DF9018
:100C7000CF9008954AE0C701B601DF91CF91FF9070
:100C8000EF90DF90CF900C94C305682F70E090E058
:100C900080E04AE00C94C305BC0190E080E04AE0AB
:100CA0000C94C3051F93CF93DF93EC01162F0E9482
:100CB0009831181739F0612FCE01DF91CF911F9134
:100CC0000C94A031DF91CF911F9108951F93CF9382
:100CD000DF93EC01162F672F0E945206612FCE0181
:100CE0000196DF91CF911F910C9452060C9498318C
:100CF000CF92DF92EF92FF920F931F930E94CD024B
:100D00000091000110910101209102013091030135
:100D1000601B710B820B930B60935A0170935B0104
:100D200080935C0190935D0160E08AE00E94DF00A7
:100D300060E08DE00E94DF0089E00E94B60001972C
:100D400021F40E94CD026B017C018EE190E00E94B3
:100D500076066091C002861721F08EE190E00E9435
:100D60005206809104018823E9F10E94CD026C199A
:100D70007D098E099F09683B7B408105910590F5AF
:100D800089E00E94B600019721F40E94CD026B0118
:100D90007C0161E087E00E94DF0064EF71E080E0A9
:100DA00090E00E949A0260E087E00E94DF0068EC19
:100DB00070E080E090E00E949A0261E087E00E948B
:100DC000DF0064E670E080E090E00E949A0260E05C
:100DD00087E00E94DF0060E273E080E090E00E9424
:100DE0009A02BFCF1F910F91FF90EF90DF90CF90AD
:100DF0000C94320562E370E080E090E00E949A0279
:100E000080915E03811103C081E0809304016091B1
:100E100083017091840183EE94E00E949F046091AD
:100E200085017091860180EE94E00E949F0460919C
:100E30008101709182018DED94E00E949F0460E039
:100E40008AE00E94DF0060E08DE00E94DF0060E049
:100E500087E00E94DF0064E670E080E090E00E949E
:100E60009A0287E00E94D90268EE73E080E090E089
:100E70000E949A020C9478060F931F93CF938C01D3
:100E80000E947606C82FC80101960E9476062C2F74
:100E900030E0322F2227820F932F911DCF911F9187
:100EA0000F9108954F925F926F927F928F929F92CF
:100EB000AF92BF92CF92DF92EF92FF920F931F9368
:100EC000CF93DF93CDB7DEB762970FB6F894DEBF4E
:100ED0000FBECDBF82E10E94B6004C0182E490E0DB
:100EE0000E947606C82E80937F0183E490E00E94E2
:100EF0007606F82E8093660184E490E00E947606E0
:100F00008D838093650185E490E00E947606082F2A
:100F10008093640186E490E00E9476068983809342
:100F2000630187E490E00E947606182F80936201A7
:100F300088E490E00E9476068093610129EF2F15E6
:100F400018F49CE3909366010A3F18F09CE3909399
:100F500064011A3F18F09CE3909362010D810A3FEF
:100F600018F090EF9093650119811A3F18F090EFF7
:100F7000909363018A3F18F080EF809361018AECBF
:100F800090E00E947606E82EF12CF0925A03E0924F
:100F9000590388EC90E00E947606A82EB12CB092FE
:100FA0000803A09207038CEC90E00E94760690E084
:100FB0009093600380935F038DEC90E00E9476062F
:100FC000898B809360018EEC90E00E9476068A8B7C
:100FD00080935F018FEC90E00E943C079093140394
:100FE0008093130381ED90E00E947606182F809382
:100FF0005E0128EE33E0129FC001139F900D112473
:1010000090933B0380933A0382ED90E00E94760632
:1010100080932303183C18F085E080935E0128EC50
:10102000A216B10434F087E090E090930803809317
:10103000070338ECE316F10420F010925A031092E3
:1010400059038CEC90E00E947606883C30F088E2F0
:1010500090E09093600380935F0380915F03909191
:101060006003409730F48FE090E0909360038093AA
:101070005F038A94892809F0CAC582E090E00E9443
:101080003C07909344038093430384E090E00E94E4
:101090003C079093D7028093D60286E090E00E94AE
:1010A0003C079093D5028093D40288E090E00E94A0
:1010B0003C079093D3028093D2028AE090E00E9492
:1010C0003C079093D1028093D0028CE090E00E9484
:1010D0003C079093CF028093CE028EE090E00E9476
:1010E0003C079093CD028093CC0280E190E00E9477
:1010F0003C079093CB028093CA0282E190E00E9469
:101100003C079093100380930F0384E190E00E94CA
:10111000760680935D0385E190E00E9476068093D9
:10112000C90286E190E00E9476068093C80287E1BA
:1011300090E00E9476068093C70288E190E00E94CA
:1011400076068093C60289E190E00E94760680933D
:10115000C5028AE190E00E9476068093C4028BE18A
:1011600090E00E9476068093C3028CE190E00E949A
:1011700076068093C2028DE190E00E94760680930D
:10118000C1028EE190E00E9476068093C0028FE15A
:1011900090E00E9476068093BF0280E290E00E9479
:1011A00076068093BE0281E290E00E9476068093EC
:1011B000BD0282E290E00E9476068093BC0283E248
:1011C00090E00E9476068093BB0284E290E00E9449
:1011D00076068093BA0285E290E00E9476068093BC
:1011E000B90286E290E00E9476068093B80287E218
:1011F00090E00E9476068093B70288E290E00E9419
:1012000076068093B60289E290E00E94760680938B
:10121000B5028AE290E00E9476068093B4028BE2E7
:1012200090E00E9476068093B3028CE290E00E94E8
:1012300076068093B2028DE290E00E94760680935B
:10124000B1028EE290E00E9476068093B0028FE2B7
:1012500090E00E9476068093AF0280E390E00E94C7
:1012600076068093AE0281E390E00E94760680933A
:10127000AD0282E390E00E9476068093AC0283E3A5
:1012800090E00E9476068093AB0284E390E00E9497
:1012900076068093AA0285E390E00E94760680930A
:1012A000A90286E390E00E9476068093A80287E375
:1012B00090E00E9476068093A70288E390E00E9467
:1012C0003C0790933903809338038AE390E00E94AF
:1012D00076068093A6028BE390E00E9476068093C8
:1012E000A5028CE390E00E9476068093A4028DE331
:1012F00090E00E943C0790933103809330038FE38A
:1013000090E00E9476068093A30280E490E00E9421
:1013100076068093A20281E490E00E947606809394
:10132000A10280910F03909110034AE0489F900121
:10133000499F300D1124A4E6B0E00E94FA31609379
:1013400000017093010180930201909303012091A9
:101350006601249F90011124C901330FAA0BBB0B16
:1013600089839A83AB83BC8380937B0190937C01B8
:10137000A0937D01B0937E0180906501849E400121
:101380001124092C000CAA08BB08809277019092C6
:101390007801A0927901B0927A0140906401449E54
:1013A00020011124052C000C660877084092730177
:1013B0005092740160927501709276018091630180
:1013C000849FC00111248C01990F220B330B0987D4
:1013D0001A872B873C8700936F011093700120932D
:1013E00071013093720120916201249F90011124B8
:1013F000C901330FAA0BBB0B8D839E83AF83B887C4
:1014000080936B0190936C01A0936D01B0936E017A
:1014100080916101849FA00111248A01550F220B44
:10142000330B0D871E872F87388B0093670110932E
:1014300068012093690130936A01D12CF12CE12CD1
:1014400009811A812B813C81801A910AA20AB30A70
:10145000A0915D03B0E0A50194010E94CD31A701E8
:1014600096010E94AE3189819A81AB81BC81280F9F
:10147000391F4A1F5B1F3093560320935503A091D9
:10148000C902B0E0A50194010E94CD31A7019601E7
:101490000E94AE3189819A81AB81BC81280F391FAE
:1014A0004A1F5B1F3093400320933F03A091C80263
:1014B000B0E0A50194010E94CD31A70196010E94E0
:1014C000AE3189819A81AB81BC81280F391F4A1FB7
:1014D0005B1F3093370320933603A091A602B0E040
:1014E000A50194010E94CD31A70196010E94AE3161
:1014F00089819A81AB81BC81280F391F4A1F5B1FEC
:1015000030932F0320932E03A091A302B0E0A501F6
:1015100094010E94CD31A70196010E94AE318981CC
:101520009A81AB81BC81280F391F4A1F5B1F309302
:10153000270320932603A091C702B0E0A5019401E0
:101540000E94CD31A70196010E94AE3189819A8116
:10155000AB81BC81280F391F4A1F5B1F3093AE013E
:101560002093AD01A091C602B0E0A50194010E94B4
:10157000CD31A70196010E94AE3189819A81AB815C
:10158000BC81280F391F4A1F5B1F3093A80120938D
:10159000A701A091C502B0E0A50194010E94CD3140
:1015A000A70196010E94AE3189819A81AB81BC81ED
:1015B000280F391F4A1F5B1F3093A2012093A101FE
:1015C000A091C402B0E0A50194010E94CD31A70111
:1015D00096010E94AE3189819A81AB81BC81280F2E
:1015E000391F4A1F5B1F30939C0120939B01A091E0
:1015F000C302B0E0A50194010E94CD31A70196017C
:101600000E94AE3189819A81AB81BC81280F391F3C
:101610004A1F5B1F3093960120939501A091C2024F
:10162000B0E0A50194010E94CD31A70196010E946E
:10163000AE3189819A81AB81BC81280F391F4A1F45
:101640005B1F3093900120938F01A091C102B0E005
:10165000A50194010E94CD31A70196010E94AE31EF
:1016600089819A81AB81BC81280F391F4A1F5B1F7A
:1016700030938A0120938901A091C002B0E0A501B6
:1016800094010E94CD31A70196010E94AE3189815B
:101690009A81AB81BC81280F391F4A1F5B1F309391
:1016A000520320935103A091BF02B0E0A501940121
:1016B0000E94CD31A70196010E94AE3189819A81A5
:1016C000AB81BC81280F391F4A1F5B1F30938401F7
:1016D0002093830189849A84AB84BC848418950800
:1016E000A608B708A091BE02B0E0A50194010E942F
:1016F000CD31A70196010E94AE31240D351D461D46
:10170000571D3093580320935703A091BD02B0E0BA
:10171000A50194010E94CD31A70196010E94AE312E
:10172000240D351D461D571D309342032093410360
:10173000A091BC02B0E0A50194010E94CD31A701A7
:1017400096010E94AE31240D351D461D571D309364
:10175000350320933403A091A502B0E0A5019401C4
:101760000E94CD31A70196010E94AE31240D351D96
:10177000461D571D30932D0320932C03A091A202E8
:10178000B0E0A50194010E94CD31A70196010E940D
:10179000AE31240D351D461D571D3093290320936E
:1017A0002803A091BB02B0E0A50194010E94CD31B5
:1017B000A70196010E94AE31240D351D461D571D0F
:1017C0003093B0012093AF01A091BA02B0E0A5011F
:1017D00094010E94CD31A70196010E94AE31240DE3
:1017E000351D461D571D3093AA012093A901A091D4
:1017F000B902B0E0A50194010E94CD31A701960184
:101800000E94AE31240D351D461D571D3093A40195
:101810002093A301A091B802B0E0A50194010E9419
:10182000CD31A70196010E94AE31240D351D461D14
:10183000571D30939E0120939D01A091B702B0E007
:10184000A50194010E94CD31A70196010E94AE31FD
:10185000240D351D461D571D309398012093970187
:10186000A091B602B0E0A50194010E94CD31A7017C
:1018700096010E94AE31240D351D461D571D309333
:10188000920120939101A091B502B0E0A5019401CD
:101890000E94CD31A70196010E94AE31240D351D65
:1018A000461D571D30938C0120938B01A091B402EB
:1018B000B0E0A50194010E94CD31A70196010E94DC
:1018C000AE31240D351D461D571D30935003209316
:1018D0004F03A091B302B0E0A50194010E94CD3165
:1018E000A70196010E94AE31420E531E641E751E62
:1018F00050928601409285018D849E84AF84B88881
:101900000D811E812F813885801A910AA20AB30A9F
:10191000A091B202B0E0A50194010E94CD31A701CF
:1019200096010E94AE318D819E81AF81B885280FCE
:10193000391F4A1F5B1F3093540320935303A09118
:10194000B102B0E0A50194010E94CD31A70196013A
:101950000E94AE318D819E81AF81B885280F391FDD
:101960004A1F5B1F30933E0320933D03A091B002BA
:10197000B0E0A50194010E94CD31A70196010E941B
:10198000AE318D819E81AF81B885280F391F4A1FE6
:101990005B1F3093330320933203A091A402B0E085
:1019A000A50194010E94CD31A70196010E94AE319C
:1019B0008D819E81AF81B885280F391F4A1F5B1F1B
:1019C00030932B0320932A03A091A102B0E0A5013C
:1019D00094010E94CD31A70196010E94AE318D8104
:1019E0009E81AF81B885280F391F4A1F5B1F309336
:1019F000250320932403A091AF02B0E0A501940138
:101A00000E94CD31A70196010E94AE318D819E8149
:101A1000AF81B885280F391F4A1F5B1F3093AC0177
:101A20002093AB01A091AE02B0E0A50194010E9409
:101A3000CD31A70196010E94AE318D819E81AF818B
:101A4000B885280F391F4A1F5B1F3093A6012093CA
:101A5000A501A091AD02B0E0A50194010E94CD3195
:101A6000A70196010E94AE318D819E81AF81B8851C
:101A7000280F391F4A1F5B1F3093A00120939F013D
:101A8000A091AC02B0E0A50194010E94CD31A70164
:101A900096010E94AE318D819E81AF81B885280F5D
:101AA000391F4A1F5B1F30939A0120939901A0911F
:101AB000AB02B0E0A50194010E94CD31A7019601CF
:101AC0000E94AE318D819E81AF81B885280F391F6C
:101AD0004A1F5B1F3093940120939301A091AA02A7
:101AE000B0E0A50194010E94CD31A70196010E94AA
:101AF000AE318D819E81AF81B885280F391F4A1F75
:101B00005B1F30938E0120938D01A091A902B0E05C
:101B1000A50194010E94CD31A70196010E94AE312A
:101B20008D819E81AF81B885280F391F4A1F5B1FA9
:101B30003093880120938701A091A802B0E0A5010D
:101B400094010E94CD31A70196010E94AE318D8192
:101B50009E81AF81B885280F391F4A1F5B1F3093C4
:101B60004E0320934D03A091A702B0E0A50194017C
:101B70000E94CD31A70196010E94AE318D819E81D8
:101B8000AF81B885280F391F4A1F5B1F3093820130
:101B9000209381010989202F30E0A0EBB4E00E945E
:101BA000FA31A70196010E94AE312C573C4F4F4F9E
:101BB0005F4F30931203209311031A89212F30E0D5
:101BC000A0EBB4E00E94FA31A70196010E94AE3169
:101BD0002C573C4F4F4F5F4F309316032093150304
:101BE00062960FB6F894DEBF0FBECDBFDF91CF91E6
:101BF0001F910F91FF90EF90DF90CF90BF90AF902B
:101C00009F908F907F906F905F904F90089586E6A1
:101C100090E00E943C07909344038093430388E63E
:101C200090E00E943C079093D7028093D6028AE608
:101C300090E00E943C079093D5028093D4028CE6FA
:101C400090E00E943C079093D3028093D2028EE6EC
:101C500090E00E943C079093D1028093D00280E7ED
:101C600090E00E943C079093CF028093CE0282E7DF
:101C700090E00E943C079093CD028093CC0284E7D1
:101C800090E00E943C079093CB028093CA0286E7C3
:101C900090E00E943C078330910508F40DC19093B9
:101CA000100380930F0388E790E00E9476068093EC
:101CB0005D0389E790E00E9476068093C9028AE777
:101CC00090E00E9476068093C8028BE790E00E9425
:101CD00076068093C7028CE790E00E947606809398
:101CE000C6028DE790E00E9476068093C5028EE7DB
:101CF00090E00E9476068093C4028FE790E00E94F5
:101D000076068093C30280E890E00E947606809376
:101D1000C20281E890E00E9476068093C10282E8C8
:101D200090E00E9476068093C00283E890E00E94D3
:101D300076068093BF0284E890E00E947606809346
:101D4000BE0285E890E00E9476068093BD0286E898
:101D500090E00E9476068093BC0287E890E00E94A3
:101D600076068093BB0288E890E00E947606809316
:101D7000BA0289E890E00E9476068093B9028AE868
:101D800090E00E9476068093B8028BE890E00E9473
:101D900076068093B7028CE890E00E9476068093E6
:101DA000B6028DE890E00E9476068093B5028EE838
:101DB00090E00E9476068093B4028FE890E00E9443
:101DC00076068093B30280E990E00E9476068093C5
:101DD000B20281E990E00E9476068093B10282E926
:101DE00090E00E9476068093B00283E990E00E9422
:101DF00076068093AF0284E990E00E947606809395
:101E0000AE0285E990E00E9476068093AD0286E9F5
:101E100090E00E9476068093AC0287E990E00E94F1
:101E200076068093AB0288E990E00E947606809364
:101E3000AA0289E990E00E9476068093A9028AE9C5
:101E400090E00E9476068093A8028BE990E00E94C1
:101E500076068093A7028CE990E00E943C0790935D
:101E60003903809338038EE990E00E9476068093D0
:101E7000A6028FE990E00E9476068093A50280EA90
:101E800090E00E9476068093A40281EA90E00E948E
:101E90003C07909331038093300383EA90E00E94E3
:101EA00076068093A30284EA90E00E9476068093EF
:101EB000A20285EA90E031CA82E090E0F0CE2F9253
:101EC0003F924F925F926F927F928F929F92AF92CA
:101ED000BF92CF92DF92EF92FF920F931F93CF9317
:101EE000DF93CDB7DEB7C854D1090FB6F894DEBF83
:101EF0000FBECDBF64E670E080E090E00E949A02E1
:101F000082E10E94B6009A8B898B8FE291E00E9459
:101F1000070681E391E00E940706809143039091B8
:101F200044030E944C0681E391E00E9407068091E1
:101F3000D6029091D7020E944C0681E391E00E9464
:101F400007068091D4029091D5020E944C0681E34D
:101F500091E00E9407068091D2029091D3020E94E4
:101F60004C0681E391E00E9407068091D002909197
:101F7000D1020E944C0681E391E00E940706809105
:101F8000CE029091CF020E944C0681E391E00E9424
:101F900007068091CC029091CD020E944C0681E30D
:101FA00091E00E9407068091CA029091CB020E94A4
:101FB0004C0681E391E00E94070680910F03909107
:101FC00010030E944C0681E391E00E940706809175
:101FD0005D030E94450681E391E00E94070680911F
:101FE000C9020E94450681E391E00E9407068091A4
:101FF000C8020E94450681E391E00E940706809195
:10200000C7020E94450681E391E00E940706809185
:10201000C6020E94450681E391E00E940706809176
:10202000C5020E94450681E391E00E940706809167
:10203000C4020E94450681E391E00E940706809158
:10204000C3020E94450681E391E00E940706809149
:10205000C2020E94450681E391E00E94070680913A
:10206000C1020E94450681E391E00E94070680912B
:10207000C0020E94450681E391E00E94070680911C
:10208000BF020E94450681E391E00E94070680910D
:10209000BE020E94450681E391E00E9407068091FE
:1020A000BD020E94450681E391E00E9407068091EF
:1020B000BC020E94450681E391E00E9407068091E0
:1020C000BB020E94450681E391E00E9407068091D1
:1020D000BA020E94450681E391E00E9407068091C2
:1020E000B9020E94450681E391E00E9407068091B3
:1020F000B8020E94450681E391E00E9407068091A4
:10210000B7020E94450681E391E00E940706809194
:10211000B6020E94450681E391E00E940706809185
:10212000B5020E94450681E391E00E940706809176
:10213000B4020E94450681E391E00E940706809167
:10214000B3020E94450681E391E00E940706809158
:10215000B2020E94450681E391E00E940706809149
:10216000B1020E94450681E391E00E94070680913A
:10217000B0020E94450681E391E00E94070680912B
:10218000AF020E94450681E391E00E94070680911C
:10219000AE020E94450681E391E00E94070680910D
:1021A000AD020E94450681E391E00E9407068091FE
:1021B000AC020E94450681E391E00E9407068091EF
:1021C000AB020E94450681E391E00E9407068091E0
:1021D000AA020E94450681E391E00E9407068091D1
:1021E000A9020E94450681E391E00E9407068091C2
:1021F000A8020E94450681E391E00E9407068091B3
:10220000A7020E94450681E391E00E9407068091A3
:102210003803909139030E944C0681E391E00E94BB
:1022200007068091A6020E94450681E391E00E9484
:1022300007068091A5020E94450681E391E00E9475
:1022400007068091A4020E94450681E391E00E9466
:10225000070680910503909106030E944C0681E3D6
:1022600091E00E94070680913003909131030E9413
:102270004C0681E391E00E9407068091A3020E9430
:10228000450681E391E00E9407068091A2020E9428
:10229000450681E391E00E9407068091A1020E9419
:1022A000450681E391E00E9409068DE793E00E94D4
:1022B000F0031816190614F00C94B3196AE070E0D4
:1022C00080E090E00E949A028DE793E00E94410333
:1022D000898380935C030E94CD02609317037093FF
:1022E00018038093190390931A032981243209F06B
:1022F00015C684E893E00E9449010E9494036B0193
:102300007C01C092B101D092B201E092B301F0928F
:10231000B4010E94940369837A838B839C836093C6
:10232000B5017093B6018093B7019093B8010E94F4
:1023300094036D837E838F8398876093B901709334
:10234000BA018093BB019093BC010E9494036987FA
:102350007A878B879C876093BD017093BE018093C1
:10236000BF019093C0010E9494036D877E878F8781
:10237000988B6093C1017093C2018093C3019093C5
:10238000C4010E9494036B8B7C8B8D8B9E8B60931E
:10239000C5017093C6018093C7019093C8010E9444
:1023A00094036F8B788F898F9A8F6093C901709394
:1023B000CA018093CB019093CC010E9494036B8F50
:1023C0007C8F8D8F9E8F6093CD017093CE01809313
:1023D000CF019093D0010E9494036F8F78A389A3BB
:1023E0009AA36093D1017093D2018093D30190930B
:1023F000D4010E9494036BA36093D5017093D6011E
:102400008093D7019093D8010E9494036CA36093AA
:10241000D9017093DA018093DB019093DC010E9473
:1024200094036DA36093DD017093DE018093DF015F
:102430009093E0010E9494036EA36093E101709376
:10244000E2018093E3019093E4010E9494036FA35F
:102450006093E5017093E6018093E7019093E801B2
:102460000E94940368A76093E9017093EA01809346
:10247000EB019093EC010E94940369A76093ED0136
:102480007093EE018093EF019093F0010E9494030A
:102490006AA76093F1017093F2018093F301909326
:1024A000F4010E9494036BA76093F5017093F60109
:1024B0008093F7019093F8010E9494036CA76093B6
:1024C000F9017093FA018093FB019093FC010E9443
:1024D00094036DA76093FD017093FE018093FF014B
:1024E000909300020E9494036EA760930102709380
:1024F000020280930302909304020E9494036FA748
:10250000609305027093060280930702909308027D
:102510000E94940368AB6093090270930A0280934F
:102520000B0290930C020E94940369AB60930D021E
:1025300070930E0280930F02909310020E949403F6
:102540006AAB60931102709312028093130290930E
:1025500014020E9494036BAB6093150270931602F1
:1025600080931702909318020E9494036CAB6093BF
:10257000190270931A0280931B0290931C020E940E
:1025800094036DAB60931D0270931E0280931F0233
:10259000909320020E9494036EAB6093210270938B
:1025A000220280932302909324020E9494036FAB33
:1025B000609325027093260280932702909328024D
:1025C0000E94940368AF6093290270932A0280935B
:1025D0002B0290932C020E94940369AF60932D020A
:1025E00070932E0280932F02909330020E949403E6
:1025F0006AAF6093310270933202809333029093FA
:1026000034020E9494036BAF6093350270933602DC
:1026100080933702909338020E9494036CAF6093CA
:10262000390270933A0280933B0290933C020E94DD
:1026300094036DAF60933D0270933E0280933F021E
:10264000909340020E9494036EAF60934102709396
:10265000420280934302909344020E9494036FAF1E
:10266000609345027093460280934702909348021C
:102670000E94940321966FAF219760934902709353
:102680004A0280934B0290934C020E94940322963C
:102690006FAF229760934D0270934E0280934F026A
:1026A000909350020E94940323966FAF23976093F8
:1026B00051027093520280935302909354020E94ED
:1026C000940324966FAF249760935502709356023B
:1026D00080935702909358020E94940325966FAFFF
:1026E00025976093590270935A0280935B029093EE
:1026F0005C020E94940326966FAF269760935D025A
:1027000070935E0280935F02909360020E94940334
:1027100027966FAF27976093610270936202809350
:102720006302909364020E9494032B013C01409247
:1027300065025092660260926702709268020E947F
:102740009403262E6093690270936A0280936B0251
:1027500090936C020E949403362E60936D027093E6
:102760006E0280936F02909370020E949403062F72
:10277000609371027093720280937302909374025B
:102780000E9494034B015C01809275029092760244
:10279000A0927702B09278020E949403162F609361
:1027A000790270937A0280937B0290937C020E945C
:1027B000940329966FAF299760937D0270937E02F0
:1027C00080937F02909380020E94940328966FAFBB
:1027D0002897609381027093820280938302909382
:1027E00084026AE070E080E090E00E949A0287E054
:1027F0000E94D9028DE793E00E94F0031816190693
:102800002CF48DE793E00E944103F4CFD09244036F
:10281000C092430389819A819093D7028093D60214
:10282000AD81BE81B093D502A093D402E985FA852B
:10283000F093D302E093D2022D853E853093D102EE
:102840002093D0028B899C899093CF028093CE02F3
:10285000AF89B88DB093CD02A093CC02EB8DFC8DE7
:10286000F093CB02E093CA022F8D38A1309310036E
:1028700020930F033BA130935D038CA18093C90289
:102880009DA19093C802AEA1A093C702BFA1B0932F
:10289000C602E8A5E093C502F9A5F093C4022AA5F3
:1028A0002093C3023BA53093C2028CA58093C10242
:1028B0009DA59093C002AEA5A093BF02BFA5B09303
:1028C000BE02E8A9E093BD02F9A9F093BC022AA9CF
:1028D0002093BB023BA93093BA028CA98093B90222
:1028E0009DA99093B802AEA9A093B702BFA9B093D7
:1028F000B602E8ADE093B502F9ADF093B4022AADAB
:102900002093B3023BAD3093B2028CAD8093B10201
:102910009DAD9093B002AEADA093AF02BFADB093AA
:10292000AE022196EFAD2197E093AD022296FFAD66
:102930002297F093AC0223962FAD23972093AB02FE
:1029400024963FAD24973093AA0225968FAD259704
:102950008093A90226969FAD26979093A80227966A
:10296000AFAD2797A093A702509239034092380346
:102970002092A6023092A5020093A4029092310305
:10298000809230031093A3022996BFAD2997B0938C
:10299000A2022896EFAD2897E093A10229893A89EF
:1029A000B6012130310509F06AC182E090E00E9451
:1029B00066066091D6027091D70284E090E00E9492
:1029C00066066091D4027091D50286E090E00E9484
:1029D00066066091D2027091D30288E090E00E9476
:1029E00066066091D0027091D1028AE090E00E9468
:1029F00066066091CE027091CF028CE090E00E945A
:102A000066066091CC027091CD028EE090E00E944B
:102A100066066091CA027091CB0280E190E00E944C
:102A2000660660910F037091100382E190E00E94AE
:102A3000660660915D0384E190E00E945206609119
:102A4000C90285E190E00E9452066091C80286E1C9
:102A500090E00E9452066091C70287E190E00E94D8
:102A600052066091C60288E190E00E945206609191
:102A7000C50289E190E00E9452066091C4028AE199
:102A800090E00E9452066091C3028BE190E00E94A8
:102A900052066091C2028CE190E00E945206609161
:102AA000C1028DE190E00E9452066091C0028EE169
:102AB00090E00E9452066091BF028FE190E00E9478
:102AC00052066091BE0280E290E00E945206609140
:102AD000BD0281E290E00E9452066091BC0282E257
:102AE00090E00E9452066091BB0283E290E00E9457
:102AF00052066091BA0284E290E00E945206609110
:102B0000B90285E290E00E9452066091B80286E226
:102B100090E00E9452066091B70287E290E00E9426
:102B200052066091B60288E290E00E9452066091DF
:102B3000B50289E290E00E9452066091B4028AE2F6
:102B400090E00E9452066091B3028BE290E00E94F6
:102B500052066091B2028CE290E00E9452066091AF
:102B6000B1028DE290E00E9452066091B0028EE2C6
:102B700090E00E9452066091AF028FE290E00E94C6
:102B800052066091AE0280E390E00E94520660918E
:102B9000AD0281E390E00E9452066091AC0282E3B4
:102BA00090E00E9452066091AB0283E390E00E94A5
:102BB00052066091AA0284E390E00E94520660915E
:102BC000A90285E390E00E9452066091A80286E384
:102BD00090E00E9452066091A70287E390E00E9475
:102BE0005206609138037091390388E390E00E94A7
:102BF00066066091A6028AE390E00E945206609108
:102C0000A5028BE390E00E9452066091A4028CE33F
:102C100090E00E94520660913003709131038DE381
:102C200090E00E9466066091A3028FE390E00E940C
:102C300052066091A20280E490E00E9452066091E8
:102C4000A10281E490E00E9452060E9452078CED9E
:102C500095E00E94490168EC70E080E090E00E94FD
:102C60009A0287E00E94D9020E94CD026093490334
:102C700070934A0380934B0390934C0374C386E68E
:102C800090E00E9466066091D6027091D70288E6B5
:102C900090E00E9466066091D4027091D5028AE6A7
:102CA00090E00E9466066091D2027091D3028CE699
:102CB00090E00E9466066091D0027091D1028EE68B
:102CC00090E00E9466066091CE027091CF0280E78C
:102CD00090E00E9466066091CC027091CD0282E77E
:102CE00090E00E9466066091CA027091CB0284E770
:102CF00090E00E94660660910F037091100386E7D2
:102D000090E00E94660660915D0388E790E00E9473
:102D100052066091C90289E790E00E9452066091D4
:102D2000C8028AE790E00E9452066091C7028BE7D2
:102D300090E00E9452066091C6028CE790E00E94EB
:102D400052066091C5028DE790E00E9452066091A4
:102D5000C4028EE790E00E9452066091C3028FE7A2
:102D600090E00E9452066091C20280E890E00E94CA
:102D700052066091C10281E890E00E945206609183
:102D8000C00282E890E00E9452066091BF0283E890
:102D900090E00E9452066091BE0284E890E00E949A
:102DA00052066091BD0285E890E00E945206609153
:102DB000BC0286E890E00E9452066091BB0287E860
:102DC00090E00E9452066091BA0288E890E00E946A
:102DD00052066091B90289E890E00E945206609123
:102DE000B8028AE890E00E9452066091B7028BE830
:102DF00090E00E9452066091B6028CE890E00E943A
:102E000052066091B5028DE890E00E9452066091F2
:102E1000B4028EE890E00E9452066091B3028FE8FF
:102E200090E00E9452066091B20280E990E00E9418
:102E300052066091B10281E990E00E9452066091D1
:102E4000B00282E990E00E9452066091AF0283E9ED
:102E500090E00E9452066091AE0284E990E00E94E8
:102E600052066091AD0285E990E00E9452066091A1
:102E7000AC0286E990E00E9452066091AB0287E9BD
:102E800090E00E9452066091AA0288E990E00E94B8
:102E900052066091A90289E990E00E945206609171
:102EA000A8028AE990E00E9452066091A7028BE98D
:102EB00090E00E94520660913803709139038CE9CA
:102EC00090E00E9466066091A6028EE990E00E9462
:102ED00052066091A5028FE990E00E94520660912F
:102EE000A40280EA90E00E94520660913003709143
:102EF000310381EA90E00E9466066091A30283EAB2
:102F000090E00E9452066091A20284EA90E00E9442
:102F100052066091A10285EA90E095CE398134375E
:102F200009F04CC20E94CD026093490370934A039A
:102F300080934B0390934C0380E380935C0362E3A4
:102F400070E080E090E00E949A0284E893E00E94A2
:102F5000490166E970E080E090E00E949A0287E013
:102F60000E94D90268EC70E080E090E00E949A0232
:102F700084E893E00E94490166E970E080E090E017
:102F80000E949A0287E00E94D90268EC70E080E01B
:102F900090E00E949A0284E893E00E94490166E969
:102FA00070E080E090E00E949A0287E00E94D902DF
:102FB00068EC70E080E090E00E949A0260E08AE0B5
:102FC0000E94DF00609157037091580380EE94E0F7
:102FD0000E949F04609155037091560383EE94E024
:102FE0000E949F0460915303709154038DED94E00F
:102FF0000E949F0460911503709116038AED94E07E
:103000000E949F0468EE73E080E090E00E949A02C4
:1030100084E893E00E9449016AE070E080E090E07B
:103020000E949A0287E00E94D90260E08AE00E9432
:10303000DF00609141037091420380EE94E00E94B2
:103040009F0460913F037091400383EE94E00E94DF
:103050009F0460913D0370913E038DED94E00E94CA
:103060009F0464EF71E080E090E00E949A0260911A
:1030700043037091440390E080E00E949A026091C3
:1030800034037091350380EE94E00E949F046091B8
:1030900036037091370383EE94E00E949F046091A1
:1030A0003203709133038DED94E00E949F04609190
:1030B0001103709112038AED94E00E949F0460E076
:1030C0008AE00E94DF0061E087E00E94DF006091FB
:1030D00038037091390390E080E00E949A02609179
:1030E0002C0370912D0380EE94E00E949F04609168
:1030F0002E0370912F0383EE94E00E949F04609151
:103100002A0370912B038DED94E00E949F0460913F
:1031100030037091310390E080E00E949A02609148
:1031200028037091290380EE94E00E949F0460912F
:1031300026037091270383EE94E00E949F04609120
:103140002403709125038DED94E00E949F046AE0B2
:1031500070E080E090E00E949A0281E080933C035E
:1031600010925E03809362030E94272284E893E01A
:103170000E9449016AE070E080E090E00E949A02BB
:1031800087E00E94D902609151037091520383EE4F
:1031900094E00E949F0460914F037091500380EE71
:1031A00094E00E949F0460914D0370914E038DED59
:1031B00094E00E949F0461E08DE00E94DF0061E0E6
:1031C0008AE00E94DF0066E970E080E090E00E9403
:1031D0009A0260E08DE00E94DF0060E08AE00E94D9
:1031E000DF0068EE73E080E090E00E949A0261E008
:1031F0008DE00E94DF0061E08AE00E94DF0066E966
:1032000070E080E090E00E949A0260E08DE00E9411
:10321000DF0060E08AE00E94DF0068EE73E080E09B
:1032200090E00E949A0261E08DE00E94DF0061E080
:103230008AE00E94DF0066E970E080E090E00E9492
:103240009A0260E08DE00E94DF0060E08AE00E9468
:10325000DF0068EE73E080E090E00E949A026091E7
:1032600083017091840183EE94E00E949F04609139
:1032700085017091860180EE94E00E949F04609128
:103280008101709182018DED94E00E949F0461E0C4
:1032900087E00E94DF0064EF71E080E090E00E9430
:1032A0009A0260E087E00E94DF0068EC70E080E056
:1032B00090E00E949A0261E087E00E94DF0064E6ED
:1032C00070E080E090E00E949A0260E087E00E9457
:1032D000DF0060E273E080E090E00E949A0261E02B
:1032E00087E00E94DF0064EF71E080E090E00E94E0
:1032F0009A0260E087E00E94DF0068EC70E080E006
:1033000090E00E949A0261E087E00E94DF0064E69C
:1033100070E080E090E00E949A0260E087E00E9406
:10332000DF0060E273E080E090E00E949A0260912A
:103330003F037091400383EE94E00E949F046091EC
:1033400041037091420380EE94E00E949F046091DB
:103350003D0370913E038DED94E00E949F0460E078
:1033600087E00E94DF0080915B0329893A898217F8
:10337000130611F00E94520781E0A989BA89AB2B8C
:1033800009F480E080935B03C85BDF4F0FB6F894CD
:10339000DEBF0FBECDBFDF91CF911F910F91FF9088
:1033A000EF90DF90CF90BF90AF909F908F907F90E5
:1033B0006F905F904F903F902F9008958981813654
:1033C00061F5609157037091580380EE94E00E947C
:1033D0009F04609155037091560383EE94E00E9420
:1033E0009F0460915303709154038DED94E00E940B
:1033F0009F0484E893E00E94490162E370E080E06A
:1034000090E00E949A0287E00E94D90262E370E095
:1034100080E090E00E949A0227CC99819236A9F42C
:10342000609141037091420380EE94E00E949F04FA
:1034300060913F037091400383EE94E00E949F04EB
:1034400060913D0370913E03D0CFA981A336A9F4CA
:10345000609134037091350380EE94E00E949F04E4
:10346000609136037091370383EE94E00E949F04CD
:103470006091320370913303B8CFB981B43651F5FE
:103480006091AF017091B00180EE94E00E949F04C2
:103490006091AD017091AE0183EE94E00E949F04B3
:1034A0006091AB017091AC018DED94E00E949F049E
:1034B00084E893E00E94490162E370E080E090E0DC
:1034C0000E949A0287E00E94D9026CE271E080E0DB
:1034D00090E0A0CFE981E536A9F46091A90170914F
:1034E000AA0180EE94E00E949F046091A701709170
:1034F000A80183EE94E00E949F046091A501709161
:10350000A601D2CFF981F636A9F46091A30170919A
:10351000A40180EE94E00E949F046091A10170914B
:10352000A20183EE94E00E949F0460919F0170913C
:10353000A001BACF29812736A9F460919D0170912D
:103540009E0180EE94E00E949F0460919B01709127
:103550009C0183EE94E00E949F0460919901709118
:103560009A01A2CF39813836A9F460919701709100
:10357000980180EE94E00E949F0460919501709103
:10358000960183EE94E00E949F04609193017091F4
:1035900094018ACF89818936A9F460919101709153
:1035A000920180EE94E00E949F0460918F017091DF
:1035B000900183EE94E00E949F0460918D017091D0
:1035C0008E0172CF99819A36A9F460918B01709126
:1035D0008C0180EE94E00E949F04609189017091BB
:1035E0008A0183EE94E00E949F04609187017091AC
:1035F00088015ACFA981AB36A9F460914F0370912D
:10360000500380EE94E00E949F04609151037091FA
:10361000520383EE94E00E949F0460914D037091E9
:103620004E0342CFB981BC36A9F4609185017091F7
:10363000860180EE94E00E949F0460918301709166
:10364000840183EE94E00E949F0460918101709157
:1036500082012ACFE981ED3609F00AC21092800179
:1036600084E893E00E94490164E670E080E090E025
:103670000E949A0287E00E94D90289E00E94B60067
:103680009A83898381E10E94630290930C03809363
:103690000B038F3A91403CF480E10E9463029093C7
:1036A0000C0380930B0360910B0370910C03072EA6
:1036B000000C880B990B0E949F302AE038E240EA08
:1036C0005BE30E94DA3020E030E048EC52E40E94F4
:1036D000DA300E942F3270930A036093090320911D
:1036E000070330910803C901860F971F90930603C3
:1036F0008093050329813A81232B51F00E94CD024A
:1037000060931703709318038093190390931A031F
:103710000E94CD0200911703109118032091190304
:1037200030911A03601B710B820B930B6C3271404A
:103730008105910518F081E08093800168EC70E0CC
:1037400080E090E00E949A0283E391E00E940706E5
:1037500081E391E00E9407068091590390915A03FA
:103760000E944C0681E391E00E94070680910703C6
:10377000909108030E94170681E391E00E940706DA
:1037800080915F03909160030E944C0681E391E079
:103790000E9407068CE991E00E94170681E391E000
:1037A0000E940706809160010E94450681E391E036
:1037B0000E94070680915F010E94450681E391E027
:1037C0000E94070680911303909114030E944C06F7
:1037D00081E391E00E9407068091090390910A031A
:1037E0000E944C0681E391E00E94070680915E01F1
:1037F0000E94450681E391E00E9407068091230321
:103800000E94450681E391E00E9409068DE793E05E
:103810000E94F003181619060CF0DDC06AE070E093
:1038200080E090E00E949A028DE793E00E944103BD
:1038300080935C03813709F0D4C084E893E00E9450
:1038400049010E9494031B016093B1013092B201BF
:103850008093B3019093B4010E9494032B013C0127
:103860004092B5015092B6016092B7017092B801D2
:103870000E9494034B015C018092B9019092BA01BD
:10388000A092BB01B092BC010E949403062F6093EA
:10389000BD017093BE018093BF019093C0010E944F
:1038A0009403162F6093C1017093C2018093C301EA
:1038B0009093C4010E9494036B017C01C092C501E6
:1038C000D092C601E092C701F092C8010E94940311
:1038D0006D836093C9017093CA018093CB0190936B
:1038E000CC010E94940369836093CD017093CE0153
:1038F0008093CF019093D00168EC70E080E090E07D
:103900000E949A0287E00E94D9028DE793E00E940C
:10391000F003181619062CF48DE793E00E9441037A
:10392000F4CF622D2092590330925A03509208032B
:10393000409207039092600380925F0300936001BE
:1039400010935F01D0921403C09213039D81909352
:103950005E01A981A09323038AEC90E00E945206A5
:103960006091070388EC90E00E94520660915F032B
:103970008CEC90E00E945206609160018DEC90E02A
:103980000E94520660915F018EEC90E00E94520608
:1039900060911303709114038FEC90E00E9466060F
:1039A00060915E0181ED90E00E94520660912303D8
:1039B00082ED90E00E9452060E9452078CED95E045
:1039C0000E94490166E970E080E090E00E949A025E
:1039D00087E00E94D90280918001882309F44DCEAE
:1039E00043C9823789F484E893E00E94490168EC76
:1039F00070E080E090E00E949A0287E00E94D90285
:103A0000B1E0B0938001E7CF8A3721F4F0E0E0E045
:103A10000995E1CF60911103709112038F3631F057
:103A20008037C9F660911503709116038AED94E012
:103A30000E949F0484E893E00E94490164E670E0DC
:103A400080E090E00E949A0287E00E94D9026CE236
:103A500071E080E090E00E949A020E94CD026093A3
:103A6000490370934A0380934B0390934C03B3CF65
:103A7000F981FE36A9F460912C0370912D0380EE3C
:103A800094E00E949F0460912E0370912F0383EEB7
:103A900094E00E949F0460912A0370912B0304CD4F
:103AA00029812F3609F5609128037091290380EE52
:103AB00094E00E949F04609126037091270383EE97
:103AC00094E00E949F0460912403709125038DED82
:103AD00094E00E949F0484E893E00E94490164E618
:103AE00070E080E090E0ECCC3981333709F00DC212
:103AF0001092800184E893E00E94490164E670E03E
:103B000080E090E00E949A0287E00E94D90289E05A
:103B10000E94B600892B51F00E94CD0260931703DA
:103B2000709318038093190390931A030E94CD0297
:103B300000911703109118032091190330911A0373
:103B4000601B710B820B930B6C32714081059105E8
:103B500018F0B1E0B093800168EC70E080E090E094
:103B60000E949A0285E391E00E94070681E391E0BA
:103B70000E94070680917F010E94450681E391E043
:103B80000E94070660917B0170917C0180917D010C
:103B900090917E014AE00E94C30581E391E00E947A
:103BA0000706609177017091780180917901909179
:103BB0007A014AE00E94C30581E391E00E94070672
:103BC00060917301709174018091750190917601FB
:103BD0004AE00E94C30581E391E00E9407066091DC
:103BE0006F017091700180917101909172014AE0B2
:103BF0000E94C30581E391E00E94070660916B017A
:103C000070916C0180916D0190916E014AE00E946B
:103C1000C30581E391E00E940706609167017091FE
:103C200068018091690190916A014AE00E94C30590
:103C300081E391E00E9409068DE793E00E94F00382
:103C4000181619060CF0FFC06AE070E080E090E002
:103C50000E949A028DE793E00E94410380935C03E7
:103C6000883709F0F6C084E893E00E9449010E9479
:103C700094036B8B6093B1017093B2018093B30195
:103C80009093B4010E9494032B013C014092B50132
:103C90005092B6016092B7017092B8010E949403ED
:103CA0004B015C018092B9019092BA01A092BB01D4
:103CB000B092BC010E94940369837A838B839C83B6
:103CC0006093BD017093BE018093BF019093C001CA
:103CD0000E9494036D837E838F8398876093C101D4
:103CE0007093C2018093C3019093C4010E94940316
:103CF00069877A878B879C876093C5017093C6011B
:103D00008093C7019093C8010E9494036D877E87BA
:103D10008F87988B6093C9017093CA018093CB0100
:103D20009093CC010E9494036093CD017093CE01D7
:103D30008093CF019093D00187E00E94D9028DE754
:103D400093E00E94F003181619062CF48DE793E017
:103D50000E944103F4CFEB89E0937F018AE0C82EF3
:103D6000D12CE12CF12CC301B201A70196010E94D4
:103D7000AE3120936601C501B401A70196010E94EE
:103D8000AE312093650169817A818B819C81A70185
:103D900096010E94AE31209364016D817E818F81F6
:103DA0009885A70196010E94AE3120936301698531
:103DB0007A858B859C85A70196010E94AE31209360
:103DC00062016D857E858F859889A70196010E9485
:103DD000AE31209361016B8982E490E00E9452062B
:103DE0006091660183E490E00E9452066091650153
:103DF00084E490E00E9452066091640185E490E0C2
:103E00000E9452066091630186E490E00E9452068F
:103E10006091620187E490E00E9452066091610126
:103E200088E490E00E9452060E9452078CED95E0D3
:103E30000E94490166E970E080E090E00E949A02E9
:103E400087E00E94D90280918001882309F45FCE27
:103E50008ACA823789F484E893E00E94490168ECB9
:103E600070E080E090E00E949A0287E00E94D90210
:103E7000F1E0F0938001E7CF853729F784E893E0FC
:103E80000E9449010E9494032B013C014092B10120
:103E90005092B2016092B3017092B4010E949403F7
:103EA0004B015C018092B5019092B601A092B701DE
:103EB000B092B8010E9494036B017C01C092B901D9
:103EC000D092BA01E092BB01F092BC0187E00E945F
:103ED000D9028DE793E00E94F003181619062CF41E
:103EE0008DE793E00E944103F4CFB20183EE94E0AA
:103EF0000E949F04B40180EE94E00E949F04B601EA
:103F00008DED94E00E949F049ECF2981273709F010
:103F10005DC01092800184E893E00E94490164E64C
:103F200070E080E090E00E949A0287E00E94D9024F
:103F300068EC70E080E090E00E949A028AE091E0F4
:103F40000E9407064AE06CE971E080E090E00E9480
:103F5000C3058CE291E00E94B6058DE793E00E94D4
:103F6000F0031816190664F56AE070E080E090E04E
:103F70000E949A028DE793E00E9441038983809317
:103F80005C038DE793E00E94F003181619062CF4E9
:103F90008DE793E00E944103F4CF3981323781F4F9
:103FA00084E893E00E94490168EC70E080E090E0D2
:103FB0000E949A0287E00E94D90281E080938001EA
:103FC00080918001882309F4B3CFCDC999819A37B4
:103FD00009F0C9C9F0E0E0E00995C5C90F931F9346
:103FE00010923C0381E080935E03109204010E94D2
:103FF000CD026093490370934A0380934B039093DF
:104000004C0360913F037091400383EE94E00E9463
:104010009F0464E670E080E090E00E949A02609164
:1040200041037091420380EE94E00E949F0464E695
:1040300070E080E090E00E949A0260913D037091F0
:104040003E038DED94E00E949F04609111037091F6
:1040500012038AED94E00E949F0460E087E00E94D2
:10406000DF0064E670E080E090E00E949A0284EA5B
:1040700096E00E94490164E670E080E090E00E94D2
:104080009A0287E00E94D90264E670E080E090E046
:104090000E949A0280E293E00E94490164E670E087
:1040A00080E090E00E949A0287E00E94D9020E947C
:1040B000CD026093170370931803809319039093B4
:1040C0001A0389E00E94B600892B19F410920401AA
:1040D000F8CF61E08DE00E94DF0064EF71E080E0E6
:1040E00090E00E949A0261E08DE00E94DF000E9451
:1040F000CD026093450370934603809347039093EA
:1041000048030E945F0F0E94CD0200911703109197
:1041100018032091190330911A03601B710B820B55
:10412000930B603C77428940910528F081E08093B1
:1041300004010E94780689E00E94B600892B99F656
:1041400080E293E00E94490164E670E080E090E044
:104150000E949A0287E00E94D90260E08DE00E94EE
:10416000DF0060E08AE00E94DF006091150370913B
:1041700016038AED94E01F910F910C949F048F9287
:104180009F92AF92BF92EF92FF920F931F93CF93A4
:10419000DF93EE24E39482E00E94B600EC0189E014
:1041A0000E94B6008C018EE00E94B6002091C002F1
:1041B000F0907F01892B71F4222329F0F21618F078
:1041C00021502093C00264E670E080E090E00E94FD
:1041D0009A02E9CF8FE00E94B600A091C002892B1D
:1041E00071F4AA2329F0FA1618F0AF5FA093C00269
:1041F00064E670E080E090E00E949A02EBCF80904D
:104200007B0190907C01A0907D01B0907E01209177
:104210007701309178014091790150917A01281904
:1042200039094A095B09B0E00E94CD312F2D30E0F9
:1042300050E040E00E94AE31CA01B901680D791D1D
:104240008A1D9B1D709352036093510383EE94E08B
:104250000E949F040130110551F40E94CD02609329
:1042600056017093570180935801909359010E9411
:10427000CD020091560110915701209158013091C3
:104280005901601B710B820B930B683873418105D8
:10429000910510F00E94EE1F219709F04DC00E9479
:1042A000CD0200915A0110915B0120915C01309187
:1042B0005D01601B710B820B930B0091000110914B
:1042C0000101209102013091030106171707280709
:1042D000390790F180913C03882371F180900103AC
:1042E00090900203A0900303B09004038091FE021B
:1042F00081112EC00E94CD02681979098A099B0993
:10430000603D77408105910560F0E092FE020E94D9
:10431000CD02609301037093020380930303909393
:104320000403C091FE026C2F8AE00E94DF006C2F14
:104330008DE00E94DF0023C0DF91CF911F910F918C
:10434000FF90EF90BF90AF909F908F900C94FA06E3
:104350000E94CD02681979098A099B09663971059D
:104360008105910560F01092FE020E94CD026093DB
:1043700001037093020380930303909304030E944C
:10438000CD020091560110915701209158013091B2
:104390005901601B710B820B930B6D3D75408105BC
:1043A000910508F4F8CEDF91CF911F910F91FF9006
:1043B000EF90BF90AF909F908F900C94EE1FCF9393
:1043C000C1E089E00E94B600892BF1F40E94CD0281
:1043D000609356017093570180935801909359014F
:1043E0000E94CD0260935A0170935B0180935C013F
:1043F00090935D01C0933C0382E00E94B600892B3C
:1044000001F70E94FA06DDCF6091510370915203CB
:1044100083EE94E00E949F0460914F0370915003DB
:1044200080EE94E00E949F0460914D0370914E03D2
:104430008DED94E00E949F0460911103709112032E
:104440008AED94E00E949F04CF910C94BF200F93BB
:104450001F9360E087E00E94DF0087E00E94D9029E
:104460000E94CD0260931B0370931C0380931D0375
:1044700090931E030E94CD0200911B0310911C0318
:1044800020911D0330911E03AB01BC01401B510B59
:10449000620B730B8091D6029091D702B0E0A0E03E
:1044A00084179507A607B70760F180913C0388231E
:1044B00041F182E00E94B600892B11F40E94FA06B5
:1044C0006091AD017091AE0183EE94E00E949F0473
:1044D0006091AF017091B00180EE94E00E949F0462
:1044E0006091AB017091AC018DED94E00E949F044E
:1044F00060911103709112038AED94E00E949F0471
:10450000B9CF84E190E00E94760660915D03861346
:1045100056C084E893E00E9449016AE070E080E0C0
:1045200090E00E949A0287E00E94D9020E94CD0288
:1045300060935201709353018093540190935501FD
:104540000E94CD020091520110915301209154011B
:1045500030915501AB01BC01401B510B620B730B39
:104560008091D4029091D502B0E0A0E08417950725
:10457000A607B70748F180913C03882329F182E020
:104580000E94B600892B11F40E94FA066091A701DF
:104590007091A80183EE94E00E949F046091A901AC
:1045A0007091AA0180EE94E00E949F046091A501A1
:1045B0007091A6018DED94E00E949F04C1CF84E12B
:1045C00090E00E945206A5CF84E893E00E94490142
:1045D0006AE070E080E090E00E949A0287E00E942A
:1045E000D9020E94CD0260934E0170934F018093D7
:1045F0005001909351010E94CD0200914E01109103
:104600004F012091500130915101AB01BC01401B81
:10461000510B620B730B8091D2029091D302B0E0E8
:10462000A0E084179507A607B70720F180913C0307
:10463000882301F182E00E94B600892B11F40E94C8
:10464000FA066091A1017091A20183EE94E00E94AC
:104650009F046091A3017091A40180EE94E00E94F8
:104660009F0460919F017091A0018DED94E00E94E4
:104670009F04C1CF84E893E00E9449016AE070E0A2
:1046800080E090E00E949A0287E00E94D9020E9496
:10469000CD0260934A0170934B0180934C0190933B
:1046A0004D010E94CD0200914A0110914B012091D1
:1046B0004C0130914D01AB01BC01401B510B620B11
:1046C000730B8091D0029091D102B0E0A0E08417EA
:1046D0009507A607B70720F180913C03882301F1D5
:1046E00082E00E94B600892B11F40E94FA066091C4
:1046F0009B0170919C0183EE94E00E949F04609165
:104700009D0170919E0180EE94E00E949F04609153
:10471000990170919A018DED94E00E949F04C1CFA0
:1047200084E893E00E9449016AE070E080E090E054
:104730000E949A0287E00E94D9020E94CD026093F3
:1047400046017093470180934801909349010E946C
:10475000CD0200914601109147012091480130910E
:104760004901AB01BC01401B510B620B730B8091E3
:10477000CE029091CF02B0E0A0E084179507A60783
:10478000B70720F180913C03882301F182E00E9469
:10479000B600892B11F40E94FA0660919501709180
:1047A000960183EE94E00E949F04609197017091BE
:1047B000980180EE94E00E949F04609193017091B3
:1047C00094018DED94E00E949F04C1CF84E893E0B2
:1047D0000E9449016AE070E080E090E00E949A0245
:1047E00087E00E94D9020E94CD026093420170933B
:1047F000430180934401909345010E94CD020091B2
:104800004201109143012091440130914501AB01D7
:10481000BC01401B510B620B730B8091CC02909139
:10482000CD02B0E0A0E084179507A607B70720F1F6
:1048300080913C03882301F182E00E94B600892B1D
:1048400011F40E94FA0660918F017091900183EE3D
:1048500094E00E949F04609191017091920180EE1A
:1048600094E00E949F0460918D0170918E018DED06
:1048700094E00E949F04C1CF84E893E00E94490124
:104880006AE070E080E090E00E949A0287E00E9477
:10489000D9020E94CD0260933E0170933F01809344
:1048A0004001909341010E94CD0200913E01109180
:1048B0003F012091400130914101AB01BC01401BFF
:1048C000510B620B730B8091CA029091CB02B0E046
:1048D000A0E084179507A607B70720F180913C0355
:1048E000882301F182E00E94B600892B11F40E9416
:1048F000FA066091890170918A0183EE94E00E942A
:104900009F0460918B0170918C0180EE94E00E9475
:104910009F0460918701709188018DED94E00E9461
:104920009F04C1CF84E893E00E9449016AE070E0EF
:1049300080E090E00E949A0287E00E94D9020E94E3
:10494000CD02609356017093570180935801909364
:10495000590180916203811142C082E00E94B60039
:104960000197C9F5609151037091520383EE94E071
:104970000E949F0460914F037091500380EE94E079
:104980000E949F0460914D0370914E038DED94E061
:104990000E949F040E94CD026093560170935701BC
:1049A00080935801909359010E94CD0260935A015F
:1049B00070935B0180935C0190935D0187E00E949E
:1049C000D90260915D0384E190E00E9452061F913C
:1049D0000F910C94BF201F910F910C94FA061F9118
:1049E0000F9108951F920F920FB60F9211242F93DB
:1049F0003F938F939F93AF93BF9380916403909164
:104A00006503A0916603B09167033091630323E0CF
:104A1000230F2D3758F50196A11DB11D2093630377
:104A20008093640390936503A0936603B093670338
:104A30008091680390916903A0916A03B0916B0320
:104A40000196A11DB11D8093680390936903A09303
:104A50006A03B0936B03BF91AF919F918F913F9188
:104A60002F910F900FBE0F901F90189526E8230FDF
:104A70000296A11DB11DD2CF1F920F920FB60F92B9
:104A800011242F933F934F935F936F937F938F9353
:104A90009F93AF93BF93EF93FF9380917103909196
:104AA0007203A0917303B0917403892B8A2B8B2B13
:104AB000D1F190916C03E0916D03F0916E038081D0
:104AC000892780838091710390917203A091730371
:104AD000B0917403181619061A061B069CF48091EF
:104AE000710390917203A0917303B09174030197C5
:104AF000A109B1098093710390937203A09373038A
:104B0000B0937403FF91EF91BF91AF919F918F91FB
:104B10007F916F915F914F913F912F910F900FBEB9
:104B20000F901F901895809109010E94D902EACF39
:104B30001F920F920FB60F9211242F933F934F9312
:104B40005F936F937F938F939F93AF93BF93EF93F5
:104B5000FF938DE793E00E940B04FF91EF91BF91CB
:104B6000AF919F918F917F916F915F914F913F9105
:104B70002F910F900FBE0F901F9018951F920F92BC
:104B80000FB60F9211242F938F939F93EF93FF9360
:104B9000E0918D03F0918E038081E0919303F09179
:104BA000940382FD1AC09081809196038F5F2091BB
:104BB0009703821741F0E0919603F0E0E358FC4F31
:104BC000958F80939603FF91EF919F918F912F91F5
:104BD0000F900FBE0F901F9018958081F4CF1F92F9
:104BE0000F920FB60F9211242F933F934F935F9321
:104BF0006F937F938F939F93AF93BF93CF93DF93E5
:104C0000EF93FF938091D802C091D902D0E087FF43
:104C100024C010928500109284008091D8028F5F8A
:104C20008093D8028091D802082E000C990B8C1723
:104C30009D0724F48091D8028C30C4F180918400C7
:104C400090918500049680349C4908F47AC0809144
:104C5000840090918500049676C08091D802082E39
:104C6000000C990B8C179D07C4F6E091D8028E2F8B
:104C7000EE0F990BFC01EE0FFF1FE80FF91FE65234
:104C8000FD4F808186FFC9CFE091D8028E2FEE0FB5
:104C9000990BFC01EE0FFF1FE80FF91FE652FD4FC5
:104CA000808160E08F730E94DF00B7CF2091840085
:104CB00030918500E091D8028E2FEE0F990BFC0108
:104CC000EE0FFF1FE80FF91FE652FD4F8181928121
:104CD000820F931F9093890080938800E091D802FF
:104CE0008E2FEE0F990BFC01EE0FFF1FE80FF91F3F
:104CF000E652FD4F808186FF11C0E091D8028E2FD1
:104D0000EE0F990BFC01EE0FFF1FE80FF91FE652A3
:104D1000FD4F808161E08F730E94DF00FF91EF9172
:104D2000DF91CF91BF91AF919F918F917F916F91C3
:104D30005F914F913F912F910F900FBE0F901F9059
:104D4000189580E49CE990938900809388008FEF08
:104D50008093D802E3CFFC019091D9029C3098F463
:104D600081E0890F8093D9029083892F90E0FC0124
:104D7000EE0FFF1FE80FF91FE652FD4F88EB9BE097
:104D80009283818308958FEF80830895EDE7F3E0A8
:104D90001382128288EE93E0A0E0B0E084839583D2
:104DA000A683B7838EE191E09183808385EC90E0C8
:104DB0009587848784EC90E09787868780EC90E0E5
:104DC000918B808B81EC90E0938B828B82EC90E0D6
:104DD000958B848B86EC90E0978B868B118E128E50
:104DE000138E148E83EE94E00E94AB2680EE94E046
:104DF0000E94AB268DED94E00E94AB268AED94E0F4
:104E00000C94AB26CF93DF9300D000D0CDB7DEB7A4
:104E1000789484B5826084BD84B5816084BD85B595
:104E2000826085BD85B5816085BD80916E008160A1
:104E300080936E0010928100809181008260809347
:104E40008100809181008160809381008091800049
:104E50008160809380008091B10084608093B10074
:104E60008091B00081608093B00080917A0084606E
:104E700080937A0080917A00826080937A0080919A
:104E80007A00816080937A0080917A0080688093B4
:104E90007A001092C10068EC70E080E090E00E941F
:104EA0009A0260913F037091400383EE94E00E9468
:104EB0009F04609141037091420380EE94E00E9450
:104EC0009F0460913D0370913E038DED94E00E943C
:104ED0009F0461E087E00E940D0161E08AE00E948A
:104EE0000D0161E08DE00E940D0162E089E00E9409
:104EF0000D0162E088E00E940D0162E082E00E9404
:104F00000D0160E080E10E940D0160E081E10E94FE
:104F10000D0162E08EE00E940D0162E08FE00E94D0
:104F20000D0162E082E10E940D0160E08AE00E94D2
:104F3000DF00E0918D03F0918E0382E08083E091A9
:104F40008903F0918A031082E0918B03F0918C0326
:104F500080E1808310929503E0919103F091920398
:104F600086E08083E0918F03F091900380818061DF
:104F70008083E0918F03F09190038081886080832B
:104F8000E0918F03F0919003808180688083E091AD
:104F90008F03F091900380818F7D808384E690E081
:104FA0000E947606893179F061E08DE00E94DF0091
:104FB00082E70E947A048CE70E947A0487E391E0FA
:104FC0000E940906EBCF82E10E94B600019709F02A
:104FD0007CC081E080935B030E94520780915F0355
:104FE000909160034AE0489F9001499F300D112441
:104FF000A4E6B0E00E94FA316093050170930601C7
:10500000809307019093080111E089E00E94B600A7
:10501000892B09F0B8C00E94CD0260930103709300
:1050200002038093030390930403109200031092F1
:10503000FF0261E08AE00E94DF0080ED97E00E94BD
:10504000490168EE73E080E090E00E949A0287E0F8
:105050000E94D90260E08AE00E94DF0089E00E949D
:10506000B6002091FF02309100033A832983892BF7
:1050700009F057C0C0900103D0900203E0900303F1
:10508000F09004038091FE02882311F10E94CD026A
:105090006C197D098E099F09683C71058105910590
:1050A000E8F21092FE020E94CD0260930103709319
:1050B0000203809303039093040360E08AE00E945C
:1050C000DF0087E00E94D902C9CF10925B0384CF32
:1050D0000E94CD026C197D098E099F096C347440C1
:1050E0008105910508F4BACF1093FE020E94CD020B
:1050F000609301037093020380930303909304036E
:1051000061E08AE00E94DF008CEB92E00E9449019E
:1051100049815A81445C5F4F509300034093FF02E2
:105120009DCF69817A8182E190E00E94660660915C
:10513000FF027091000386E790E00E94660668EE29
:1051400073E080E090E00E949A0261E08AE00E94B1
:10515000DF008CEB92E00E94490168EE73E080E092
:1051600090E00E949A0287E00E94D90260E08AE003
:105170000E94DF0068EC70E080E090E00E949A02FC
:105180000E94320542CF80910F03909110036CE38F
:1051900070E00E94153270930E0360930D036F3020
:1051A000710530F08FE090E090930E0380930D0333
:1051B0008CEB92E00E94490164E670E080E090E0B0
:1051C0000E949A0287E00E94D90264E670E080E0C3
:1051D00090E00E949A028CED95E00E94490164E6FD
:1051E00070E080E090E00E949A0287E00E94D9027D
:1051F00064EF71E080E090E00E949A0281E10E94F9
:10520000630290930C0380930B038F3A91403CF41C
:1052100080E10E94630290930C0380930B036091E2
:105220000B0370910C03072E000C880B990B0E9446
:105230009F302AE038E240EA5BE30E94DA3020E067
:1052400030E048EC52E40E94DA300E942F32709332
:105250000A03609309032091070330910803260F86
:10526000371F3A832983309306032093050349812E
:105270005A8145355140B0F589E00E94B60001974A
:1052800089F58DE793E00E94F003892B59F580E2C0
:1052900093E00E94490164E670E080E090E00E94A3
:1052A0009A0287E00E94D90264E670E080E090E014
:1052B0000E949A0280E293E00E94490164E670E055
:1052C00080E090E00E949A0287E00E94D90264EF99
:1052D00071E080E090E00E949A0229813A81293CA5
:1052E000310528F663E070E083EE94E00E94D60476
:1052F00064E070E080EE94E00E94D60465E070E027
:105300008DED94E00E94D60466E070E08AED94E0B2
:105310000E94D60460913F037091400383EE94E0B5
:105320000E949F04609141037091420380EE94E0DB
:105330000E949F0460913D0370913E038DED94E0C7
:105340000E949F0460911103709112038AED94E012
:105350000E949F041A82198280910D0390910E037E
:1053600049815A8148175907CCF48CED95E00E9489
:1053700049016CE271E080E090E00E949A0287E0CF
:105380000E94D9026CE271E080E090E00E949A02F3
:1053900089819A8101969A838983DECF10925E0378
:1053A0000E94CD0260931703709318038093190332
:1053B00090931A0389E00E94B600019779F50E9444
:1053C000CD02609345037093460380934703909307
:1053D00048030E945F0F0E94CD02009117031091B5
:1053E00018032091190330911A03601B710B820B73
:1053F000930B603C77428940910528F031E030936F
:1054000004010E94780682E00E94B600892B91F682
:1054100041E0409304010E94FA06CCCF0E94CD02E5
:105420006093490370934A0380934B0390934C031A
:105430000E94CD0260934503709346038093470317
:10544000909348031092620351E05093610389E006
:105450000E94B6008C0188E00E94B6009A8389837E
:1054600082E10E94B6007C018090050190900601C7
:10547000A0900701B090080188EB881A8BE0980A89
:10548000A108B10880915F03909160034AE0489FB2
:105490009001499F300D1124A4E6B0E00E94FA313A
:1054A00060930501709306018093070190930801B2
:1054B00010925E038EE00E94B600892B71F48091F9
:1054C0005D038150843B10F480935D0364E670E0DB
:1054D00080E090E00E949A02EDCF8FE00E94B6003B
:1054E000892BB1F480915D039FEF980F943B28F4D2
:1054F0008F5F853B49F080935D0364E670E080E058
:1055000090E00E949A02E9CF54EB50935D03F5CFEF
:1055100010925C0382E70E947A048CE291E00E9480
:10552000B6058DE793E00E94F0031816190684F47F
:105530006AE070E080E090E00E949A028DE793E0DC
:105540000E94410380935C03823711F40E94EE1F96
:1055500080915B038E151F0411F00E94520782E0B8
:105560000E94B600892B11F41092610380916103AF
:10557000811105C081E0809304010E94FA068091A8
:10558000590390915A038130910509F0D5C101303A
:105590001105F1F529813A81232B09F039C1609178
:1055A00057037091580380EE94E00E949F0460912D
:1055B00055037091560383EE94E00E949F0460911E
:1055C0005303709154038DED94E00E949F040E9458
:1055D000CD02C0904903D0904A03E0904B03F09075
:1055E0004C036C197D098E099F096436710581058C
:1055F000910570F00E94CD026093450370934603BD
:10560000809347039093480360E087E00E94DF00A7
:1056100049815A81452B51F40E94CD026093450384
:1056200070934603809347039093480380916103EE
:10563000811102C00E94FA060115110509F0A2C0ED
:105640000E94CD026093490370934A0380934B03F9
:1056500090934C0360E08AE00E94DF000E94CD023C
:10566000C0904503D0904603E0904703F090480374
:1056700020904303309044032101712C612C6C195C
:105680007D098E099F094616570668067906C0F0FF
:10569000609141037091420380EE94E00E949F0468
:1056A00060913F037091400383EE94E00E949F0459
:1056B00060913D0370913E038DED94E00E949F0444
:1056C0000E94CD026C197D098E099F09641575052C
:1056D0008605970508F456C089819A81019709F0DB
:1056E00051C091E090933C030E94CD02AB01BC01FC
:1056F0004C195D096E097F0980913A0390913B0333
:10570000B0E0A0E084179507A607B70708F4F8C033
:1057100061E087E00E94DF000E94CD022091380303
:1057200030913903220E331E2101712C612CAB0103
:10573000BC014C195D096E097F09441655066606C1
:10574000770608F47AC0609136037091370383EED0
:1057500094E00E949F04609134037091350380EEC1
:1057600094E00E949F0460913203709133038DEDA9
:1057700094E00E949F0482E00E94B600892B11F4FD
:105780000E94FA060E94CD02C0904903D0904A03BD
:10579000E0904B03F0904C036C197D098E099F0932
:1057A000681579058A059B0508F4C3C084E893E071
:1057B0000E9449010E94CD026C197D098E099F0942
:1057C000C0900501D0900601E0900701F09008011B
:1057D0006C157D058E059F0528F087E00E94D90293
:1057E0000E94FA0680913C03882329F001301105BC
:1057F00011F40E94272240E050E0452B09F422CE0C
:105800000E94F703882309F41DCE0E9400001ACEDF
:10581000609151037091520383EE94E00E949F04C3
:1058200060914F037091500380EE94E00E949F04BA
:1058300060914D0370914E03C6CE0E94CD0220911F
:10584000300330913103220E331E910150E040E0CD
:1058500029833A834B835C83AB01BC014C195D09FE
:105860006E097F09441555056605770528F50E94E0
:10587000CD026C197D098E099F0929813A814B81DE
:105880005C81621773078407950708F474CF6091F1
:1058900028037091290380EE94E00E949F04609198
:1058A00026037091270383EE94E00E949F04609189
:1058B0002403709125035BCF0E94CD026C197D09F2
:1058C0008E099F0929813A814B815C812617370710
:1058D0004807590760F260912E0370912F0383EE01
:1058E00094E00E949F0460912C0370912D0380EE40
:1058F00094E00E949F0460912A0370912B0337CF9C
:105900008091230360E081110BC087E00E94DF00DB
:1059100087E00E94D90210923C030E94FA062BCF26
:1059200087E00E94DF0087E00E94D9020E94DF2109
:1059300022CF0E9455053ECF009709F0E3C1013008
:10594000110509F03FC049815A814130510509F0E4
:1059500047C1609157037091580380EE94E00E9414
:105960009F04609155037091560383EE94E00E946A
:105970009F0460915303709154038DED94E00E9455
:105980009F040E94CD02C0904903D0904A03E0904A
:105990004B03F0904C036C197D098E099F09643606
:1059A00071058105910570F00E94CD026093450359
:1059B00070934603809347039093480360E087E029
:1059C0000E94DF0089819A810197F1F40E94CD0243
:1059D0006093450370934603809347039093480375
:1059E0000E94CD022091430330914403AB01BC01DE
:1059F000420F531F611D711D40931F0350932003DD
:105A0000609321037093220380916103811102C08E
:105A10000E94FA060115110509F0A2C00E94CD02EC
:105A20006093490370934A0380934B0390934C0314
:105A300060E08AE00E94DF000E94CD02C090450332
:105A4000D0904603E0904703F09048032090430332
:105A5000309044032101712C612C6C197D098E0951
:105A60009F094616570668067906C0F06091410303
:105A70007091420380EE94E00E949F0460913F0386
:105A80007091400383EE94E00E949F0460913D0377
:105A900070913E038DED94E00E949F040E94CD0220
:105AA0006C197D098E099F09641575058605970592
:105AB00008F456C029813A81232B09F051C031E006
:105AC00030933C030E94CD02AB01BC014C195D092F
:105AD0006E097F0980913A0390913B03B0E0A0E00A
