:100000000C9486000C94AE000C94AE000C94AE00E0
:100010000C94AE000C94AE000C94AE000C948725AA
:100020000C94AE000C94AE000C94AE000C943A26E6
:100030000C94AE000C94AE000C94AE000C94AE0088
:100040000C9441250C94AE000C9409260C94E325E5
:100050000C94AE000C94AE000C94AE000C94AE0068
:100060000C94AE000C94AE000C9400000C940000B4
:100070000C9400000C9400000000000024002700F5
:100080002A002D0033000000000023002600290074
:100090002C00320000000008500201000003040799
:1000A0000000000000000000000001020408102011
:1000B00040800102040810200102040810200208F8
:1000C000408001408080400104102002040810207C
:1000D000408000000000250028002B002E00340086
:1000E00004040404040404040202020202020303DE
:1000F00003030303050502030605050203050505C1
:1001000005060606060606060200072711241FBE7E
:10011000CFEFD8E0DEBFCDBF11E0A0E0B1E0E4EF6B
:10012000F4E602C005900D92AA32B107D9F724E097
:10013000AAE2B1E001C01D92A43DB207E1F710E0D0
:10014000C6E8D0E004C02197FE010E943C32C538C9
:10015000D107C9F70E9449270C9478320C9400000B
:10016000EBE6F3E0A089B18982E08C93A485B585A4
:100170001C92A685B78582E28C93108EA489B589DE
:1001800086E08C93A289B3898C9180618C93A2893B
:10019000B3898C9188608C93A289B3898C91806893
:1001A0008C930288F389E02D80818F7D8083089570
:1001B00081508B3088F5E82FF0E0EF51FF4F0C9421
:1001C0003C32F600FA00EC00F2000C010C01FD00DC
:1001D000030107010D011101809180008F77809349
:1001E00080000895809180008F7DF9CF84B58F774E
:1001F00084BD089584B58F7DFBCF8091B0008F774B
:100200008093B00008958091B0008F7DF9CF8091E8
:1002100090008F77809390000895809190008F7D5B
:10022000F9CF80919000877FF5CFCF93DF93282F70
:1002300030E0F901EC56FF4F8491F901E655FF4F8C
:10024000D491F901E052FF4FC491CC23A1F0811168
:100250000E94D800EC2FF0E0EE0FFF1FEA57FF4F8F
:10026000A591B491EC91ED2381E090E009F480E058
:10027000DF91CF91089580E090E0FACF1F93CF9364
:10028000DF93282F30E0F901EC56FF4F8491F901FC
:10029000E655FF4FD491F901E052FF4FC491CC23B2
:1002A000A9F0162F81110E94D800EC2FF0E0EE0F7C
:1002B000FF1FEE52FF4FA591B4918FB7F894EC91C8
:1002C000111108C0D095DE23DC938FBFDF91CF9151
:1002D0001F910895DE2BF8CFCF93DF93282F30E0C6
:1002E000F901E655FF4F449120523F4FF901249107
:1002F000843011F583E08093A0002223D1F0822F77
:1003000090E0880F991FFC01E858FF4FA591B49128
:10031000FC01EE52FF4FC591D491611122C09FB7ED
:10032000F8948C91409584238C938881482348834A
:100330009FBFDF91CF91089593EE980F923020F4F4
:100340008FEF84BF84BFD9CF8931B9F68091F00097
:1003500082608EBB80E88093F0008EB38093F000C3
:10036000CCCF623051F49FB7F8942C91842F8095B4
:1003700082238C93E8814E2BDACF8FB7F894EC91DF
:100380004E2B4C938FBFD5CFCF92DF92EF92FF923F
:10039000CF936C0180910901893049F08F3F09F4B6
:1003A00065C0CF91FF90EF90DF90CF900895E8E087
:1003B000F1E0C491C7FDF5CF61E089E00E946C01D6
:1003C000F12CE12CCC23D1F0960150E040E0C2307A
:1003D00009F0DCC07A0160E271EA87E090E00E94F7
:1003E000C131BA01A901415051096109710983E084
:1003F0004F3F51056105710559F154F160E970ED08
:1004000083E090E0A70196010E94C131BA01A901E1
:100410004150510961097109CC2309F416C1C23058
:1004200009F050C14F3F51056105710509F00CF409
:1004300050C168E478EE81E090E0A70196010E9447
:10044000C131BA01A901415051096109710985E021
:100450009091B100987F892B8093B100C13009F44D
:10046000A9C00CF0DAC0C1119CCF09C189E080930A
:100470000901E8E0F1E0C491CF3F09F492CFC13027
:1004800039F168F0C23009F441C0C33009F460C0EA
:10049000C7FD87CF61E089E00E946C0195CF14BC55
:1004A00015BC84B5826084BD85B5816085BDE9EEEB
:1004B000F0E0E491F0E0EE0FFF1FEE52FF4F859168
:1004C0009491E3EBF0E0E491E0935A03C0E074CF41
:1004D000109280001092810080918100886080934A
:1004E000810080918100816080938100E9EEF0E0DD
:1004F000E491F0E0EE0FFF1FEE52FF4F85919491D3
:10050000E3EBF0E0E491E093590356CF1092B00092
:100510001092B1008091B00082608093B000809111
:10052000B10081608093B100E9EEF0E0E491F0E089
:10053000EE0FFF1FEE52FF4F859194919093580359
:1005400080935703E3EBF0E0E491E093560334CF5C
:100550001092900010929100809191008860809399
:10056000910080919100816080939100E9EEF0E02C
:10057000E491F0E0EE0FFF1FEE52FF4F8591949152
:10058000E3EBF0E0E491E093550316CF60E074E212
:1005900084EF90E00E94C131BA01A9014150510994
:1005A00061097109C130D9F480918100887F81602F
:1005B0008093810050938900409388008FEF9FEFD4
:1005C000DC018093630390936403A0936503B0936D
:1005D000660380916F00826080936F00E2CEC3302B
:1005E00009F03CCF80919100887F816080939100D9
:1005F00050939900409398008FEF9FEFDC01809318
:100600005B0390935C03A0935D03B0935E038091C2
:100610007100826080937100C4CEC23019F0C33083
:1006200039F3BFCE4093B3008FEF9FEFDC0180938F
:100630005F0390936003A0936103B0936203809182
:100640007000826080937000ACCE93E04F3F510504
:100650006105710581F07CF064E274EF80E090E068
:10066000A70196010E94C131BA01A9014150510967
:100670006109710994E085B5887F892B85BD47BDE7
:100680008FEF9FEFDC018093670390936803A09343
:100690006903B0936A0380916E00826080936E005C
:1006A00080CE64E274EF80E090E0A70196010E94A2
:1006B000C131BA01A9014150510961097109C1E073
:1006C00086E0C6CE4F3F51056105710509F04CF734
:1006D000C1E084E0BDCE80917A00806480937A008E
:1006E00080917A0086FDFCCF80917800909179000E
:1006F00008950F931F93CF93DF93EDEAF0E090817D
:10070000907F90838E50806480937C000DE710E092
:10071000F8018081806280830E946B03EC01F80104
:1007200080818F7D80830E946B038C0F9D1F9C01B5
:1007300036952795892F9927A901481B590BCA017E
:10074000DF91CF911F910F9108950E9479039595A4
:1007500087959595879508953FB7F89480915103B3
:1007600090915203A0915303B091540326B5A89BD6
:1007700005C02F3F19F00196A11DB11D3FBFBA2F33
:10078000A92F982F8827BC01CD01620F711D811DF3
:10079000911D660F771F881F991F08958F929F9252
:1007A000AF92BF92CF92DF92EF92FF926B017C01EA
:1007B0000E94AC034B015C01C114D104E104F104BB
:1007C000B9F00E94AC03681979098A099B09683E4F
:1007D00073408105910580F321E0C21AD108E10838
:1007E000F10888EE880E83E0981EA11CB11CE4CFAE
:1007F000FF90EF90DF90CF90BF90AF909F908F9041
:1008000008952FB7F89460914D0370914E03809135
:100810004F03909150032FBF0895909109018913C0
:100820000DC0E8E0F1E0E4919FEF90930901E13021
:1008300059F038F0E23071F0E330E9F060E00C9408
:100840003E0110926E00FACF90916F009D7F9093C1
:100850006F00F4CF909170009D7F9093700091E0B5
:100860009093B0009091B100987F94609093B10004
:100870001092B300E3CF909171009D7F909371002F
:10088000DDCFAF92BF92CF92DF92EF92FF920F93A4
:100890001F93CF93DF936C017B018B01040F151F16
:1008A000EB015E01AE18BF08C017D10759F069917E
:1008B000D601ED91FC910190F081E02DC6010995E2
:1008C000892B79F7C501DF91CF911F910F91FF908F
:1008D000EF90DF90CF90BF90AF900895FC01538DC3
:1008E000448D252F30E0842F90E0821B930B54170A
:1008F00010F0CF96089501970895FC01918D828D97
:10090000981759F0A28DAE0FBF2FB11D5D968C9137
:10091000928D9F5F928F90E008958FEF9FEF0895E3
:10092000FC01918D828D981731F0828DE80FF11DB9
:10093000858D90E008958FEF9FEF08950F931F939B
:100940000E94010460937303709374038093750392
:10095000909376038BE693E00E94900497FF1DC06E
:100960000E94010400917303109174032091750398
:1009700030917603601B710B820B930B00916F0318
:100980001091700320917103309172036017710709
:1009900082079307F8F28FEF9FEF1F910F91089551
:1009A000CF92DF92EF92FF92CF930E949E04FC01C0
:1009B00097FD4EC08D32910521F0C0970A9708F03F
:1009C00040C0C12CD12C7601C0E0E130F105D1F05E
:1009D000ED32F105D9F1CF01C0970A9798F4AAE05A
:1009E000B0E0A70196010E94E0316F01FF0FEE0811
:1009F000FF08C60ED71EE81EF91E80E3C81AD108EC
:100A0000E108F1088BE693E00E947D040E949E04B9
:100A1000FC01C0970A97C8F2E130F105B1F2CC238E
:100A200041F0F094E094D094C094C11CD11CE11C1E
:100A3000F11CC701B601CF91FF90EF90DF90CF90EE
:100A400008958BE693E00E947D04AFCFC1E0DACF3A
:100A5000C12CD12C7601EDCFFC01918D828D981B9C
:100A6000892F90E008958BE693E00E942C0521E009
:100A7000892B09F420E0822F089580E090E0892BF3
:100A800029F00E94330581110C9400000895FC01A7
:100A9000A48DA80FB92FB11DA35EBE4F2C91848DDC
:100AA00090E001968F739927848FA689B7892C933C
:100AB000A089B1898C91837080648C93938D848D8F
:100AC000981306C00288F389E02D80818F7D808392
:100AD0000895EF92FF920F931F93CF93DF93EC0152
:100AE00081E0888F9B8D8C8D98131AC0E889F989D5
:100AF000808185FF15C09FB7F894EE89FF896083D8
:100B0000E889F98980818370806480839FBF81E058
:100B100090E0DF91CF911F910F91FF90EF9008959A
:100B2000F62E0B8D10E00F5F1F4F0F731127E02E75
:100B30008C8D8E110CC00FB607FCFACFE889F989AD
:100B4000808185FFF5CFCE010E944705F1CFEB8D67
:100B5000EC0FFD2FF11DE35EFE4FF0829FB7F8947E
:100B60000B8FEA89FB8980818062CFCFCF93DF939F
:100B7000EC01888D8823B9F0AA89BB89E889F989B5
:100B80008C9185FD03C0808186FD0DC00FB607FCEA
:100B9000F7CF8C9185FFF2CF808185FFEDCFCE011D
:100BA0000E944705E9CFDF91CF910895DC01EC91D8
:100BB000EC30A0F511968C91119728E830E0281BB5
:100BC000310987FD3395220F331F220F331F621720
:100BD000730784F012968C9128E532E0281B3109C6
:100BE00087FD3395220F331F220F331F62177307C0
:100BF0000CF49B0122503109220F331F220F331FA7
:100C00004FB7F8948E2F90E0FC01EE0FFF1FE80F16
:100C1000F91FEA53FD4F328321834FBF08951F937D
:100C2000CF93DF93EC01162F88818C3008F04EC0F3
:100C300061E0812F0E946C018881282F30E0F9014A
:100C4000EE0FFF1FE20FF31FEA53FD4F1F7360818A
:100C5000607C612B608319821A822CE0622F0E94D3
:100C60001C32829FB001112430E020E0AB01420F22
:100C7000531FFA01EE0FFF1FE40FF51FEA53FD4F5C
:100C8000908196FD16C02F5F3F4F2C30310571F7D4
:100C900081110FC01092800082E080938100109239
:100CA000850010928400B19A80916F0082608093D9
:100CB0006F00E8818E2F90E0FC01EE0FFF1FE80F20
:100CC000F91FEA53FD4F8081806480838881DF9122
:100CD000CF911F91089588E00E941501892B41F45E
:100CE00089E00E940D0460E089E00E943E01F3CF9C
:100CF00080E293E00E94C40164E670E080E090E04E
:100D00000E94CE0389E00E940D0468E572E080E055
:100D100090E00E94CE03F0E0E0E00994CF92DF92F1
:100D2000EF92FF92CF93DF9388E00E941501EC01D0
:100D3000C090ED02D090EE02E090EF02F090F00251
:100D40008091EA02882301F10E9401046C197D0957
:100D50008E099F096436710581059105C8F11092CD
:100D6000EA020E9401046093ED027093EE02809308
:100D7000EF029093F00289E0DF91CF91FF90EF9026
:100D8000DF90CF900C940D040E9401046C197D0932
:100D90008E099F096438734081059105C8F081E090
:100DA0008093EA020E9401046093ED027093EE02C8
:100DB0008093EF029093F002CD2B51F084E893E002
:100DC000DF91CF91FF90EF90DF90CF900C94C40112
:100DD000DF91CF91FF90EF90DF90CF9008958C3FFF
:100DE00043E0940750F06CEF73E00E942832362FF6
:100DF000330F330F20E0820F931F06B606FE13C099
:100E000046B743702CEF33E002C0220F331F4A95E0
:100E1000E2F78217930750F481BD92BDF89A000063
:100E2000000080B5089530E020E0F3CF80E0089521
:100E30000F931F93CF93DF93082F162FEC01CE0152
:100E40000E94EF061817C9F006B606FE1BC026B7AB
:100E500023708CEF93E002C0880F991F2A95E2F768
:100E6000C817D90750F48FB701BDD2BD10BDF89493
:100E700094E09FBB92E09FBB8FBFDF91CF911F910A
:100E80000F91089590E080E0EBCF1F93CF93DF9315
:100E9000EC01162F672F0E941807612FCE010196D3
:100EA000DF91CF911F910C9418070C94EF06CF920D
:100EB000DF92EF92FF920F931F9362E370E080E066
:100EC00090E00E94CE0380914603811103C081E02F
:100ED0008093040160916F017091700181ED94E045
:100EE0000E94D60560917101709172018EEC94E0C0
:100EF0000E94D60560916D0170916E018BEC94E0BB
:100F00000E94D60560E08BE00E943E0160E08DE02B
:100F10000E943E0160E089E00E943E0164E670E0CC
:100F200080E090E00E94CE0389E00E940D0468EE0C
:100F300073E080E090E00E94CE030E9401040091E3
:100F40000001109101012091020130910301601B09
:100F5000710B820B930B6093460170934701809352
:100F600048019093490160E08BE00E943E0160E0FF
:100F70008DE00E943E0188E00E941501019721F456
:100F80000E9401046B017C018EE190E00E945507F4
:100F90006091AC02861721F08EE190E00E94180764
:100FA000809104018823E9F10E9401046C197D09F4
:100FB0008E099F09683B7B408105910590F588E08B
:100FC0000E941501019721F40E9401046B017C012C
:100FD00061E089E00E943E0164EF71E080E090E012
:100FE0000E94CE0360E089E00E943E0168EC70E060
:100FF00080E090E00E94CE0361E089E00E943E0123
:1010000064E670E080E090E00E94CE0360E089E05A
:101010000E943E0160E273E080E090E00E94CE0317
:10102000BFCF1F910F91FF90EF90DF90CF900C9466
:101030006B060F931F93CF938C010E945507C82F07
:10104000C80101960E9455072C2F30E0322F22272D
:10105000820F932F911DCF911F910F9108954F9261
:101060005F926F927F928F929F92AF92BF92CF9238
:10107000DF92EF92FF920F931F93CF93DF93CDB741
:10108000DEB762970FB6F894DEBF0FBECDBF82E128
:101090000E9415014C0182E490E00E945507C82E81
:1010A0008093680183E490E00E945507F82E8093B6
:1010B0004F0184E490E00E9455078D8380934E0198
:1010C00085E490E00E945507082F80934D0186E447
:1010D00090E00E945507898380934C0187E490E05B
:1010E0000E945507182F80934B0188E490E00E94DE
:1010F000550780934A0129EF2F1518F49CE390932C
:101100004F010A3F18F09CE390934D011A3F18F0ED
:101110009CE390934B010D810A3F18F090EF909360
:101120004E0119811A3F18F090EF90934C018A3FBD
:1011300018F080EF80934A018AEC90E00E945507F6
:10114000E82EF12CF0924203E092410388EC90E00B
:101150000E945507A82EB12CB092F402A092F3027F
:101160008CEC90E00E94550790E0909348038093A8
:1011700047038DEC90E00E945507898B80936B01AB
:101180008EEC90E00E9455078A8B80936A018FEC69
:1011900090E00E941908909300038093FF0281ED74
:1011A00090E00E945507182F8093690128EE33E0E4
:1011B000129FC001139F900D1124909323038093DD
:1011C000220382ED90E00E94550780930B03183CA8
:1011D00018F085E08093690128ECA216B10434F080
:1011E00087E090E09093F4028093F30238ECE316EA
:1011F000F10424F010924203109241038CEC90E031
:101200000E945507883C30F088E290E090934803B4
:10121000809347038091470390914803409730F4AF
:101220008FE090E090934803809347038A94892845
:1012300009F0CAC582E090E00E94190890932C033F
:1012400080932B0384E090E00E9419089093C302DE
:101250008093C20286E090E00E9419089093C10238
:101260008093C00288E090E00E9419089093BF022A
:101270008093BE028AE090E00E9419089093BD021C
:101280008093BC028CE090E00E9419089093BB020E
:101290008093BA028EE090E00E9419089093B90200
:1012A0008093B80280E190E00E9419089093B70201
:1012B0008093B60282E190E00E9419089093FC02AC
:1012C0008093FB0284E190E00E94550780934503E0
:1012D00085E190E00E9455078093B50286E190E099
:1012E0000E9455078093B40287E190E00E94550761
:1012F0008093B30288E190E00E9455078093B20288
:1013000089E190E00E9455078093B1028AE190E064
:101310000E9455078093B0028BE190E00E94550730
:101320008093AF028CE190E00E9455078093AE025B
:101330008DE190E00E9455078093AD028EE190E030
:101340000E9455078093AC028FE190E00E94550700
:101350008093AB0280E290E00E9455078093AA023E
:1013600081E290E00E9455078093A90282E290E01A
:101370000E9455078093A80283E290E00E945507DF
:101380008093A70284E290E00E9455078093A60212
:1013900085E290E00E9455078093A50286E290E0E6
:1013A0000E9455078093A40287E290E00E945507AF
:1013B0008093A30288E290E00E9455078093A202E6
:1013C00089E290E00E9455078093A1028AE290E0B2
:1013D0000E9455078093A0028BE290E00E9455077F
:1013E00080939F028CE290E00E94550780939E02BA
:1013F0008DE290E00E94550780939D028EE290E07E
:101400000E94550780939C028FE290E00E9455074E
:1014100080939B0280E390E00E94550780939A029C
:1014200081E390E00E9455078093990282E390E067
:101430000E9455078093980283E390E00E9455072D
:101440008093970284E390E00E9455078093960270
:1014500085E390E00E9455078093950286E390E033
:101460000E9455078093940287E390E00E945507FD
:101470008093930288E390E00E94190890932103DF
:10148000809320038AE390E00E94550780939202A4
:101490008BE390E00E945507809391028CE390E0EB
:1014A0000E945507809390028DE390E00E941908F6
:1014B00090931903809318038FE390E00E945507DF
:1014C00080938F0280E490E00E94550780938E0203
:1014D00081E490E00E94550780938D028091FB0289
:1014E0009091FC024AE0489F9001499F300D1124E1
:1014F000A4E6B0E00E940D326093000170930101F8
:10150000809302019093030120914F01249F900149
:101510001124C901330FAA0BBB0B89839A83AB83B8
:10152000BC838093640190936501A0936601B0939E
:10153000670180904E01849E40011124092C000C0B
:10154000AA08BB088092600190926101A09262019A
:10155000B092630140904D01449E20011124052C5E
:10156000000C6608770840925C0150925D01609221
:101570005E0170925F0180914C01849FC001112433
:101580008C01990F220B330B09871A872B873C8715
:10159000009358011093590120935A0130935B0135
:1015A00020914B01249F90011124C901330FAA0BF4
:1015B000BB0B8D839E83AF83B88780935401909338
:1015C0005501A0935601B093570180914A01849F21
:1015D000A00111248A01550F220B330B0D871E87A2
:1015E0002F87388B009350011093510120935201A3
:1015F00030935301D12CF12CE12C09811A812B81DC
:101600003C81801A910AA20AB30AA0914503B0E076
:10161000A50194010E94E031A70196010E94C13109
:1016200089819A81AB81BC81280F391F4A1F5B1FBA
:1016300030933E0320933D03A091B502B0E0A50195
:1016400094010E94E031A70196010E94C131898175
:101650009A81AB81BC81280F391F4A1F5B1F3093D1
:10166000280320932703A091B402B0E0A5019401C0
:101670000E94E031A70196010E94C13189819A81BF
:10168000AB81BC81280F391F4A1F5B1F30931F039A
:1016900020931E03A0919202B0E0A50194010E9444
:1016A000E031A70196010E94C13189819A81AB8105
:1016B000BC81280F391F4A1F5B1F309317032093EB
:1016C0001603A0918F02B0E0A50194010E94E031C1
:1016D000A70196010E94C13189819A81AB81BC81A9
:1016E000280F391F4A1F5B1F30930F0320930E03EF
:1016F000A091B302B0E0A50194010E94E031A701DE
:1017000096010E94C13189819A81AB81BC81280FE9
:10171000391F4A1F5B1F30939A0120939901A091B2
:10172000B202B0E0A50194010E94E031A701960148
:101730000E94C13189819A81AB81BC81280F391FF8
:101740004A1F5B1F3093940120939301A091B10233
:10175000B0E0A50194010E94E031A70196010E942A
:10176000C13189819A81AB81BC81280F391F4A1F01
:101770005B1F30938E0120938D01A091B002B0E0E9
:10178000A50194010E94E031A70196010E94C13198
:1017900089819A81AB81BC81280F391F4A1F5B1F49
:1017A0003093880120938701A091AF02B0E0A5019A
:1017B00094010E94E031A70196010E94C131898104
:1017C0009A81AB81BC81280F391F4A1F5B1F309360
:1017D000820120938101A091AE02B0E0A5019401A5
:1017E0000E94E031A70196010E94C13189819A814E
:1017F000AB81BC81280F391F4A1F5B1F30937C01CE
:1018000020937B01A091AD02B0E0A50194010E945C
:10181000E031A70196010E94C13189819A81AB8193
:10182000BC81280F391F4A1F5B1F3093760120931C
:101830007501A091AC02B0E0A50194010E94E031D5
:10184000A70196010E94C13189819A81AB81BC8137
:10185000280F391F4A1F5B1F30933A032093390327
:10186000A091AB02B0E0A50194010E94E031A70174
:1018700096010E94C13189819A81AB81BC81280F78
:10188000391F4A1F5B1F3093700120936F018984B9
:101890009A84AB84BC8484189508A608B708A091E4
:1018A000AA02B0E0A50194010E94E031A7019601CF
:1018B0000E94C131240D351D461D571D3093400334
:1018C00020933F03A091A902B0E0A50194010E94DA
:1018D000E031A70196010E94C131240D351D461D3E
:1018E000571D30932A0320932903A091A802B0E04A
:1018F000A50194010E94E031A70196010E94C13127
:10190000240D351D461D571D30931D0320931C03C8
:10191000A0919102B0E0A50194010E94E031A701DD
:1019200096010E94C131240D351D461D571D30936F
:10193000150320931403A0918E02B0E0A501940139
:101940000E94E031A70196010E94C131240D351D8E
:10195000461D571D3093110320931003A091A70239
:10196000B0E0A50194010E94E031A70196010E9418
:10197000C131240D351D461D571D30939C01209308
:101980009B01A091A602B0E0A50194010E94E03164
:10199000A70196010E94C131240D351D461D571D1A
:1019A0003093960120939501A091A502B0E0A50186
:1019B00094010E94E031A70196010E94C131240DDB
:1019C000351D461D571D3093900120938F01A09126
:1019D000A402B0E0A50194010E94E031A7019601A4
:1019E0000E94C131240D351D461D571D30938A01BB
:1019F00020938901A091A302B0E0A50194010E9467
:101A0000E031A70196010E94C131240D351D461D0C
:101A1000571D3093840120938301A091A202B0E06E
:101A2000A50194010E94E031A70196010E94C131F5
:101A3000240D351D461D571D30937E0120937D01D9
:101A4000A091A102B0E0A50194010E94E031A7019C
:101A500096010E94C131240D351D461D571D30933E
:101A6000780120937701A091A002B0E0A501940134
:101A70000E94E031A70196010E94C131240D351D5D
:101A8000461D571D3093380320933703A0919F02C2
:101A9000B0E0A50194010E94E031A70196010E94E7
:101AA000C131420E531E641E751E50927201409247
:101AB00071018D849E84AF84B8880D811E812F8131
:101AC0003885801A910AA20AB30AA0919E02B0E05A
:101AD000A50194010E94E031A70196010E94C13145
:101AE0008D819E81AF81B885280F391F4A1F5B1FEA
:101AF00030933C0320933B03A0919D02B0E0A501ED
:101B000094010E94E031A70196010E94C1318D81AC
:101B10009E81AF81B885280F391F4A1F5B1F309304
:101B2000260320932503A0919C02B0E0A501940117
:101B30000E94E031A70196010E94C1318D819E81F2
:101B4000AF81B885280F391F4A1F5B1F30931B03D5
:101B500020931A03A0919002B0E0A50194010E9485
:101B6000E031A70196010E94C1318D819E81AF8134
:101B7000B885280F391F4A1F5B1F3093130320932A
:101B80001203A0918D02B0E0A50194010E94E03102
:101B9000A70196010E94C1318D819E81AF81B885D8
:101BA000280F391F4A1F5B1F30930D0320930C032E
:101BB000A0919B02B0E0A50194010E94E031A70131
:101BC00096010E94C1318D819E81AF81B885280F19
:101BD000391F4A1F5B1F3093980120939701A091F2
:101BE0009A02B0E0A50194010E94E031A70196019C
:101BF0000E94C1318D819E81AF81B885280F391F28
:101C00004A1F5B1F3093920120939101A09199028A
:101C1000B0E0A50194010E94E031A70196010E9465
:101C2000C1318D819E81AF81B885280F391F4A1F30
:101C30005B1F30938C0120938B01A0919802B0E040
:101C4000A50194010E94E031A70196010E94C131D3
:101C50008D819E81AF81B885280F391F4A1F5B1F78
:101C60003093860120938501A0919702B0E0A501F1
:101C700094010E94E031A70196010E94C1318D813B
:101C80009E81AF81B885280F391F4A1F5B1F309393
:101C9000800120937F01A0919602B0E0A5019401FC
:101CA0000E94E031A70196010E94C1318D819E8181
:101CB000AF81B885280F391F4A1F5B1F30937A0107
:101CC00020937901A0919502B0E0A50194010E94B2
:101CD000E031A70196010E94C1318D819E81AF81C3
:101CE000B885280F391F4A1F5B1F3093740120935A
:101CF0007301A0919402B0E0A50194010E94E0312B
:101D0000A70196010E94C1318D819E81AF81B88566
:101D1000280F391F4A1F5B1F30933603209335036A
:101D2000A0919302B0E0A50194010E94E031A701C7
:101D300096010E94C1318D819E81AF81B885280FA7
:101D4000391F4A1F5B1F30936E0120936D01098973
:101D5000202F30E0A0EBB4E00E940D32A7019601E5
:101D60000E94C1312C573C4F4F4F5F4F3093FE02C2
:101D70002093FD021A89212F30E0A0EBB4E00E94ED
:101D80000D32A70196010E94C1312C573C4F4F4F95
:101D90005F4F309302032093010362960FB6F894CD
:101DA000DEBF0FBECDBFDF91CF911F910F91FF908E
:101DB000EF90DF90CF90BF90AF909F908F907F90EB
:101DC0006F905F904F90089586E690E00E9419080A
:101DD00090932C0380932B0388E690E00E941908CF
:101DE0009093C3028093C2028AE690E00E94190891
:101DF0009093C1028093C0028CE690E00E94190883
:101E00009093BF028093BE028EE690E00E94190874
:101E10009093BD028093BC0280E790E00E94190875
:101E20009093BB028093BA0282E790E00E94190867
:101E30009093B9028093B80284E790E00E94190859
:101E40009093B7028093B60286E790E00E9419084B
:101E50008330910508F40DC19093FC028093FB023E
:101E600088E790E00E9455078093450389E790E05A
:101E70000E9455078093B5028AE790E00E945507BB
:101E80008093B4028BE790E00E9455078093B302E1
:101E90008CE790E00E9455078093B2028DE790E0B6
:101EA0000E9455078093B1028EE790E00E9455078B
:101EB0008093B0028FE790E00E9455078093AF02B5
:101EC00080E890E00E9455078093AE0281E890E0A0
:101ED0000E9455078093AD0282E890E00E9455076A
:101EE0008093AC0283E890E00E9455078093AB0298
:101EF00084E890E00E9455078093AA0285E890E06C
:101F00000E9455078093A90286E890E00E94550739
:101F10008093A80287E890E00E9455078093A7026B
:101F200088E890E00E9455078093A60289E890E037
:101F30000E9455078093A5028AE890E00E94550709
:101F40008093A4028BE890E00E9455078093A3023F
:101F50008CE890E00E9455078093A2028DE890E003
:101F60000E9455078093A1028EE890E00E945507D9
:101F70008093A0028FE890E00E94550780939F0213
:101F800080E990E00E94550780939E0281E990E0ED
:101F90000E94550780939D0282E990E00E945507B8
:101FA00080939C0283E990E00E94550780939B02F6
:101FB00084E990E00E94550780939A0285E990E0B9
:101FC0000E9455078093990286E990E00E94550788
:101FD0008093980287E990E00E94550780939702CA
:101FE00088E990E00E9455078093960289E990E085
:101FF0000E945507809395028AE990E00E94550758
:10200000809394028BE990E00E945507809393029D
:102010008CE990E00E94190890932103809320039B
:102020008EE990E00E945507809392028FE990E03C
:102030000E9455078093910280EA90E00E94550724
:102040008093900281EA90E00E941908909319030E
:102050008093180383EA90E00E94550780938F02D3
:1020600084EA90E00E94550780938E0285EA90E012
:1020700031CA82E090E0F0CEFC0101900020E9F747
:102080003197AF01481B590BBC018BE693E00C94D0
:1020900041048F929F92AF92BF920F931F93CF9361
:1020A000DF93CDB7DEB7A1970FB6F894DEBF0FBEB2
:1020B000CDBF19A2423008F44AE08E010F5D1F4FD8
:1020C000842E912CB12CA12CA50194010E94EB31FE
:1020D000E62FB901CA01EA30F4F4E05DD801EE93CD
:1020E0008D01232B242B252B79F790E080E010978E
:1020F00019F0CD010E943C10A1960FB6F894DEBFF6
:102100000FBECDBFDF91CF911F910F91BF90AF90C8
:102110009F908F900895E95CE1CF682F70E090E088
:1021200080E04AE00C944910CF92DF92EF92FF9248
:10213000CF93DF936C01990FEE08FF08F7FE19C0EB
:102140006DE28BE693E00E946905EC016627772734
:10215000CB016C197D098E099F094AE00E94491044
:102160008C0F9D1FDF91CF91FF90EF90DF90CF906C
:1021700008954AE0C701B601DF91CF91FF90EF903B
:10218000DF90CF900C944910BC0190E080E04AE0D1
:102190000C944910CF93DF930E943C10EC018CE12A
:1021A00091E00E943C108C0F9D1FDF91CF9108950C
:1021B0000C943C104F925F926F927F928F929F92FD
:1021C000AF92BF92CF92DF92EF92FF92CF93DF93C5
:1021D000CDB7DEB761970FB6F894DEBF0FBECDBFA7
:1021E00068EC70E080E090E00E94CE038FE191E027
:1021F0000E94D81081E291E00E94D810809168017D
:102200000E948D1081E291E00E94D81060916401DB
:102210007091650180916601909167014AE00E948A
:10222000491081E291E00E94D810609160017091A4
:10223000610180916201909163014AE00E9449101E
:1022400081E291E00E94D81060915C0170915D0183
:1022500080915E0190915F014AE00E94491081E205
:1022600091E00E94D81060915801709159018091BD
:102270005A0190915B014AE00E94491081E291E08D
:102280000E94D810609154017091550180915601BF
:10229000909157014AE00E94491081E291E00E942A
:1022A000D81060915001709151018091520190912C
:1022B00053014AE00E94491081E291E00E94CA1055
:1022C0008BE693E00E942C05181619060CF0FDC051
:1022D0006AE070E080E090E00E94CE038BE693E03D
:1022E0000E947D04883709F013C184E893E00E94BE
:1022F000C4010E94D004698B60939D0170939E017C
:1023000080939F019093A0010E94D0042B013C0177
:102310004092A1015092A2016092A3017092A40187
:102320000E94D00469837A838B839C836093A50188
:102330007093A6018093A7019093A8010E94D004F6
:102340006B017C01C092A901D092AA01E092AB017D
:10235000F092AC010E94D0046D837E838F839887B6
:102360006093AD017093AE018093AF019093B00183
:102370000E94D00469877A878B879C876093B1011C
:102380007093B2018093B3019093B4010E94D00482
:102390006D877E878F87988B6093B5017093B601A8
:1023A0008093B7019093B8010E94D0046093B90163
:1023B0007093BA018093BB019093BC0189E00E94A5
:1023C0000D048BE693E00E942C05181619062CF4D8
:1023D0008BE693E00E947D04F4CF29892093680165
:1023E0008AE0882E912CA12CB12CC301B201A50149
:1023F00094010E94C131722E20934F0169817A812C
:102400008B819C81A50194010E94C131622E209391
:102410004E01C701B601A50194010E94C131F22EFF
:1024200020934D016D817E818F819885A501940156
:102430000E94C131D22E20934C0169857A858B850B
:102440009C85A50194010E94C131C22E20934B01AD
:102450006D857E858F859889A50194010E94C13183
:10246000E22E20934A01698982E490E00E941807D5
:10247000672D83E490E00E941807662D84E490E0C5
:102480000E9418076F2D85E490E00E9418076D2DBB
:1024900086E490E00E9418076C2D87E490E00E948B
:1024A00018076E2D88E490E00E9418070E942F08FC
:1024B0008CED95E00E94C40166E970E080E090E058
:1024C0000E94CE0389E00E940D0480916C0181116D
:1024D00002C00E94DA1088E00E941501892B19F4CD
:1024E00081E080936C0161960FB6F894DEBF0FBE59
:1024F000CDBFDF91CF91FF90EF90DF90CF90BF9055
:10250000AF909F908F907F906F905F904F900895C5
:10251000823789F484E893E00E94C40168EC70E09B
:1025200080E090E00E94CE0389E00E940D0481E0EB
:1025300080936C01CACF853741F684E893E00E940E
:10254000C4010E94D0042B013C0140929D01509295
:102550009E0160929F017092A0010E94D0044B01E5
:102560005C018092A1019092A201A092A301B0927D
:10257000A4010E94D0046B017C01C092A501D092FD
:10258000A601E092A701F092A80189E00E940D0443
:102590008BE693E00E942C05181619062CF48BE6A6
:1025A00093E00E947D04F4CFB20181ED94E00E949B
:1025B000D605B4018EEC94E00E94D605B6018BECF2
:1025C00094E00E94D60581CF2F923F924F925F9266
:1025D0006F927F928F929F92AF92BF92CF92DF9233
:1025E000EF92FF920F931F93CF93DF93CDB7DEB798
:1025F000C854D1090FB6F894DEBF0FBECDBF64E654
:1026000070E080E090E00E94CE0382E10E9415011C
:1026100027969FAF8EAF279783E291E00E94D81054
:1026200081E291E00E94D81080912B0390912C03BD
:102630000E94C41081E291E00E94D8108091C202F1
:102640009091C3020E94C41081E291E00E94D810D0
:102650008091C0029091C1020E94C41081E291E079
:102660000E94D8108091BE029091BF020E94C410B7
:1026700081E291E00E94D8108091BC029091BD024D
:102680000E94C41081E291E00E94D8108091BA02A9
:102690009091BB020E94C41081E291E00E94D81088
:1026A0008091B8029091B9020E94C41081E291E039
:1026B0000E94D8108091B6029091B7020E94C41077
:1026C00081E291E00E94D8108091FB029091FC027F
:1026D0000E94C41081E291E00E94D81080914503CD
:1026E0000E948D1081E291E00E94D8108091B50285
:1026F0000E948D1081E291E00E94D8108091B40276
:102700000E948D1081E291E00E94D8108091B30266
:102710000E948D1081E291E00E94D8108091B20257
:102720000E948D1081E291E00E94D8108091B10248
:102730000E948D1081E291E00E94D8108091B00239
:102740000E948D1081E291E00E94D8108091AF022A
:102750000E948D1081E291E00E94D8108091AE021B
:102760000E948D1081E291E00E94D8108091AD020C
:102770000E948D1081E291E00E94D8108091AC02FD
:102780000E948D1081E291E00E94D8108091AB02EE
:102790000E948D1081E291E00E94D8108091AA02DF
:1027A0000E948D1081E291E00E94D8108091A902D0
:1027B0000E948D1081E291E00E94D8108091A802C1
:1027C0000E948D1081E291E00E94D8108091A702B2
:1027D0000E948D1081E291E00E94D8108091A602A3
:1027E0000E948D1081E291E00E94D8108091A50294
:1027F0000E948D1081E291E00E94D8108091A40285
:102800000E948D1081E291E00E94D8108091A30275
:102810000E948D1081E291E00E94D8108091A20266
:102820000E948D1081E291E00E94D8108091A10257
:102830000E948D1081E291E00E94D8108091A00248
:102840000E948D1081E291E00E94D81080919F0239
:102850000E948D1081E291E00E94D81080919E022A
:102860000E948D1081E291E00E94D81080919D021B
:102870000E948D1081E291E00E94D81080919C020C
:102880000E948D1081E291E00E94D81080919B02FD
:102890000E948D1081E291E00E94D81080919A02EE
:1028A0000E948D1081E291E00E94D81080919902DF
:1028B0000E948D1081E291E00E94D81080919802D0
:1028C0000E948D1081E291E00E94D81080919702C1
:1028D0000E948D1081E291E00E94D81080919602B2
:1028E0000E948D1081E291E00E94D81080919502A3
:1028F0000E948D1081E291E00E94D8108091940294
:102900000E948D1081E291E00E94D8108091930284
:102910000E948D1081E291E00E94D81080912003E6
:10292000909121030E94C41081E291E00E94D8108E
:10293000809192020E948D1081E291E00E94D81055
:10294000809191020E948D1081E291E00E94D81046
:10295000809190020E948D1081E291E00E94D81037
:102960008091F1029091F2020E94941081E291E034
:102970000E94D81080911803909119030E94C410EE
:1029800081E291E00E94D81080918F020E948D1008
:1029900081E291E00E94D81080918E020E948D10F9
:1029A00081E291E00E94D81080918D020E948D10EA
:1029B00081E291E00E94CA108BE693E00E942C0510
:1029C000181619060CF0D8C76AE070E080E090E0B5
:1029D0000E94CE038BE693E00E947D04843209F0CE
:1029E000AAC584E893E00E94C4010E94D0042B0190
:1029F0003C0140929D0150929E0160929F01709215
:102A0000A0010E94D00469837A838B839C836093A6
:102A1000A1017093A2018093A3019093A4010E944D
:102A2000D0046D837E838F8398876093A501709314
:102A3000A6018093A7019093A8010E94D004698702
:102A40007A878B879C876093A9017093AA018093F2
:102A5000AB019093AC010E94D0046D877E878F8775
:102A6000988B6093AD017093AE018093AF0190930A
:102A7000B0010E94D004698B7A8B8B8B9C8B609306
:102A8000B1017093B2018093B3019093B4010E949D
:102A9000D0046D8B7E8B8F8B988F6093B501709374
:102AA000B6018093B7019093B8010E94D004698F5A
:102AB0007A8F8B8F9C8F6093B9017093BA0180934A
:102AC000BB019093BC010E94D0046D8F7E8F8F8FCD
:102AD00098A36093BD017093BE018093BF01909352
:102AE000C0010E94D00469A36093C1017093C20128
:102AF0008093C3019093C4010E94D0046AA36093A1
:102B0000C5017093C6018093C7019093C8010E94CC
:102B1000D0046BA36093C9017093CA018093CB0169
:102B20009093CC010E94D0046CA36093CD0170936C
:102B3000CE018093CF019093D0010E94D0046DA369
:102B40006093D1017093D2018093D3019093D4010B
:102B50000E94D0046EA36093D5017093D601809338
:102B6000D7019093D8010E94D0046FA36093D9013C
:102B70007093DA018093DB019093DC010E94D00412
:102B800068A76093DD017093DE018093DF0190936D
:102B9000E0010E94D00469A76093E1017093E20113
:102BA0008093E3019093E4010E94D0046AA76093AC
:102BB000E5017093E6018093E7019093E8010E949C
:102BC000D0046BA76093E9017093EA018093EB0155
:102BD0009093EC010E94D0046CA76093ED01709378
:102BE000EE018093EF019093F0010E94D0046DA755
:102BF0006093F1017093F2018093F3019093F401DB
:102C00000E94D0046EA76093F5017093F601809343
:102C1000F7019093F8010E94D0046FA76093F90127
:102C20007093FA018093FB019093FC010E94D00401
:102C300068AB6093FD017093FE018093FF01909358
:102C400000020E94D00469AB6093010270930202FB
:102C500080930302909304020E94D0046AAB6093B5
:102C600005027093060280930702909308020E9467
:102C7000D0046BAB6093090270930A0280930B023D
:102C800090930C020E94D0046CAB60930D02709381
:102C90000E0280930F02909310020E94D0046DAB3D
:102CA00060931102709312028093130290931402A6
:102CB0000E94D0046EAB609315027093160280934D
:102CC0001702909318020E94D0046FAB6093190210
:102CD00070931A0280931B0290931C020E94D004EE
:102CE00068AF60931D0270931E0280931F02909341
:102CF00020020E94D00469AF6093210270932202E7
:102D000080932302909324020E94D0046AAF6093C0
:102D100025027093260280932702909328020E9436
:102D2000D0046BAF6093290270932A0280932B0228
:102D300090932C020E94D0046CAF60932D0270938C
:102D40002E0280932F02909330020E94D0046DAF28
:102D50006093310270933202809333029093340275
:102D60000E94D0046EAF6093350270933602809358
:102D70003702909338020E94D0046FAF60933902FB
:102D800070933A0280933B0290933C020E94D004DD
:102D900021966FAF219760933D0270933E0280931E
:102DA0003F02909340020E94D00422966FAF229778
:102DB00060934102709342028093430290934402D5
:102DC0000E94D00423966FAF2397609345027093BF
:102DD000460280934702909348020E94D0042496B2
:102DE0006FAF24976093490270934A0280934B021D
:102DF00090934C020E94D00425966FAF2597609364
:102E00004D0270934E0280934F02909350020E94A5
:102E1000D0044B015C018092510290925202A09228
:102E20005302B09254020E94D004262E60935502A1
:102E30007093560280935702909358020E94D004D8
:102E4000362E6093590270935A0280935B029093DE
:102E50005C020E94D004062F60935D0270935E02B4
:102E600080935F02909360020E94D0046B017C010A
:102E7000C0926102D0926202E0926302F092640218
:102E80000E94D004162F60936502709366028093AF
:102E90006702909368020E94D00429966FAF299729
:102EA0006093690270936A0280936B0290936C0244
:102EB0000E94D00428966FAF289760936D0270939C
:102EC0006E0280936F02909370026AE070E080E07F
:102ED00090E00E94CE0389E00E940D048BE693E00F
:102EE0000E942C05181619062CF48BE693E00E941C
:102EF0007D04F4CF50922C0340922B0329813A8118
:102F00003093C3022093C2028D819E819093C102AF
:102F10008093C002A985BA85B093BF02A093BE0278
:102F2000ED85FE85F093BD02E093BC0229893A89C4
:102F30003093BB022093BA028D899E899093B90287
:102F40008093B802A98DBA8DB093B702A093B60250
:102F5000ED8DFE8DF093FC02E093FB02F9A1F0935E
:102F600045032AA12093B5023BA13093B4028CA162
:102F70008093B3029DA19093B202AEA1A093B1023F
:102F8000BFA1B093B002E8A5E093AF02F9A5F0931A
:102F9000AE022AA52093AD023BA53093AC028CA5CE
:102FA0008093AB029DA59093AA02AEA5A093A9021F
:102FB000BFA5B093A802E8A9E093A702F9A9F093EE
:102FC000A6022AA92093A5023BA93093A4028CA9AA
:102FD0008093A3029DA99093A202AEA9A093A102FF
:102FE000BFA9B093A002E8ADE0939F02F9ADF093C2
:102FF0009E022AAD20939D023BAD30939C028CAD86
:1030000080939B029DAD90939A02AEADA0939902DE
:10301000BFADB09398022196EFAD2197E093970250
:103020002296FFAD2297F093960223962FAD239719
:103030002093950224963FAD2497309394022596D1
:103040008FAD259780939302909221038092200365
:10305000209292023092910200939002D092190332
:10306000C092180310938F0229969FAD29979093D1
:103070008E022896AFAD2897A0938D022796EEADCD
:10308000FFAD2797B201319709F038C182E090E097
:103090000E94450769817A8184E090E00E9445079B
:1030A0006D817E8186E090E00E94450769857A8582
:1030B00088E090E00E9445076D857E858AE090E07B
:1030C0000E94450769897A898CE090E00E94450753
:1030D0006D897E898EE090E00E944507698D7A8D2A
:1030E00080E190E00E9445076D8D7E8D82E190E049
:1030F0000E94450769A184E190E00E9418076AA137
:1031000085E190E00E9418076BA186E190E00E94A3
:1031100018076CA187E190E00E9418076DA188E173
:1031200090E00E9418076EA189E190E00E941807C4
:103130006FA18AE190E00E94180768A58BE190E0FA
:103140000E94180769A58CE190E00E9418076AA503
:103150008DE190E00E9418076BA58EE190E00E943F
:1031600018076CA58FE190E00E9418076DA580E21A
:1031700090E00E9418076EA581E290E00E94180777
:103180006FA582E290E00E94180768A983E290E0B0
:103190000E94180769A984E290E00E9418076AA9B2
:1031A00085E290E00E9418076BA986E290E00E94F9
:1031B00018076CA987E290E00E9418076DA988E2C1
:1031C00090E00E9418076EA989E290E00E9418071B
:1031D0006FA98AE290E00E94180768AD8BE290E048
:1031E0000E94180769AD8CE290E00E9418076AAD52
:1031F0008DE290E00E9418076BAD8EE290E00E9495
:1032000018076CAD8FE290E00E9418076DAD80E367
:1032100090E00E9418076EAD81E390E00E941807CD
:103220006FAD82E390E00E94180721966FAD219761
:1032300083E390E00E94180722966FAD229784E303
:1032400090E00E94180723966FAD239785E390E0E6
:103250000E94180724966FAD249786E390E00E94A1
:10326000180725966FAD259787E390E00E94180711
:10327000B40188E390E00E944507622D8AE390E064
:103280000E941807632D8BE390E00E941807602FBF
:103290008CE390E00E941807B6018DE390E00E9455
:1032A0004507612F8FE390E00E94180729966FADC4
:1032B000299780E490E00E94180728966FAD289720
:1032C00081E490E00E9418070E942F088CED95E0A1
:1032D0000E94C40168EC70E080E090E00E94CE03A0
:1032E00089E00E940D040E940104609331037093F1
:1032F000320380933303909334033EC386E690E019
:103300000E94450769817A8188E690E00E9445071E
:103310006D817E818AE690E00E94450769857A8505
:103320008CE690E00E9445076D857E858EE690E0F4
:103330000E94450769897A8980E790E00E944507E5
:103340006D897E8982E790E00E944507698D7A8DBC
:1033500084E790E00E9445076D8D7E8D86E790E0C2
:103360000E94450769A188E790E00E9418076AA1BA
:1033700089E790E00E9418076BA18AE790E00E941D
:1033800018076CA18BE790E00E9418076DA18CE7ED
:1033900090E00E9418076EA18DE790E00E94180748
:1033A0006FA18EE790E00E94180768A58FE790E074
:1033B0000E94180769A580E890E00E9418076AA596
:1033C00081E890E00E9418076BA582E890E00E94D7
:1033D00018076CA583E890E00E9418076DA584E8A3
:1033E00090E00E9418076EA585E890E00E941807FB
:1033F0006FA586E890E00E94180768A987E890E02A
:103400000E94180769A988E890E00E9418076AA935
:1034100089E890E00E9418076BA98AE890E00E9472
:1034200018076CA98BE890E00E9418076DA98CE83A
:1034300090E00E9418076EA98DE890E00E9418079E
:103440006FA98EE890E00E94180768AD8FE890E0C1
:103450000E94180769AD80E990E00E9418076AADE4
:1034600081E990E00E9418076BAD82E990E00E942C
:1034700018076CAD83E990E00E9418076DAD84E9F0
:1034800090E00E9418076EAD85E990E00E94180751
:103490006FAD86E990E00E94180721966FAD2197E5
:1034A00087E990E00E94180722966FAD229788E97D
:1034B00090E00E94180723966FAD239789E990E06A
:1034C0000E94180724966FAD24978AE990E00E9425
:1034D000180725966FAD25978BE990E00E94180795
:1034E000B4018CE990E00E944507622D8EE990E0DE
:1034F0000E941807632D8FE990E00E941807602F43
:1035000080EA90E00E941807B60181EA90E00E94EC
:103510004507612F83EA90E00E94180729966FAD56
:10352000299784EA90E00E94180728966FAD2897A3
:1035300085EA90E0C7CE843709F04DC20E940104AD
:103540006093310370933203809333039093340379
:1035500062E370E080E090E00E94CE0384E893E0B4
:103560000E94C40166E970E080E090E00E94CE0312
:1035700089E00E940D0468EC70E080E090E00E9419
:10358000CE0384E893E00E94C40166E970E080E025
:1035900090E00E94CE0389E00E940D0468EC70E088
:1035A00080E090E00E94CE0384E893E00E94C40192
:1035B00066E970E080E090E00E94CE0389E00E941E
:1035C0000D0468EC70E080E090E00E94CE0360E0C3
:1035D0008BE00E943E0160913F03709140038EECAE
:1035E00094E00E94D60560913D0370913E0381ED09
:1035F00094E00E94D60560913B0370913C038BECF4
:1036000094E00E94D605609101037091020388EC5A
:1036100094E00E94D60568EE73E080E090E00E949E
:10362000CE0384E893E00E94C4016AE070E080E089
:1036300090E00E94CE0389E00E940D0460E08BE0E0
:103640000E943E016091290370912A038EEC94E060
:103650000E94D605609127037091280381ED94E0C4
:103660000E94D60560912503709126038BEC94E0AF
:103670000E94D60564EF71E080E090E00E94CE03E6
:1036800060912B0370912C0390E080E00E94CE03A8
:1036900060911C0370911D038EEC94E00E94D6058E
:1036A00060911E0370911F0381ED94E00E94D60586
:1036B00060911A0370911B038BEC94E00E94D60575
:1036C0006091FD027091FE0288EC94E00E94D605A4
:1036D00060E08BE00E943E0161E089E00E943E01D3
:1036E000609120037091210390E080E00E94CE035E
:1036F00060911403709115038EEC94E00E94D6053E
:10370000609116037091170381ED94E00E94D60535
:1037100060911203709113038BEC94E00E94D60524
:10372000609118037091190390E080E00E94CE032D
:1037300060911003709111038EEC94E00E94D60505
:1037400060910E0370910F0381ED94E00E94D60505
:1037500060910C0370910D038BEC94E00E94D605F0
:103760006AE070E080E090E00E94CE0381E0809308
:1037700024031092460380934B030E94762284E830
:1037800093E00E94C4016AE070E080E090E00E9453
:10379000CE0389E00E940D046091390370913A03D1
:1037A00081ED94E00E94D605609137037091380353
:1037B0008EEC94E00E94D60560913503709136033B
:1037C0008BEC94E00E94D60561E08DE00E943E0102
:1037D00061E08BE00E943E0166E970E080E090E0ED
:1037E0000E94CE0360E08DE00E943E0160E08BE02D
:1037F0000E943E0168EE73E080E090E00E94CE03FC
:1038000061E08DE00E943E0161E08BE00E943E019C
:1038100066E970E080E090E00E94CE0360E08DE019
:103820000E943E0160E08BE00E943E0168EE73E082
:1038300080E090E00E94CE0361E08DE00E943E01B6
:1038400061E08BE00E943E0166E970E080E090E07C
:103850000E94CE0360E08DE00E943E0160E08BE0BC
:103860000E943E0168EE73E080E090E00E94CE038B
:1038700060916F017091700181ED94E00E94D60516
:1038800060917101709172018EEC94E00E94D605F6
:1038900060916D0170916E018BEC94E00E94D605F1
:1038A00061E089E00E943E0164EF71E080E090E019
:1038B0000E94CE0360E089E00E943E0168EC70E067
:1038C00080E090E00E94CE0361E089E00E943E012A
:1038D00064E670E080E090E00E94CE0360E089E062
:1038E0000E943E0160E273E080E090E00E94CE031F
:1038F00061E089E00E943E0164EF71E080E090E0C9
:103900000E94CE0360E089E00E943E0168EC70E016
:1039100080E090E00E94CE0361E089E00E943E01D9
:1039200064E670E080E090E00E94CE0360E089E011
:103930000E943E0160E273E080E090E00E94CE03CE
:10394000609127037091280381ED94E00E94D605D1
:103950006091290370912A038EEC94E00E94D605B1
:1039600060912503709126038BEC94E00E94D605AC
:1039700060E089E00E943E018091430390914403FE
:1039800027962EAD3FAD27978217930711F00E941F
:103990002F0827968EAD9FAD279790934403809371
:1039A0004303C85BDF4F0FB6F894DEBF0FBECDBF39
:1039B000DF91CF911F910F91FF90EF90DF90CF900B
:1039C000BF90AF909F908F907F906F905F904F903F
:1039D0003F902F900895813661F560913F0370917B
:1039E00040038EEC94E00E94D60560913D037091F7
:1039F0003E0381ED94E00E94D60560913B037091F7
:103A00003C038BEC94E00E94D60584E893E00E948E
:103A1000C40162E370E080E090E00E94CE0389E0A0
:103A20000E940D0462E370E080E090E00E94CE030B
:103A30005ACC8236A9F46091290370912A038EEC46
:103A400094E00E94D605609127037091280381EDD0
:103A500094E00E94D6056091250370912603D1CF92
:103A60008336A9F460911C0370911D038EEC94E0E1
:103A70000E94D60560911E0370911F0381ED94E0B2
:103A80000E94D60560911A0370911B03BACF843649
:103A900051F560919B0170919C018EEC94E00E9425
:103AA000D6056091990170919A0181ED94E00E9490
:103AB000D60560919701709198018BEC94E00E947B
:103AC000D60584E893E00E94C40162E370E080E0E0
:103AD00090E00E94CE0389E00E940D046CE271E048
:103AE00080E090E0A3CF8536A9F4609195017091B4
:103AF00096018EEC94E00E94D6056091930170913E
:103B0000940181ED94E00E94D6056091910170913D
:103B10009201D3CF8636A9F460918F017091900104
:103B20008EEC94E00E94D60560918D0170918E011B
:103B300081ED94E00E94D60560918B0170918C011B
:103B4000BCCF8736A9F46091890170918A018EEC0F
:103B500094E00E94D605609187017091880181ED03
:103B600094E00E94D6056091850170918601A5CFF1
:103B70008836A9F460918301709184018EEC94E001
:103B80000E94D605609181017091820181ED94E0DF
:103B90000E94D60560917F01709180018ECF893699
:103BA000A9F460917D0170917E018EEC94E00E94F9
:103BB000D60560917B0170917C0181ED94E00E94BB
:103BC000D6056091790170917A0177CF8A36A9F490
:103BD00060917701709178018EEC94E00E94D60597
:103BE000609175017091760181ED94E00E94D60597
:103BF000609173017091740160CF8B36A9F460916C
:103C00003703709138038EEC94E00E94D6056091E2
:103C1000390370913A0381ED94E00E94D6056091DA
:103C200035037091360349CF8C36A9F46091710148
:103C3000709172018EEC94E00E94D60560916F0144
:103C40007091700181ED94E00E94D60560916D0144
:103C500070916E0132CF8D3609F0E0C110926C0187
:103C600084E893E00E94C40164E670E080E090E0A4
:103C70000E94CE0389E00E940D0499249394B12CF4
:103C8000A12C81E10E94A5039093F8028093F70292
:103C90008F3A91403CF480E10E94A5039093F80292
:103CA0008093F7026091F7027091F802072E000CE2
:103CB000880B990B0E94C8302AE038E240EA5BE3A7
:103CC0000E94033120E030E048EC52E40E940331CE
:103CD0000E9442327093F6026093F5022091F30243
:103CE0003091F402C901860F971F9093F2028093DE
:103CF000F10288E00E941501892B11F490926C0169
:103D000068EC70E080E090E00E94CE0385E291E0F4
:103D10000E94D81081E291E00E94D8108091410366
:103D2000909142030E94941081E291E00E94D81089
:103D30008091F3029091F4020E94941081E291E04C
:103D40000E94D81080914703909148030E94C410AC
:103D500081E291E00E94D81089E290E00E949410E4
:103D600081E291E00E94D81080916B010E948D1039
:103D700081E291E00E94D81080916A010E948D102A
:103D800081E291E00E94D8108091FF02909100039F
:103D90000E94C41081E291E00E94D8108091F50247
:103DA0009091F6020E94941081E291E00E94D81056
:103DB000809169010E948D1081E291E00E94D810EB
:103DC00080910B030E948D1081E291E00E94CA1045
:103DD0008BE693E00E942C05181619060CF0D3C050
:103DE0006AE070E080E090E00E94CE038BE693E012
:103DF0000E947D04813709F0CCC084E893E00E94E2
:103E0000C4010E94D004362E472E60939D0170930A
:103E10009E0180939F019093A0010E94D004562E92
:103E2000672E6093A1017093A2018093A3019093E8
:103E3000A4010E94D004762E872E6093A501709372
:103E4000A6018093A7019093A8010E94D004062F99
:103E50006093A9017093AA018093AB019093AC0188
:103E60000E94D004162F6093AD017093AE01809331
:103E7000AF019093B0010E94D0046B017C01C0920D
:103E8000B101D092B201E092B301F092B4010E946C
:103E9000D0046D836093B5017093B6018093B70130
:103EA0009093B8010E94D00469836093B901709324
:103EB000BA018093BB019093BC0168EC70E080E094
:103EC00090E00E94CE0389E00E940D048BE693E00F
:103ED0000E942C05181619062CF48BE693E00E941C
:103EE0007D04F4CF632D30924103409242035092FF
:103EF000F3026092F40270924703809248030093A9
:103F00006B0110936A01D0920003C092FF022D81D1
:103F100020936901398130930B038AEC90E00E9471
:103F20001807652D88EC90E00E941807672D8CEC2F
:103F300090E00E941807602F8DEC90E00E94180717
:103F4000612F8EEC90E00E941807B6018FEC90E094
:103F50000E9445076D8181ED90E00E9418076981FC
:103F600082ED90E00E9418070E942F088CED95E0EA
:103F70000E94C40166E970E080E090E00E94CE03F8
:103F800089E00E940D0480916C01882309F479CEA8
:103F9000AAC9823781F484E893E00E94C40168ECE6
:103FA00070E080E090E00E94CE0389E00E940D0462
:103FB00090926C01E8CF8A3719F4F5010995E3CFA7
:103FC0006091FD027091FE028F3631F08037D9F694
:103FD000609101037091020388EC94E00E94D60581
:103FE00084E893E00E94C40164E670E080E090E021
:103FF0000E94CE0389E00E940D046CE271E080E033
:1040000090E00E94CE030E940104609331037093FC
:1040100032038093330390933403B5CF8E36A9F4E3
:1040200060911403709115038EEC94E00E94D60504
:10403000609116037091170381ED94E00E94D605FC
:10404000609112037091130338CD8F3609F560919A
:104050001003709111038EEC94E00E94D6056091DC
:104060000E0370910F0381ED94E00E94D6056091DC
:104070000C0370910D038BEC94E00E94D60584E84C
:1040800093E00E94C40164E670E080E090E021CDFE
:10409000833791F410926C0184E893E00E94C4018C
:1040A00064E670E080E090E00E94CE0389E00E9428
:1040B0000D040E94DA1060CC8A3709F05DCCF0E084
:1040C000E0E0099559CC1092240381E080934603E7
:1040D000109204010E940104609331037093320333
:1040E00080933303909334036091270370912803E6
:1040F00081ED94E00E94D60564E670E080E090E0F7
:104100000E94CE036091290370912A038EEC94E003
:104110000E94D60564E670E080E090E00E94CE0345
:1041200060912503709126038BEC94E00E94D605E4
:104130006091FD027091FE0288EC94E00E94D60529
:1041400060E089E00E943E0164E670E080E090E07B
:104150000E94CE0384EA96E00E94C40164E670E007
:1041600080E090E00E94CE0389E00E940D0464E6A6
:1041700070E080E090E00E94CE0380E293E00E9435
:10418000C40164E670E080E090E00E94CE0389E024
:104190000E940D0488E00E941501892B19F41092E9
:1041A0000401F8CF61E08DE00E943E0164EF71E010
:1041B00080E090E00E94CE0361E08DE00E943E012D
:1041C0000E94010460932D0370932E0380932F03AC
:1041D000909330030E94E41288E00E941501892B1D
:1041E00059F780E293E00E94C40164E670E080E049
:1041F00090E00E94CE0389E00E940D0460E08DE013
:104200000E943E0160E08BE00E943E01609101034C
:104210007091020388EC94E00C94D6058F929F92E3
:10422000AF92BF92EF92FF920F931F93CF93DF93C2
:10423000EE24E39482E00E941501EC0188E00E94E4
:1042400015018C018EE00E9415012091AC02F090C6
:104250006801892B71F4222329F0F21618F02150FD
:104260002093AC0264E670E080E090E00E94CE0310
:10427000E9CF8FE00E941501A091AC02892B71F467
:10428000AA2329F0FA1618F0AF5FA093AC0264E6F7
:1042900070E080E090E00E94CE03EBCF809064015C
:1042A00090906501A0906601B09067012091600137
:1042B00030916101409162015091630128193909DF
:1042C0004A095B09B0E00E94E0312F2D30E050E058
:1042D00040E00E94C131CA01B901680D791D8A1DF3
:1042E0009B1D70933A036093390381ED94E00E9423
:1042F000D6050130110551F40E940104609342017A
:104300007093430180934401909345010E940104FE
:1043100000914201109143012091440130914501E7
:10432000601B710B820B930B6838734181059105FB
:1043300010F00E946320219709F04DC00E940104F3
:1043400000914601109147012091480130914901A7
:10435000601B710B820B930B009100011091010106
:10436000209102013091030106171707280739072A
:1043700090F180912403882371F18090ED02909058
:10438000EE02A090EF02B090F0028091EA0281115B
:104390002EC00E940104681979098A099B09603DB1
:1043A00077408105910560F0E092EA020E940104E5
:1043B0006093ED027093EE028093EF029093F0020F
:1043C000C091EA026C2F8BE00E943E016C2F8DE0C1
:1043D0000E943E0123C0DF91CF911F910F91FF906A
:1043E000EF90BF90AF909F908F900C9457070E94D2
:1043F0000104681979098A099B09663971058105E3
:10440000910560F01092EA020E9401046093ED02AF
:104410007093EE028093EF029093F0020E940104E9
:1044200000914201109143012091440130914501D6
:10443000601B710B820B930B6D3D754081059105DF
:1044400008F4F8CEDF91CF911F910F91FF90EF907C
:10445000BF90AF909F908F900C946320CF93C1E05A
:1044600088E00E941501892BF1F40E9401046093F9
:1044700042017093430180934401909345010E944F
:104480000104609346017093470180934801909323
:104490004901C093240382E00E941501892B01F792
:1044A0000E945707DDCF6091390370913A0381ED87
:1044B00094E00E94D60560913703709138038EEC2A
:1044C00094E00E94D60560913503709136038BEC21
:1044D00094E00E94D6056091FD027091FE0288EC86
:1044E00094E00E94D605CF910C940E210F931F9358
:1044F00060E089E00E943E0189E00E940D040E9474
:104500000104609303037093040380930503909365
:1045100006030E94010400910303109104032091FB
:10452000050330910603AB01BC01401B510B620B2C
:10453000730B8091C2029091C302B0E0A0E0841797
:104540009507A607B70760F180912403882341F1FE
:1045500082E00E941501892B11F40E945707609197
:10456000990170919A0181ED94E00E94D6056091C5
:104570009B0170919C018EEC94E00E94D6056091A5
:104580009701709198018BEC94E00E94D6056091A0
:10459000FD027091FE0288EC94E00E94D605B9CF2E
:1045A00084E190E00E94550760914503861356C050
:1045B00084E893E00E94C4016AE070E080E090E04B
:1045C0000E94CE0389E00E940D040E9401046093C2
:1045D0003E0170933F0180934001909341010E94FE
:1045E000010400913E0110913F0120914001309162
:1045F0004101AB01BC01401B510B620B730B80915D
:10460000C0029091C102B0E0A0E084179507A60710
:10461000B70748F180912403882329F182E00E94A2
:104620001501892B11F40E94570760919301709135
:10463000940181ED94E00E94D605609195017091FE
:1046400096018EEC94E00E94D605609191017091E4
:1046500092018BEC94E00E94D605C1CF84E190E0FA
:104660000E941807A5CF84E893E00E94C4016AE085
:1046700070E080E090E00E94CE0389E00E940D048B
:104680000E94010460933A0170933B0180933C01C6
:1046900090933D010E94010400913A0110913B0169
:1046A00020913C0130913D01AB01BC01401B510BFD
:1046B000620B730B8091BE029091BF02B0E0A0E04C
:1046C00084179507A607B70720F180912403882354
:1046D00001F182E00E941501892B11F40E94570715
:1046E00060918D0170918E0181ED94E00E94D6055C
:1046F00060918F01709190018EEC94E00E94D6053C
:1047000060918B0170918C018BEC94E00E94D60536
:10471000C1CF84E893E00E94C4016AE070E080E0C9
:1047200090E00E94CE0389E00E940D040E940104E3
:10473000609336017093370180933801909339016B
:104740000E94010400913601109137012091380137
:1047500030913901AB01BC01401B510B620B730B53
:104760008091BC029091BD02B0E0A0E08417950753
:10477000A607B70720F180912403882301F182E086
:104780000E941501892B11F40E945707609187013F
:104790007091880181ED94E00E94D60560918901B5
:1047A00070918A018EEC94E00E94D605609185019B
:1047B000709186018BEC94E00E94D605C1CF84E80D
:1047C00093E00E94C4016AE070E080E090E00E9403
:1047D000CE0389E00E940D040E940104609332011F
:1047E0007093330180933401909335010E9401044A
:1047F0000091320110913301209134013091350143
:10480000AB01BC01401B510B620B730B8091BA02D0
:104810009091BB02B0E0A0E084179507A607B70708
:1048200020F180912403882301F182E00E94150188
:10483000892B11F40E9457076091810170918201C8
:1048400081ED94E00E94D60560918301709184010E
:104850008EEC94E00E94D60560917F0170918001FA
:104860008BEC94E00E94D605C1CF84E893E00E94CF
:10487000C4016AE070E080E090E00E94CE0389E02D
:104880000E940D040E94010460932E0170932F0179
:1048900080933001909331010E94010400912E0118
:1048A00010912F012091300130913101AB01BC01F9
:1048B000401B510B620B730B8091B8029091B902AF
:1048C000B0E0A0E084179507A607B70720F1809114
:1048D0002403882301F182E00E941501892B11F441
:1048E0000E94570760917B0170917C0181ED94E0FB
:1048F0000E94D60560917D0170917E018EEC94E05E
:104900000E94D6056091790170917A018BEC94E058
:104910000E94D605C1CF84E893E00E94C4016AE0FA
:1049200070E080E090E00E94CE0389E00E940D04D8
:104930000E94010460932A0170932B0180932C0143
:1049400090932D010E94010400912A0110912B01E6
:1049500020912C0130912D01AB01BC01401B510B6A
:10496000620B730B8091B6029091B702B0E0A0E0A9
:1049700084179507A607B70720F1809124038823A1
:1049800001F182E00E941501892B11F40E94570762
:10499000609175017091760181ED94E00E94D605D9
:1049A00060917701709178018EEC94E00E94D605B9
:1049B00060917301709174018BEC94E00E94D605B4
:1049C000C1CF84E893E00E94C4016AE070E080E017
:1049D00090E00E94CE0389E00E940D040E94010431
:1049E0006093420170934301809344019093450189
:1049F00080914B03811142C082E00E941501019712
:104A0000C9F56091390370913A0381ED94E00E94F9
:104A1000D60560913703709138038EEC94E00E94C4
:104A2000D60560913503709136038BEC94E00E94BB
:104A3000D6050E9401046093420170934301809364
:104A40004401909345010E940104609346017093D4
:104A50004701809348019093490189E00E940D0429
:104A60006091450384E190E00E9418071F910F9127
:104A70000C940E211F910F910C9457071F910F91C9
:104A800008951F920F920FB60F9211242F933F9308
:104A90008F939F93AF93BF9380914D0390914E035B
:104AA000A0914F03B091500330914C0320E4230FA9
:104AB0002D3728F023EC230F0196A11DB11D209363
:104AC0004C0380934D0390934E03A0934F03B093F8
:104AD00050038091510390915203A0915303B091E0
:104AE00054030196A11DB11D80935103909352036D
:104AF000A0935303B0935403BF91AF919F918F91B3
:104B00003F912F910F900FBE0F901F9018951F92FD
:104B10000F920FB60F9211242F933F934F935F93F1
:104B20006F937F938F939F93AF93BF93EF93FF9375
:104B300080915F0390916003A0916103B091620343
:104B4000892B8A2B8B2BD1F190915603E09157033F
:104B5000F091580380818927808380915F03909131
:104B60006003A0916103B0916203181619061A063A
:104B70001B069CF480915F0390916003A0916103F8
:104B8000B09162030197A109B10980935F039093EB
:104B90006003A0936103B0936203FF91EF91BF9113
:104BA000AF919F918F917F916F915F914F913F91C5
:104BB0002F910F900FBE0F901F90189580910901B3
:104BC0000E940D04EACF1F920F920FB60F9211248C
:104BD0002F933F934F935F936F937F938F939F9305
:104BE000AF93BF93EF93FF938BE693E00E9447054B
:104BF000FF91EF91BF91AF919F918F917F916F91B5
:104C00005F914F913F912F910F900FBE0F901F908A
:104C100018951F920F920FB60F9211242F938F9316
:104C20009F93EF93FF93E0917B03F0917C0380814E
:104C3000E0918103F091820382FD1AC090818091FE
:104C400084038F5F20918503821741F0E0918403F4
:104C5000F0E0E559FC4F958F80938403FF91EF912D
:104C60009F918F912F910F900FBE0F901F901895CD
:104C70008081F4CF1F920F920FB60F9211242F93C1
:104C80003F934F935F936F937F938F939F93AF93D4
:104C9000BF93CF93DF93EF93FF938091C402C091B2
:104CA000C502D0E087FF36C01092850010928400C4
:104CB0008091C4028F5F8093C4028091C402082E49
:104CC000000C990B8C179D072CF48091C4028C303A
:104CD0000CF449C0809184009091850080E898E3AD
:104CE00090938900809388008FEF8093C402FF9196
:104CF000EF91DF91CF91BF91AF919F918F917F9174
:104D00006F915F914F913F912F910F900FBE0F9038
:104D10001F9018958091C402082E000C990B8C17D7
:104D20009D0734F6E091C4028E2FEE0F990BFC0123
:104D3000EE0FFF1FE80FF91FEA53FD4F808186FF3A
:104D4000B7CFE091C4028E2FEE0F990BFC01EE0F4E
:104D5000FF1FE80FF91FEA53FD4F808160E08F735A
:104D60000E943E01A5CF2091840030918500E09102
:104D7000C4028E2FEE0F990BFC01EE0FFF1FE80F00
:104D8000F91FEA53FD4F81819281820F931F909307
:104D9000890080938800E091C4028E2FEE0F990B5A
:104DA000FC01EE0FFF1FE80FF91FEA53FD4F808152
:104DB00086FF9DCFE091C4028E2FEE0F990BFC0170
:104DC000EE0FFF1FE80FF91FEA53FD4F808161E0EE
:104DD0008F730E943E018BCFFC019091C5029C30E5
:104DE00098F481E0890F8093C5029083892F90E029
:104DF000FC01EE0FFF1FE80FF91FEA53FD4F80E79C
:104E000097E19283818308958FEF80830895EBE685
:104E1000F3E01382128288EE93E0A0E0B0E0848396
:104E20009583A683B7838EE091E09183808385ECA0
:104E300090E09587848784EC90E09787868780EC64
:104E400090E0918B808B81EC90E0938B828B82EC55
:104E500090E0958B848B86EC90E0978B868B118EFF
:104E6000128E138E148E90E896BF8CE486BF96BF88
:104E700086BF81ED94E00E94EC268EEC94E00E94C7
:104E8000EC268BEC94E00E94EC2688EC94E00C94E9
:104E9000EC26CF93DF9300D000D0CDB7DEB7809162
:104EA000F20080618EBB80E88093F2009EB3909305
:104EB000F2008093610091E0909361009091F20084
:104EC0009F799EBB8093F2009EB39093F2009091E5
:104ED000F2009B7F9EBB8093F2009EB39093F20002
:104EE0008093610010926100789484B5826084BDE3
:104EF00084B5816084BD85B5826085BD85B58160DE
:104F000085BD80916E00816080936E00109281005B
:104F10008091810082608093810080918100816016
:104F200080938100809180008160809380008091D7
:104F3000B10084608093B1008091B0008160809363
:104F4000B0008091910082608093910080919100E7
:104F500081608093910080919000816080939000A7
:104F600080917A00846080937A0080917A008D7FAE
:104F700080937A0080917A008E7F80937A0080916E
:104F80007A00806880937A001092C10068EC70E02B
:104F900080E090E00E94CE03609127037091280387
:104FA00081ED94E00E94D6056091290370912A0357
:104FB0008EEC94E00E94D605609125037091260343
:104FC0008BEC94E00E94D60561E089E00E946C01C0
:104FD00061E08BE00E946C0161E08DE00E946C0159
:104FE00062E088E00E946C0162E087E00E946C0150
:104FF00062E082E00E946C0160E080E10E946C014E
:1050000060E081E10E946C0162E08EE00E946C0130
:1050100062E08FE00E946C0162E082E10E946C011C
:1050200060E08BE00E943E0184E690E00E9455071C
:10503000893159F061E08DE00E943E010E94B0008C
:1050400087E291E00E94CA10EFCF82E10E94150131
:105050008130910509F07DC0909344038093430310
:105060000E942F0880914703909148034AE0489F8F
:105070009001499F300D1124A4E6B0E00E940D324A
:1050800060930501709306018093070190930801D6
:1050900011E088E00E941501892B09F0B8C00E9438
:1050A00001046093ED027093EE028093EF029093FF
:1050B000F0021092EC021092EB0261E08BE00E9491
:1050C0003E0180ED97E00E94C40168EE73E080E04D
:1050D00090E00E94CE0389E00E940D0460E08BE026
:1050E0000E943E0188E00E9415012091EB02309160
:1050F000EC023A832983892B09F059C0C090ED0254
:10510000D090EE02E090EF02F090F0028091EA027F
:10511000882321F10E9401046C197D098E099F09E1
:10512000683C710581059105E8F21092EA020E943F
:1051300001046093ED027093EE028093EF0290936E
:10514000F00260E08BE00E943E0189E00E940D04C5
:10515000C9CF109244031092430382CF0E940104EE
:105160006C197D098E099F096C3474408105910585
:1051700008F4B8CF1093EA020E9401046093ED0294
:105180007093EE028093EF029093F00261E08BE067
:105190000E943E018CEB92E00E94C40149815A8139
:1051A000445C5F4F5093EC024093EB029BCF6981CC
:1051B0007A8182E190E00E94450769817A8186E7E1
:1051C00090E00E94450768EE73E080E090E00E9466
:1051D000CE0361E08BE00E943E018CEB92E00E94E6
:1051E000C40168EE73E080E090E00E94CE0389E0A5
:1051F0000E940D0460E08BE00E943E0168EC70E0CC
:1052000080E090E00E94CE030E946B0642CF809126
:10521000FB029091FC026CE370E00E9428327093D4
:10522000FA026093F9026A30710530F08AE090E08A
:105230009093FA028093F9028CEB92E00E94C401F1
:1052400064E670E080E090E00E94CE0389E00E9476
:105250000D0464E670E080E090E00E94CE038CEDE7
:1052600095E00E94C40164E670E080E090E00E9456
:10527000CE0389E00E940D0464EF71E080E090E0CD
:105280000E94CE0381E10E94A5039093F8028093CF
:10529000F7028F3A91403CF480E10E94A50390937D
:1052A000F8028093F7026091F7027091F802072EDE
:1052B000000C880B990B0E94C8302AE038E240EAC3
:1052C0005BE30E94033120E030E048EC52E40E94AE
:1052D00003310E9442327093F6026093F5022091EE
:1052E000F3023091F402260F371F3A83298330935B
:1052F000F2022093F1020E94B00049815A814F3599
:105300005140B4F588E00E941501019789F58BE6BC
:1053100093E00E942C05892B59F580E293E00E94CE
:10532000C40164E670E080E090E00E94CE0389E072
:105330000E940D0464E670E080E090E00E94CE03DD
:1053400080E293E00E94C40164E670E080E090E0B7
:105350000E94CE0389E00E940D0464EF71E080E0BA
:1053600090E00E94CE0329813A81293C31052CF638
:1053700063E070E081ED94E00E940F0664E070E06D
:105380008EEC94E00E940F0665E070E08BEC94E0F8
:105390000E940F0666E070E088EC94E00E940F0621
:1053A000609127037091280381ED94E00E94D60557
:1053B0006091290370912A038EEC94E00E94D60537
:1053C00060912503709126038BEC94E00E94D60532
:1053D0006091FD027091FE0288EC94E00E94D60577
:1053E0001A8219828091F9029091FA0249815A81B8
:1053F00048175907CCF48CED95E00E94C4016CE28B
:1054000071E080E090E00E94CE0389E00E940D04EC
:105410006CE271E080E090E00E94CE0389819A8185
:1054200001969A838983DECF1092460388E00E941A
:1054300015010197B9F40E94010460932D03709344
:105440002E0380932F03909330030E94E41282E096
:105450000E941501892B51F791E0909304010E945D
:105460005707E4CF0E940104609331037093320325
:1054700080933303909334030E94010460932D03BF
:1054800070932E0380932F039093300310924B035D
:1054900021E030E030934A032093490388E00E94E2
:1054A00015018C0187E00E9415019A83898382E1AE
:1054B0000E9415017C018090050190900601A0904A
:1054C0000701B090080138EB831A3BE0930AA1086A
:1054D000B10880914703909148034AE0489F9001AA
:1054E000499F300D1124A4E6B0E00E940D32609374
:1054F00005017093060180930701909308011092B3
:1055000046038EE00E941501892B71F480914503BA
:105510008150843B10F48093450364E670E080E0A2
:1055200090E00E94CE03EDCF8FE00E941501892B01
:10553000B1F4809145039FEF980F943B28F48F5F5F
:10554000853B49F08093450364E670E080E090E09D
:105550000E94CE03E9CF54EB50934503F5CF62E7A9
:105560008BE693E00E9469058CE191E00E943C107B
:105570008BE693E00E942C051816190674F46AE075
:1055800070E080E090E00E94CE038BE693E00E9402
:105590007D04823711F40E9463208091430390912F
:1055A0004403E816F90611F00E942F0882E00E94D9
:1055B0001501892B21F410924A031092490380911E
:1055C000490390914A03892B29F481E080930401D7
:1055D0000E945707809141039091420381309105C9
:1055E00009F0D7C101301105F1F529813A81232B4A
:1055F00009F03BC160913F03709140038EEC94E051
:105600000E94D60560913D0370913E0381ED94E0C8
:105610000E94D60560913B0370913C038BEC94E0B3
:105620000E94D6050E940104C0903103D09032033D
:10563000E0903303F09034036C197D098E099F09C3
:10564000643671058105910570F00E940104609334
:105650002D0370932E0380932F039093300360E00B
:1056600089E00E943E0149815A81452B51F40E94F4
:10567000010460932D0370932E0380932F03909366
:1056800030038091490390914A03892B11F40E94C1
:1056900057070115110509F0A2C00E94010460938B
:1056A000310370933203809333039093340360E0AB
:1056B0008BE00E943E010E940104C0902D03D09017
:1056C0002E03E0902F03F090300320902B033090B6
:1056D0002C032101712C612C6C197D098E099F0905
:1056E0004616570668067906C0F060912903709146
:1056F0002A038EEC94E00E94D605609127037091F6
:10570000280381ED94E00E94D605609125037091F5
:1057100026038BEC94E00E94D6050E9401046C19CC
:105720007D098E099F09641575058605970508F49E
:1057300056C089819A81019709F051C091E09093F8
:1057400024030E940104AB01BC014C195D096E09E0
:105750007F098091220390912303B0E0A0E0841799
:105760009507A607B70708F4F8C061E089E00E9432
:105770003E010E9401042091200330912103220E5A
:10578000331E2101712C612CAB01BC014C195D0948
:105790006E097F09441655066606770608F47AC036
:1057A00060911E0370911F0381ED94E00E94D60565
:1057B00060911C0370911D038EEC94E00E94D6054D
:1057C00060911A0370911B038BEC94E00E94D60544
:1057D00082E00E941501892B11F40E9457070E9454
:1057E0000104C0903103D0903203E0903303F09075
:1057F00034036C197D098E099F09681579058A059E
:105800009B0508F4C3C084E893E00E94C4010E9491
:1058100001046C197D098E099F09C0900501D09083
:105820000601E0900701F09008016C157D058E05DA
:105830009F0528F089E00E940D040E94570780917F
:105840002403882329F00130110511F40E947622E7
:1058500040E050E0452B09F419CE0E94330588231F
:1058600009F414CE0E94000011CE609139037091AA
:105870003A0381ED94E00E94D60560913703709160
:1058800038038EEC94E00E94D60560913503709148
:105890003603C4CE0E9401042091180330911903ED
:1058A000220E331E910150E040E029833A834B835E
:1058B0005C83AB01BC014C195D096E097F0944157D
:1058C00055056605770528F50E9401046C197D09C8
:1058D0008E099F0929813A814B815C816217730788
:1058E0008407950708F474CF609110037091110339
:1058F0008EEC94E00E94D60560910E0370910F0328
:1059000081ED94E00E94D60560910C0370910D0327
:105910005BCF0E9401046C197D098E099F092981C2
:105920003A814B815C81261737074807590760F297
:10593000609116037091170381ED94E00E94D605E3
:1059400060911403709115038EEC94E00E94D605CB
:10595000609112037091130337CF80910B0360E0C5
:1059600081110BC089E00E943E0189E00E940D0474
:10597000109224030E9457072BCF89E00E943E011A
:1059800089E00E940D040E942E2222CF0E948E06E2
:105990003ECF009709F0E5C10130110509F03FC085
:1059A00049815A814130510509F049C160913F0355
:1059B000709140038EEC94E00E94D60560913D0307
:1059C00070913E0381ED94E00E94D60560913B0307
:1059D00070913C038BEC94E00E94D6050E94010478
:1059E000C0903103D0903203E0903303F090340341
:1059F0006C197D098E099F09643671058105910531
:105A000070F00E94010460932D0370932E03809325
:105A10002F039093300360E089E00E943E0189816A
:105A20009A810197F1F40E94010460932D03709311
:105A30002E0380932F03909330030E940104209142
:105A40002B0330912C03AB01BC01420F531F611D8E
:105A5000711D4093070350930803609309037093EB
:105A60000A038091490390914A03892B11F40E9403
:105A700057070115110509F0A2C00E9401046093A7
:105A8000310370933203809333039093340360E0C7
:105A90008BE00E943E010E940104C0902D03D09033
:105AA0002E03E0902F03F090300320902B033090D2
:105AB0002C032101712C612C6C197D098E099F0921
:105AC0004616570668067906C0F060912903709162
:105AD0002A038EEC94E00E94D60560912703709112
