:100000000C9486000C94AE000C94AE000C94AE00E0
:100010000C94AE000C94AE000C94AE000C9424260C
:100020000C94AE000C94AE000C94AE000C94D72649
:100030000C94AE000C94AE000C94AE000C94AE0088
:100040000C94DE250C94AE000C94A6260C9480260D
:100050000C94AE000C94AE000C94AE000C94AE0068
:100060000C94AE000C94AE000C9400000C940000B4
:100070000C9400000C9400000000000024002700F5
:100080002A002D0033000000000023002600290074
:100090002C00320000000008500201000003040799
:1000A0000000000000000000000001020408102011
:1000B00040800102040810200102040810200208F8
:1000C000408001408080400104102002040810207C
:1000D000408000000000250028002B002E00340086
:1000E00004040404040404040202020202020303DE
:1000F00003030303050502030605050203050505C1
:1001000005060606060606060200A42711241FBEE1
:10011000CFEFD8E0DEBFCDBF11E0A0E0B1E0E0EC72
:10012000F6E602C005900D92AC33B107D9F724E092
:10013000ACE3B1E001C01D92A93EB207E1F710E0C7
:10014000C6E8D0E004C02197FE010E942933C538DB
:10015000D107C9F70E94E6270C945E330C94000087
:1001600081508B3088F5E82FF0E0E754FF4F0C9476
:100170002933CE00D200C400CA00E400E400D50058
:10018000DB00DF00E500E900809180008F7780933D
:1001900080000895809180008F7DF9CF84B58F779E
:1001A00084BD089584B58F7DFBCF8091B0008F779B
:1001B0008093B00008958091B0008F7DF9CF809139
:1001C00090008F77809390000895809190008F7DAC
:1001D000F9CF80919000877FF5CFCF93DF93282FC1
:1001E00030E0F901EC56FF4F8491F901E655FF4FDD
:1001F000D491F901E052FF4FC491CC23A1F08111B9
:100200000E94B000EC2FF0E0EE0FFF1FEA57FF4F07
:10021000A591B491EC91ED2381E090E009F480E0A8
:10022000DF91CF91089580E090E0FACF1F93CF93B4
:10023000DF93282F30E0F901EC56FF4F8491F9014C
:10024000E655FF4FD491F901E052FF4FC491CC2302
:10025000A9F0162F81110E94B000EC2FF0E0EE0FF4
:10026000FF1FEE52FF4FA591B4918FB7F894EC9118
:10027000111108C0D095DE23DC938FBFDF91CF91A1
:100280001F910895DE2BF8CFCF93DF93282F30E016
:10029000F901E655FF4F449120523F4FF901249157
:1002A000843011F583E08093A0002223D1F0822FC7
:1002B00090E0880F991FFC01E858FF4FA591B49179
:1002C000FC01EE52FF4FC591D491611122C09FB73E
:1002D000F8948C91409584238C938881482348839B
:1002E0009FBFDF91CF91089593EE980F923020F445
:1002F0008FEF84BF84BFD9CF8931B9F68091F000E8
:1003000082608EBB80E88093F0008EB38093F00013
:10031000CCCF623051F49FB7F8942C91842F809504
:1003200082238C93E8814E2BDACF8FB7F894EC912F
:100330004E2B4C938FBFD5CFCF92DF92EF92FF928F
:10034000CF936C0180910901893049F08F3F09F406
:1003500065C0CF91FF90EF90DF90CF900895E8E0D7
:10036000F1E0C491C7FDF5CF61E089E00E9444014E
:10037000F12CE12CCC23D1F0960150E040E0C230CA
:1003800009F0DCC07A0160E271EA87E090E00E9447
:10039000AE32BA01A901415051096109710983E0E6
:1003A0004F3F51056105710559F154F160E970ED58
:1003B00083E090E0A70196010E94AE32BA01A90144
:1003C0004150510961097109CC2309F416C1C230A9
:1003D00009F050C14F3F51056105710509F00CF45A
:1003E00050C168E478EE81E090E0A70196010E9498
:1003F000AE32BA01A901415051096109710985E084
:100400009091B100987F892B8093B100C13009F49D
:10041000A9C00CF0DAC0C1119CCF09C189E080935A
:100420000901E8E0F1E0C491CF3F09F492CFC13077
:1004300039F168F0C23009F441C0C33009F460C03A
:10044000C7FD87CF61E089E00E94440195CF14BCCD
:1004500015BC84B5826084BD85B5816085BDE9EE3B
:10046000F0E0E491F0E0EE0FFF1FEE52FF4F8591B8
:100470009491E3EBF0E0E491E0936F03C0E074CF7C
:10048000109280001092810080918100886080939A
:10049000810080918100816080938100E9EEF0E02D
:1004A000E491F0E0EE0FFF1FEE52FF4F8591949123
:1004B000E3EBF0E0E491E0936E0356CF1092B000CE
:1004C0001092B1008091B00082608093B000809162
:1004D000B10081608093B100E9EEF0E0E491F0E0DA
:1004E000EE0FFF1FEE52FF4F8591949190936D0395
:1004F00080936C03E3EBF0E0E491E0936B0334CF83
:1005000010929000109291008091910088608093E9
:10051000910080919100816080939100E9EEF0E07C
:10052000E491F0E0EE0FFF1FEE52FF4F85919491A2
:10053000E3EBF0E0E491E0936A0316CF60E074E24D
:1005400084EF90E00E94AE32BA01A90141505109F6
:1005500061097109C130D9F480918100887F81607F
:100560008093810050938900409388008FEF9FEF24
:10057000DC018093780390937903A0937A03B0937E
:100580007B0380916F00826080936F00E2CEC33066
:1005900009F03CCF80919100887F81608093910029
:1005A00050939900409398008FEF9FEFDC01809368
:1005B000700390937103A0937203B09373038091BF
:1005C0007100826080937100C4CEC23019F0C330D4
:1005D00039F3BFCE4093B3008FEF9FEFDC018093E0
:1005E000740390937503A0937603B093770380917F
:1005F0007000826080937000ACCE93E04F3F510555
:100600006105710581F07CF064E274EF80E090E0B8
:10061000A70196010E94AE32BA01A90141505109C9
:100620006109710994E085B5887F892B85BD47BD37
:100630008FEF9FEFDC0180937C0390937D03A09369
:100640007E03B0937F0380916E00826080936E0082
:1006500080CE64E274EF80E090E0A70196010E94F2
:10066000AE32BA01A9014150510961097109C1E0D5
:1006700086E0C6CE4F3F51056105710509F04CF784
:10068000C1E084E0BDCE80917A00806480937A00DE
:1006900080917A0086FDFCCF80917800909179005E
:1006A00008950F931F93CF93DF93EDEAF0E09081CD
:1006B000907F90838E50806480937C000DE710E0E3
:1006C000F8018081806280830E944303EC01F8017D
:1006D00080818F7D80830E9443038C0F9D1F9C012E
:1006E00036952795892F9927A901481B590BCA01CF
:1006F000DF91CF911F910F9108950E94510395951D
:1007000087959595879508953FB7F89480916603EE
:1007100090916703A0916803B091690326B5A89BE7
:1007200005C02F3F19F00196A11DB11D3FBFBA2F83
:10073000A92F982F8827BC01CD01620F711D811D43
:10074000911D660F771F881F991F08958F929F92A2
:10075000AF92BF92CF92DF92EF92FF926B017C013A
:100760000E9484034B015C01C114D104E104F10433
:10077000B9F00E948403681979098A099B09683EC7
:1007800073408105910580F321E0C21AD108E10888
:10079000F10888EE880E83E0981EA11CB11CE4CFFE
:1007A000FF90EF90DF90CF90BF90AF909F908F9091
:1007B00008952FB7F894609162037091630380915C
:1007C0006403909165032FBF0895909109018913E7
:1007D0000DC0E8E0F1E0E4919FEF90930901E13072
:1007E00059F038F0E23071F0E330E9F060E00C9459
:1007F000160110926E00FACF90916F009D7F90933A
:100800006F00F4CF909170009D7F9093700091E005
:100810009093B0009091B100987F94609093B10054
:100820001092B300E3CF909171009D7F909371007F
:10083000DDCFAF92BF92CF92DF92EF92FF920F93F4
:100840001F93CF93DF936C017B018B01040F151F66
:10085000EB015E01AE18BF08C017D10759F06991CE
:10086000D601ED91FC910190F081E02DC601099532
:10087000892B79F7C501DF91CF911F910F91FF90DF
:10088000EF90DF90CF90BF90AF900895FC01538D13
:10089000448D252F30E0842F90E0821B930B54175A
:1008A00010F0CF96089501970895FC01918D828DE7
:1008B000981759F0A28DAE0FBF2FB11D5D968C9188
:1008C000928D9F5F928F90E008958FEF9FEF089534
:1008D000FC01918D828D981731F0828DE80FF11D0A
:1008E000858D90E008958FEF9FEF08950F931F93EC
:1008F0000E94D903609388037093890380938A03CD
:1009000090938B0380E893E00E94680497FF1DC0DA
:100910000E94D903009188031091890320918A03D2
:1009200030918B03601B710B820B930B009184033E
:10093000109185032091860330918703601771071A
:1009400082079307F8F28FEF9FEF1F910F910895A1
:10095000CF92DF92EF92FF92CF930E947604FC0138
:1009600097FD4EC08D32910521F0C0970A9708F08F
:1009700040C0C12CD12C7601C0E0E130F105D1F0AE
:10098000ED32F105D9F1CF01C0970A9798F4AAE0AA
:10099000B0E0A70196010E94CD326F01FF0FEE0873
:1009A000FF08C60ED71EE81EF91E80E3C81AD1083C
:1009B000E108F10880E893E00E9455040E94760463
:1009C000FC01C0970A97C8F2E130F105B1F2CC23DF
:1009D00041F0F094E094D094C094C11CD11CE11C6F
:1009E000F11CC701B601CF91FF90EF90DF90CF903F
:1009F000089580E893E00E945504AFCFC1E0DACFBC
:100A0000C12CD12C7601EDCFFC01918D828D981BEC
:100A1000892F90E0089580E893E00E94040521E08A
:100A2000892B09F420E0822F089580E090E0892B43
:100A300029F00E940B0581110C9400000895FC011F
:100A4000A48DA80FB92FB11DA35EBE4F2C91848D2C
:100A500090E001968F739927848FA689B7892C938C
:100A6000A089B1898C91837080648C93938D848DDF
:100A7000981306C00288F389E02D80818F7D8083E2
:100A80000895EF92FF920F931F93CF93DF93EC01A2
:100A900081E0888F9B8D8C8D98131AC0E889F98925
:100AA000808185FF15C09FB7F894EE89FF89608328
:100AB000E889F98980818370806480839FBF81E0A9
:100AC00090E0DF91CF911F910F91FF90EF900895EB
:100AD000F62E0B8D10E00F5F1F4F0F731127E02EC6
:100AE0008C8D8E110CC00FB607FCFACFE889F989FE
:100AF000808185FFF5CFCE010E941F05F1CFEB8DE0
:100B0000EC0FFD2FF11DE35EFE4FF0829FB7F894CE
:100B10000B8FEA89FB8980818062CFCF682F80E8C4
:100B200093E00C944105CF93DF93EC01888D8823EB
:100B3000B9F0AA89BB89E889F9898C9185FD03C040
:100B4000808186FD0DC00FB607FCF7CF8C9185FF25
:100B5000F2CF808185FFEDCFCE010E941F05E9CF46
:100B6000DF91CF910895DC01EC91EC30A0F5119666
:100B70008C91119728E830E0281B310987FD3395C7
:100B8000220F331F220F331F6217730784F0129650
:100B90008C9128E532E0281B310987FD3395220F1F
:100BA000331F220F331F621773070CF49B0122506F
:100BB0003109220F331F220F331F4FB7F8948E2FA6
:100BC00090E0FC01EE0FFF1FE80FF91FE852FD4F08
:100BD000328321834FBF08951F93CF93DF93EC019E
:100BE000162F88818C3008F04EC061E0812F0E9462
:100BF00044018881282F30E0F901EE0FFF1FE20F3A
:100C0000F31FE852FD4F1F736081607C612B60838E
:100C100019821A822CE0622F0E940933829FB00150
:100C2000112430E020E0AB01420F531FFA01EE0F18
:100C3000FF1FE40FF51FE852FD4F908196FD16C08F
:100C40002F5F3F4F2C30310571F781110FC010928B
:100C5000800082E0809381001092850010928400D1
:100C6000B19A80916F00826080936F00E8818E2F2F
:100C700090E0FC01EE0FFF1FE80FF91FE852FD4F57
:100C80008081806480838881DF91CF911F91089556
:100C900088E00E94ED00892B41F489E00E94E50381
:100CA00060E089E00E941601F3CF80E293E00E94A9
:100CB0009C0164E670E080E090E00E94A60389E079
:100CC0000E94E50368E572E080E090E00E94A603E0
:100CD000F0E0E0E00994CF92DF92EF92FF92CF93A1
:100CE000DF9388E00E94ED00EC01C090FF02D090FD
:100CF0000003E0900103F09002038091FC0288233E
:100D000001F10E94D9036C197D098E099F0964368F
:100D1000710581059105C8F11092FC020E94D9036A
:100D20006093FF027093000380930103909302038A
:100D300089E0DF91CF91FF90EF90DF90CF900C94FE
:100D4000E5030E94D9036C197D098E099F09643857
:100D5000734081059105C8F081E08093FC020E94F8
:100D6000D9036093FF027093000380930103909373
:100D70000203CD2B51F084E893E0DF91CF91FF90F7
:100D8000EF90DF90CF900C949C01DF91CF91FF907A
:100D9000EF90DF90CF9008958C3F43E0940750F0A0
:100DA0006CEF73E00E941533362F330F330F20E0C2
:100DB000820F931F06B606FE13C046B743702CEF92
:100DC00033E002C0220F331F4A95E2F782179307E0
:100DD00050F481BD92BDF89A0000000080B50895DE
:100DE00030E020E0F3CF80E008950F931F93CF937E
:100DF000DF93082F162FEC01CE010E94CC061817A6
:100E0000C9F006B606FE1BC026B723708CEF93E030
:100E100002C0880F991F2A95E2F7C817D90750F426
:100E20008FB701BDD2BD10BDF89494E09FBB92E096
:100E30009FBB8FBFDF91CF911F910F91089590E0DD
:100E400080E0EBCF1F93CF93DF93EC01162F672F3A
:100E50000E94F506612FCE010196DF91CF911F917F
:100E60000C94F5060C94CC06CF92DF92EF92FF9291
:100E70000F931F930E94D90300910001109101016B
:100E80002091020130910301601B710B820B930BC7
:100E9000609358017093590180935A0190935B01BC
:100EA00060E08BE00E94160160E08DE00E94160178
:100EB00088E00E94ED00019721F40E94D9036B01A4
:100EC0007C018EE190E00E9432076091BE0286179D
:100ED00021F08EE190E00E94F506809104018823C4
:100EE000E9F10E94D9036C197D098E099F09683BBD
:100EF0007B408105910590F588E00E94ED00019707
:100F000021F40E94D9036B017C0161E089E00E9419
:100F1000160164EF71E080E090E00E94A60360E0BB
:100F200089E00E94160168EC70E080E090E00E9489
:100F3000A60361E089E00E94160164E670E080E0AB
:100F400090E00E94A60360E089E00E94160160E242
:100F500073E080E090E00E94A603BFCF1F910F9145
:100F6000FF90EF90DF90CF900C94480662E370E022
:100F700080E090E00E94A60380915C03811103C091
:100F800081E080930401609181017091820186EE7D
:100F900094E00E94B305609183017091840183EE17
:100FA00094E00E94B30560917F017091800180EE12
:100FB00094E00E94B30560E08BE00E94160160E0BF
:100FC0008DE00E94160160E089E00E94160164E64F
:100FD00070E080E090E00E94A60389E00E94E503B3
:100FE00068EE73E080E090E00E94A6030C94340762
:100FF0000F931F93CF938C010E943207C82FC80113
:1010000001960E9432072C2F30E0322F2227820FC8
:10101000932F911DCF911F910F9108954F925F9241
:101020006F927F928F929F92AF92BF92CF92DF92F8
:10103000EF92FF920F931F93CF93DF93CDB7DEB75D
:1010400062970FB6F894DEBF0FBECDBF82E10E945B
:10105000ED004C0182E490E00E943207C82E80939C
:101060007D0183E490E00E943207F82E80936401B2
:1010700084E490E00E9432078D838093630185E4CD
:1010800090E00E943207082F8093620186E490E08E
:101090000E94320789838093610187E490E00E9477
:1010A0003207182F8093600188E490E00E94320795
:1010B00080935F0129EF2F1518F49CE3909364014E
:1010C0000A3F18F09CE3909362011A3F18F09CE3EA
:1010D000909360010D810A3F18F090EF90936301A7
:1010E00019811A3F18F090EF909361018A3F18F030
:1010F00080EF80935F018AEC90E00E943207E82E37
:10110000F12CF0925803E092570388EC90E00E9493
:101110003207A82EB12CB0920603A09205038CECE6
:1011200090E00E94320790E090935E0380935D030D
:101130008DEC90E00E943207898B80935E018EECEB
:1011400090E00E9432078A8B80935D018FEC90E0E3
:101150000E94F807909312038093110381ED90E0B1
:101160000E943207182F80935C0128EE33E0129F13
:10117000C001139F900D112490933903809338037D
:1011800082ED90E00E94320780932103183C18F012
:1011900085E080935C0128ECA216B10434F087E06E
:1011A00090E0909306038093050338ECE316F10476
:1011B00020F010925803109257038CEC90E00E949C
:1011C0003207883C30F088E290E090935E03809391
:1011D0005D0380915D0390915E03409730F48FE052
:1011E00090E090935E0380935D038A94892809F0D0
:1011F000CAC582E090E00E94F80790934203809372
:10120000410384E090E00E94F8079093D502809318
:10121000D40286E090E00E94F8079093D302809376
:10122000D20288E090E00E94F8079093D102809368
:10123000D0028AE090E00E94F8079093CF0280935A
:10124000CE028CE090E00E94F8079093CD0280934C
:10125000CC028EE090E00E94F8079093CB0280933E
:10126000CA0280E190E00E94F8079093C90280933F
:10127000C80282E190E00E94F80790930E038093E9
:101280000D0384E190E00E94320780935B0385E1C7
:1012900090E00E9432078093C70286E190E00E94AE
:1012A00032078093C60287E190E00E943207809364
:1012B000C50288E190E00E9432078093C40289E170
:1012C00090E00E9432078093C3028AE190E00E947E
:1012D00032078093C2028BE190E00E943207809334
:1012E000C1028CE190E00E9432078093C0028DE140
:1012F00090E00E9432078093BF028EE190E00E944E
:1013000032078093BE028FE190E00E943207809303
:10131000BD0280E290E00E9432078093BC0281E22D
:1013200090E00E9432078093BB0282E290E00E942C
:1013300032078093BA0283E290E00E9432078093E2
:10134000B90284E290E00E9432078093B80285E2FD
:1013500090E00E9432078093B70286E290E00E94FC
:1013600032078093B60287E290E00E9432078093B2
:10137000B50288E290E00E9432078093B40289E2CD
:1013800090E00E9432078093B3028AE290E00E94CC
:1013900032078093B2028BE290E00E943207809382
:1013A000B1028CE290E00E9432078093B0028DE29D
:1013B00090E00E9432078093AF028EE290E00E949C
:1013C00032078093AE028FE290E00E943207809352
:1013D000AD0280E390E00E9432078093AC0281E38B
:1013E00090E00E9432078093AB0282E390E00E947B
:1013F00032078093AA0283E390E00E943207809331
:10140000A90284E390E00E9432078093A80285E35A
:1014100090E00E9432078093A70286E390E00E944A
:1014200032078093A60287E390E00E943207809300
:10143000A50288E390E00E94F80790933703809319
:1014400036038AE390E00E9432078093A4028BE384
:1014500090E00E9432078093A3028CE390E00E9408
:1014600032078093A2028DE390E00E94F8079093E8
:101470002F0380932E038FE390E00E943207809326
:10148000A10280E490E00E9432078093A00281E4F0
:1014900090E00E94320780939F0280910D0390910B
:1014A0000E034AE0489F9001499F300D1124A4E6A5
:1014B000B0E00E94FA3260930001709301018093C2
:1014C00002019093030120916401249F9001112453
:1014D000C901330FAA0BBB0B89839A83AB83BC83EF
:1014E0008093790190937A01A0937B01B0937C0162
:1014F00080906301849E40011124092C000CAA08ED
:10150000BB088092750190927601A0927701B0920B
:10151000780140906201449E20011124052C000CAA
:1015200066087708409271015092720160927301CF
:101530007092740180916101849FC00111248C011B
:10154000990F220B330B09871A872B873C8700934F
:101550006D0110936E0120936F0130937001209103
:101560006001249F90011124C901330FAA0BBB0B0A
:101570008D839E83AF83B8878093690190936A01BE
:10158000A0936B01B0936C0180915F01849FA001D7
:1015900011248A01550F220B330B0D871E872F87CD
:1015A000388B009365011093660120936701309397
:1015B0006801D12CF12CE12C09811A812B813C810D
:1015C000801A910AA20AB30AA0915B03B0E0A501B8
:1015D00094010E94CD32A70196010E94AE3289810A
:1015E0009A81AB81BC81280F391F4A1F5B1F309342
:1015F000540320935303A091C702B0E0A5019401C6
:101600000E94CD32A70196010E94AE3289819A8153
:10161000AB81BC81280F391F4A1F5B1F30933E03EB
:1016200020933D03A091C602B0E0A50194010E9461
:10163000CD32A70196010E94AE3289819A81AB8199
:10164000BC81280F391F4A1F5B1F3093350320933D
:101650003403A091A402B0E0A50194010E94CD3210
:10166000A70196010E94AE3289819A81AB81BC812B
:10167000280F391F4A1F5B1F30932D0320932C0323
:10168000A091A102B0E0A50194010E94CD32A70172
:1016900096010E94AE3289819A81AB81BC81280F6C
:1016A000391F4A1F5B1F3093250320932403A09109
:1016B000C502B0E0A50194010E94CD32A7019601B8
:1016C0000E94AE3289819A81AB81BC81280F391F7B
:1016D0004A1F5B1F3093AC012093AB01A091C40261
:1016E000B0E0A50194010E94CD32A70196010E94AD
:1016F000AE3289819A81AB81BC81280F391F4A1F84
:101700005B1F3093A6012093A501A091C302B0E016
:10171000A50194010E94CD32A70196010E94AE322C
:1017200089819A81AB81BC81280F391F4A1F5B1FB9
:101730003093A00120939F01A091C202B0E0A501C7
:1017400094010E94CD32A70196010E94AE32898198
:101750009A81AB81BC81280F391F4A1F5B1F3093D0
:101760009A0120939901A091C102B0E0A5019401D2
:101770000E94CD32A70196010E94AE3289819A81E2
:10178000AB81BC81280F391F4A1F5B1F3093940126
:1017900020939301A091C002B0E0A50194010E94A2
:1017A000CD32A70196010E94AE3289819A81AB8128
:1017B000BC81280F391F4A1F5B1F30938E01209375
:1017C0008D01A091BF02B0E0A50194010E94CD322D
:1017D000A70196010E94AE3289819A81AB81BC81BA
:1017E000280F391F4A1F5B1F309388012093870100
:1017F000A091BE02B0E0A50194010E94CD32A701E4
:1018000096010E94AE3289819A81AB81BC81280FFA
:10181000391F4A1F5B1F3093500320934F03A09141
:10182000BD02B0E0A50194010E94CD32A70196014E
:101830000E94AE3289819A81AB81BC81280F391F09
:101840004A1F5B1F309382012093810189849A840F
:10185000AB84BC8484189508A608B708A091BC0284
:10186000B0E0A50194010E94CD32A70196010E942B
:10187000AE32240D351D461D571D3093560320935F
:101880005503A091BB02B0E0A50194010E94CD32A6
:10189000A70196010E94AE32240D351D461D571D2D
:1018A0003093400320933F03A091BA02B0E0A5011A
:1018B00094010E94CD32A70196010E94AE32240D00
:1018C000351D461D571D3093330320933203A091DD
:1018D000A302B0E0A50194010E94CD32A7019601B8
:1018E0000E94AE32240D351D461D571D30932B032B
:1018F00020932A03A091A002B0E0A50194010E94C8
:10190000CD32A70196010E94AE32240D351D461D31
:10191000571D3093270320932603A091B902B0E00E
:10192000A50194010E94CD32A70196010E94AE321A
:10193000240D351D461D571D3093AE012093AD017A
:10194000A091B802B0E0A50194010E94CD32A70198
:1019500096010E94AE32240D351D461D571D309351
:10196000A8012093A701A091B702B0E0A5019401BE
:101970000E94CD32A70196010E94AE32240D351D82
:10198000461D571D3093A2012093A101A091B602DC
:10199000B0E0A50194010E94CD32A70196010E94FA
:1019A000AE32240D351D461D571D30939C012093EA
:1019B0009B01A091B502B0E0A50194010E94CD3237
:1019C000A70196010E94AE32240D351D461D571DFC
:1019D0003093960120939501A091B402B0E0A50147
:1019E00094010E94CD32A70196010E94AE32240DCF
:1019F000351D461D571D3093900120938F01A091F6
:101A0000B302B0E0A50194010E94CD32A701960176
:101A10000E94AE32240D351D461D571D30938A019C
:101A200020938901A091B202B0E0A50194010E9427
:101A3000CD32A70196010E94AE32240D351D461D00
:101A4000571D30934E0320934D03A091B102B0E097
:101A5000A50194010E94CD32A70196010E94AE32E9
:101A6000420E531E641E751E5092840140928301E3
:101A70008D849E84AF84B8880D811E812F81388526
:101A8000801A910AA20AB30AA091B002B0E0A5019F
:101A900094010E94CD32A70196010E94AE328D8141
:101AA0009E81AF81B885280F391F4A1F5B1F309375
:101AB000520320935103A091AF02B0E0A50194011D
:101AC0000E94CD32A70196010E94AE328D819E8187
:101AD000AF81B885280F391F4A1F5B1F30933C0325
:101AE00020933B03A091AE02B0E0A50194010E94B7
:101AF000CD32A70196010E94AE328D819E81AF81C9
:101B0000B885280F391F4A1F5B1F3093310320937C
:101B10003003A091A202B0E0A50194010E94CD3251
:101B2000A70196010E94AE328D819E81AF81B8855A
:101B3000280F391F4A1F5B1F309329032093280366
:101B4000A0919F02B0E0A50194010E94CD32A701AF
:101B500096010E94AE328D819E81AF81B885280F9B
:101B6000391F4A1F5B1F3093230320932203A09148
:101B7000AD02B0E0A50194010E94CD32A70196010B
:101B80000E94AE328D819E81AF81B885280F391FAA
:101B90004A1F5B1F3093AA012093A901A091AC02B8
:101BA000B0E0A50194010E94CD32A70196010E94E8
:101BB000AE328D819E81AF81B885280F391F4A1FB3
:101BC0005B1F3093A4012093A301A091AB02B0E06E
:101BD000A50194010E94CD32A70196010E94AE3268
:101BE0008D819E81AF81B885280F391F4A1F5B1FE9
:101BF00030939E0120939D01A091AA02B0E0A5011F
:101C000094010E94CD32A70196010E94AE328D81CF
:101C10009E81AF81B885280F391F4A1F5B1F309303
:101C2000980120939701A091A902B0E0A501940129
:101C30000E94CD32A70196010E94AE328D819E8115
:101C4000AF81B885280F391F4A1F5B1F309392015F
:101C500020939101A091A802B0E0A50194010E94F7
:101C6000CD32A70196010E94AE328D819E81AF8157
:101C7000B885280F391F4A1F5B1F30938C012093B2
:101C80008B01A091A702B0E0A50194010E94CD3282
:101C9000A70196010E94AE328D819E81AF81B885E9
:101CA000280F391F4A1F5B1F30938601209385013F
:101CB000A091A602B0E0A50194010E94CD32A70137
:101CC00096010E94AE328D819E81AF81B885280F2A
:101CD000391F4A1F5B1F30934C0320934B03A09185
:101CE000A502B0E0A50194010E94CD32A7019601A2
:101CF0000E94AE328D819E81AF81B885280F391F39
:101D00004A1F5B1F3093800120937F010989202F98
:101D100030E0A0EBB4E00E94FA32A70196010E94E5
:101D2000AE322C573C4F4F4F5F4F309310032093F0
:101D30000F031A89212F30E0A0EBB4E00E94FA32A1
:101D4000A70196010E94AE322C573C4F4F4F5F4F78
:101D5000309314032093130362960FB6F894DEBFFA
:101D60000FBECDBFDF91CF911F910F91FF90EF90EC
:101D7000DF90CF90BF90AF909F908F907F906F90AB
:101D80005F904F90089586E690E00E94F807909348
:101D900042038093410388E690E00E94F807909305
:101DA000D5028093D4028AE690E00E94F8079093CF
:101DB000D3028093D2028CE690E00E94F8079093C1
:101DC000D1028093D0028EE690E00E94F8079093B3
:101DD000CF028093CE0280E790E00E94F8079093B4
:101DE000CD028093CC0282E790E00E94F8079093A6
:101DF000CB028093CA0284E790E00E94F807909398
:101E0000C9028093C80286E790E00E94F8078330F9
:101E1000910508F40DC190930E0380930D0388E79C
:101E200090E00E94320780935B0389E790E00E9474
:101E300032078093C7028AE790E00E9432078093BE
:101E4000C6028BE790E00E9432078093C5028CE7C0
:101E500090E00E9432078093C4028DE790E00E94D8
:101E600032078093C3028EE790E00E94320780938E
:101E7000C2028FE790E00E9432078093C10280E89F
:101E800090E00E9432078093C00281E890E00E94B7
:101E900032078093BF0282E890E00E94320780936D
:101EA000BE0283E890E00E9432078093BD0284E87E
:101EB00090E00E9432078093BC0285E890E00E9487
:101EC00032078093BB0286E890E00E94320780933D
:101ED000BA0287E890E00E9432078093B90288E84E
:101EE00090E00E9432078093B80289E890E00E9457
:101EF00032078093B7028AE890E00E94320780930D
:101F0000B6028BE890E00E9432078093B5028CE81D
:101F100090E00E9432078093B4028DE890E00E9426
:101F200032078093B3028EE890E00E9432078093DC
:101F3000B2028FE890E00E9432078093B10280E9FC
:101F400090E00E9432078093B00281E990E00E9405
:101F500032078093AF0282E990E00E9432078093BB
:101F6000AE0283E990E00E9432078093AD0284E9DB
:101F700090E00E9432078093AC0285E990E00E94D5
:101F800032078093AB0286E990E00E94320780938B
:101F9000AA0287E990E00E9432078093A90288E9AB
:101FA00090E00E9432078093A80289E990E00E94A5
:101FB00032078093A7028AE990E00E94320780935B
:101FC000A6028BE990E00E9432078093A5028CE97B
:101FD00090E00E94F80790933703809336038EE9D0
:101FE00090E00E9432078093A4028FE990E00E9463
:101FF00032078093A30280EA90E00E943207809328
:10200000A20281EA90E00E94F80790932F03809348
:102010002E0383EA90E00E9432078093A10284EAB3
:1020200090E00E9432078093A00285EA90E031CAD6
:1020300082E090E0F0CEFC0101900020E9F73197BA
:10204000AF01481B590BBC0180E893E00C941904C4
:102050008F929F92AF92BF920F931F93CF93DF9374
:10206000CDB7DEB7A1970FB6F894DEBF0FBECDBFD8
:1020700019A2423008F44AE08E010F5D1F4F842EF2
:10208000912CB12CA12CA50194010E94D832E62FED
:10209000B901CA01EA30F4F4E05DD801EE938D0194
:1020A000232B242B252B79F790E080E0109719F053
:1020B000CD010E941B10A1960FB6F894DEBF0FBE93
:1020C000CDBFDF91CF911F910F91BF90AF909F90A7
:1020D0008F900895E95CE1CFCF92DF92EF92FF926B
:1020E000CF93DF936C01990FEE08FF08F7FE17C03E
:1020F0008DE20E948E05EC0166277727CB016C19D3
:102100007D098E099F094AE00E9428108C0F9D1FAF
:10211000DF91CF91FF90EF90DF90CF9008954AE04C
:10212000C701B601DF91CF91FF90EF90DF90CF9084
:102130000C942810682F70E090E080E04AE00C9446
:102140002810BC0190E080E04AE00C9428100C9428
:102150001B10CF93DF930E941B10EC018AE291E0E9
:102160000E941B108C0F9D1FDF91CF9108952F921D
:102170003F924F925F926F927F928F929F92AF9217
:10218000BF92CF92DF92EF92FF920F931F93CF9364
:10219000DF93CDB7DEB7C854D1090FB6F894DEBFD0
:1021A0000FBECDBF64E670E080E090E00E94A60321
:1021B00082E10E94ED0027969FAF8EAF27978DE2B8
:1021C00091E00E94A7108FE291E00E94A7108091F9
:1021D0004103909142030E94A1108FE291E00E947E
:1021E000A7108091D4029091D5020E94A1108FE295
:1021F00091E00E94A7108091D2029091D3020E9498
:10220000A1108FE291E00E94A7108091D0029091DE
:10221000D1020E94A1108FE291E00E94A71080914C
:10222000CE029091CF020E94A1108FE291E00E9415
:10223000A7108091CC029091CD020E94A1108FE254
:1022400091E00E94A7108091CA029091CB020E9457
:10225000A1108FE291E00E94A7108091C802909196
:10226000C9020E94A1108FE291E00E94A710809104
:102270000D0390910E030E94A1108FE291E00E9445
:10228000A71080915B030E949A108FE291E00E9458
:10229000A7108091C7020E949A108FE291E00E94DD
:1022A000A7108091C6020E949A108FE291E00E94CE
:1022B000A7108091C5020E949A108FE291E00E94BF
:1022C000A7108091C4020E949A108FE291E00E94B0
:1022D000A7108091C3020E949A108FE291E00E94A1
:1022E000A7108091C2020E949A108FE291E00E9492
:1022F000A7108091C1020E949A108FE291E00E9483
:10230000A7108091C0020E949A108FE291E00E9473
:10231000A7108091BF020E949A108FE291E00E9464
:10232000A7108091BE020E949A108FE291E00E9455
:10233000A7108091BD020E949A108FE291E00E9446
:10234000A7108091BC020E949A108FE291E00E9437
:10235000A7108091BB020E949A108FE291E00E9428
:10236000A7108091BA020E949A108FE291E00E9419
:10237000A7108091B9020E949A108FE291E00E940A
:10238000A7108091B8020E949A108FE291E00E94FB
:10239000A7108091B7020E949A108FE291E00E94EC
:1023A000A7108091B6020E949A108FE291E00E94DD
:1023B000A7108091B5020E949A108FE291E00E94CE
:1023C000A7108091B4020E949A108FE291E00E94BF
:1023D000A7108091B3020E949A108FE291E00E94B0
:1023E000A7108091B2020E949A108FE291E00E94A1
:1023F000A7108091B1020E949A108FE291E00E9492
:10240000A7108091B0020E949A108FE291E00E9482
:10241000A7108091AF020E949A108FE291E00E9473
:10242000A7108091AE020E949A108FE291E00E9464
:10243000A7108091AD020E949A108FE291E00E9455
:10244000A7108091AC020E949A108FE291E00E9446
:10245000A7108091AB020E949A108FE291E00E9437
:10246000A7108091AA020E949A108FE291E00E9428
:10247000A7108091A9020E949A108FE291E00E9419
:10248000A7108091A8020E949A108FE291E00E940A
:10249000A7108091A7020E949A108FE291E00E94FB
:1024A000A7108091A6020E949A108FE291E00E94EC
:1024B000A7108091A5020E949A108FE291E00E94DD
:1024C000A71080913603909137030E94A1108FE2EC
:1024D00091E00E94A7108091A4020E949A108FE2BE
:1024E00091E00E94A7108091A3020E949A108FE2AF
:1024F00091E00E94A7108091A2020E949A108FE2A0
:1025000091E00E94A71080910303909104030E9420
:10251000A1108FE291E00E94A71080912E0390916C
:102520002F030E94A1108FE291E00E94A7108091DA
:10253000A1020E949A108FE291E00E94A710809160
:10254000A0020E949A108FE291E00E94A710809151
:102550009F020E949A108FE291E00E94A91080E8E9
:1025600093E00E940405181619060CF0EBC76AE008
:1025700070E080E090E00E94A60380E893E00E9473
:102580005504898380935A030E94D90360931503ED
:1025900070931603809317039093180329812432B4
:1025A00009F0ABC584E893E00E949C010E94A80456
:1025B0002B013C014092AF015092B0016092B101F9
:1025C0007092B2010E94A80469837A838B839C83F2
:1025D0006093B3017093B4018093B5019093B601F9
:1025E0000E94A8046D837E838F8398876093B701D0
:1025F0007093B8018093B9019093BA010E94A80426
:1026000069877A878B879C876093BB017093BC0135
:102610008093BD019093BE010E94A8046D877E87C0
:102620008F87988B6093BF017093C0018093C10125
:102630009093C2010E94A804698B7A8B8B8B9C8B30
:102640006093C3017093C4018093C5019093C60148
:102650000E94A8046D8B7E8B8F8B988F6093C7012F
:102660007093C8018093C9019093CA010E94A80485
:10267000698F7A8F8B8F9C8F6093CB017093CC0185
:102680008093CD019093CE010E94A8046D8F7E8F20
:102690008F8F98A36093CF017093D0018093D10165
:1026A0009093D2010E94A80469A36093D301709310
:1026B000D4018093D5019093D6010E94A8046AA307
:1026C0006093D7017093D8018093D9019093DA0178
:1026D0000E94A8046BA36093DB017093DC018093DC
:1026E000DD019093DE010E94A8046CA36093DF01DA
:1026F0007093E0018093E1019093E2010E94A804AD
:102700006DA36093E3017093E4018093E5019093DE
:10271000E6010E94A8046EA36093E7017093E801AC
:102720008093E9019093EA010E94A8046FA360934B
:10273000EB017093EC018093ED019093EE010E9408
:10274000A80468A76093EF017093F0018093F101F2
:102750009093F2010E94A80469A76093F30170931B
:10276000F4018093F5019093F6010E94A8046AA7F2
:102770006093F7017093F8018093F9019093FA0147
:102780000E94A8046BA76093FB017093FC018093E7
:10279000FD019093FE010E94A8046CA76093FF01C5
:1027A0007093000280930102909302020E94A80499
:1027B0006DA76093030270930402809305029093C7
:1027C00006020E94A8046EA7609307027093080295
:1027D0008093090290930A020E94A8046FA7609355
:1027E0000B0270930C0280930D0290930E020E94D4
:1027F000A80468AB60930F027093100280931102DB
:10280000909312020E94A80469AB60931302709324
:10281000140280931502909316020E94A8046AABDA
:1028200060931702709318028093190290931A0212
:102830000E94A8046BAB60931B0270931C028093F0
:102840001D0290931E020E94A8046CAB60931F02AD
:102850007093200280932102909322020E94A80488
:102860006DAB6093230270932402809325029093B2
:1028700026020E94A8046EAB609327027093280280
:102880008093290290932A020E94A8046FAB609360
:102890002B0270932C0280932D0290932E020E94A3
:1028A000A80468AF60932F027093300280933102C6
:1028B000909332020E94A80469AF60933302709330
:1028C000340280933502909336020E94A8046AAFC6
:1028D00060933702709338028093390290933A02E2
:1028E0000E94A8046BAF60933B0270933C028093FC
:1028F0003D0290933E020E94A8046CAF60933F0299
:102900007093400280934102909342020E94A80477
:102910006DAF60934302709344028093450290939D
:1029200046020E94A8046EAF60934702709348026B
:102930008093490290934A020E94A8046FAF60936B
:102940004B0270934C0280934D0290934E020E9472
:10295000A80421966FAF219760934F0270935002A5
:1029600080935102909352020E94A80422966FAF66
:102970002297609353027093540280935502909370
:1029800056020E94A80423966FAF239760935702C4
:10299000709358028093590290935A020E94A8049F
:1029A00024966FAF249760935B0270935C028093D0
:1029B0005D0290935E020E94A80425966FAF259752
:1029C00060935F0270936002809361029093620251
:1029D0000E94A8044B015C01809263029092640201
:1029E000A0926502B09266020E94A804262E60930F
:1029F0006702709368028093690290936A020E9452
:102A0000A804362E60936B0270936C0280936D0263
:102A100090936E020E94A804062F60936F02709339
:102A2000700280937102909372020E94A8046B015D
:102A30007C01C0927302D0927402E0927502F0920F
:102A400076020E94A804162F609377027093780292
:102A50008093790290937A020E94A80429966FAF1E
:102A6000299760937B0270937C0280937D02909300
:102A70007E020E94A80428966FAF289760937F0279
:102A80007093800280938102909382026AE070E0EA
:102A900080E090E00E94A60389E00E94E50380E8C0
:102AA00093E00E940405181619062CF480E893E0C0
:102AB0000E945504F4CF5092420340924103898111
:102AC0009A819093D5028093D402AD81BE81B09358
:102AD000D302A093D202E985FA85F093D102E09364
:102AE000D0022D853E853093CF022093CE02898976
:102AF0009A899093CD028093CC02AD89BE89B09320
:102B0000CB02A093CA02E98DFA8DF093C902E0933B
:102B1000C8022D8D3E8D30930E0320930D0339A1F5
:102B200030935B038AA18093C7029BA19093C60256
:102B3000ACA1A093C502BDA1B093C402EEA1E093E5
:102B4000C302FFA1F093C20228A52093C10239A5B8
:102B50003093C0028AA58093BF029BA59093BE02CA
:102B6000ACA5A093BD02BDA5B093BC02EEA5E093B9
:102B7000BB02FFA5F093BA0228A92093B90239A994
:102B80003093B8028AA98093B7029BA99093B602AA
:102B9000ACA9A093B502BDA9B093B402EEA9E0938D
:102BA000B302FFA9F093B20228AD2093B10239AD70
:102BB0003093B0028AAD8093AF029BAD9093AE028A
:102BC000ACADA093AD02BDADB093AC02EEADE09361
:102BD000AB02FFADF093AA0221962FAD219720936F
:102BE000A90222963FAD22973093A80223968FAD7B
:102BF00023978093A70224969FAD24979093A602D3
:102C00002596AFAD2597A093A502909237038092A9
:102C100036032092A4023092A3020093A202D09223
:102C20002F03C0922E031093A1022996BFAD2997BE
:102C3000B093A0022896EFAD2897E0939F022796C5
:102C40002EAD3FAD2797B2012130310509F038C1D3
:102C500082E090E00E94220769817A8184E090E01E
:102C60000E9422076D817E8186E090E00E9422070B
:102C700069857A8588E090E00E9422076D857E85CF
:102C80008AE090E00E94220769897A898CE090E0CE
:102C90000E9422076D897E898EE090E00E942207C3
:102CA000698D7A8D80E190E00E9422076D8D7E8D86
:102CB00082E190E00E94220769A184E190E00E94F5
:102CC000F5066AA185E190E00E94F5066BA186E118
:102CD00090E00E94F5066CA187E190E00E94F50665
:102CE0006DA188E190E00E94F5066EA189E190E077
:102CF0000E94F5066FA18AE190E00E94F50668A5A2
:102D00008BE190E00E94F50669A58CE190E00E94BD
:102D1000F5066AA58DE190E00E94F5066BA58EE1AF
:102D200090E00E94F5066CA58FE190E00E94F50608
:102D30006DA580E290E00E94F5066EA581E290E02C
:102D40000E94F5066FA582E290E00E94F50668A950
:102D500083E290E00E94F50669A984E290E00E9477
:102D6000F5066AA985E290E00E94F5066BA986E265
:102D700090E00E94F5066CA987E290E00E94F506BB
:102D80006DA988E290E00E94F5066EA989E290E0C4
:102D90000E94F5066FA98AE290E00E94F50668ADF0
:102DA0008BE290E00E94F50669AD8CE290E00E9413
:102DB000F5066AAD8DE290E00E94F5066BAD8EE2FD
:102DC00090E00E94F5066CAD8FE290E00E94F5065F
:102DD0006DAD80E390E00E94F5066EAD81E390E07A
:102DE0000E94F5066FAD82E390E00E94F506219601
:102DF0006FAD219783E390E00E94F50622966FADB8
:102E0000229784E390E00E94F50623966FAD239706
:102E100085E390E00E94F50624966FAD249786E343
:102E200090E00E94F50625966FAD259787E390E028
:102E30000E94F506B40188E390E00E942207622D0B
:102E40008AE390E00E94F506632D8BE390E00E94F8
:102E5000F506602F8CE390E00E94F506B6018DE345
:102E600090E00E942207612F8FE390E00E94F50618
:102E700029966FAD299780E490E00E94F506289688
:102E80006FAD289781E490E00E94F5060E940E083D
:102E90008CED95E00E949C0168EC70E080E090E091
:102EA0000E94A60389E00E94E5030E94D903609373
:102EB0004703709348038093490390934A0342C3A6
:102EC00086E690E00E94220769817A8188E690E098
:102ED0000E9422076D817E818AE690E00E9422078F
:102EE00069857A858CE690E00E9422076D857E8553
:102EF0008EE690E00E94220769897A8980E790E057
:102F00000E9422076D897E8982E790E00E94220755
:102F1000698D7A8D84E790E00E9422076D8D7E8D09
:102F200086E790E00E94220769A188E790E00E946E
:102F3000F5066AA189E790E00E94F5066BA18AE791
:102F400090E00E94F5066CA18BE790E00E94F506E8
:102F50006DA18CE790E00E94F5066EA18DE790E0F0
:102F60000E94F5066FA18EE790E00E94F50668A525
:102F70008FE790E00E94F50669A580E890E00E9446
:102F8000F5066AA581E890E00E94F5066BA582E847
:102F900090E00E94F5066CA583E890E00E94F5069B
:102FA0006DA584E890E00E94F5066EA585E890E0A6
:102FB0000E94F5066FA586E890E00E94F50668A9D4
:102FC00087E890E00E94F50669A988E890E00E94F1
:102FD000F5066AA989E890E00E94F5066BA98AE8DF
:102FE00090E00E94F5066CA98BE890E00E94F5063F
:102FF0006DA98CE890E00E94F5066EA98DE890E03E
:103000000E94F5066FA98EE890E00E94F50668AD73
:103010008FE890E00E94F50669AD80E990E00E949B
:10302000F5066AAD81E990E00E94F5066BAD82E994
:1030300090E00E94F5066CAD83E990E00E94F506F1
:103040006DAD84E990E00E94F5066EAD85E990E0F3
:103050000E94F5066FAD86E990E00E94F506219684
:103060006FAD219787E990E00E94F50622966FAD3B
:10307000229788E990E00E94F50623966FAD23978A
:1030800089E990E00E94F50624966FAD24978AE9BD
:1030900090E00E94F50625966FAD25978BE990E0AC
:1030A0000E94F506B4018CE990E00E942207622D8F
:1030B0008EE990E00E94F506632D8FE990E00E9472
:1030C000F506602F80EA90E00E94F506B60181EADD
:1030D00090E00E942207612F83EA90E00E94F506AB
:1030E00029966FAD299784EA90E00E94F50628960C
:1030F0006FAD289785EA90E0C7CE3981343709F063
:1031000050C20E94D9036093470370934803809391
:10311000490390934A0380E380935A0362E370E08B
:1031200080E090E00E94A60384E893E00E949C0166
:1031300066E970E080E090E00E94A60389E00E94CA
:10314000E50368EC70E080E090E00E94A60384E86C
:1031500093E00E949C0166E970E080E090E00E94AC
:10316000A60389E00E94E50368EC70E080E090E04F
:103170000E94A60384E893E00E949C0166E970E047
:1031800080E090E00E94A60389E00E94E50368ECDD
:1031900070E080E090E00E94A60360E08BE00E9477
:1031A0001601609155037091560383EE94E00E94DE
:1031B000B305609153037091540386EE94E00E942E
:1031C000B305609151037091520380EE94E00E9428
:1031D000B30560911303709114038DED94E00E9488
:1031E000B30568EE73E080E090E00E94A60384E8F7
:1031F00093E00E949C016AE070E080E090E00E9411
:10320000A60389E00E94E50360E08BE00E941601BE
:1032100060913F037091400383EE94E00E94B305F8
:1032200060913D0370913E0386EE94E00E94B305E9
:1032300060913B0370913C0380EE94E00E94B305E3
:1032400064EF71E080E090E00E94A603609141038A
:103250007091420390E080E00E94A60360913203E7
:103260007091330383EE94E00E94B30560913403C0
:103270007091350386EE94E00E94B30560913003AF
:103280007091310380EE94E00E94B30560910F03CA
:10329000709110038DED94E00E94B30560E08BE027
:1032A0000E94160161E089E00E94160160913603D8
:1032B0007091370390E080E00E94A60360912A039A
:1032C00070912B0383EE94E00E94B30560912C0370
:1032D00070912D0386EE94E00E94B305609128035F
:1032E0007091290380EE94E00E94B30560912E0353
:1032F00070912F0390E080E00E94A6036091260366
:103300007091270383EE94E00E94B305609124033B
:103310007091250386EE94E00E94B305609122032C
:103320007091230380EE94E00E94B3056AE070E0A0
:1033300080E090E00E94A60381E080933A0310921F
:103340005C03809360030E94132384E893E00E944F
:103350009C016AE070E080E090E00E94A60389E0B2
:103360000E94E50360914F037091500386EE94E054
:103370000E94B30560914D0370914E0383EE94E07B
:103380000E94B30560914B0370914C0380EE94E072
:103390000E94B30561E08DE00E94160161E08BE0C0
:1033A0000E94160166E970E080E090E00E94A603AA
:1033B00060E08DE00E94160160E08BE00E94160143
:1033C00068EE73E080E090E00E94A60361E08DE08B
:1033D0000E94160161E08BE00E94160166E970E030
:1033E00080E090E00E94A60360E08DE00E9416015C
:1033F00060E08BE00E94160168EE73E080E090E0F0
:103400000E94A60361E08DE00E94160161E08BE05E
:103410000E94160166E970E080E090E00E94A60339
:1034200060E08DE00E94160160E08BE00E941601D2
:1034300068EE73E080E090E00E94A6036091810155
:103440007091820186EE94E00E94B3056091830141
:103450007091840183EE94E00E94B30560917F0136
:103460007091800180EE94E00E94B30561E089E0F4
:103470000E94160164EF71E080E090E00E94A603D4
:1034800060E089E00E94160168EC70E080E090E066
:103490000E94A60361E089E00E94160164E670E0E4
:1034A00080E090E00E94A60360E089E00E9416019F
:1034B00060E273E080E090E00E94A60361E089E0B2
:1034C0000E94160164EF71E080E090E00E94A60384
:1034D00060E089E00E94160168EC70E080E090E016
:1034E0000E94A60361E089E00E94160164E670E094
:1034F00080E090E00E94A60360E089E00E9416014F
:1035000060E273E080E090E00E94A60360913D03DA
:1035100070913E0386EE94E00E94B30560913F03F4
:103520007091400383EE94E00E94B30560913B03E9
:1035300070913C0380EE94E00E94B30560E089E066
:103540000E9416018091590327962EAD3FAD279713
:103550008217130611F00E940E0881E02796AEAD87
:10356000BFAD2797AB2B09F480E080935903C85B6C
:10357000DF4F0FB6F894DEBF0FBECDBFDF91CF9106
:103580001F910F91FF90EF90DF90CF90BF90AF9081
:103590009F908F907F906F905F904F903F902F9073
:1035A00008958981813661F56091550370915603C4
:1035B00083EE94E00E94B30560915303709154032D
:1035C00086EE94E00E94B30560915103709152031E
:1035D00080EE94E00E94B30584E893E00E949C0191
:1035E00062E370E080E090E00E94A60389E00E9420
:1035F000E50362E370E080E090E00E94A60355CC12
:1036000099819236A9F460913F037091400383EE53
:1036100094E00E94B30560913D0370913E0386EEF5
:1036200094E00E94B30560913B0370913C03D0CFBE
:10363000A981A336A9F4609132037091330383EE1C
:1036400094E00E94B305609134037091350386EED7
:1036500094E00E94B3056091300370913103B8CFBC
:10366000B981B43651F56091AD017091AE0183EE30
:1036700094E00E94B3056091AB017091AC0186EEBD
:1036800094E00E94B3056091A9017091AA0180EEB7
:1036900094E00E94B30584E893E00E949C0162E3F9
:1036A00070E080E090E00E94A60389E00E94E503BC
:1036B0006CE271E080E090E0A0CFE981E536A9F40A
:1036C0006091A7017091A80183EE94E00E94B30578
:1036D0006091A5017091A60186EE94E00E94B30569
:1036E0006091A3017091A401D2CFF981F636A9F4BB
:1036F0006091A1017091A20183EE94E00E94B30554
:1037000060919F017091A00186EE94E00E94B30544
:1037100060919D0170919E01BACF29812736A9F44D
:1037200060919B0170919C0183EE94E00E94B3052F
:103730006091990170919A0186EE94E00E94B30520
:103740006091970170919801A2CF39813836A9F420
:10375000609195017091960183EE94E00E94B3050B
:10376000609193017091940186EE94E00E94B305FC
:1037700060919101709192018ACF89818936A9F473
:1037800060918F017091900183EE94E00E94B305E7
:1037900060918D0170918E0186EE94E00E94B305D8
:1037A00060918B0170918C0172CF99819A36A9F446
:1037B0006091890170918A0183EE94E00E94B305C3
:1037C000609187017091880186EE94E00E94B305B4
:1037D00060918501709186015ACFA981AB36A9F419
:1037E00060914D0370914E0383EE94E00E94B30507
:1037F00060914F037091500386EE94E00E94B305F0
:1038000060914B0370914C0342CFB981BC36A9F44F
:10381000609183017091840183EE94E00E94B3056E
:10382000609181017091820186EE94E00E94B3055F
:1038300060917F01709180012ACFE981ED3609F016
:1038400003C210927E0184E893E00E949C0164E62A
:1038500070E080E090E00E94A60389E00E94E5030A
:1038600099249394B12CA12C88E00E94ED009A83B6
:10387000898381E10E947D0390930A038093090369
:103880008F3A91403CF480E10E947D0390930A03BB
:10389000809309036091090370910A03072E000CBD
:1038A000880B990B0E94B5312AE038E240EA5BE3CD
:1038B0000E94F03120E030E048EC52E40E94F03108
:1038C0000E942F3370930803609307032091050330
:1038D00030910603C901860F971F909304038093CC
:1038E000030329813A81232B51F00E94D90360936D
:1038F00015037093160380931703909318030E9487
:10390000D9030091150310911603209117033091EC
:103910001803601B710B820B930B6C327140810595
:10392000910510F090927E0168EC70E080E090E0EC
:103930000E94A60381E391E00E94A7108FE291E02C
:103940000E94A71080915703909158030E94A110E4
:103950008FE291E00E94A7108091050390910603E9
:103960000E946C108FE291E00E94A71080915D038D
:1039700090915E030E94A1108FE291E00E94A71037
:103980008CE991E00E946C108FE291E00E94A710F8
:1039900080915E010E949A108FE291E00E94A71030
:1039A00080915D010E949A108FE291E00E94A71021
:1039B00080911103909112030E94A1108FE291E077
:1039C0000E94A71080910703909108030E94A11004
:1039D0008FE291E00E94A71080915C010E949A10F2
:1039E0008FE291E00E94A710809121030E949A101B
:1039F0008FE291E00E94A91080E893E00E94040504
:103A0000181619060CF0D5C06AE070E080E090E06E
:103A10000E94A60380E893E00E94550480935A0315
:103A2000813709F0CCC084E893E00E949C010E9499
:103A3000A804362E472E6093AF017093B001809397
:103A4000B1019093B2010E94A804562E672E609394
:103A5000B3017093B4018093B5019093B6010E94B5
:103A6000A804762E872E6093B7017093B8018093D7
:103A7000B9019093BA010E94A804062F6093BB017C
:103A80007093BC018093BD019093BE010E94A80475
:103A9000162F6093BF017093C0018093C101909372
:103AA000C2010E94A8046B017C01C092C301D092A4
:103AB000C401E092C501F092C6010E94A8046D8382
:103AC0006093C7017093C8018093C9019093CA01A4
:103AD0000E94A80469836093CB017093CC0180930A
:103AE000CD019093CE0168EC70E080E090E00E9400
:103AF000A60389E00E94E50380E893E00E940405A4
:103B0000181619062CF480E893E00E945504F4CFAF
:103B1000632D3092570340925803509205036092F0
:103B2000060370925D0380925E0300935E01109322
:103B30005D01D0921203C09211038D8180935C01CC
:103B40009981909321038AEC90E00E94F506652DFF
:103B500088EC90E00E94F506672D8CEC90E00E94C6
:103B6000F506602F8DEC90E00E94F506612F8EEC3B
:103B700090E00E94F506B6018FEC90E00E942207CB
:103B80006D8181ED90E00E94F506698182ED90E003
:103B90000E94F5060E940E088CED95E00E949C01A3
:103BA00066E970E080E090E00E94A60389E00E9450
:103BB000E50380917E01882309F456CE76C98237C9
:103BC00081F484E893E00E949C0168EC70E080E05E
:103BD00090E00E94A60389E00E94E50390927E0196
:103BE000E8CF8A3719F4F5010995E3CF60910F0307
:103BF000709110038F3631F08037D9F6609113033E
:103C0000709114038DED94E00E94B30584E893E075
:103C10000E949C0164E670E080E090E00E94A603B0
:103C200089E00E94E5036CE271E080E090E00E9490
:103C3000A6030E94D90360934703709348038093BF
:103C4000490390934A03B5CFF981FE36A9F46091F8
:103C50002A0370912B0383EE94E00E94B3056091D8
:103C60002C0370912D0386EE94E00E94B3056091C1
:103C70002803709129030BCD29812F3609F5609116
:103C800026037091270383EE94E00E94B3056091B0
:103C900024037091250386EE94E00E94B3056091A1
:103CA00022037091230380EE94E00E94B30584E820
:103CB00093E00E949C0164E670E080E090E0F3CC29
:103CC0003981333709F00DC210927E0184E893E008
:103CD0000E949C0164E670E080E090E00E94A603F0
:103CE00089E00E94E50388E00E94ED00892B51F0F5
:103CF0000E94D903609315037093160380931703F2
:103D0000909318030E94D903009115031091160394
:103D10002091170330911803601B710B820B930BDA
:103D20006C3271408105910518F0B1E0B0937E01CD
:103D300068EC70E080E090E00E94A60383E391E0ED
:103D40000E94A7108FE291E00E94A71080917D0150
:103D50000E949A108FE291E00E94A7106091790171
:103D600070917A0180917B0190917C014AE00E94E0
:103D700028108FE291E00E94A71060917501709168
:103D8000760180917701909178014AE00E94281095
:103D90008FE291E00E94A710609171017091720111
:103DA00080917301909174014AE00E9428108FE283
:103DB00091E00E94A71060916D0170916E01809159
:103DC0006F01909170014AE00E9428108FE291E00B
:103DD0000E94A7106091690170916A0180916B0146
:103DE00090916C014AE00E9428108FE291E00E94BD
:103DF000A7106091650170916601809167019091B3
:103E000068014AE00E9428108FE291E00E94A91008
:103E100080E893E00E940405181619060CF0FFC014
:103E20006AE070E080E090E00E94A60380E893E002
:103E30000E94550480935A03883709F0F6C084E83D
:103E400093E00E949C010E94A804698B6093AF01DB
:103E50007093B0018093B1019093B2010E94A804C5
:103E60002B013C014092B3015092B4016092B50124
:103E70007092B6010E94A80469837A838B839C8325
:103E80006093B7017093B8018093B9019093BA0120
:103E90000E94A8046B017C01C092BB01D092BC01BE
:103EA000E092BD01F092BE010E94A8046D837E8362
:103EB0008F8398876093BF017093C0018093C10185
:103EC0009093C2010E94A80469877A878B879C8798
:103ED0006093C3017093C4018093C5019093C601A0
:103EE0000E94A8046D877E878F87988B6093C70197
:103EF0007093C8018093C9019093CA010E94A804DD
:103F00006093CB017093CC018093CD019093CE014F
:103F100089E00E94E50380E893E00E9404051816FA
:103F200019062CF480E893E00E945504F4CFE98947
:103F3000E0937D018AE0882E912CA12CB12CC30145
:103F4000B201A50194010E94AE32722E2093640149
:103F500069817A818B819C81A50194010E94AE3296
:103F6000622E20936301C701B601A50194010E944E
:103F7000AE32F22E209362016D817E818F81988511
:103F8000A50194010E94AE32122F20936101698530
:103F90007A858B859C85A50194010E94AE32E22E24
:103FA000209360016D857E858F859889A501940198
:103FB0000E94AE32022F20935F01698982E490E073
:103FC0000E94F506672D83E490E00E94F506662DB9
:103FD00084E490E00E94F5066F2D85E490E00E9455
:103FE000F506612F86E490E00E94F5066E2D87E4C9
:103FF00090E00E94F506602F88E490E00E94F506AC
:104000000E940E088CED95E00E949C0166E970E02C
:1040100080E090E00E94A60389E00E94E503809181
:104020007E01882309F45FCE8DCA823789F484E843
:1040300093E00E949C0168EC70E080E090E00E94B8
:10404000A60389E00E94E503F1E0F0937E01E7CF4B
:10405000853729F784E893E00E949C010E94A80418
:104060002B013C014092AF015092B0016092B1012E
:104070007092B2010E94A8044B015C018092B301CE
:104080009092B401A092B501B092B6010E94A8042A
:104090006B017C01C092B701D092B801E092B901E6
:1040A000F092BA0189E00E94E50380E893E00E9463
:1040B0000405181619062CF480E893E00E945504B4
:1040C000F4CFB20186EE94E00E94B305B40183EE12
:1040D00094E00E94B305B60180EE94E00E94B3051F
:1040E0009ECF2981273709F05DC010927E0184E8B8
:1040F00093E00E949C0164E670E080E090E00E9402
:10410000A60389E00E94E50368EC70E080E090E09F
:104110000E94A6038AE091E00E94A7104AE06CE9A1
:1041200071E080E090E00E9428108AE291E00E9415
:104130001B1080E893E00E9404051816190664F528
:104140006AE070E080E090E00E94A60380E893E0DF
:104150000E945504898380935A0380E893E00E946B
:104160000405181619062CF480E893E00E94550403
:10417000F4CF3981323781F484E893E00E949C01C6
:1041800068EC70E080E090E00E94A60389E00E9465
:10419000E50381E080937E0180917E01882309F40C
:1041A000B3CFD0C999819A3709F0CCC9F0E0E0E0EB
:1041B0000995C8C90F931F9310923A0381E0809329
:1041C0005C03109204010E94D9036093470370932B
:1041D00048038093490390934A0360913D03709193
:1041E0003E0386EE94E00E94B30564E670E080E052
:1041F00090E00E94A60360913F037091400383EE1C
:1042000094E00E94B30564E670E080E090E00E94D4
:10421000A60360913B0370913C0380EE94E00E9402
:10422000B30560910F03709110038DED94E00E942F
:10423000B30560E089E00E94160164E670E080E06A
:1042400090E00E94A60384EA96E00E949C0164E646
:1042500070E080E090E00E94A60389E00E94E50300
:1042600064E670E080E090E00E94A60380E293E0C4
:104270000E949C0164E670E080E090E00E94A6034A
:1042800089E00E94E5030E94D903609315037093AF
:104290001603809317039093180388E00E94ED00A3
:1042A000892B19F410920401F8CF61E08DE00E948F
:1042B000160164EF71E080E090E00E94A60361E0E7
:1042C0008DE00E9416010E94D9036093430370930E
:1042D000440380934503909346030E94B7100E94C5
:1042E000D903009115031091160320911703309103
:1042F0001803601B710B820B930B603C7742894063
:10430000910528F081E0809304010E94340788E041
:104310000E94ED00892B99F680E293E00E949C01B7
:1043200064E670E080E090E00E94A60389E00E94CD
:10433000E50360E08DE00E94160160E08BE00E94E2
:10434000160160911303709114038DED94E01F9199
:104350000F910C94B3058F929F92AF92BF92EF9200
:10436000FF920F931F93CF93DF93EE24E39482E0A9
:104370000E94ED00EC0188E00E94ED008C018EE0CF
:104380000E94ED002091BE02F0907D01892B71F416
:10439000222329F0F21618F021502093BE0264E681
:1043A00070E080E090E00E94A603E9CF8FE00E94D9
:1043B000ED00A091BE02892B71F4AA2329F0FA1610
:1043C00018F0AF5FA093BE0264E670E080E090E07A
:1043D0000E94A603EBCF8090790190907A01A09083
:1043E0007B01B0907C012091750130917601409164
:1043F000770150917801281939094A095B09B0E021
:104400000E94CD322F2D30E050E040E00E94AE32CD
:10441000CA01B901680D791D8A1D9B1D7093500357
:1044200060934F0386EE94E00E94B30501301105BE
:1044300051F40E94D9036093540170935501809305
:104440005601909357010E94D90300915401109195
:1044500055012091560130915701601B710B820B61
:10446000930B683873418105910510F00E94DA20A2
:10447000219709F04DC00E94D90300915801109175
:10448000590120915A0130915B01601B710B820B25
:10449000930B0091000110910101209102013091D4
:1044A0000301061717072807390790F180913A038F
:1044B000882371F18090FF0290900003A090010387
:1044C000B09002038091FC0281112EC00E94D9039A
:1044D000681979098A099B09603D77408105910532
:1044E00060F0E092FC020E94D9036093FF02709397
:1044F00000038093010390930203C091FC026C2F90
:104500008BE00E9416016C2F8DE00E94160123C0E3
:10451000DF91CF911F910F91FF90EF90BF90AF90DF
:104520009F908F900C94B6070E94D903681979095F
:104530008A099B09663971058105910560F0109221
:10454000FC020E94D9036093FF02709300038093E2
:104550000103909302030E94D9030091540110912A
:1045600055012091560130915701601B710B820B50
:10457000930B6D3D75408105910508F4F8CEDF91F0
:10458000CF911F910F91FF90EF90BF90AF909F90B0
:104590008F900C94DA20CF93C1E088E00E94ED0068
:1045A000892BF1F40E94D903609354017093550153
:1045B00080935601909357010E94D903609358014C
:1045C0007093590180935A0190935B01C0933A0311
:1045D00082E00E94ED00892B01F70E94B607DDCF33
:1045E00060914F037091500386EE94E00E94B305F2
:1045F00060914D0370914E0383EE94E00E94B305E9
:1046000060914B0370914C0380EE94E00E94B305DF
:1046100060910F03709110038DED94E00E94B3053B
:10462000CF910C94AB210F931F9360E089E00E941F
:10463000160189E00E94E5030E94D90360931903E3
:1046400070931A0380931B0390931C030E94D90359
:104650000091190310911A0320911B0330911C0340
:10466000AB01BC01401B510B620B730B8091D40258
:104670009091D502B0E0A0E084179507A607B70790
:1046800060F180913A03882341F182E00E94ED00BD
:10469000892B11F40E94B6076091AB017091AC01B7
:1046A00086EE94E00E94B3056091AD017091AE0179
:1046B00083EE94E00E94B3056091A9017091AA0174
:1046C00080EE94E00E94B30560910F037091100397
:1046D0008DED94E00E94B305B9CF84E190E00E9493
:1046E000320760915B03861356C084E893E00E9412
:1046F0009C016AE070E080E090E00E94A60389E0FF
:104700000E94E5030E94D903609350017093510108
:1047100080935201909353010E94D903009150015C
:10472000109151012091520130915301AB01BC0114
:10473000401B510B620B730B8091D2029091D302FC
:10474000B0E0A0E084179507A607B70748F180916D
:104750003A03882329F182E00E94ED00892B11F4AD
:104760000E94B6076091A5017091A60186EE94E0C3
:104770000E94B3056091A7017091A80183EE94E0B7
:104780000E94B3056091A3017091A40180EE94E0B2
:104790000E94B305C1CF84E190E00E94F506A5CF49
:1047A00084E893E00E949C016AE070E080E090E081
:1047B0000E94A60389E00E94E5030E94D90360934A
:1047C0004C0170934D0180934E0190934F010E94D4
:1047D000D90300914C0110914D0120914E0130916F
:1047E0004F01AB01BC01401B510B620B730B80915D
:1047F000D0029091D102B0E0A0E084179507A607FF
:10480000B70720F180913A03882301F182E00E94EA
:10481000ED00892B11F40E94B60760919F01709101
:10482000A00186EE94E00E94B3056091A101709111
:10483000A20183EE94E00E94B30560919D01709106
:104840009E0180EE94E00E94B305C1CF84E893E01E
:104850000E949C016AE070E080E090E00E94A60364
:1048600089E00E94E5030E94D90360934801709398
:10487000490180934A0190934B010E94D903009112
:1048800048011091490120914A0130914B01AB013F
:10489000BC01401B510B620B730B8091CE029091B7
:1048A000CF02B0E0A0E084179507A607B70720F174
:1048B00080913A03882301F182E00E94ED00892B68
:1048C00011F40E94B6076091990170919A0186EEE9
:1048D00094E00E94B30560919B0170919C0183EE6E
:1048E00094E00E94B305609197017091980180EE69
:1048F00094E00E94B305C1CF84E893E00E949C013C
:104900006AE070E080E090E00E94A60389E00E94E7
:10491000E5030E94D903609344017093450180939D
:104920004601909347010E94D903009144011091E0
:1049300045012091460130914701AB01BC01401B6C
:10494000510B620B730B8091CC029091CD02B0E0C1
:10495000A0E084179507A607B70720F180913A03D6
:10496000882301F182E00E94ED00892B11F40E945E
:10497000B607609193017091940186EE94E00E94D5
:10498000B305609195017091960183EE94E00E94C9
:10499000B305609191017091920180EE94E00E94C4
:1049A000B305C1CF84E893E00E949C016AE070E007
:1049B00080E090E00E94A60389E00E94E5030E9447
:1049C000D903609340017093410180934201909319
:1049D00043010E94D90300914001109141012091AF
:1049E000420130914301AB01BC01401B510B620BF2
:1049F000730B8091CA029091CB02B0E0A0E08417C3
:104A00009507A607B70720F180913A03882301F1A3
:104A100082E00E94ED00892B11F40E94B60760919C
:104A20008D0170918E0186EE94E00E94B305609135
:104A30008F017091900183EE94E00E94B305609124
:104A40008B0170918C0180EE94E00E94B305C1CF80
:104A500084E893E00E949C016AE070E080E090E0CE
:104A60000E94A60389E00E94E5030E94D903609397
:104A70003C0170933D0180933E0190933F010E9461
:104A8000D90300913C0110913D0120913E013091EC
:104A90003F01AB01BC01401B510B620B730B8091BA
:104AA000C8029091C902B0E0A0E084179507A6075C
:104AB000B70720F180913A03882301F182E00E9438
:104AC000ED00892B11F40E94B60760918701709167
:104AD000880186EE94E00E94B3056091890170918F
:104AE0008A0183EE94E00E94B30560918501709184
:104AF000860180EE94E00E94B305C1CF84E893E084
:104B00000E949C016AE070E080E090E00E94A603B1
:104B100089E00E94E5030E94D903609354017093D9
:104B20005501809356019093570180916003811144
:104B300042C082E00E94ED000197C9F560914F03E9
:104B40007091500386EE94E00E94B30560914D038E
:104B500070914E0383EE94E00E94B30560914B0385
:104B600070914C0380EE94E00E94B3050E94D9033B
:104B700060935401709355018093560190935701AF
:104B80000E94D903609358017093590180935A0190
:104B900090935B0189E00E94E50360915B0384E1EF
:104BA00090E00E94F5061F910F910C94AB211F918C
:104BB0000F910C94B6071F910F9108951F920F92B9
:104BC0000FB60F9211242F933F938F939F93AF9320
:104BD000BF938091620390916303A0916403B091AD
:104BE00065033091610320E4230F2D3728F023EC77
:104BF000230F0196A11DB11D2093610380936203D1
:104C000090936303A0936403B0936503809166035C
:104C100090916703A0916803B09169030196A11D6B
:104C2000B11D8093660390936703A0936803B093CC
:104C30006903BF91AF919F918F913F912F910F90F9
:104C40000FBE0F901F9018951F920F920FB60F92E4
:104C500011242F933F934F935F936F937F938F9381
:104C60009F93AF93BF93EF93FF93809174039091C1
:104C70007503A0917603B0917703892B8A2B8B2B38
:104C8000D1F190916B03E0916C03F0916D03808101
:104C9000892780838091740390917503A091760396
:104CA000B0917703181619061A061B069CF480911A
:104CB000740390917503A0917603B09177030197E7
:104CC000A109B1098093740390937503A0937603AF
:104CD000B0937703FF91EF91BF91AF919F918F9127
:104CE0007F916F915F914F913F912F910F900FBEE8
:104CF0000F901F901895809109010E94E503EACF5B
:104D00001F920F920FB60F9211242F933F934F9340
:104D10005F936F937F938F939F93AF93BF93EF9323
:104D2000FF9380E893E00E941F05FF91EF91BF91F0
:104D3000AF919F918F917F916F915F914F913F9133
:104D40002F910F900FBE0F901F9018951F920F92EA
:104D50000FB60F9211242F938F939F93EF93FF938E
:104D6000E0919003F09191038081E0919603F0919E
:104D7000970382FD1AC09081809199038F5F2091E3
:104D80009A03821741F0E0919903F0E0E058FC4F5C
:104D9000958F80939903FF91EF919F918F912F9120
:104DA0000F900FBE0F901F9018958081F4CF1F9227
:104DB0000F920FB60F9211242F933F934F935F934F
:104DC0006F937F938F939F93AF93BF93CF93DF9313
:104DD000EF93FF938091D602C091D702D0E087FF76
:104DE00036C010928500109284008091D6028F5FA9
:104DF0008093D6028091D602082E000C990B8C1756
:104E00009D072CF48091D6028C300CF449C080911F
:104E100084009091850080E898E3909389008093C6
:104E200088008FEF8093D602FF91EF91DF91CF91B1
:104E3000BF91AF919F918F917F916F915F914F91B2
:104E40003F912F910F900FBE0F901F90189580915A
:104E5000D602082E000C990B8C179D0734F6E091B2
:104E6000D6028E2FEE0F990BFC01EE0FFF1FE80FFD
:104E7000F91FE852FD4F808186FFB7CFE091D6023F
:104E80008E2FEE0F990BFC01EE0FFF1FE80FF91F9D
:104E9000E852FD4F808160E08F730E941601A5CF1C
:104EA0002091840030918500E091D6028E2FEE0F84
:104EB000990BFC01EE0FFF1FE80FF91FE852FD4FA1
:104EC00081819281820F931F909389008093880043
:104ED000E091D6028E2FEE0F990BFC01EE0FFF1F13
:104EE000E80FF91FE852FD4F808186FF9DCFE091CA
:104EF000D6028E2FEE0F990BFC01EE0FFF1FE80F6D
:104F0000F91FE852FD4F808161E08F730E94160106
:104F10008BCFFC019091D7029C3098F481E0890FEF
:104F20008093D7029083892F90E0FC01EE0FFF1F42
:104F3000E80FF91FE852FD4F80E797E192838183E4
:104F400008958FEF80830895E0E8F3E013821282E2
:104F500088EE93E0A0E0B0E084839583A683B783D6
:104F60008CE191E09183808385EC90E09587848744
:104F700084EC90E09787868780EC90E0918B808B23
:104F800081EC90E0938B828B82EC90E0958B848B0C
:104F900086EC90E0978B868B118E128E138E148E7A
:104FA00090E896BF8CE486BF96BF86BF86EE94E0FD
:104FB0000E94892783EE94E00E94892780EE94E086
:104FC0000E9489278DED94E00C948927CF93DF937D
:104FD00000D000D0CDB7DEB78091F20080618EBBEB
:104FE00080E88093F2009EB39093F200809361007A
:104FF00091E0909361009091F2009F799EBB809325
:10500000F2009EB39093F2009091F2009B7F9EBBC2
:105010008093F2009EB39093F2008093610010920F
:105020006100789484B5826084BD84B5816084BD5C
:1050300085B5826085BD85B5816085BD80916E0036
:10504000816080936E001092810080918100826067
:1050500080938100809181008160809381008091A4
:1050600080008160809380008091B1008460809393
:10507000B1008091B00081608093B0008091910078
:105080008260809391008091910081608093910073
:105090008091900081608093900080917A0084607C
:1050A00080937A0080917A008D7F80937A0080913E
:1050B0007A008E7F80937A0080917A008068809356
:1050C0007A001092C10068EC70E080E090E00E94ED
:1050D000A60360913D0370913E0386EE94E00E942A
:1050E000B30560913F037091400383EE94E00E940A
:1050F000B30560913B0370913C0380EE94E00E9405
:10510000B30561E089E00E94440161E08BE00E9408
:10511000440161E08DE00E94440162E088E00E9469
:10512000440162E087E00E94440162E082E00E9464
:10513000440160E080E10E94440160E081E10E945E
:10514000440162E08EE00E94440162E08FE00E9430
:10515000440162E082E10E94440160E08BE00E9431
:105160001601E0919003F091910382E08083E09139
:105170008C03F0918D031082E0918E03F0918F03E8
:1051800082E2808310929803E0919403F09195035A
:1051900086E08083E0919203F091930380818061A7
:1051A0008083E0919203F0919303808188608083F3
:1051B000E0919203F0919303808180688083E09175
:1051C0009203F091930380818F7D808384E690E049
:1051D0000E943207893179F061E08DE00E9416016A
:1051E00082E70E948E058CE70E948E0585E391E0A0
:1051F0000E94A910EBCF82E10E94ED00019709F017
:105200007CC081E0809359030E940E0880915D0369
:1052100090915E034AE0489F9001499F300D112410
:10522000A4E6B0E00E94FA32609305017093060193
:10523000809307019093080111E088E00E94ED003F
:10524000892B09F0B6C00E94D9036093FF027093C6
:10525000000380930103909302031092FE021092C8
:10526000FD0261E08BE00E94160180ED97E00E9454
:105270009C0168EE73E080E090E00E94A60389E064
:105280000E94E50360E08BE00E94160188E00E9426
:10529000ED002091FD023091FE023A832983892B93
:1052A00009F057C0C090FF02D0900003E0900103C6
:1052B000F09002038091FC02882311F10E94D9032F
:1052C0006C197D098E099F09683C7105810591055E
:1052D000E8F21092FC020E94D9036093FF027093DF
:1052E0000003809301039093020360E08BE00E942F
:1052F000160189E00E94E503C9CF1092590384CFBB
:105300000E94D9036C197D098E099F096C34744081
:105310008105910508F4BACF1093FC020E94D903CD
:105320006093FF0270930003809301039093020344
:1053300061E08BE00E9416018CEB92E00E949C01E0
:1053400049815A81445C5F4F5093FE024093FD02B5
:105350009DCF69817A8182E190E00E942207698174
:105360007A8186E790E00E94220768EE73E080E091
:1053700090E00E94A60361E08BE00E9416018CEB96
:1053800092E00E949C0168EE73E080E090E00E9451
:10539000A60389E00E94E50360E08BE00E9416010D
:1053A00068EC70E080E090E00E94A6030E9448064E
:1053B00044CF80910D0390910E036CE370E00E9446
:1053C000153370930C0360930B036F30710530F04D
:1053D0008FE090E090930C0380930B038CEB92E0B2
:1053E0000E949C0164E670E080E090E00E94A603C9
:1053F00089E00E94E50364E670E080E090E00E94AE
:10540000A6038CED95E00E949C0164E670E080E0CC
:1054100090E00E94A60389E00E94E50364EF71E03A
:1054200080E090E00E94A60381E10E947D039093BA
:105430000A03809309038F3A91403CF480E10E9473
:105440007D0390930A03809309036091090370918F
:105450000A03072E000C880B990B0E94B5312AE035
:1054600038E240EA5BE30E94F03120E030E048ECB3
:1054700052E40E94F0310E942F337093080360932E
:1054800007032091050330910603260F371F3A8347
:105490002983309304032093030349815A814535BE
:1054A0005140B0F588E00E94ED00019789F580E851
:1054B00093E00E940405892B59F580E293E00E9455
:1054C0009C0164E670E080E090E00E94A60389E021
:1054D0000E94E50364E670E080E090E00E94A6038D
:1054E00080E293E00E949C0164E670E080E090E03E
:1054F0000E94A60389E00E94E50364EF71E080E06A
:1055000090E00E94A60329813A81293C310528F6C2
:1055100063E070E086EE94E00E94EC0564E070E0E9
:1055200083EE94E00E94EC0565E070E080EE94E08C
:105530000E94EC0566E070E08DED94E00E94EC05C1
:1055400060913D0370913E0386EE94E00E94B305A6
:1055500060913F037091400383EE94E00E94B30595
:1055600060913B0370913C0380EE94E00E94B30590
:1055700060910F03709110038DED94E00E94B305CC
:105580001A82198280910B0390910C0349815A81F0
:1055900048175907CCF48CED95E00E949C016CE211
:1055A00071E080E090E00E94A60389E00E94E5039C
:1055B0006CE271E080E090E00E94A60389819A810C
:1055C00001969A838983DECF10925C030E94D903EF
:1055D0006093150370931603809317039093180339
:1055E00088E00E94ED00019779F50E94D90360934D
:1055F00043037093440380934503909346030E94B2
:10560000B7100E94D9030091150310911603209141
:10561000170330911803601B710B820B930B603CD6
:1056200077428940910528F031E0309304010E94CF
:10563000340782E00E94ED00892B91F641E040930F
:1056400004010E94B607CCCF0E94D90360934703A0
:10565000709348038093490390934A030E94D903AF
:1056600060934303709344038093450390934603F0
:105670001092600351E050935F0388E00E94ED00B8
:105680008C0187E00E94ED009A83898382E10E9469
:10569000ED007C018090050190900601A09007012B
:1056A000B090080188EB881A8BE0980AA108B1082D
:1056B00080915D0390915E034AE0489F9001499F6D
:1056C000300D1124A4E6B0E00E94FA326093050187
:1056D00070930601809307019093080110925C0378
:1056E0008EE00E94ED00892B71F480915B03815064
:1056F000843B10F480935B0364E670E080E090E00C
:105700000E94A603EDCF8FE00E94ED00892BB1F43B
:1057100080915B039FEF980F943B28F48F5F853B4C
:1057200049F080935B0364E670E080E090E00E94C3
:10573000A603E9CF54EB50935B03F5CF10925A03C5
:1057400082E70E948E058AE291E00E941B1080E8A9
:1057500093E00E9404051816190684F46AE070E0CC
:1057600080E090E00E94A60380E893E00E94550448
:1057700080935A03823711F40E94DA2080915903F2
:105780008E151F0411F00E940E0882E00E94ED00A9
:10579000892B11F410925F0380915F03811105C082
:1057A00081E0809304010E94B60780915703909195
:1057B00058038130910509F0D5C101301105F1F58B
:1057C00029813A81232B09F039C1609155037091E9
:1057D000560383EE94E00E94B305609153037091E9
:1057E000540386EE94E00E94B305609151037091DA
:1057F000520380EE94E00E94B3050E94D903C0904A
:105800004703D0904803E0904903F0904A036C1995
:105810007D098E099F09643671058105910570F037
:105820000E94D9036093430370934403809345031C
:105830009093460360E089E00E94160149815A81F5
:10584000452B51F40E94D9036093430370934403A2
:10585000809345039093460380915F03811102C0BA
:105860000E94B6070115110509F0A2C00E94D903D4
:1058700060934703709348038093490390934A03CE
:1058800060E08BE00E9416010E94D903C0904303A0
:10589000D0904403E0904503F090460320904103EC
:1058A000309042032101712C612C6C197D098E0905
:1058B0009F094616570668067906C0F060913F03B7
:1058C0007091400383EE94E00E94B30560913D0324
:1058D00070913E0386EE94E00E94B30560913B0315
:1058E00070913C0380EE94E00E94B3050E94D903BE
:1058F0006C197D098E099F09641575058605970544
:1059000008F456C089819A81019709F051C091E04D
:1059100090933A030E94D903AB01BC014C195D0975
:105920006E097F098091380390913903B0E0A0E0BF
:1059300084179507A607B70708F4F8C061E089E067
:105940000E9416010E94D90320913603309137033B
:10595000220E331E2101712C612CAB01BC014C19AC
:105960005D096E097F09441655066606770608F438
:105970007AC0609134037091350386EE94E00E9402
:10598000B305609132037091330383EE94E00E947B
:10599000B305609130037091310380EE94E00E9472
:1059A000B30582E00E94ED00892B11F40E94B60736
:1059B0000E94D903C0904703D0904803E090490368
:1059C000F0904A036C197D098E099F0968157905C5
:1059D0008A059B0508F4C3C084E893E00E949C01FB
:1059E0000E94D9036C197D098E099F09C090050199
:1059F000D0900601E0900701F09008016C157D053C
:105A00008E059F0528F089E00E94E5030E94B607F5
:105A100080913A03882329F00130110511F40E9486
:105A2000132340E050E0452B09F422CE0E940B05E1
:105A3000882309F41DCE0E9400001ACE60914F0306
:105A40007091500386EE94E00E94B30560914D037F
:105A500070914E0383EE94E00E94B30560914B0376
:105A600070914C03C6CE0E94D90320912E03309131
:105A70002F03220E331E910150E040E029833A8328
:105A80004B835C83AB01BC014C195D096E097F0936
:105A9000441555056605770528F50E94D9036C194C
:105AA0007D098E099F0929813A814B815C816217AA
:105AB00073078407950708F474CF609126037091EB
:105AC000270383EE94E00E94B30560912403709154
:105AD000250386EE94E00E94B30560912203709145
